{
  "contractName": "DataExchange",
  "abi": [
    {
      "constant": true,
      "inputs": [
        {
          "name": "",
          "type": "uint256"
        }
      ],
      "name": "dataOrders",
      "outputs": [
        {
          "name": "buyer",
          "type": "address"
        },
        {
          "name": "audience",
          "type": "string"
        },
        {
          "name": "price",
          "type": "uint256"
        },
        {
          "name": "requestedData",
          "type": "string"
        },
        {
          "name": "termsAndConditionsHash",
          "type": "bytes32"
        },
        {
          "name": "buyerUrl",
          "type": "string"
        },
        {
          "name": "createdAt",
          "type": "uint32"
        },
        {
          "name": "closedAt",
          "type": "uint32"
        }
      ],
      "payable": false,
      "stateMutability": "view",
      "type": "function"
    },
    {
      "constant": true,
      "inputs": [
        {
          "name": "",
          "type": "address"
        }
      ],
      "name": "notaryUrls",
      "outputs": [
        {
          "name": "",
          "type": "string"
        }
      ],
      "payable": false,
      "stateMutability": "view",
      "type": "function"
    },
    {
      "anonymous": false,
      "inputs": [
        {
          "indexed": true,
          "name": "notary",
          "type": "address"
        }
      ],
      "name": "NotaryRegistered",
      "type": "event"
    },
    {
      "anonymous": false,
      "inputs": [
        {
          "indexed": true,
          "name": "notary",
          "type": "address"
        }
      ],
      "name": "NotaryUpdated",
      "type": "event"
    },
    {
      "anonymous": false,
      "inputs": [
        {
          "indexed": true,
          "name": "notary",
          "type": "address"
        }
      ],
      "name": "NotaryUnregistered",
      "type": "event"
    },
    {
      "anonymous": false,
      "inputs": [
        {
          "indexed": true,
          "name": "orderId",
          "type": "uint256"
        },
        {
          "indexed": true,
          "name": "owner",
          "type": "address"
        }
      ],
      "name": "DataOrderCreated",
      "type": "event"
    },
    {
      "anonymous": false,
      "inputs": [
        {
          "indexed": true,
          "name": "orderId",
          "type": "uint256"
        },
        {
          "indexed": true,
          "name": "owner",
          "type": "address"
        }
      ],
      "name": "DataOrderClosed",
      "type": "event"
    },
    {
      "constant": false,
      "inputs": [
        {
          "name": "publicUrl",
          "type": "string"
        }
      ],
      "name": "registerNotary",
      "outputs": [
        {
          "name": "",
          "type": "bool"
        }
      ],
      "payable": false,
      "stateMutability": "nonpayable",
      "type": "function"
    },
    {
      "constant": false,
      "inputs": [],
      "name": "unregisterNotary",
      "outputs": [
        {
          "name": "",
          "type": "bool"
        }
      ],
      "payable": false,
      "stateMutability": "nonpayable",
      "type": "function"
    },
    {
      "constant": false,
      "inputs": [
        {
          "name": "audience",
          "type": "string"
        },
        {
          "name": "price",
          "type": "uint256"
        },
        {
          "name": "requestedData",
          "type": "string"
        },
        {
          "name": "termsAndConditionsHash",
          "type": "bytes32"
        },
        {
          "name": "buyerUrl",
          "type": "string"
        }
      ],
      "name": "createDataOrder",
      "outputs": [
        {
          "name": "orderId",
          "type": "uint256"
        }
      ],
      "payable": false,
      "stateMutability": "nonpayable",
      "type": "function"
    },
    {
      "constant": false,
      "inputs": [
        {
          "name": "orderId",
          "type": "uint256"
        }
      ],
      "name": "closeDataOrder",
      "outputs": [
        {
          "name": "",
          "type": "bool"
        }
      ],
      "payable": false,
      "stateMutability": "nonpayable",
      "type": "function"
    }
  ],
  "bytecode": "0x608060405234801561001057600080fd5b50611112806100206000396000f3006080604052600436106100775763ffffffff7c01000000000000000000000000000000000000000000000000000000006000350416630b59ebd5811461007c5780632587d110146100a857806354a959801461023c5780635ca849ef14610251578063a7568d3414610344578063ff0d34cf146103da575b600080fd5b34801561008857600080fd5b50610094600435610433565b604080519115158252519081900360200190f35b3480156100b457600080fd5b506100c0600435610805565b60408051600160a060020a038a1681529081018790526080810185905263ffffffff80841660c0830152821660e082015261010060208083018281528a51928401929092528951606084019160a08501916101208601918d019080838360005b83811015610138578181015183820152602001610120565b50505050905090810190601f1680156101655780820380516001836020036101000a031916815260200191505b5084810383528951815289516020918201918b019080838360005b83811015610198578181015183820152602001610180565b50505050905090810190601f1680156101c55780820380516001836020036101000a031916815260200191505b50848103825287518152875160209182019189019080838360005b838110156101f85781810151838201526020016101e0565b50505050905090810190601f1680156102255780820380516001836020036101000a031916815260200191505b509b50505050505050505050505060405180910390f35b34801561024857600080fd5b50610094610a11565b34801561025d57600080fd5b506040805160206004803580820135601f810184900484028501840190955284845261033294369492936024939284019190819084018382808284375050604080516020601f818a01358b0180359182018390048302840183018552818452989b8a359b909a90999401975091955091820193509150819084018382808284375050604080516020601f818a01358b0180359182018390048302840183018552818452989b8a359b909a909994019750919550918201935091508190840183828082843750949750610acc9650505050505050565b60408051918252519081900360200190f35b34801561035057600080fd5b50610365600160a060020a0360043516610cb2565b6040805160208082528351818301528351919283929083019185019080838360005b8381101561039f578181015183820152602001610387565b50505050905090810190601f1680156103cc5780820380516001836020036101000a031916815260200191505b509250505060405180910390f35b3480156103e657600080fd5b506040805160206004803580820135601f8101849004840285018401909552848452610094943694929360249392840191908190840183828082843750949750610d4c9650505050505050565b600061043d610ef4565b6000548310610496576040805160e560020a62461bcd02815260206004820152601360248201527f696e76616c6964206f7264657220696e64657800000000000000000000000000604482015290519081900360640190fd5b60008054849081106104a457fe5b60009182526020918290206040805161010080820183526007949094029092018054600160a060020a03168352600180820180548451600293821615909702600019011691909104601f810187900487028601870190935282855292949093858201939092909183018282801561055c5780601f106105315761010080835404028352916020019161055c565b820191906000526020600020905b81548152906001019060200180831161053f57829003601f168201915b505050918352505060028281015460208084019190915260038401805460408051601f600019610100600186161502019093169590950491820184900484028501840181528185529094019390918301828280156105fb5780601f106105d0576101008083540402835291602001916105fb565b820191906000526020600020905b8154815290600101906020018083116105de57829003601f168201915b5050509183525050600482015460208083019190915260058301805460408051601f600261010060018616150260001901909416939093049283018590048502810185018252828152940193928301828280156106995780601f1061066e57610100808354040283529160200191610699565b820191906000526020600020905b81548152906001019060200180831161067c57829003601f168201915b50505091835250506006919091015463ffffffff8082166020840152640100000000909104166040909101528051909150600160a060020a03163314610729576040805160e560020a62461bcd02815260206004820152601c60248201527f73656e6465722063616e277420636c6f736520746865206f7264657200000000604482015290519081900360640190fd5b60e081015163ffffffff1615610789576040805160e560020a62461bcd02815260206004820152601460248201527f6f7264657220616c726561647920636c6f736564000000000000000000000000604482015290519081900360640190fd5b4260008481548110151561079957fe5b600091825260208220600660079092020101805463ffffffff939093166401000000000267ffffffff000000001990931692909217909155604051339185917f2a0373e2121813fd2621a2f2f56a80ebe2b7640382489cc0e3dbe8f6d5191ec69190a350600192915050565b600080548290811061081357fe5b600091825260209182902060079091020180546001808301805460408051601f6002600019968516156101000296909601909316949094049182018790048702840187019052808352600160a060020a0390931695509293909291908301828280156108c05780601f10610895576101008083540402835291602001916108c0565b820191906000526020600020905b8154815290600101906020018083116108a357829003601f168201915b505050506002838101546003850180546040805160206001841615610100026000190190931695909504601f8101839004830286018301909152808552959692959294509091908301828280156109585780601f1061092d57610100808354040283529160200191610958565b820191906000526020600020905b81548152906001019060200180831161093b57829003601f168201915b50505050600483015460058401805460408051602060026001851615610100026000190190941693909304601f810184900484028201840190925281815295969395939450908301828280156109ef5780601f106109c4576101008083540402835291602001916109ef565b820191906000526020600020905b8154815290600101906020018083116109d257829003601f168201915b5050506006909301549192505063ffffffff8082169164010000000090041688565b6000610a1b610e47565b1515610a71576040805160e560020a62461bcd02815260206004820152601960248201527f73656e646572206d757374206265207265676973746572656400000000000000604482015290519081900360640190fd5b604080516020818101808452600080845233815260019092529290209051610a999290610f52565b5060405133907fd2df117cdff329511dba7edac459dd05c2b14dc4c88ea1faf058c15de773b43390600090a25060015b90565b6000610ad782610eed565b1515610b2d576040805160e560020a62461bcd02815260206004820152601a60248201527f627579657255726c206d757374206e6f7420626520656d707479000000000000604482015290519081900360640190fd5b5060008054906001820190610b429082610fd0565b50604080516101008101825233815260208101889052908101869052606081018590526080810184905260a0810183905263ffffffff421660c0820152600060e08201819052805483908110610b9457fe5b6000918252602091829020835160079290920201805473ffffffffffffffffffffffffffffffffffffffff1916600160a060020a039092169190911781558282015180519192610bec92600185019290910190610f52565b506040820151600282015560608201518051610c12916003840191602090910190610f52565b506080820151600482015560a08201518051610c38916005840191602090910190610f52565b5060c08201516006909101805460e09093015163ffffffff9081166401000000000267ffffffff00000000199190931663ffffffff199094169390931792909216179055604051339082907f4da70a6c86467b0d5d574c4b27418883408d1b0f13cc7d81aed73206b8339b3b90600090a395945050505050565b60016020818152600092835260409283902080548451600294821615610100026000190190911693909304601f8101839004830284018301909452838352919290830182828015610d445780601f10610d1957610100808354040283529160200191610d44565b820191906000526020600020905b815481529060010190602001808311610d2757829003601f168201915b505050505081565b600080610d5883610eed565b1515610dae576040805160e560020a62461bcd02815260206004820152601b60248201527f7075626c696355726c206d757374206e6f7420626520656d7074790000000000604482015290519081900360640190fd5b610db6610e47565b3360009081526001602090815260409091208551929350610ddb929091860190610f52565b508015610e125760405133907f9db0a73cad02bbf95f84090f7c99969d3a1cf17d5da896752289967f9f80a58490600090a2610e3e565b60405133907f1e59e06fbc9b065c65d072c1f7a2ed1d81154e6e57768747c6c082207dca730890600090a25b50600192915050565b33600090815260016020818152604080842080548251600295821615610100026000190190911694909404601f8101849004840285018401909252818452610ee89392909190830182828015610ede5780601f10610eb357610100808354040283529160200191610ede565b820191906000526020600020905b815481529060010190602001808311610ec157829003601f168201915b5050505050610eed565b905090565b5160001090565b610100604051908101604052806000600160a060020a031681526020016060815260200160008152602001606081526020016000801916815260200160608152602001600063ffffffff168152602001600063ffffffff1681525090565b828054600181600116156101000203166002900490600052602060002090601f016020900481019282601f10610f9357805160ff1916838001178555610fc0565b82800160010185558215610fc0579182015b82811115610fc0578251825591602001919060010190610fa5565b50610fcc929150611001565b5090565b815481835581811115610ffc57600702816007028360005260206000209182019101610ffc919061101b565b505050565b610ac991905b80821115610fcc5760008155600101611007565b610ac991905b80821115610fcc57805473ffffffffffffffffffffffffffffffffffffffff191681556000611053600183018261109f565b600282016000905560038201600061106b919061109f565b6004820160009055600582016000611083919061109f565b5060068101805467ffffffffffffffff19169055600701611021565b50805460018160011615610100020316600290046000825580601f106110c557506110e3565b601f0160209004906000526020600020908101906110e39190611001565b505600a165627a7a7230582008a1edf7d210eefd8d0ce1ec10b1244fb7af138496c3d3bf15f54f3a1a6fc52f0029",
  "source": "pragma solidity ^0.4.24;\n\n\ncontract DataExchange {\n  event NotaryRegistered(address indexed notary);\n  event NotaryUpdated(address indexed notary);\n  event NotaryUnregistered(address indexed notary);\n  event DataOrderCreated(uint256 indexed orderId, address indexed owner);\n  event DataOrderClosed(uint256 indexed orderId, address indexed owner);\n\n  struct DataOrder {\n    address buyer;\n    string audience;\n    uint256 price;\n    string requestedData;\n    bytes32 termsAndConditionsHash;\n    string buyerUrl;\n    uint32 createdAt;\n    uint32 closedAt;\n  }\n\n  DataOrder[] public dataOrders;\n  mapping(address => string) public notaryUrls;\n\n  /**\n   * @notice Registers sender as a notary or updates an already existing one.\n   * @param publicUrl Public URL of the notary where the notary info can be obtained.\n   * @return true if the notary was successfully registered or updated, reverts otherwise.\n   */\n  function registerNotary(\n    string publicUrl\n  ) public returns (bool) {\n    require(isNotEmpty(publicUrl), \"publicUrl must not be empty\");\n    bool isUpdate = isSenderNotary();\n    notaryUrls[msg.sender] = publicUrl;\n    if (isUpdate) {\n      emit NotaryUpdated(msg.sender);\n    } else {\n      emit NotaryRegistered(msg.sender);\n    }\n    return true;\n  }\n\n  /**\n   * @notice Unregisters sender as notary.\n   * @return true if the notary was successfully unregistered, reverts otherwise.\n   */\n  function unregisterNotary(\n  ) public returns (bool) {\n    require(isSenderNotary(), \"sender must be registered\");\n    notaryUrls[msg.sender] = \"\";\n    emit NotaryUnregistered(msg.sender);\n    return true;\n  }\n\n  /**\n   * @notice Creates a DataOrder.\n   * @dev The `msg.sender` will become the buyer of the order.\n   * @param audience Target audience of the order.\n   * @param price Price that sellers will receive in exchange of their data.\n   * @param requestedData Requested data type (Geolocation, Facebook, etc).\n   * @param termsAndConditionsHash Hash of the Buyer's terms and conditions for the order.\n   * @param buyerUrl Public URL of the buyer where more information about the DataOrder\n   *                 can be obtained.\n   * @return The index of the newly created DataOrder. If the DataOrder could\n   *         not be created, reverts.\n   */\n  function createDataOrder(\n    string audience,\n    uint256 price,\n    string requestedData,\n    bytes32 termsAndConditionsHash,\n    string buyerUrl\n  ) public returns (uint256 orderId) {\n    require(isNotEmpty(buyerUrl), \"buyerUrl must not be empty\");\n\n    orderId = dataOrders.length;\n    dataOrders.length += 1;\n    dataOrders[orderId] = DataOrder(\n      msg.sender,\n      audience,\n      price,\n      requestedData,\n      termsAndConditionsHash,\n      buyerUrl,\n      uint32(now),\n      uint32(0)\n    );\n\n    emit DataOrderCreated(orderId, msg.sender);\n    return orderId;\n  }\n\n  /**\n   * @notice Closes the DataOrder.\n   * @dev The `msg.sender` must be the buyer of the order.\n   * @param orderId Index of the order to close.\n   * @return true if the DataOrder was successfully closed, reverts otherwise.\n   */\n  function closeDataOrder(\n    uint256 orderId\n  ) public returns (bool) {\n    require(orderId < dataOrders.length, \"invalid order index\");\n    DataOrder memory dataOrder = dataOrders[orderId];\n    require(dataOrder.buyer == msg.sender, \"sender can't close the order\");\n    require(dataOrder.closedAt == 0, \"order already closed\");\n    dataOrders[orderId].closedAt = uint32(now);\n\n    emit DataOrderClosed(orderId, msg.sender);\n    return true;\n  }\n\n  function isSenderNotary() private view returns (bool) {\n    return isNotEmpty(notaryUrls[msg.sender]);\n  }\n\n  function isNotEmpty(string s) private pure returns (bool) {\n    return bytes(s).length > 0;\n  }\n\n}\n",
  "sourcePath": "/Users/nicolas/dev/wibson-core/contracts/DataExchange.sol",
  "compiler": {
    "name": "solc",
    "version": "0.4.24+commit.e67f0147.Emscripten.clang"
  },
  "schemaVersion": "2.0.0",
  "updatedAt": "2019-01-18T20:47:49.021Z"
}