{
  "contractName": "DataExchange",
  "abi": [
    {
      "constant": true,
      "inputs": [
        {
          "name": "",
          "type": "address"
        },
        {
          "name": "",
          "type": "address"
        },
        {
          "name": "",
          "type": "address"
        }
      ],
      "name": "buyerBalance",
      "outputs": [
        {
          "name": "",
          "type": "uint256"
        }
      ],
      "payable": false,
      "stateMutability": "view",
      "type": "function"
    },
    {
      "constant": true,
      "inputs": [
        {
          "name": "",
          "type": "address"
        },
        {
          "name": "",
          "type": "uint256"
        }
      ],
      "name": "ordersByBuyer",
      "outputs": [
        {
          "name": "",
          "type": "address"
        }
      ],
      "payable": false,
      "stateMutability": "view",
      "type": "function"
    },
    {
      "constant": true,
      "inputs": [
        {
          "name": "",
          "type": "address"
        },
        {
          "name": "",
          "type": "address"
        }
      ],
      "name": "buyerRemainingBudgetForAudits",
      "outputs": [
        {
          "name": "",
          "type": "uint256"
        }
      ],
      "payable": false,
      "stateMutability": "view",
      "type": "function"
    },
    {
      "constant": false,
      "inputs": [],
      "name": "unpause",
      "outputs": [],
      "payable": false,
      "stateMutability": "nonpayable",
      "type": "function"
    },
    {
      "constant": true,
      "inputs": [],
      "name": "paused",
      "outputs": [
        {
          "name": "",
          "type": "bool"
        }
      ],
      "payable": false,
      "stateMutability": "view",
      "type": "function"
    },
    {
      "constant": false,
      "inputs": [],
      "name": "renounceOwnership",
      "outputs": [],
      "payable": false,
      "stateMutability": "nonpayable",
      "type": "function"
    },
    {
      "constant": false,
      "inputs": [],
      "name": "pause",
      "outputs": [],
      "payable": false,
      "stateMutability": "nonpayable",
      "type": "function"
    },
    {
      "constant": true,
      "inputs": [],
      "name": "owner",
      "outputs": [
        {
          "name": "",
          "type": "address"
        }
      ],
      "payable": false,
      "stateMutability": "view",
      "type": "function"
    },
    {
      "constant": true,
      "inputs": [
        {
          "name": "",
          "type": "address"
        },
        {
          "name": "",
          "type": "uint256"
        }
      ],
      "name": "ordersByNotary",
      "outputs": [
        {
          "name": "",
          "type": "address"
        }
      ],
      "payable": false,
      "stateMutability": "view",
      "type": "function"
    },
    {
      "constant": false,
      "inputs": [
        {
          "name": "tokens",
          "type": "address[]"
        }
      ],
      "name": "destroy",
      "outputs": [],
      "payable": false,
      "stateMutability": "nonpayable",
      "type": "function"
    },
    {
      "constant": true,
      "inputs": [
        {
          "name": "",
          "type": "address"
        },
        {
          "name": "",
          "type": "uint256"
        }
      ],
      "name": "ordersBySeller",
      "outputs": [
        {
          "name": "",
          "type": "address"
        }
      ],
      "payable": false,
      "stateMutability": "view",
      "type": "function"
    },
    {
      "constant": true,
      "inputs": [],
      "name": "minimumInitialBudgetForAudits",
      "outputs": [
        {
          "name": "",
          "type": "uint256"
        }
      ],
      "payable": false,
      "stateMutability": "view",
      "type": "function"
    },
    {
      "constant": false,
      "inputs": [
        {
          "name": "_newOwner",
          "type": "address"
        }
      ],
      "name": "transferOwnership",
      "outputs": [],
      "payable": false,
      "stateMutability": "nonpayable",
      "type": "function"
    },
    {
      "inputs": [
        {
          "name": "tokenAddress",
          "type": "address"
        },
        {
          "name": "ownerAddress",
          "type": "address"
        }
      ],
      "payable": false,
      "stateMutability": "nonpayable",
      "type": "constructor"
    },
    {
      "anonymous": false,
      "inputs": [
        {
          "indexed": true,
          "name": "notary",
          "type": "address"
        }
      ],
      "name": "NotaryRegistered",
      "type": "event"
    },
    {
      "anonymous": false,
      "inputs": [
        {
          "indexed": true,
          "name": "notary",
          "type": "address"
        }
      ],
      "name": "NotaryUpdated",
      "type": "event"
    },
    {
      "anonymous": false,
      "inputs": [
        {
          "indexed": true,
          "name": "notary",
          "type": "address"
        }
      ],
      "name": "NotaryUnregistered",
      "type": "event"
    },
    {
      "anonymous": false,
      "inputs": [
        {
          "indexed": true,
          "name": "orderAddr",
          "type": "address"
        }
      ],
      "name": "NewOrder",
      "type": "event"
    },
    {
      "anonymous": false,
      "inputs": [
        {
          "indexed": true,
          "name": "orderAddr",
          "type": "address"
        },
        {
          "indexed": true,
          "name": "notary",
          "type": "address"
        }
      ],
      "name": "NotaryAddedToOrder",
      "type": "event"
    },
    {
      "anonymous": false,
      "inputs": [
        {
          "indexed": true,
          "name": "orderAddr",
          "type": "address"
        },
        {
          "indexed": true,
          "name": "seller",
          "type": "address"
        }
      ],
      "name": "DataAdded",
      "type": "event"
    },
    {
      "anonymous": false,
      "inputs": [
        {
          "indexed": true,
          "name": "orderAddr",
          "type": "address"
        },
        {
          "indexed": true,
          "name": "seller",
          "type": "address"
        }
      ],
      "name": "TransactionCompleted",
      "type": "event"
    },
    {
      "anonymous": false,
      "inputs": [
        {
          "indexed": true,
          "name": "orderAddr",
          "type": "address"
        },
        {
          "indexed": true,
          "name": "buyer",
          "type": "address"
        }
      ],
      "name": "RefundedToBuyer",
      "type": "event"
    },
    {
      "anonymous": false,
      "inputs": [
        {
          "indexed": true,
          "name": "orderAddr",
          "type": "address"
        }
      ],
      "name": "OrderClosed",
      "type": "event"
    },
    {
      "anonymous": false,
      "inputs": [],
      "name": "Pause",
      "type": "event"
    },
    {
      "anonymous": false,
      "inputs": [],
      "name": "Unpause",
      "type": "event"
    },
    {
      "anonymous": false,
      "inputs": [
        {
          "indexed": true,
          "name": "previousOwner",
          "type": "address"
        }
      ],
      "name": "OwnershipRenounced",
      "type": "event"
    },
    {
      "anonymous": false,
      "inputs": [
        {
          "indexed": true,
          "name": "previousOwner",
          "type": "address"
        },
        {
          "indexed": true,
          "name": "newOwner",
          "type": "address"
        }
      ],
      "name": "OwnershipTransferred",
      "type": "event"
    },
    {
      "constant": false,
      "inputs": [
        {
          "name": "notary",
          "type": "address"
        },
        {
          "name": "name",
          "type": "string"
        },
        {
          "name": "notaryUrl",
          "type": "string"
        },
        {
          "name": "publicKey",
          "type": "string"
        }
      ],
      "name": "registerNotary",
      "outputs": [
        {
          "name": "",
          "type": "bool"
        }
      ],
      "payable": false,
      "stateMutability": "nonpayable",
      "type": "function"
    },
    {
      "constant": false,
      "inputs": [
        {
          "name": "notary",
          "type": "address"
        }
      ],
      "name": "unregisterNotary",
      "outputs": [
        {
          "name": "",
          "type": "bool"
        }
      ],
      "payable": false,
      "stateMutability": "nonpayable",
      "type": "function"
    },
    {
      "constant": false,
      "inputs": [
        {
          "name": "_minimumInitialBudgetForAudits",
          "type": "uint256"
        }
      ],
      "name": "setMinimumInitialBudgetForAudits",
      "outputs": [
        {
          "name": "",
          "type": "bool"
        }
      ],
      "payable": false,
      "stateMutability": "nonpayable",
      "type": "function"
    },
    {
      "constant": false,
      "inputs": [
        {
          "name": "filters",
          "type": "string"
        },
        {
          "name": "dataRequest",
          "type": "string"
        },
        {
          "name": "price",
          "type": "uint256"
        },
        {
          "name": "initialBudgetForAudits",
          "type": "uint256"
        },
        {
          "name": "termsAndConditions",
          "type": "string"
        },
        {
          "name": "buyerURL",
          "type": "string"
        },
        {
          "name": "publicKey",
          "type": "string"
        }
      ],
      "name": "newOrder",
      "outputs": [
        {
          "name": "",
          "type": "address"
        }
      ],
      "payable": false,
      "stateMutability": "nonpayable",
      "type": "function"
    },
    {
      "constant": false,
      "inputs": [
        {
          "name": "orderAddr",
          "type": "address"
        },
        {
          "name": "notary",
          "type": "address"
        },
        {
          "name": "responsesPercentage",
          "type": "uint256"
        },
        {
          "name": "notarizationFee",
          "type": "uint256"
        },
        {
          "name": "notarizationTermsOfService",
          "type": "string"
        },
        {
          "name": "notarySignature",
          "type": "bytes"
        }
      ],
      "name": "addNotaryToOrder",
      "outputs": [
        {
          "name": "",
          "type": "bool"
        }
      ],
      "payable": false,
      "stateMutability": "nonpayable",
      "type": "function"
    },
    {
      "constant": false,
      "inputs": [
        {
          "name": "orderAddr",
          "type": "address"
        },
        {
          "name": "seller",
          "type": "address"
        },
        {
          "name": "notary",
          "type": "address"
        },
        {
          "name": "dataHash",
          "type": "string"
        },
        {
          "name": "signature",
          "type": "bytes"
        }
      ],
      "name": "addDataResponseToOrder",
      "outputs": [
        {
          "name": "",
          "type": "bool"
        }
      ],
      "payable": false,
      "stateMutability": "nonpayable",
      "type": "function"
    },
    {
      "constant": false,
      "inputs": [
        {
          "name": "orderAddr",
          "type": "address"
        },
        {
          "name": "seller",
          "type": "address"
        },
        {
          "name": "wasAudited",
          "type": "bool"
        },
        {
          "name": "isDataValid",
          "type": "bool"
        },
        {
          "name": "notarySignature",
          "type": "bytes"
        }
      ],
      "name": "closeDataResponse",
      "outputs": [
        {
          "name": "",
          "type": "bool"
        }
      ],
      "payable": false,
      "stateMutability": "nonpayable",
      "type": "function"
    },
    {
      "constant": false,
      "inputs": [
        {
          "name": "orderAddr",
          "type": "address"
        }
      ],
      "name": "closeOrder",
      "outputs": [
        {
          "name": "",
          "type": "bool"
        }
      ],
      "payable": false,
      "stateMutability": "nonpayable",
      "type": "function"
    },
    {
      "constant": true,
      "inputs": [
        {
          "name": "notary",
          "type": "address"
        }
      ],
      "name": "getOrdersForNotary",
      "outputs": [
        {
          "name": "",
          "type": "address[]"
        }
      ],
      "payable": false,
      "stateMutability": "view",
      "type": "function"
    },
    {
      "constant": true,
      "inputs": [
        {
          "name": "seller",
          "type": "address"
        }
      ],
      "name": "getOrdersForSeller",
      "outputs": [
        {
          "name": "",
          "type": "address[]"
        }
      ],
      "payable": false,
      "stateMutability": "view",
      "type": "function"
    },
    {
      "constant": true,
      "inputs": [
        {
          "name": "buyer",
          "type": "address"
        }
      ],
      "name": "getOrdersForBuyer",
      "outputs": [
        {
          "name": "",
          "type": "address[]"
        }
      ],
      "payable": false,
      "stateMutability": "view",
      "type": "function"
    },
    {
      "constant": true,
      "inputs": [],
      "name": "getOpenOrders",
      "outputs": [
        {
          "name": "",
          "type": "address[]"
        }
      ],
      "payable": false,
      "stateMutability": "view",
      "type": "function"
    },
    {
      "constant": true,
      "inputs": [],
      "name": "getAllowedNotaries",
      "outputs": [
        {
          "name": "",
          "type": "address[]"
        }
      ],
      "payable": false,
      "stateMutability": "view",
      "type": "function"
    },
    {
      "constant": true,
      "inputs": [
        {
          "name": "notary",
          "type": "address"
        }
      ],
      "name": "getNotaryInfo",
      "outputs": [
        {
          "name": "",
          "type": "address"
        },
        {
          "name": "",
          "type": "string"
        },
        {
          "name": "",
          "type": "string"
        },
        {
          "name": "",
          "type": "string"
        },
        {
          "name": "",
          "type": "bool"
        }
      ],
      "payable": false,
      "stateMutability": "view",
      "type": "function"
    }
  ],
  "bytecode": "0x60806040526000805460a060020a60ff02191690553480156200002157600080fd5b506040516040806200587a83398101604052805160209091015160008054600160a060020a0319163317905581600160a060020a03811615156200006457600080fd5b600160a060020a0381163014156200007b57600080fd5b81600160a060020a03811615156200009257600080fd5b600160a060020a038116301415620000a957600080fd5b600160a060020a038481169084161415620000c357600080fd5b600c8054600160a060020a031916600160a060020a0386161790556000600d55620000f78364010000000062000101810204565b50505050620001a1565b600054600160a060020a031633146200011957600080fd5b6200012d8164010000000062000130810204565b50565b600160a060020a03811615156200014657600080fd5b60008054604051600160a060020a03808516939216917f8be0079c531659141344cd1fd0a4f28419497f9722a3daafe3b4186f6b6457e091a360008054600160a060020a031916600160a060020a0392909216919091179055565b6156c980620001b16000396000f300608060405260043610620001615763ffffffff60e060020a6000350416630636d7ac8114620001665780630aa4b3be14620001dc578063319fa887146200021e578063373dfb1414620002615780633cedd004146200028b5780633f4ba83a14620002ba57806343ca78a214620002d457806352748cfe14620004695780635ac31e68146200051c5780635c975abb146200054057806360909c511462000558578063715018a614620005d65780638456cb5914620005ee5780638da5cb5b146200060657806390e72127146200061e5780639e2d04781462000642578063ac70066514620006fa578063b7915e39146200071e578063c106f2671462000736578063c6786e5a146200075d578063c83abb4014620007b5578063d9ec338a146200089b578063dbe5bab514620008c2578063e0ffe8e314620008da578063e411c71f1462000a3b578063f2fde38b1462000a53578063fdc990641462000a77575b600080fd5b3480156200017357600080fd5b506200018a600160a060020a036004351662000a9b565b60408051602080825283518183015283519192839290830191858101910280838360005b83811015620001c8578181015183820152602001620001ae565b505050509050019250505060405180910390f35b348015620001e957600080fd5b506200020c600160a060020a036004358116906024358116906044351662000b42565b60408051918252519081900360200190f35b3480156200022b57600080fd5b5062000245600160a060020a036004351660243562000b65565b60408051600160a060020a039092168252519081900360200190f35b3480156200026e57600080fd5b506200020c600160a060020a036004358116906024351662000b9d565b3480156200029857600080fd5b50620002a660043562000bba565b604080519115158252519081900360200190f35b348015620002c757600080fd5b50620002d262000bf4565b005b348015620002e157600080fd5b50620002f8600160a060020a036004351662000c6c565b6040518086600160a060020a0316600160a060020a0316815260200180602001806020018060200185151515158152602001848103845288818151815260200191508051906020019080838360005b838110156200036157818101518382015260200162000347565b50505050905090810190601f1680156200038f5780820380516001836020036101000a031916815260200191505b50848103835287518152875160209182019189019080838360005b83811015620003c4578181015183820152602001620003aa565b50505050905090810190601f168015620003f25780820380516001836020036101000a031916815260200191505b50848103825286518152865160209182019188019080838360005b83811015620004275781810151838201526020016200040d565b50505050905090810190601f168015620004555780820380516001836020036101000a031916815260200191505b509850505050505050505060405180910390f35b3480156200047657600080fd5b50604080516020601f606435600481810135928301849004840285018401909552818452620002a694600160a060020a03813581169560248035831696604435909316953695608494920191819084018382808284375050604080516020601f89358b018035918201839004830284018301909452808352979a99988101979196509182019450925082915084018382808284375094975062000f6a9650505050505050565b3480156200052957600080fd5b506200018a600160a060020a03600435166200146b565b3480156200054d57600080fd5b50620002a662001510565b3480156200056557600080fd5b50604080516020601f608435600481810135928301849004840285018401909552818452620002a694600160a060020a038135811695602480359092169560443515159560643515159536959460a49493910191908190840183828082843750949750620015209650505050505050565b348015620005e357600080fd5b50620002d2620019f3565b348015620005fb57600080fd5b50620002d262001a60565b3480156200061357600080fd5b506200024562001add565b3480156200062b57600080fd5b50620002a6600160a060020a036004351662001aec565b3480156200064f57600080fd5b50604080516020601f608435600481810135928301849004840285018401909552818452620002a694600160a060020a0381358116956024803590921695604435956064359536959460a4949391019190819084018382808284375050604080516020601f89358b018035918201839004830284018301909452808352979a99988101979196509182019450925082915084018382808284375094975062001e9e9650505050505050565b3480156200070757600080fd5b506200018a600160a060020a036004351662002510565b3480156200072b57600080fd5b506200018a620025b5565b3480156200074357600080fd5b5062000245600160a060020a03600435166024356200261d565b3480156200076a57600080fd5b5060408051602060048035808201358381028086018501909652808552620002d295369593946024949385019291829185019084908082843750949750620026399650505050505050565b348015620007c257600080fd5b5060408051602060046024803582810135601f8101859004850286018501909652858552620002a6958335600160a060020a031695369560449491939091019190819084018382808284375050604080516020601f89358b018035918201839004830284018301909452808352979a99988101979196509182019450925082915084018382808284375050604080516020601f89358b018035918201839004830284018301909452808352979a999881019791965091820194509250829150840183828082843750949750620027b49650505050505050565b348015620008a857600080fd5b5062000245600160a060020a036004351660243562002a1c565b348015620008cf57600080fd5b506200018a62002a38565b348015620008e757600080fd5b506040805160206004803580820135601f81018490048402850184019095528484526200024594369492936024939284019190819084018382808284375050604080516020601f89358b018035918201839004830284018301909452808352979a99988101979196509182019450925082915084018382808284375050604080516020888301358a018035601f8101839004830284018301909452838352979a89359a8a8301359a9199909850606090910196509194509081019250819084018382808284375050604080516020601f89358b018035918201839004830284018301909452808352979a99988101979196509182019450925082915084018382808284375050604080516020601f89358b018035918201839004830284018301909452808352979a99988101979196509182019450925082915084018382808284375094975062002a9c9650505050505050565b34801562000a4857600080fd5b506200020c62002f1b565b34801562000a6057600080fd5b50620002d2600160a060020a036004351662002f21565b34801562000a8457600080fd5b50620002a6600160a060020a036004351662002f47565b606081600160a060020a038116151562000ab457600080fd5b600160a060020a03811630141562000acb57600080fd5b600160a060020a0383166000908152600560209081526040918290208054835181840281018401909452808452909183018282801562000b3557602002820191906000526020600020905b8154600160a060020a0316815260019091019060200180831162000b16575b5050505050915050919050565b600a60209081526000938452604080852082529284528284209052825290205481565b60076020528160005260406000208181548110151562000b8157fe5b600091825260209091200154600160a060020a03169150829050565b600b60209081526000928352604080842090915290825290205481565b60008054600160a060020a0316331462000bd357600080fd5b60005460a060020a900460ff161562000beb57600080fd5b50600d55600190565b600054600160a060020a0316331462000c0c57600080fd5b60005460a060020a900460ff16151562000c2557600080fd5b6000805474ff0000000000000000000000000000000000000000191681556040517f7805862f689e2f13df9f062ff482ad3ad112aca9e0847911ed832e158c525b339190a1565b60006060806060600062000c7f62003b0e565b86600160a060020a038116151562000c9657600080fd5b600160a060020a03811630141562000cad57600080fd5b600160a060020a03888116600090815260086020908152604091829020825160808101845281549094168452600180820180548551600261010094831615949094026000190190911692909204601f810185900485028301850190955284825291938584019391929183018282801562000d6b5780601f1062000d3f5761010080835404028352916020019162000d6b565b820191906000526020600020905b81548152906001019060200180831162000d4d57829003601f168201915b5050509183525050600282810180546040805160206001841615610100026000190190931694909404601f8101839004830285018301909152808452938101939083018282801562000e015780601f1062000dd55761010080835404028352916020019162000e01565b820191906000526020600020905b81548152906001019060200180831162000de357829003601f168201915b505050918352505060038201805460408051602060026001851615610100026000190190941693909304601f810184900484028201840190925281815293820193929183018282801562000e995780601f1062000e6d5761010080835404028352916020019162000e99565b820191906000526020600020905b81548152906001019060200180831162000e7b57829003601f168201915b50505050508152505091508160000151826020015183604001518460600151600373__MultiMap______________________________6375ce4ef990918e6040518363ffffffff1660e060020a0281526004018083815260200182600160a060020a0316600160a060020a031681526020019250505060206040518083038186803b15801562000f2857600080fd5b505af415801562000f3d573d6000803e3d6000fd5b505050506040513d602081101562000f5457600080fd5b5051939c929b5090995097509095509350505050565b6000805481908190819060a060020a900460ff161562000f8957600080fd5b600160a060020a038916600090815260096020526040902054899060ff16151562000fb357600080fd5b89935083600160a060020a0316637150d8ae6040518163ffffffff1660e060020a028152600401602060405180830381600087803b15801562000ff557600080fd5b505af11580156200100a573d6000803e3d6000fd5b505050506040513d60208110156200102157600080fd5b5051925033600160a060020a038416146200103b57600080fd5b6040805160a081018252600160a060020a03808d16825285811660208301528b81169282019290925290891660608201523060808201526200107d9062003098565b83600160a060020a03166343dcbc86896040518263ffffffff1660e060020a0281526004018082600160a060020a0316600160a060020a03168152602001915050602060405180830381600087803b158015620010d957600080fd5b505af1158015620010ee573d6000803e3d6000fd5b505050506040513d60208110156200110557600080fd5b505115156200111357600080fd5b73__CryptoUtils___________________________6324c91c1b8b8b8b8b8b6040518663ffffffff1660e060020a0281526004018086600160a060020a0316600160a060020a0316815260200185600160a060020a0316600160a060020a0316815260200184600160a060020a0316600160a060020a031681526020018060200180602001838103835285818151815260200191508051906020019080838360005b83811015620011cf578181015183820152602001620011b5565b50505050905090810190601f168015620011fd5780820380516001836020036101000a031916815260200191505b50838103825284518152845160209182019186019080838360005b838110156200123257818101518382015260200162001218565b50505050905090810190601f168015620012605780820380516001836020036101000a031916815260200191505b5097505050505050505060206040518083038186803b1580156200128357600080fd5b505af415801562001298573d6000803e3d6000fd5b505050506040513d6020811015620012af57600080fd5b50511515620012bd57600080fd5b6040517fffaef25e000000000000000000000000000000000000000000000000000000008152600160a060020a038a8116600483019081528a821660248401526060604484019081528a5160648501528a519288169363ffaef25e938e938e938e939192909160840190602085019080838360005b838110156200134c57818101518382015260200162001332565b50505050905090810190601f1680156200137a5780820380516001836020036101000a031916815260200191505b50945050505050602060405180830381600087803b1580156200139c57600080fd5b505af1158015620013b1573d6000803e3d6000fd5b505050506040513d6020811015620013c857600080fd5b50519150811515620013d957600080fd5b620013e5848a6200313b565b600160a060020a0389811660008181526005602090815260408083208054600181018255908452918320909101805473ffffffffffffffffffffffffffffffffffffffff19168f86161790555191928716917f96a360ee9d47dddc23543ca7e1b847174c225dc8f968677e1d5b6f35f978108f9190a35060019998505050505050505050565b606081600160a060020a03811615156200148457600080fd5b600160a060020a0381163014156200149b57600080fd5b600160a060020a0383166000908152600660209081526040918290208054835181840281018401909452808452909183018282801562000b3557602002820191906000526020600020908154600160a060020a0316815260019091019060200180831162000b16575050505050915050919050565b60005460a060020a900460ff1681565b60008054819081908190819060a060020a900460ff16156200154157600080fd5b600160a060020a038a166000908152600960205260409020548a9060ff1615156200156b57600080fd5b8a945084600160a060020a0316637150d8ae6040518163ffffffff1660e060020a028152600401602060405180830381600087803b158015620015ad57600080fd5b505af1158015620015c2573d6000803e3d6000fd5b505050506040513d6020811015620015d957600080fd5b5051604080517fc081efc1000000000000000000000000000000000000000000000000000000008152600160a060020a038d8116600483015291519296509087169163c081efc1916024808201926020929091908290030181600087803b1580156200164457600080fd5b505af115801562001659573d6000803e3d6000fd5b505050506040513d60208110156200167057600080fd5b505115156200167e57600080fd5b84600160a060020a0316634372df998b6040518263ffffffff1660e060020a0281526004018082600160a060020a0316600160a060020a03168152602001915050602060405180830381600087803b158015620016da57600080fd5b505af1158015620016ef573d6000803e3d6000fd5b505050506040513d60208110156200170657600080fd5b5051925033600160a060020a03851614806200172a575033600160a060020a038416145b15156200173657600080fd5b73__CryptoUtils___________________________636c7e02368c8c868d8d8d6040518763ffffffff1660e060020a0281526004018087600160a060020a0316600160a060020a0316815260200186600160a060020a0316600160a060020a0316815260200185600160a060020a0316600160a060020a03168152602001841515151581526020018315151515815260200180602001828103825283818151815260200191508051906020019080838360005b8381101562001803578181015183820152602001620017e9565b50505050905090810190601f168015620018315780820380516001836020036101000a031916815260200191505b5097505050505050505060206040518083038186803b1580156200185457600080fd5b505af415801562001869573d6000803e3d6000fd5b505050506040513d60208110156200188057600080fd5b505115156200188e57600080fd5b881580620018995750875b604080517f96661b04000000000000000000000000000000000000000000000000000000008152600160a060020a038d8116600483015283151560248301529151929450908716916396661b04916044808201926020929091908290030181600087803b1580156200190a57600080fd5b505af11580156200191f573d6000803e3d6000fd5b505050506040513d60208110156200193657600080fd5b505115156200194457600080fd5b6200195485858c868d8d6200360b565b8115620019a15789600160a060020a031685600160a060020a03167fcc3f610635149ab98af5df8f627c661ab8d314e273ae1ab29a88bac48d90b68e60405160405180910390a3620019e2565b83600160a060020a031685600160a060020a03167ff692f1409d5d399fd8f4bd35525ad35edd52de67ca7e2767a65c8e1fe7ec9cf160405160405180910390a35b5060019a9950505050505050505050565b600054600160a060020a0316331462001a0b57600080fd5b60008054604051600160a060020a03909116917ff8df31144d9c2f0f6b59d69b8b98abd5459d07f2742c4df920b25aae33c6482091a26000805473ffffffffffffffffffffffffffffffffffffffff19169055565b600054600160a060020a0316331462001a7857600080fd5b60005460a060020a900460ff161562001a9057600080fd5b6000805474ff0000000000000000000000000000000000000000191660a060020a1781556040517f6985a02210a168e66602d3235cb6db0e70f92b3ba4d376a33c0f3d9434bff6259190a1565b600054600160a060020a031681565b60008054819081908190819060a060020a900460ff161562001b0d57600080fd5b600160a060020a038616600090815260096020526040902054869060ff16151562001b3757600080fd5b604080517f75ce4ef900000000000000000000000000000000000000000000000000000000815260016004820152600160a060020a0389166024820152905173__MultiMap______________________________916375ce4ef9916044808301926020929190829003018186803b15801562001bb257600080fd5b505af415801562001bc7573d6000803e3d6000fd5b505050506040513d602081101562001bde57600080fd5b5051151562001bec57600080fd5b86945084600160a060020a0316637150d8ae6040518163ffffffff1660e060020a028152600401602060405180830381600087803b15801562001c2e57600080fd5b505af115801562001c43573d6000803e3d6000fd5b505050506040513d602081101562001c5a57600080fd5b5051935033600160a060020a038516148062001c805750600054600160a060020a031633145b151562001c8c57600080fd5b84600160a060020a03166343d726d66040518163ffffffff1660e060020a028152600401602060405180830381600087803b15801562001ccb57600080fd5b505af115801562001ce0573d6000803e3d6000fd5b505050506040513d602081101562001cf757600080fd5b50519250821562001e9357600160a060020a038481166000818152600b602090815260408083208a861684528252808320805490849055600c54825160e060020a63a9059cbb028152600481019690965260248601829052915190975094169363a9059cbb93604480820194918390030190829087803b15801562001d7b57600080fd5b505af115801562001d90573d6000803e3d6000fd5b505050506040513d602081101562001da757600080fd5b5051151562001db557600080fd5b604080517f7d98ebde00000000000000000000000000000000000000000000000000000000815260016004820152600160a060020a0389166024820152905173__MultiMap______________________________91637d98ebde916044808301926020929190829003018186803b15801562001e3057600080fd5b505af415801562001e45573d6000803e3d6000fd5b505050506040513d602081101562001e5c57600080fd5b5050604051600160a060020a038816907fc674f2738d835a5ee10ac4c9fc95355170bec02f7b438d737c8821ca222640f990600090a25b509095945050505050565b6000805481908190819060a060020a900460ff161562001ebd57600080fd5b600160a060020a038a166000908152600960205260409020548a9060ff16151562001ee757600080fd5b89600160a060020a038116151562001efe57600080fd5b600160a060020a03811630141562001f1557600080fd5b8b945084600160a060020a0316637150d8ae6040518163ffffffff1660e060020a028152600401602060405180830381600087803b15801562001f5757600080fd5b505af115801562001f6c573d6000803e3d6000fd5b505050506040513d602081101562001f8357600080fd5b5051935033600160a060020a0385161462001f9d57600080fd5b84600160a060020a03166343dcbc868c6040518263ffffffff1660e060020a0281526004018082600160a060020a0316600160a060020a03168152602001915050602060405180830381600087803b15801562001ff957600080fd5b505af11580156200200e573d6000803e3d6000fd5b505050506040513d60208110156200202557600080fd5b5051156200203257600080fd5b604080517f75ce4ef900000000000000000000000000000000000000000000000000000000815260036004820152600160a060020a038d166024820152905173__MultiMap______________________________916375ce4ef9916044808301926020929190829003018186803b158015620020ad57600080fd5b505af4158015620020c2573d6000803e3d6000fd5b505050506040513d6020811015620020d957600080fd5b50511515620020e757600080fd5b73__CryptoUtils___________________________634ae90a408d8d8d8d8d8d6040518763ffffffff1660e060020a0281526004018087600160a060020a0316600160a060020a0316815260200186600160a060020a0316600160a060020a031681526020018581526020018481526020018060200180602001838103835285818151815260200191508051906020019080838360005b83811015620021985781810151838201526020016200217e565b50505050905090810190601f168015620021c65780820380516001836020036101000a031916815260200191505b50838103825284518152845160209182019186019080838360005b83811015620021fb578181015183820152602001620021e1565b50505050905090810190601f168015620022295780820380516001836020036101000a031916815260200191505b509850505050505050505060206040518083038186803b1580156200224d57600080fd5b505af415801562002262573d6000803e3d6000fd5b505050506040513d60208110156200227957600080fd5b505115156200228757600080fd5b84600160a060020a031663502341738c8c8c8c6040518563ffffffff1660e060020a0281526004018085600160a060020a0316600160a060020a0316815260200184815260200183815260200180602001828103825283818151815260200191508051906020019080838360005b838110156200230f578181015183820152602001620022f5565b50505050905090810190601f1680156200233d5780820380516001836020036101000a031916815260200191505b5095505050505050602060405180830381600087803b1580156200236057600080fd5b505af115801562002375573d6000803e3d6000fd5b505050506040513d60208110156200238c57600080fd5b5051925082156200250057604080517fb57ab3ac00000000000000000000000000000000000000000000000000000000815260016004820152600160a060020a038e166024820152905173__MultiMap______________________________9163b57ab3ac916044808301926020929190829003018186803b1580156200241257600080fd5b505af415801562002427573d6000803e3d6000fd5b505050506040513d60208110156200243e57600080fd5b810190808051906020019092919050505050600660008c600160a060020a0316600160a060020a031681526020019081526020016000208c90806001815401808255809150509060018203906000526020600020016000909192909190916101000a815481600160a060020a030219169083600160a060020a03160217905550508a600160a060020a031685600160a060020a03167f83cce77ef1950fd47994e9ab4fa3263f250200e45f9133f74375d8c1fd072fd860405160405180910390a35b50909a9950505050505050505050565b606081600160a060020a03811615156200252957600080fd5b600160a060020a0381163014156200254057600080fd5b600160a060020a0383166000908152600760209081526040918290208054835181840281018401909452808452909183018282801562000b3557602002820191906000526020600020908154600160a060020a0316815260019091019060200180831162000b16575050505050915050919050565b606060036001018054806020026020016040519081016040528092919081815260200182805480156200261257602002820191906000526020600020905b8154600160a060020a03168152600190910190602001808311620025f3575b505050505090505b90565b60066020528160005260406000208181548110151562000b8157fe5b6000805481908190600160a060020a031633146200265657600080fd5b600092505b8351831015620027a65783838151811015156200267457fe5b6020908102909101810151604080517f70a082310000000000000000000000000000000000000000000000000000000081523060048201529051919450600160a060020a038516926370a08231926024808401938290030181600087803b158015620026df57600080fd5b505af1158015620026f4573d6000803e3d6000fd5b505050506040513d60208110156200270b57600080fd5b5051600080546040805160e060020a63a9059cbb028152600160a060020a0392831660048201526024810185905290519394509085169263a9059cbb92604480840193602093929083900390910190829087803b1580156200276c57600080fd5b505af115801562002781573d6000803e3d6000fd5b505050506040513d60208110156200279857600080fd5b50506001909201916200265b565b600054600160a060020a0316ff5b600080548190600160a060020a03163314620027cf57600080fd5b60005460a060020a900460ff1615620027e757600080fd5b85600160a060020a0381161515620027fe57600080fd5b600160a060020a0381163014156200281557600080fd5b600160a060020a038781166000818152600860209081526040918290205482517fb57ab3ac00000000000000000000000000000000000000000000000000000000815260036004820152602481019490945291519190931615945073__MultiMap______________________________9263b57ab3ac9260448082019391829003018186803b158015620028a857600080fd5b505af4158015620028bd573d6000803e3d6000fd5b505050506040513d6020811015620028d457600080fd5b50511515620028e257600080fd5b60408051608081018252600160a060020a0389811680835260208084018b81528486018b9052606085018a9052600092835260088252949091208351815473ffffffffffffffffffffffffffffffffffffffff19169316929092178255925180519293919262002959926001850192019062003b40565b50604082015180516200297791600284019160209091019062003b40565b50606082015180516200299591600384019160209091019062003b40565b509050508115620029da57604051600160a060020a038816907f1e59e06fbc9b065c65d072c1f7a2ed1d81154e6e57768747c6c082207dca730890600090a262002a0f565b604051600160a060020a038816907f9db0a73cad02bbf95f84090f7c99969d3a1cf17d5da896752289967f9f80a58490600090a25b5060019695505050505050565b60056020528160005260406000208181548110151562000b8157fe5b6060600180018054806020026020016040519081016040528092919081815260200182805480156200261257602002820191906000526020600020908154600160a060020a03168152600190910190602001808311620025f3575050505050905090565b60008054819060a060020a900460ff161562002ab757600080fd5b600d5486101562002ac757600080fd5b600c54604080517fdd62ed3e00000000000000000000000000000000000000000000000000000000815233600482015230602482015290518892600160a060020a03169163dd62ed3e9160448083019260209291908290030181600087803b15801562002b3357600080fd5b505af115801562002b48573d6000803e3d6000fd5b505050506040513d602081101562002b5f57600080fd5b5051101562002b6d57600080fd5b3389898988888862002b7e62003bc5565b8088600160a060020a0316600160a060020a03168152602001806020018060200187815260200180602001806020018060200186810386528c818151815260200191508051906020019080838360005b8381101562002be857818101518382015260200162002bce565b50505050905090810190601f16801562002c165780820380516001836020036101000a031916815260200191505b5086810385528b5181528b516020918201918d019080838360005b8381101562002c4b57818101518382015260200162002c31565b50505050905090810190601f16801562002c795780820380516001836020036101000a031916815260200191505b5086810384528951815289516020918201918b019080838360005b8381101562002cae57818101518382015260200162002c94565b50505050905090810190601f16801562002cdc5780820380516001836020036101000a031916815260200191505b5086810383528851815288516020918201918a019080838360005b8381101562002d1157818101518382015260200162002cf7565b50505050905090810190601f16801562002d3f5780820380516001836020036101000a031916815260200191505b50868103825287518152875160209182019189019080838360005b8381101562002d7457818101518382015260200162002d5a565b50505050905090810190601f16801562002da25780820380516001836020036101000a031916815260200191505b509c50505050505050505050505050604051809103906000f08015801562002dce573d6000803e3d6000fd5b50600c54604080517f23b872dd000000000000000000000000000000000000000000000000000000008152336004820152306024820152604481018a90529051929350600160a060020a03909116916323b872dd916064808201926020929091908290030181600087803b15801562002e4657600080fd5b505af115801562002e5b573d6000803e3d6000fd5b505050506040513d602081101562002e7257600080fd5b5050336000818152600b60209081526040808320600160a060020a0386168085529083528184208b90559383526007825280832080546001818101835591855283852001805473ffffffffffffffffffffffffffffffffffffffff1916861790558484526009909252808320805460ff1916909217909155517fcf6ea478d30b7e2b0d188cd4bc726f7e42c48dd94081b929ae8f03b8743f02d99190a298975050505050505050565b600d5481565b600054600160a060020a0316331462002f3957600080fd5b62002f448162003a4f565b50565b60008054600160a060020a0316331462002f6057600080fd5b60005460a060020a900460ff161562002f7857600080fd5b81600160a060020a038116151562002f8f57600080fd5b600160a060020a03811630141562002fa657600080fd5b604080517f7d98ebde00000000000000000000000000000000000000000000000000000000815260036004820152600160a060020a0385166024820152905173__MultiMap______________________________91637d98ebde916044808301926020929190829003018186803b1580156200302157600080fd5b505af415801562003036573d6000803e3d6000fd5b505050506040513d60208110156200304d57600080fd5b505115156200305b57600080fd5b604051600160a060020a038416907fd2df117cdff329511dba7edac459dd05c2b14dc4c88ea1faf058c15de773b43390600090a250600192915050565b6000805b600582101562003136576000838360058110620030b557fe5b6020020151600160a060020a03161415620030cf57600080fd5b50600181015b60058110156200312a57828160058110620030ec57fe5b6020020151600160a060020a03168383600581106200310757fe5b6020020151600160a060020a031614156200312157600080fd5b600101620030d5565b6001909101906200309c565b505050565b600080600080600080600080600060149054906101000a900460ff161515156200316457600080fd5b89600160a060020a0316637150d8ae6040518163ffffffff1660e060020a028152600401602060405180830381600087803b158015620031a357600080fd5b505af1158015620031b8573d6000803e3d6000fd5b505050506040513d6020811015620031cf57600080fd5b5051604080517f4372df99000000000000000000000000000000000000000000000000000000008152600160a060020a038c811660048301529151929a50908c1691634372df99916024808201926020929091908290030181600087803b1580156200323a57600080fd5b505af11580156200324f573d6000803e3d6000fd5b505050506040513d60208110156200326657600080fd5b5051600160a060020a03808a166000908152600b60209081526040808320938f168084529382528083205481517fa035b1fe0000000000000000000000000000000000000000000000000000000081529151959c509a50929363a035b1fe93600480820194918390030190829087803b158015620032e357600080fd5b505af1158015620032f8573d6000803e3d6000fd5b505050506040513d60208110156200330f57600080fd5b5051604080517f43ca78a2000000000000000000000000000000000000000000000000000000008152600160a060020a038a811660048301529151929750908c16916343ca78a29160248082019260009290919082900301818387803b1580156200337957600080fd5b505af11580156200338e573d6000803e3d6000fd5b505050506040513d6000823e601f3d908101601f1916820160405260a0811015620033b857600080fd5b8151602083015160408401516060850180519395929491939183019291640100000000811115620033e857600080fd5b82016020810184811115620033fc57600080fd5b81516401000000008111828201871017156200341757600080fd5b50949a506200343896508b95508a94505063ffffffff62003acd1692505050565b925062003446848762003ae1565b91506200345a838363ffffffff62003afb16565b90506200346e868363ffffffff62003afb16565b600b60008a600160a060020a0316600160a060020a0316815260200190815260200160002060008c600160a060020a0316600160a060020a0316815260200190815260200160002081905550600c60009054906101000a9004600160a060020a0316600160a060020a03166323b872dd8930846040518463ffffffff1660e060020a0281526004018084600160a060020a0316600160a060020a0316815260200183600160a060020a0316600160a060020a031681526020018281526020019350505050602060405180830381600087803b1580156200354d57600080fd5b505af115801562003562573d6000803e3d6000fd5b505050506040513d60208110156200357957600080fd5b505115156200358757600080fd5b600160a060020a038089166000908152600a602090815260408083208e851684528252808320938d1683529290522054620035c9908463ffffffff62003acd16565b600160a060020a039889166000908152600a602090815260408083209d8c1683529c81528c82209b909a16815299909852505050959094209290925550505050565b60008054819081908190819060a060020a900460ff16156200362c57600080fd5b8a600160a060020a031663a035b1fe6040518163ffffffff1660e060020a028152600401602060405180830381600087803b1580156200366b57600080fd5b505af115801562003680573d6000803e3d6000fd5b505050506040513d60208110156200369757600080fd5b5051604080517f43ca78a2000000000000000000000000000000000000000000000000000000008152600160a060020a038b811660048301529151929750908d16916343ca78a29160248082019260009290919082900301818387803b1580156200370157600080fd5b505af115801562003716573d6000803e3d6000fd5b505050506040513d6000823e601f3d908101601f1916820160405260a08110156200374057600080fd5b81516020830151604084015160608501805193959294919391830192916401000000008111156200377057600080fd5b820160208101848111156200378457600080fd5b81516401000000008111828201871017156200379f57600080fd5b50949a50620037c096508b95508a94505063ffffffff62003acd1692505050565b925082600a60008c600160a060020a0316600160a060020a0316815260200190815260200160002060008d600160a060020a0316600160a060020a0316815260200190815260200160002060008b600160a060020a0316600160a060020a0316815260200190815260200160002054101515156200383d57600080fd5b600160a060020a03808b166000908152600a602090815260408083208f851684528252808320938d16835292905220546200387f908463ffffffff62003afb16565b600a60008c600160a060020a0316600160a060020a0316815260200190815260200160002060008d600160a060020a0316600160a060020a0316815260200190815260200160002060008b600160a060020a0316600160a060020a031681526020019081526020016000208190555086620038fb5789620038fd565b875b91508615806200390a5750855b62003916578962003918565b885b600c546040805160e060020a63a9059cbb028152600160a060020a03868116600483015260248201899052915193945091169163a9059cbb916044808201926020929091908290030181600087803b1580156200397457600080fd5b505af115801562003989573d6000803e3d6000fd5b505050506040513d6020811015620039a057600080fd5b50511515620039ae57600080fd5b600c546040805160e060020a63a9059cbb028152600160a060020a038481166004830152602482018990529151919092169163a9059cbb9160448083019260209291908290030181600087803b15801562003a0857600080fd5b505af115801562003a1d573d6000803e3d6000fd5b505050506040513d602081101562003a3457600080fd5b5051151562003a4257600080fd5b5050505050505050505050565b600160a060020a038116151562003a6557600080fd5b60008054604051600160a060020a03808516939216917f8be0079c531659141344cd1fd0a4f28419497f9722a3daafe3b4186f6b6457e091a36000805473ffffffffffffffffffffffffffffffffffffffff1916600160a060020a0392909216919091179055565b8181018281101562003adb57fe5b92915050565b600081831062003af2578162003af4565b825b9392505050565b60008282111562003b0857fe5b50900390565b6080604051908101604052806000600160a060020a031681526020016060815260200160608152602001606081525090565b828054600181600116156101000203166002900490600052602060002090601f016020900481019282601f1062003b8357805160ff191683800117855562003bb3565b8280016001018555821562003bb3579182015b8281111562003bb357825182559160200191906001019062003b96565b5062003bc192915062003bd6565b5090565b604051611aaa8062003bf483390190565b6200261a91905b8082111562003bc1576000815560010162003bdd560060806040523480156200001157600080fd5b5060405162001aaa38038062001aaa83398101604090815281516020830151918301516060840151608085015160a086015160c087015160008054600160a060020a0319163317905594969586019593840194929391820192908201910186600160a060020a03811615156200008657600080fd5b600160a060020a0381163014156200009d57600080fd5b8251600010620000ac57600080fd5b8151600010620000bb57600080fd5b60018054600160a060020a031916600160a060020a038a161790558651620000eb9060029060208a01906200017d565b508551620001019060039060208901906200017d565b50600485905583516200011c9060059060208701906200017d565b508251620001329060069060208601906200017d565b508151620001489060079060208501906200017d565b50506008805468ff00000000ffffffff19164263ffffffff161767ffffffff0000000019169055506200022295505050505050565b828054600181600116156101000203166002900490600052602060002090601f016020900481019282601f10620001c057805160ff1916838001178555620001f0565b82800160010185558215620001f0579182015b82811115620001f0578251825591602001919060010190620001d3565b50620001fe92915062000202565b5090565b6200021f91905b80821115620001fe576000815560010162000209565b90565b61187880620002326000396000f3006080604052600436106101485763ffffffff7c01000000000000000000000000000000000000000000000000000000006000350416632728e28b811461014d5780634372df991461018657806343ca78a2146101c357806343d726d61461029657806343dcbc86146102bf57806350234173146102e0578063600f1f2b1461034c5780636d4b76d51461037a578063715018a6146103925780637150d8ae146103a95780637d4ccb14146103be5780638da5cb5b1461044857806396661b041461045d57806396e8150a14610483578063a035b1fe1461051b578063b1f4ff9014610542578063c081efc114610557578063cee26ed514610578578063cf09e0d014610590578063cf317b7e146105a5578063d778ce3c14610679578063ec9359401461068e578063f2fde38b146106a3578063f678462f146106c4578063ffaef25e146106d9575b600080fd5b34801561015957600080fd5b50610162610748565b6040518082600281111561017257fe5b60ff16815260200191505060405180910390f35b34801561019257600080fd5b506101a7600160a060020a036004351661075d565b60408051600160a060020a039092168252519081900360200190f35b3480156101cf57600080fd5b506101e4600160a060020a03600435166108c0565b6040518086600160a060020a0316600160a060020a03168152602001858152602001848152602001806020018363ffffffff1663ffffffff168152602001828103825284818151815260200191508051906020019080838360005b8381101561025757818101518382015260200161023f565b50505050905090810190601f1680156102845780820380516001836020036101000a031916815260200191505b50965050505050505060405180910390f35b3480156102a257600080fd5b506102ab610a0c565b604080519115158252519081900360200190f35b3480156102cb57600080fd5b506102ab600160a060020a0360043516610aa7565b3480156102ec57600080fd5b50604080516020601f6064356004818101359283018490048402850184019095528184526102ab94600160a060020a038135169460248035956044359536956084949301918190840183828082843750949750610afd9650505050505050565b34801561035857600080fd5b50610361610c86565b6040805163ffffffff9092168252519081900360200190f35b34801561038657600080fd5b506101a7600435610c9a565b34801561039e57600080fd5b506103a7610cc2565b005b3480156103b557600080fd5b506101a7610d2e565b3480156103ca57600080fd5b506103d3610d3d565b6040805160208082528351818301528351919283929083019185019080838360005b8381101561040d5781810151838201526020016103f5565b50505050905090810190601f16801561043a5780820380516001836020036101000a031916815260200191505b509250505060405180910390f35b34801561045457600080fd5b506101a7610dcb565b34801561046957600080fd5b506102ab600160a060020a03600435166024351515610dda565b34801561048f57600080fd5b506104a4600160a060020a0360043516610f54565b60408051600160a060020a038716815263ffffffff80861692820192909252908316606082015260208101608082018360028111156104df57fe5b60ff168152602001828103825286818151815260200191508051906020019080838360008381101561025757818101518382015260200161023f565b34801561052757600080fd5b50610530611033565b60408051918252519081900360200190f35b34801561054e57600080fd5b506103d3611039565b34801561056357600080fd5b506102ab600160a060020a0360043516611091565b34801561058457600080fd5b506101a76004356110e7565b34801561059c57600080fd5b506103616110f5565b3480156105b157600080fd5b506105c6600160a060020a0360043516611101565b60408051600160a060020a038089168252871660208083019190915263ffffffff80871660608401528516608083015260a0820184905260c0928201838152875193830193909352865191929160e084019188019080838360005b83811015610639578181015183820152602001610621565b50505050905090810190601f1680156106665780820380516001836020036101000a031916815260200191505b5097505050505050505060405180910390f35b34801561068557600080fd5b506103d361129e565b34801561069a57600080fd5b506103d36112f9565b3480156106af57600080fd5b506103a7600160a060020a0360043516611354565b3480156106d057600080fd5b506103d3611377565b3480156106e557600080fd5b50604080516020600460443581810135601f81018490048402850184019095528484526102ab948235600160a060020a03908116956024803590921695369594606494929301919081908401838280828437509497506113d29650505050505050565b60085468010000000000000000900460ff1681565b6000610767611758565b82600160a060020a038116151561077d57600080fd5b600160a060020a03811630141561079357600080fd5b61079c84611091565b15156107a757600080fd5b600160a060020a03848116600090815260096020908152604091829020825160a08101845281549094168452600180820180548551600261010094831615949094026000190190911692909204601f81018590048502830185019095528482529193858401939192918301828280156108615780601f1061083657610100808354040283529160200191610861565b820191906000526020600020905b81548152906001019060200180831161084457829003601f168201915b505050918352505060028281015463ffffffff8082166020850152640100000000820416604084015260609092019168010000000000000000900460ff16908111156108a957fe5b60028111156108b457fe5b90525051949350505050565b6000806000606060006108d1611785565b86600160a060020a03811615156108e757600080fd5b600160a060020a0381163014156108fd57600080fd5b61090688610aa7565b151561091157600080fd5b600160a060020a0388166000908152600a6020908152604091829020825160808101845281548152600180830154828501526002808401805487519381161561010002600019011691909104601f810186900486028301860187528083529295939493860193919290918301828280156109cc5780601f106109a1576101008083540402835291602001916109cc565b820191906000526020600020905b8154815290600101906020018083116109af57829003601f168201915b50505091835250506003919091015463ffffffff1660209182015281519082015160408301516060909301519a9b919a9099509197509095509350505050565b60008054600160a060020a03163314610a2457600080fd5b600260085468010000000000000000900460ff166002811115610a4357fe5b1415610a4e57600080fd5b600854640100000000900463ffffffff1615610a6957600080fd5b506008805468ff00000000000000001916680200000000000000001767ffffffff0000000019166401000000004263ffffffff160217905560015b90565b600081600160a060020a0381161515610abf57600080fd5b600160a060020a038116301415610ad557600080fd5b5050600160a060020a03166000908152600a602052604090206003015463ffffffff16151590565b60008054600160a060020a03163314610b1557600080fd5b84600160a060020a0381161515610b2b57600080fd5b600160a060020a038116301415610b4157600080fd5b600854640100000000900463ffffffff1615610b5c57600080fd5b6064851115610b6a57600080fd5b610b7386610aa7565b15610b7d57600080fd5b60408051608081018252868152602080820187815282840187815263ffffffff42166060850152600160a060020a038b166000908152600a845294909420835181559051600182015592518051929392610bdd92600285019201906117b4565b50606091909101516003909101805463ffffffff191663ffffffff909216919091179055600c8054600181810183556000929092527fdf6966c971051c3d54ec59162606531493a51404a002842f56009d7e5cf4a8c701805473ffffffffffffffffffffffffffffffffffffffff1916600160a060020a0389161790556008805468ff000000000000000019166801000000000000000083021790555060019695505050505050565b600854640100000000900463ffffffff1681565b600c805482908110610ca857fe5b600091825260209091200154600160a060020a0316905081565b600054600160a060020a03163314610cd957600080fd5b60008054604051600160a060020a03909116917ff8df31144d9c2f0f6b59d69b8b98abd5459d07f2742c4df920b25aae33c6482091a26000805473ffffffffffffffffffffffffffffffffffffffff19169055565b600154600160a060020a031681565b6007805460408051602060026001851615610100026000190190941693909304601f81018490048402820184019092528181529291830182828015610dc35780601f10610d9857610100808354040283529160200191610dc3565b820191906000526020600020905b815481529060010190602001808311610da657829003601f168201915b505050505081565b600054600160a060020a031681565b60008054600160a060020a03163314610df257600080fd5b82600160a060020a0381161515610e0857600080fd5b600160a060020a038116301415610e1e57600080fd5b600260085468010000000000000000900460ff166002811115610e3d57fe5b1415610e4857600080fd5b600854640100000000900463ffffffff1615610e6357600080fd5b610e6c84611091565b1515610e7757600080fd5b6000600160a060020a038516600090815260096020526040902060029081015468010000000000000000900460ff1690811115610eb057fe5b14610eba57600080fd5b82610ec6576001610ec9565b60025b600160a060020a038516600090815260096020526040902060029081018054909168ff0000000000000000199091169068010000000000000000908490811115610f0f57fe5b0217905550505050600160a060020a03166000908152600960205260409020600201805467ffffffff0000000019166401000000004263ffffffff1602179055600190565b6009602090815260009182526040918290208054600180830180548651600261010094831615949094026000190190911692909204601f8101869004860283018601909652858252600160a060020a03909216949293909290830182828015610ffe5780601f10610fd357610100808354040283529160200191610ffe565b820191906000526020600020905b815481529060010190602001808311610fe157829003601f168201915b5050506002909301549192505063ffffffff8082169164010000000081049091169060ff680100000000000000009091041685565b60045481565b6002805460408051602060018416156101000260001901909316849004601f81018490048402820184019092528181529291830182828015610dc35780601f10610d9857610100808354040283529160200191610dc3565b600081600160a060020a03811615156110a957600080fd5b600160a060020a0381163014156110bf57600080fd5b5050600160a060020a031660009081526009602052604090206002015463ffffffff16151590565b600b805482908110610ca857fe5b60085463ffffffff1681565b60008060606000806000611113611758565b87600160a060020a038116151561112957600080fd5b600160a060020a03811630141561113f57600080fd5b61114889611091565b151561115357600080fd5b600160a060020a03898116600090815260096020908152604091829020825160a08101845281549094168452600180820180548551600261010094831615949094026000190190911692909204601f810185900485028301850190955284825291938584019391929183018282801561120d5780601f106111e25761010080835404028352916020019161120d565b820191906000526020600020905b8154815290600101906020018083116111f057829003601f168201915b505050918352505060028281015463ffffffff8082166020850152640100000000820416604084015260609092019168010000000000000000900460ff169081111561125557fe5b600281111561126057fe5b8152505091508882600001518360200151846040015185606001516112888760800151611628565b949e939d50919b50995097509095509350505050565b6006805460408051602060026001851615610100026000190190941693909304601f81018490048402820184019092528181529291830182828015610dc35780601f10610d9857610100808354040283529160200191610dc3565b6003805460408051602060026001851615610100026000190190941693909304601f81018490048402820184019092528181529291830182828015610dc35780601f10610d9857610100808354040283529160200191610dc3565b600054600160a060020a0316331461136b57600080fd5b611374816116db565b50565b6005805460408051602060026001851615610100026000190190941693909304601f81018490048402820184019092528181529291830182828015610dc35780601f10610d9857610100808354040283529160200191610dc3565b60008054600160a060020a031633146113ea57600080fd5b83600160a060020a038116151561140057600080fd5b600160a060020a03811630141561141657600080fd5b83600160a060020a038116151561142c57600080fd5b600160a060020a03811630141561144257600080fd5b600160085468010000000000000000900460ff16600281111561146157fe5b1461146b57600080fd5b600854640100000000900463ffffffff161561148657600080fd5b61148f86611091565b1561149957600080fd5b6114a285610aa7565b15156114ad57600080fd5b60a06040519081016040528086600160a060020a031681526020018581526020014263ffffffff168152602001600063ffffffff168152602001600060028111156114f457fe5b9052600160a060020a0387811660009081526009602090815260409091208351815473ffffffffffffffffffffffffffffffffffffffff1916931692909217825582810151805161154b92600185019201906117b4565b50604082015160028083018054606086015163ffffffff9081166401000000000267ffffffff00000000199190951663ffffffff199092169190911716929092178083556080850151929168ff00000000000000001990911690680100000000000000009084908111156115bb57fe5b021790555050600b8054600181810183556000929092527f0175b7a638427703f0dbe7bb9bbf987a2551717b34e79f33b5b1008d1fa01db9018054600160a060020a038a1673ffffffffffffffffffffffffffffffffffffffff1990911617905593505050509392505050565b60008082600281111561163757fe5b141561166457507f44617461526573706f6e736541646465640000000000000000000000000000006116d6565b600182600281111561167257fe5b141561169f57507f526566756e646564546f427579657200000000000000000000000000000000006116d6565b60028260028111156116ad57fe5b141561014857507f5472616e73616374696f6e436f6d706c657465640000000000000000000000005b919050565b600160a060020a03811615156116f057600080fd5b60008054604051600160a060020a03808516939216917f8be0079c531659141344cd1fd0a4f28419497f9722a3daafe3b4186f6b6457e091a36000805473ffffffffffffffffffffffffffffffffffffffff1916600160a060020a0392909216919091179055565b6040805160a081018252600080825260606020830181905292820181905291810182905290608082015290565b608060405190810160405280600081526020016000815260200160608152602001600063ffffffff1681525090565b828054600181600116156101000203166002900490600052602060002090601f016020900481019282601f106117f557805160ff1916838001178555611822565b82800160010185558215611822579182015b82811115611822578251825591602001919060010190611807565b5061182e929150611832565b5090565b610aa491905b8082111561182e57600081556001016118385600a165627a7a7230582050296bb8c82fdb70d7408b227f2eb29976b70d8d1198aff09334d837ed9fc1c70029a165627a7a7230582059b056f11a8264d074d7fc19024a529966b9f8b6ed59f091f711336dbe2c59100029",
  "source": "pragma solidity ^0.4.24;\n\nimport \"zeppelin-solidity/contracts/lifecycle/TokenDestructible.sol\";\nimport \"zeppelin-solidity/contracts/lifecycle/Pausable.sol\";\nimport \"zeppelin-solidity/contracts/math/Math.sol\";\nimport \"zeppelin-solidity/contracts/math/SafeMath.sol\";\n\nimport \"./DataOrder.sol\";\nimport \"./Wibcoin.sol\";\nimport \"./lib/MultiMap.sol\";\nimport \"./lib/CryptoUtils.sol\";\n\n\n/**\n * @title DataExchange\n * @author Wibson Development Team <developers@wibson.org>\n * @notice `DataExchange` is the core contract of the Wibson Protocol.\n *         This allows the creation, management, and tracking of DataOrders.\n * @dev This contract also contains some helper methods to access the data\n *      needed by the different parties involved in the Protocol.\n */\ncontract DataExchange is TokenDestructible, Pausable {\n  using SafeMath for uint256;\n  using MultiMap for MultiMap.MapStorage;\n\n  event NotaryRegistered(address indexed notary);\n  event NotaryUpdated(address indexed notary);\n  event NotaryUnregistered(address indexed notary);\n\n  event NewOrder(address indexed orderAddr);\n  event NotaryAddedToOrder(address indexed orderAddr, address indexed notary);\n  event DataAdded(address indexed orderAddr, address indexed seller);\n  event TransactionCompleted(address indexed orderAddr, address indexed seller);\n  event RefundedToBuyer(address indexed orderAddr, address indexed buyer);\n  event OrderClosed(address indexed orderAddr);\n\n  struct NotaryInfo {\n    address addr;\n    string name;\n    string notaryUrl;\n    string publicKey;\n  }\n\n  MultiMap.MapStorage openOrders;\n  MultiMap.MapStorage allowedNotaries;\n\n  mapping(address => address[]) public ordersBySeller;\n  mapping(address => address[]) public ordersByNotary;\n  mapping(address => address[]) public ordersByBuyer;\n  mapping(address => NotaryInfo) internal notaryInfo;\n  // Tracks the orders created by this contract.\n  mapping(address => bool) private orders;\n\n  // @dev buyerBalance Keeps track of the buyer's balance per order-seller.\n  // TODO: Is there a better way to do this?\n  mapping(\n    address => mapping(address => mapping(address => uint256))\n  ) public buyerBalance;\n\n  // @dev buyerRemainingBudgetForAudits Keeps track of the buyer's remaining\n  // budget from the initial one set on the `DataOrder`\n  mapping(address => mapping(address => uint256)) public buyerRemainingBudgetForAudits;\n\n  modifier validAddress(address addr) {\n    require(addr != address(0));\n    require(addr != address(this));\n    _;\n  }\n\n  modifier isOrderLegit(address order) {\n    require(orders[order]);\n    _;\n  }\n\n  // @dev token A Wibcoin implementation of an ERC20 standard token.\n  Wibcoin token;\n\n  // @dev The minimum for initial budget for audits per `DataOrder`.\n  uint256 public minimumInitialBudgetForAudits;\n\n  /**\n   * @notice Contract constructor.\n   * @param tokenAddress Address of the Wibcoin token address.\n   * @param ownerAddress Address of the DataExchange owner.\n   */\n  constructor(\n    address tokenAddress,\n    address ownerAddress\n  ) public validAddress(tokenAddress) validAddress(ownerAddress) {\n    require(tokenAddress != ownerAddress);\n\n    token = Wibcoin(tokenAddress);\n    minimumInitialBudgetForAudits = 0;\n    transferOwnership(ownerAddress);\n  }\n\n  /**\n   * @notice Registers a new notary or replaces an already existing one.\n   * @dev At least one notary is needed to enable `DataExchange` operation.\n   * @param notary Address of a Notary to add.\n   * @param name Name Of the Notary.\n   * @param notaryUrl Public URL of the notary where the data must be sent.\n   * @param publicKey PublicKey used by the Notary.\n   * @return true if the notary was successfully registered, reverts otherwise.\n   */\n  function registerNotary(\n    address notary,\n    string name,\n    string notaryUrl,\n    string publicKey\n  ) public onlyOwner whenNotPaused validAddress(notary) returns (bool) {\n    bool isNew = notaryInfo[notary].addr == address(0);\n\n    require(allowedNotaries.insert(notary));\n    notaryInfo[notary] = NotaryInfo(\n      notary,\n      name,\n      notaryUrl,\n      publicKey\n    );\n\n    if (isNew) {\n      emit NotaryRegistered(notary);\n    } else {\n      emit NotaryUpdated(notary);\n    }\n    return true;\n  }\n\n  /**\n   * @notice Unregisters an existing notary.\n   * @param notary Address of a Notary to unregister.\n   * @return true if the notary was successfully unregistered, reverts otherwise.\n   */\n  function unregisterNotary(\n    address notary\n  ) public onlyOwner whenNotPaused validAddress(notary) returns (bool) {\n    require(allowedNotaries.remove(notary));\n\n    emit NotaryUnregistered(notary);\n    return true;\n  }\n\n  /**\n   * @notice Sets the minimum initial budget for audits to be placed by a buyer\n   * on DataOrder creation.\n   * @dev The initial budget for audit is used as a preventive method to reduce\n   *      spam DataOrders in the network.\n   * @param _minimumInitialBudgetForAudits The new minimum for initial budget for\n   * audits per DataOrder.\n   * @return true if the value was successfully set, reverts otherwise.\n   */\n  function setMinimumInitialBudgetForAudits(\n    uint256 _minimumInitialBudgetForAudits\n  ) public onlyOwner whenNotPaused returns (bool) {\n    minimumInitialBudgetForAudits = _minimumInitialBudgetForAudits;\n    return true;\n  }\n\n  /**\n   * @notice Creates a new DataOrder.\n   * @dev The `msg.sender` will become the buyer of the order.\n   * @param filters Target audience of the order.\n   * @param dataRequest Requested data type (Geolocation, Facebook, etc).\n   * @param price Price per added Data Response.\n   * @param initialBudgetForAudits The initial budget set for future audits.\n   * @param termsAndConditions Buyer's terms and conditions for the order.\n   * @param buyerURL Public URL of the buyer where the data must be sent.\n   * @param publicKey Public Key of the buyer, which will be used to encrypt the\n   *        data to be sent.\n   * @return The address of the newly created DataOrder. If the DataOrder could\n   *         not be created, reverts.\n   */\n  function newOrder(\n    string filters,\n    string dataRequest,\n    uint256 price,\n    uint256 initialBudgetForAudits,\n    string termsAndConditions,\n    string buyerURL,\n    string publicKey\n  ) public whenNotPaused returns (address) {\n    require(initialBudgetForAudits >= minimumInitialBudgetForAudits);\n    require(token.allowance(msg.sender, this) >= initialBudgetForAudits);\n\n    address newOrderAddr = new DataOrder(\n      msg.sender,\n      filters,\n      dataRequest,\n      price,\n      termsAndConditions,\n      buyerURL,\n      publicKey\n    );\n\n    token.transferFrom(msg.sender, this, initialBudgetForAudits);\n    buyerRemainingBudgetForAudits[msg.sender][newOrderAddr] = initialBudgetForAudits;\n\n    ordersByBuyer[msg.sender].push(newOrderAddr);\n    orders[newOrderAddr] = true;\n\n    emit NewOrder(newOrderAddr);\n    return newOrderAddr;\n  }\n\n  /**\n   * @notice Adds a notary to the Data Order.\n   * @dev The `msg.sender` must be the buyer.\n   * @param orderAddr Order Address to accept notarize.\n   * @param notary Notary address.\n   * @param responsesPercentage Percentage of `DataResponses` to audit per DataOrder.\n   *        Value must be between 0 and 100.\n   * @param notarizationFee Fee to be charged per validation done.\n   * @param notarizationTermsOfService Notary's terms and conditions for the order.\n   * @param notarySignature Notary's signature over the other arguments.\n   * @return true if the Notary was added successfully, reverts otherwise.\n   */\n  function addNotaryToOrder(\n    address orderAddr,\n    address notary,\n    uint256 responsesPercentage,\n    uint256 notarizationFee,\n    string notarizationTermsOfService,\n    bytes notarySignature\n  ) public whenNotPaused isOrderLegit(orderAddr) validAddress(notary) returns (bool) {\n    DataOrder order = DataOrder(orderAddr);\n    address buyer = order.buyer();\n    require(msg.sender == buyer);\n\n    require(!order.hasNotaryBeenAdded(notary));\n    require(allowedNotaries.exist(notary));\n\n    require(\n      CryptoUtils.isNotaryAdditionValid(\n        orderAddr,\n        notary,\n        responsesPercentage,\n        notarizationFee,\n        notarizationTermsOfService,\n        notarySignature\n      )\n    );\n\n    bool okay = order.addNotary(\n      notary,\n      responsesPercentage,\n      notarizationFee,\n      notarizationTermsOfService\n    );\n\n    if (okay) {\n      openOrders.insert(orderAddr);\n      ordersByNotary[notary].push(orderAddr);\n      emit NotaryAddedToOrder(order, notary);\n    }\n    return okay;\n  }\n\n  /**\n   * @notice Adds a new DataResponse to the given order.\n   * @dev 1. The `msg.sender` must be the buyer of the order.\n   *      2. The buyer must allow the DataExchange to withdraw the price of the\n   *         order.\n   * @param orderAddr Order address where the DataResponse must be added.\n   * @param seller Address of the Seller.\n   * @param notary Notary address that the Seller chose to use as notarizer,\n   *        this must be one within the allowed notaries and within the\n   *        DataOrder's notaries.\n   * @param dataHash Hash of the data that must be sent, this is a SHA256.\n   * @param signature Signature of DataResponse.\n   * @return true if the DataResponse was set successfully, reverts otherwise.\n   */\n  function addDataResponseToOrder(\n    address orderAddr,\n    address seller,\n    address notary,\n    string dataHash,\n    bytes signature\n  ) public whenNotPaused isOrderLegit(orderAddr) returns (bool) {\n    DataOrder order = DataOrder(orderAddr);\n    address buyer = order.buyer();\n    require(msg.sender == buyer);\n    allDistinct(\n      [\n        orderAddr,\n        buyer,\n        seller,\n        notary,\n        address(this)\n      ]\n    );\n    require(order.hasNotaryBeenAdded(notary));\n\n    require(\n      CryptoUtils.isDataResponseValid(\n        orderAddr,\n        seller,\n        notary,\n        dataHash,\n        signature\n      )\n    );\n\n    bool okay = order.addDataResponse(\n      seller,\n      notary,\n      dataHash\n    );\n    require(okay);\n\n    chargeBuyer(order, seller);\n\n    ordersBySeller[seller].push(orderAddr);\n    emit DataAdded(order, seller);\n    return true;\n  }\n\n  /**\n   * @notice Closes a DataResponse.\n   * @dev Once the buyer receives the seller's data and checks that it is valid\n   *      or not, he must close the DataResponse signaling the result.\n   *        1. This method requires an offline signature from the notary set in\n   *           the DataResponse, which will indicate the audit result or if\n   *           the data was not audited at all.\n   *             - If the notary did not audit the data or it verifies that it was\n   *               valid, funds will be sent to the Seller.\n   *             - If the notary signals the data as invalid, funds will be\n   *               handed back to the Buyer.\n   *             - Otherwise, funds will be locked at the `DataExchange` contract\n   *               until the issue is solved.\n   *        2. This also works as a pause mechanism in case the system is\n   *           working under abnormal scenarios while allowing the parties to keep\n   *           exchanging information without losing their funds until the system\n   *           is back up.\n   *        3. The `msg.sender` must be the buyer or the notary in case the\n   *           former does not show up. Only through the notary's signature it is\n   *           decided who must receive the funds.\n   * @param orderAddr Order address where the DataResponse belongs to.\n   * @param seller Seller address.\n   * @param wasAudited Indicates whether the data was audited or not.\n   * @param isDataValid Indicates the result of the audit, if happened.\n   * @param notarySignature Off-chain Notary signature\n   * @return true if the DataResponse was successfully closed, reverts otherwise.\n   */\n  function closeDataResponse(\n    address orderAddr,\n    address seller,\n    bool wasAudited,\n    bool isDataValid,\n    bytes notarySignature\n  ) public whenNotPaused isOrderLegit(orderAddr) returns (bool) {\n    DataOrder order = DataOrder(orderAddr);\n    address buyer = order.buyer();\n    require(order.hasSellerBeenAccepted(seller));\n\n    address notary = order.getNotaryForSeller(seller);\n    require(msg.sender == buyer || msg.sender == notary);\n    require(\n      CryptoUtils.isNotaryVeredictValid(\n        orderAddr,\n        seller,\n        notary,\n        wasAudited,\n        isDataValid,\n        notarySignature\n      )\n    );\n    bool transactionCompleted = !wasAudited || isDataValid;\n    require(order.closeDataResponse(seller, transactionCompleted));\n    payPlayers(\n      order,\n      buyer,\n      seller,\n      notary,\n      wasAudited,\n      isDataValid\n    );\n\n    if (transactionCompleted) {\n      emit TransactionCompleted(order, seller);\n    } else {\n      emit RefundedToBuyer(order, buyer);\n    }\n    return true;\n  }\n\n  /**\n   * @notice Closes the DataOrder.\n   * @dev Onces the data is closed it will no longer accept new DataResponses.\n   *      The `msg.sender` must be the buyer of the order or the owner of the\n   *      contract in a emergency case.\n   * @param orderAddr Order address to close.\n   * @return true if the DataOrder was successfully closed, reverts otherwise.\n   */\n  function closeOrder(\n    address orderAddr\n  ) public whenNotPaused isOrderLegit(orderAddr) returns (bool) {\n    require(openOrders.exist(orderAddr));\n    DataOrder order = DataOrder(orderAddr);\n    address buyer = order.buyer();\n    require(msg.sender == buyer || msg.sender == owner);\n\n    bool okay = order.close();\n    if (okay) {\n      // remaining budget for audits go back to buyer.\n      uint256 remainingBudget = buyerRemainingBudgetForAudits[buyer][order];\n      buyerRemainingBudgetForAudits[buyer][order] = 0;\n      require(token.transfer(buyer, remainingBudget));\n\n      openOrders.remove(orderAddr);\n      emit OrderClosed(orderAddr);\n    }\n\n    return okay;\n  }\n\n  /**\n   * @notice Gets all the data orders associated with a notary.\n   * @param notary Notary address to get orders for.\n   * @return A list of DataOrder addresses.\n   */\n  function getOrdersForNotary(\n    address notary\n  ) public view validAddress(notary) returns (address[]) {\n    return ordersByNotary[notary];\n  }\n\n  /**\n   * @notice Gets all the data orders associated with a seller.\n   * @param seller Seller address to get orders for.\n   * @return List of DataOrder addresses.\n   */\n  function getOrdersForSeller(\n    address seller\n  ) public view validAddress(seller) returns (address[]) {\n    return ordersBySeller[seller];\n  }\n\n  /**\n   * @notice Gets all the data orders associated with a buyer.\n   * @param buyer Buyer address to get orders for.\n   * @return List of DataOrder addresses.\n   */\n  function getOrdersForBuyer(\n    address buyer\n  ) public view validAddress(buyer) returns (address[]) {\n    return ordersByBuyer[buyer];\n  }\n\n  /**\n   * @notice Gets all the open data orders, that is all the DataOrders that are\n   *         still receiving new DataResponses.\n   * @return List of DataOrder addresses.\n   */\n  function getOpenOrders() public view returns (address[]) {\n    return openOrders.addresses;\n  }\n\n  /**\n   * @dev Gets the list of allowed notaries.\n   * @return List of notary addresses.\n   */\n  function getAllowedNotaries() public view returns (address[]) {\n    return allowedNotaries.addresses;\n  }\n\n  /**\n   * @dev Gets information about a give notary.\n   * @param notary Notary address to get info for.\n   * @return Notary information (address, name, notaryUrl, publicKey, isActive).\n   */\n  function getNotaryInfo(\n    address notary\n  ) public view validAddress(notary) returns (address, string, string, string, bool) {\n    NotaryInfo memory info = notaryInfo[notary];\n\n    return (\n      info.addr,\n      info.name,\n      info.notaryUrl,\n      info.publicKey,\n      allowedNotaries.exist(notary)\n    );\n  }\n\n  /**\n   * @dev Requires that five addresses are distinct between themselves and zero.\n   * @param addresses array of five addresses to explore.\n   */\n  function allDistinct(address[5] addresses) private pure {\n    for (uint i = 0; i < addresses.length; i++) {\n      require(addresses[i] != address(0));\n      for (uint j = i + 1; j < addresses.length; j++) { // solium-disable-line zeppelin/no-arithmetic-operations\n        require(addresses[i] != addresses[j]);\n      }\n    }\n  }\n\n  /**\n   * @dev Charges a buyer the final charges for a given `DataResponse`.\n   * @notice 1. Tokens are held in the DataExchange contract until players are paid.\n   *         2. This function follows a basic invoice flow:\n   *\n   *               DataOrder price\n   *            + Notarization fee\n   *            ------------------\n   *                 Total charges\n   *            -  Prepaid charges (Minimum between Notarization fee and Buyer remaining budget)\n   *            ------------------\n   *                 Final charges\n   *\n   * @param order DataOrder to which the DataResponse applies.\n   * @param seller Address of the Seller.\n   */\n  function chargeBuyer(DataOrder order, address seller) private whenNotPaused {\n    address buyer = order.buyer();\n    address notary = order.getNotaryForSeller(seller);\n    uint256 remainingBudget = buyerRemainingBudgetForAudits[buyer][order];\n\n    uint256 orderPrice = order.price();\n    (,, uint256 notarizationFee,,) = order.getNotaryInfo(notary);\n    uint256 totalCharges = orderPrice.add(notarizationFee);\n\n    uint256 prePaid = Math.min256(notarizationFee, remainingBudget);\n    uint256 finalCharges = totalCharges.sub(prePaid);\n\n    buyerRemainingBudgetForAudits[buyer][order] = remainingBudget.sub(prePaid);\n    require(token.transferFrom(buyer, this, finalCharges));\n\n    // Bookkeeping of the available tokens paid by the Buyer and now in control\n    // of the DataExchange takes into account the total charges (final + pre-paid)\n    buyerBalance[buyer][order][seller] = buyerBalance[buyer][order][seller].add(totalCharges);\n  }\n\n  /**\n   * @dev Pays the seller, notary and/or buyer according to the notary's veredict.\n   * @param order DataOrder to which the payments apply.\n   * @param buyer Address of the Buyer.\n   * @param seller Address of the Seller.\n   * @param notary Address of the Notary.\n   * @param wasAudited Indicates whether the data was audited or not.\n   * @param isDataValid Indicates the result of the audit, if happened.\n   */\n  function payPlayers(\n    DataOrder order,\n    address buyer,\n    address seller,\n    address notary,\n    bool wasAudited,\n    bool isDataValid\n  ) private whenNotPaused {\n    uint256 orderPrice = order.price();\n    (,, uint256 notarizationFee,,) = order.getNotaryInfo(notary);\n    uint256 totalCharges = orderPrice.add(notarizationFee);\n\n    require(buyerBalance[buyer][order][seller] >= totalCharges);\n    buyerBalance[buyer][order][seller] = buyerBalance[buyer][order][seller].sub(totalCharges);\n\n    // if no notarization was done, notarization fee tokens go back to buyer.\n    address notarizationFeeReceiver = wasAudited ? notary : buyer;\n\n    // if no notarization was done or data is valid, tokens go to the seller\n    address orderPriceReceiver = (!wasAudited || isDataValid) ? seller : buyer;\n\n    require(token.transfer(notarizationFeeReceiver, notarizationFee));\n    require(token.transfer(orderPriceReceiver, orderPrice));\n  }\n\n}\n",
  "sourcePath": "/Users/grandata/work/wibson-core/contracts/DataExchange.sol",
  "compiler": {
    "name": "solc",
    "version": "0.4.24+commit.e67f0147.Emscripten.clang"
  },
  "schemaVersion": "2.0.0",
  "updatedAt": "2018-07-12T17:26:45.672Z"
}