{
  "contractName": "DataOrder",
  "abi": [
    {
      "constant": true,
      "inputs": [],
      "name": "orderStatus",
      "outputs": [
        {
          "name": "",
          "type": "uint8"
        }
      ],
      "payable": false,
      "stateMutability": "view",
      "type": "function"
    },
    {
      "constant": true,
      "inputs": [],
      "name": "transactionCompletedAt",
      "outputs": [
        {
          "name": "",
          "type": "uint32"
        }
      ],
      "payable": false,
      "stateMutability": "view",
      "type": "function"
    },
    {
      "constant": true,
      "inputs": [
        {
          "name": "",
          "type": "uint256"
        }
      ],
      "name": "notaries",
      "outputs": [
        {
          "name": "",
          "type": "address"
        }
      ],
      "payable": false,
      "stateMutability": "view",
      "type": "function"
    },
    {
      "constant": false,
      "inputs": [],
      "name": "renounceOwnership",
      "outputs": [],
      "payable": false,
      "stateMutability": "nonpayable",
      "type": "function"
    },
    {
      "constant": true,
      "inputs": [],
      "name": "buyer",
      "outputs": [
        {
          "name": "",
          "type": "address"
        }
      ],
      "payable": false,
      "stateMutability": "view",
      "type": "function"
    },
    {
      "constant": true,
      "inputs": [],
      "name": "buyerPublicKey",
      "outputs": [
        {
          "name": "",
          "type": "string"
        }
      ],
      "payable": false,
      "stateMutability": "view",
      "type": "function"
    },
    {
      "constant": true,
      "inputs": [],
      "name": "owner",
      "outputs": [
        {
          "name": "",
          "type": "address"
        }
      ],
      "payable": false,
      "stateMutability": "view",
      "type": "function"
    },
    {
      "constant": true,
      "inputs": [
        {
          "name": "",
          "type": "address"
        }
      ],
      "name": "sellerInfo",
      "outputs": [
        {
          "name": "notary",
          "type": "address"
        },
        {
          "name": "dataHash",
          "type": "string"
        },
        {
          "name": "createdAt",
          "type": "uint32"
        },
        {
          "name": "closedAt",
          "type": "uint32"
        },
        {
          "name": "status",
          "type": "uint8"
        }
      ],
      "payable": false,
      "stateMutability": "view",
      "type": "function"
    },
    {
      "constant": true,
      "inputs": [],
      "name": "price",
      "outputs": [
        {
          "name": "",
          "type": "uint256"
        }
      ],
      "payable": false,
      "stateMutability": "view",
      "type": "function"
    },
    {
      "constant": true,
      "inputs": [],
      "name": "filters",
      "outputs": [
        {
          "name": "",
          "type": "string"
        }
      ],
      "payable": false,
      "stateMutability": "view",
      "type": "function"
    },
    {
      "constant": true,
      "inputs": [
        {
          "name": "",
          "type": "uint256"
        }
      ],
      "name": "sellers",
      "outputs": [
        {
          "name": "",
          "type": "address"
        }
      ],
      "payable": false,
      "stateMutability": "view",
      "type": "function"
    },
    {
      "constant": true,
      "inputs": [],
      "name": "createdAt",
      "outputs": [
        {
          "name": "",
          "type": "uint32"
        }
      ],
      "payable": false,
      "stateMutability": "view",
      "type": "function"
    },
    {
      "constant": true,
      "inputs": [],
      "name": "buyerURL",
      "outputs": [
        {
          "name": "",
          "type": "string"
        }
      ],
      "payable": false,
      "stateMutability": "view",
      "type": "function"
    },
    {
      "constant": true,
      "inputs": [],
      "name": "dataRequest",
      "outputs": [
        {
          "name": "",
          "type": "string"
        }
      ],
      "payable": false,
      "stateMutability": "view",
      "type": "function"
    },
    {
      "constant": false,
      "inputs": [
        {
          "name": "_newOwner",
          "type": "address"
        }
      ],
      "name": "transferOwnership",
      "outputs": [],
      "payable": false,
      "stateMutability": "nonpayable",
      "type": "function"
    },
    {
      "constant": true,
      "inputs": [],
      "name": "termsAndConditions",
      "outputs": [
        {
          "name": "",
          "type": "string"
        }
      ],
      "payable": false,
      "stateMutability": "view",
      "type": "function"
    },
    {
      "inputs": [
        {
          "name": "_buyer",
          "type": "address"
        },
        {
          "name": "_filters",
          "type": "string"
        },
        {
          "name": "_dataRequest",
          "type": "string"
        },
        {
          "name": "_price",
          "type": "uint256"
        },
        {
          "name": "_termsAndConditions",
          "type": "string"
        },
        {
          "name": "_buyerURL",
          "type": "string"
        },
        {
          "name": "_buyerPublicKey",
          "type": "string"
        }
      ],
      "payable": false,
      "stateMutability": "nonpayable",
      "type": "constructor"
    },
    {
      "anonymous": false,
      "inputs": [
        {
          "indexed": true,
          "name": "previousOwner",
          "type": "address"
        }
      ],
      "name": "OwnershipRenounced",
      "type": "event"
    },
    {
      "anonymous": false,
      "inputs": [
        {
          "indexed": true,
          "name": "previousOwner",
          "type": "address"
        },
        {
          "indexed": true,
          "name": "newOwner",
          "type": "address"
        }
      ],
      "name": "OwnershipTransferred",
      "type": "event"
    },
    {
      "constant": false,
      "inputs": [
        {
          "name": "notary",
          "type": "address"
        },
        {
          "name": "responsesPercentage",
          "type": "uint256"
        },
        {
          "name": "notarizationFee",
          "type": "uint256"
        },
        {
          "name": "notarizationTermsOfService",
          "type": "string"
        }
      ],
      "name": "addNotary",
      "outputs": [
        {
          "name": "",
          "type": "bool"
        }
      ],
      "payable": false,
      "stateMutability": "nonpayable",
      "type": "function"
    },
    {
      "constant": false,
      "inputs": [
        {
          "name": "seller",
          "type": "address"
        },
        {
          "name": "notary",
          "type": "address"
        },
        {
          "name": "dataHash",
          "type": "string"
        }
      ],
      "name": "addDataResponse",
      "outputs": [
        {
          "name": "",
          "type": "bool"
        }
      ],
      "payable": false,
      "stateMutability": "nonpayable",
      "type": "function"
    },
    {
      "constant": false,
      "inputs": [
        {
          "name": "seller",
          "type": "address"
        },
        {
          "name": "transactionCompleted",
          "type": "bool"
        }
      ],
      "name": "closeDataResponse",
      "outputs": [
        {
          "name": "",
          "type": "bool"
        }
      ],
      "payable": false,
      "stateMutability": "nonpayable",
      "type": "function"
    },
    {
      "constant": false,
      "inputs": [],
      "name": "close",
      "outputs": [
        {
          "name": "",
          "type": "bool"
        }
      ],
      "payable": false,
      "stateMutability": "nonpayable",
      "type": "function"
    },
    {
      "constant": true,
      "inputs": [
        {
          "name": "seller",
          "type": "address"
        }
      ],
      "name": "hasSellerBeenAccepted",
      "outputs": [
        {
          "name": "",
          "type": "bool"
        }
      ],
      "payable": false,
      "stateMutability": "view",
      "type": "function"
    },
    {
      "constant": true,
      "inputs": [
        {
          "name": "notary",
          "type": "address"
        }
      ],
      "name": "hasNotaryBeenAdded",
      "outputs": [
        {
          "name": "",
          "type": "bool"
        }
      ],
      "payable": false,
      "stateMutability": "view",
      "type": "function"
    },
    {
      "constant": true,
      "inputs": [
        {
          "name": "notary",
          "type": "address"
        }
      ],
      "name": "getNotaryInfo",
      "outputs": [
        {
          "name": "",
          "type": "address"
        },
        {
          "name": "",
          "type": "uint256"
        },
        {
          "name": "",
          "type": "uint256"
        },
        {
          "name": "",
          "type": "string"
        },
        {
          "name": "",
          "type": "uint32"
        }
      ],
      "payable": false,
      "stateMutability": "view",
      "type": "function"
    },
    {
      "constant": true,
      "inputs": [
        {
          "name": "seller",
          "type": "address"
        }
      ],
      "name": "getSellerInfo",
      "outputs": [
        {
          "name": "",
          "type": "address"
        },
        {
          "name": "",
          "type": "address"
        },
        {
          "name": "",
          "type": "string"
        },
        {
          "name": "",
          "type": "uint32"
        },
        {
          "name": "",
          "type": "uint32"
        },
        {
          "name": "",
          "type": "bytes32"
        }
      ],
      "payable": false,
      "stateMutability": "view",
      "type": "function"
    },
    {
      "constant": true,
      "inputs": [
        {
          "name": "seller",
          "type": "address"
        }
      ],
      "name": "getNotaryForSeller",
      "outputs": [
        {
          "name": "",
          "type": "address"
        }
      ],
      "payable": false,
      "stateMutability": "view",
      "type": "function"
    }
  ],
  "bytecode": "0x60806040523480156200001157600080fd5b5060405162001aaa38038062001aaa83398101604090815281516020830151918301516060840151608085015160a086015160c087015160008054600160a060020a0319163317905594969586019593840194929391820192908201910186600160a060020a03811615156200008657600080fd5b600160a060020a0381163014156200009d57600080fd5b8251600010620000ac57600080fd5b8151600010620000bb57600080fd5b60018054600160a060020a031916600160a060020a038a161790558651620000eb9060029060208a01906200017d565b508551620001019060039060208901906200017d565b50600485905583516200011c9060059060208701906200017d565b508251620001329060069060208601906200017d565b508151620001489060079060208501906200017d565b50506008805468ff00000000ffffffff19164263ffffffff161767ffffffff0000000019169055506200022295505050505050565b828054600181600116156101000203166002900490600052602060002090601f016020900481019282601f10620001c057805160ff1916838001178555620001f0565b82800160010185558215620001f0579182015b82811115620001f0578251825591602001919060010190620001d3565b50620001fe92915062000202565b5090565b6200021f91905b80821115620001fe576000815560010162000209565b90565b61187880620002326000396000f3006080604052600436106101485763ffffffff7c01000000000000000000000000000000000000000000000000000000006000350416632728e28b811461014d5780634372df991461018657806343ca78a2146101c357806343d726d61461029657806343dcbc86146102bf57806350234173146102e0578063600f1f2b1461034c5780636d4b76d51461037a578063715018a6146103925780637150d8ae146103a95780637d4ccb14146103be5780638da5cb5b1461044857806396661b041461045d57806396e8150a14610483578063a035b1fe1461051b578063b1f4ff9014610542578063c081efc114610557578063cee26ed514610578578063cf09e0d014610590578063cf317b7e146105a5578063d778ce3c14610679578063ec9359401461068e578063f2fde38b146106a3578063f678462f146106c4578063ffaef25e146106d9575b600080fd5b34801561015957600080fd5b50610162610748565b6040518082600281111561017257fe5b60ff16815260200191505060405180910390f35b34801561019257600080fd5b506101a7600160a060020a036004351661075d565b60408051600160a060020a039092168252519081900360200190f35b3480156101cf57600080fd5b506101e4600160a060020a03600435166108c0565b6040518086600160a060020a0316600160a060020a03168152602001858152602001848152602001806020018363ffffffff1663ffffffff168152602001828103825284818151815260200191508051906020019080838360005b8381101561025757818101518382015260200161023f565b50505050905090810190601f1680156102845780820380516001836020036101000a031916815260200191505b50965050505050505060405180910390f35b3480156102a257600080fd5b506102ab610a0c565b604080519115158252519081900360200190f35b3480156102cb57600080fd5b506102ab600160a060020a0360043516610aa7565b3480156102ec57600080fd5b50604080516020601f6064356004818101359283018490048402850184019095528184526102ab94600160a060020a038135169460248035956044359536956084949301918190840183828082843750949750610afd9650505050505050565b34801561035857600080fd5b50610361610c86565b6040805163ffffffff9092168252519081900360200190f35b34801561038657600080fd5b506101a7600435610c9a565b34801561039e57600080fd5b506103a7610cc2565b005b3480156103b557600080fd5b506101a7610d2e565b3480156103ca57600080fd5b506103d3610d3d565b6040805160208082528351818301528351919283929083019185019080838360005b8381101561040d5781810151838201526020016103f5565b50505050905090810190601f16801561043a5780820380516001836020036101000a031916815260200191505b509250505060405180910390f35b34801561045457600080fd5b506101a7610dcb565b34801561046957600080fd5b506102ab600160a060020a03600435166024351515610dda565b34801561048f57600080fd5b506104a4600160a060020a0360043516610f54565b60408051600160a060020a038716815263ffffffff80861692820192909252908316606082015260208101608082018360028111156104df57fe5b60ff168152602001828103825286818151815260200191508051906020019080838360008381101561025757818101518382015260200161023f565b34801561052757600080fd5b50610530611033565b60408051918252519081900360200190f35b34801561054e57600080fd5b506103d3611039565b34801561056357600080fd5b506102ab600160a060020a0360043516611091565b34801561058457600080fd5b506101a76004356110e7565b34801561059c57600080fd5b506103616110f5565b3480156105b157600080fd5b506105c6600160a060020a0360043516611101565b60408051600160a060020a038089168252871660208083019190915263ffffffff80871660608401528516608083015260a0820184905260c0928201838152875193830193909352865191929160e084019188019080838360005b83811015610639578181015183820152602001610621565b50505050905090810190601f1680156106665780820380516001836020036101000a031916815260200191505b5097505050505050505060405180910390f35b34801561068557600080fd5b506103d361129e565b34801561069a57600080fd5b506103d36112f9565b3480156106af57600080fd5b506103a7600160a060020a0360043516611354565b3480156106d057600080fd5b506103d3611377565b3480156106e557600080fd5b50604080516020600460443581810135601f81018490048402850184019095528484526102ab948235600160a060020a03908116956024803590921695369594606494929301919081908401838280828437509497506113d29650505050505050565b60085468010000000000000000900460ff1681565b6000610767611758565b82600160a060020a038116151561077d57600080fd5b600160a060020a03811630141561079357600080fd5b61079c84611091565b15156107a757600080fd5b600160a060020a03848116600090815260096020908152604091829020825160a08101845281549094168452600180820180548551600261010094831615949094026000190190911692909204601f81018590048502830185019095528482529193858401939192918301828280156108615780601f1061083657610100808354040283529160200191610861565b820191906000526020600020905b81548152906001019060200180831161084457829003601f168201915b505050918352505060028281015463ffffffff8082166020850152640100000000820416604084015260609092019168010000000000000000900460ff16908111156108a957fe5b60028111156108b457fe5b90525051949350505050565b6000806000606060006108d1611785565b86600160a060020a03811615156108e757600080fd5b600160a060020a0381163014156108fd57600080fd5b61090688610aa7565b151561091157600080fd5b600160a060020a0388166000908152600a6020908152604091829020825160808101845281548152600180830154828501526002808401805487519381161561010002600019011691909104601f810186900486028301860187528083529295939493860193919290918301828280156109cc5780601f106109a1576101008083540402835291602001916109cc565b820191906000526020600020905b8154815290600101906020018083116109af57829003601f168201915b50505091835250506003919091015463ffffffff1660209182015281519082015160408301516060909301519a9b919a9099509197509095509350505050565b60008054600160a060020a03163314610a2457600080fd5b600260085468010000000000000000900460ff166002811115610a4357fe5b1415610a4e57600080fd5b600854640100000000900463ffffffff1615610a6957600080fd5b506008805468ff00000000000000001916680200000000000000001767ffffffff0000000019166401000000004263ffffffff160217905560015b90565b600081600160a060020a0381161515610abf57600080fd5b600160a060020a038116301415610ad557600080fd5b5050600160a060020a03166000908152600a602052604090206003015463ffffffff16151590565b60008054600160a060020a03163314610b1557600080fd5b84600160a060020a0381161515610b2b57600080fd5b600160a060020a038116301415610b4157600080fd5b600854640100000000900463ffffffff1615610b5c57600080fd5b6064851115610b6a57600080fd5b610b7386610aa7565b15610b7d57600080fd5b60408051608081018252868152602080820187815282840187815263ffffffff42166060850152600160a060020a038b166000908152600a845294909420835181559051600182015592518051929392610bdd92600285019201906117b4565b50606091909101516003909101805463ffffffff191663ffffffff909216919091179055600c8054600181810183556000929092527fdf6966c971051c3d54ec59162606531493a51404a002842f56009d7e5cf4a8c701805473ffffffffffffffffffffffffffffffffffffffff1916600160a060020a0389161790556008805468ff000000000000000019166801000000000000000083021790555060019695505050505050565b600854640100000000900463ffffffff1681565b600c805482908110610ca857fe5b600091825260209091200154600160a060020a0316905081565b600054600160a060020a03163314610cd957600080fd5b60008054604051600160a060020a03909116917ff8df31144d9c2f0f6b59d69b8b98abd5459d07f2742c4df920b25aae33c6482091a26000805473ffffffffffffffffffffffffffffffffffffffff19169055565b600154600160a060020a031681565b6007805460408051602060026001851615610100026000190190941693909304601f81018490048402820184019092528181529291830182828015610dc35780601f10610d9857610100808354040283529160200191610dc3565b820191906000526020600020905b815481529060010190602001808311610da657829003601f168201915b505050505081565b600054600160a060020a031681565b60008054600160a060020a03163314610df257600080fd5b82600160a060020a0381161515610e0857600080fd5b600160a060020a038116301415610e1e57600080fd5b600260085468010000000000000000900460ff166002811115610e3d57fe5b1415610e4857600080fd5b600854640100000000900463ffffffff1615610e6357600080fd5b610e6c84611091565b1515610e7757600080fd5b6000600160a060020a038516600090815260096020526040902060029081015468010000000000000000900460ff1690811115610eb057fe5b14610eba57600080fd5b82610ec6576001610ec9565b60025b600160a060020a038516600090815260096020526040902060029081018054909168ff0000000000000000199091169068010000000000000000908490811115610f0f57fe5b0217905550505050600160a060020a03166000908152600960205260409020600201805467ffffffff0000000019166401000000004263ffffffff1602179055600190565b6009602090815260009182526040918290208054600180830180548651600261010094831615949094026000190190911692909204601f8101869004860283018601909652858252600160a060020a03909216949293909290830182828015610ffe5780601f10610fd357610100808354040283529160200191610ffe565b820191906000526020600020905b815481529060010190602001808311610fe157829003601f168201915b5050506002909301549192505063ffffffff8082169164010000000081049091169060ff680100000000000000009091041685565b60045481565b6002805460408051602060018416156101000260001901909316849004601f81018490048402820184019092528181529291830182828015610dc35780601f10610d9857610100808354040283529160200191610dc3565b600081600160a060020a03811615156110a957600080fd5b600160a060020a0381163014156110bf57600080fd5b5050600160a060020a031660009081526009602052604090206002015463ffffffff16151590565b600b805482908110610ca857fe5b60085463ffffffff1681565b60008060606000806000611113611758565b87600160a060020a038116151561112957600080fd5b600160a060020a03811630141561113f57600080fd5b61114889611091565b151561115357600080fd5b600160a060020a03898116600090815260096020908152604091829020825160a08101845281549094168452600180820180548551600261010094831615949094026000190190911692909204601f810185900485028301850190955284825291938584019391929183018282801561120d5780601f106111e25761010080835404028352916020019161120d565b820191906000526020600020905b8154815290600101906020018083116111f057829003601f168201915b505050918352505060028281015463ffffffff8082166020850152640100000000820416604084015260609092019168010000000000000000900460ff169081111561125557fe5b600281111561126057fe5b8152505091508882600001518360200151846040015185606001516112888760800151611628565b949e939d50919b50995097509095509350505050565b6006805460408051602060026001851615610100026000190190941693909304601f81018490048402820184019092528181529291830182828015610dc35780601f10610d9857610100808354040283529160200191610dc3565b6003805460408051602060026001851615610100026000190190941693909304601f81018490048402820184019092528181529291830182828015610dc35780601f10610d9857610100808354040283529160200191610dc3565b600054600160a060020a0316331461136b57600080fd5b611374816116db565b50565b6005805460408051602060026001851615610100026000190190941693909304601f81018490048402820184019092528181529291830182828015610dc35780601f10610d9857610100808354040283529160200191610dc3565b60008054600160a060020a031633146113ea57600080fd5b83600160a060020a038116151561140057600080fd5b600160a060020a03811630141561141657600080fd5b83600160a060020a038116151561142c57600080fd5b600160a060020a03811630141561144257600080fd5b600160085468010000000000000000900460ff16600281111561146157fe5b1461146b57600080fd5b600854640100000000900463ffffffff161561148657600080fd5b61148f86611091565b1561149957600080fd5b6114a285610aa7565b15156114ad57600080fd5b60a06040519081016040528086600160a060020a031681526020018581526020014263ffffffff168152602001600063ffffffff168152602001600060028111156114f457fe5b9052600160a060020a0387811660009081526009602090815260409091208351815473ffffffffffffffffffffffffffffffffffffffff1916931692909217825582810151805161154b92600185019201906117b4565b50604082015160028083018054606086015163ffffffff9081166401000000000267ffffffff00000000199190951663ffffffff199092169190911716929092178083556080850151929168ff00000000000000001990911690680100000000000000009084908111156115bb57fe5b021790555050600b8054600181810183556000929092527f0175b7a638427703f0dbe7bb9bbf987a2551717b34e79f33b5b1008d1fa01db9018054600160a060020a038a1673ffffffffffffffffffffffffffffffffffffffff1990911617905593505050509392505050565b60008082600281111561163757fe5b141561166457507f44617461526573706f6e736541646465640000000000000000000000000000006116d6565b600182600281111561167257fe5b141561169f57507f526566756e646564546f427579657200000000000000000000000000000000006116d6565b60028260028111156116ad57fe5b141561014857507f5472616e73616374696f6e436f6d706c657465640000000000000000000000005b919050565b600160a060020a03811615156116f057600080fd5b60008054604051600160a060020a03808516939216917f8be0079c531659141344cd1fd0a4f28419497f9722a3daafe3b4186f6b6457e091a36000805473ffffffffffffffffffffffffffffffffffffffff1916600160a060020a0392909216919091179055565b6040805160a081018252600080825260606020830181905292820181905291810182905290608082015290565b608060405190810160405280600081526020016000815260200160608152602001600063ffffffff1681525090565b828054600181600116156101000203166002900490600052602060002090601f016020900481019282601f106117f557805160ff1916838001178555611822565b82800160010185558215611822579182015b82811115611822578251825591602001919060010190611807565b5061182e929150611832565b5090565b610aa491905b8082111561182e57600081556001016118385600a165627a7a7230582050296bb8c82fdb70d7408b227f2eb29976b70d8d1198aff09334d837ed9fc1c70029",
  "source": "pragma solidity ^0.4.24;\n\nimport \"zeppelin-solidity/contracts/ownership/Ownable.sol\";\n\n\n/**\n * @title DataOrder\n * @author Wibson Development Team <developers@wibson.org>\n * @notice `DataOrder` is the contract between a given buyer and a set of sellers.\n *         This holds the information about the \"deal\" between them and how the\n *         transaction has evolved.\n */\ncontract DataOrder is Ownable {\n  modifier validAddress(address addr) {\n    require(addr != address(0));\n    require(addr != address(this));\n    _;\n  }\n\n  enum OrderStatus {\n    OrderCreated,\n    NotaryAdded,\n    TransactionCompleted\n  }\n\n  enum DataResponseStatus {\n    DataResponseAdded,\n    RefundedToBuyer,\n    TransactionCompleted\n  }\n\n  // --- Notary Information ---\n  struct NotaryInfo {\n    uint256 responsesPercentage;\n    uint256 notarizationFee;\n    string notarizationTermsOfService;\n    uint32 addedAt;\n  }\n\n  // --- Seller Information ---\n  struct SellerInfo {\n    address notary;\n    string dataHash;\n    uint32 createdAt;\n    uint32 closedAt;\n    DataResponseStatus status;\n  }\n\n  address public buyer;\n  string public filters;\n  string public dataRequest;\n  uint256 public price;\n  string public termsAndConditions;\n  string public buyerURL;\n  string public buyerPublicKey;\n  uint32 public createdAt;\n  uint32 public transactionCompletedAt;\n  OrderStatus public orderStatus;\n\n  mapping(address => SellerInfo) public sellerInfo;\n  mapping(address => NotaryInfo) internal notaryInfo;\n\n  address[] public sellers;\n  address[] public notaries;\n\n  /**\n   * @notice Contract's constructor.\n   * @param _buyer Buyer address\n   * @param _filters Target audience of the order.\n   * @param _dataRequest Requested data type (Geolocation, Facebook, etc).\n   * @param _price Price per added Data Response.\n   * @param _termsAndConditions Copy of the terms and conditions for the order.\n   * @param _buyerURL Public URL of the buyer where the data must be sent.\n   * @param _buyerPublicKey Public Key of the buyer, which will be used to encrypt the\n   *        data to be sent.\n   */\n  constructor(\n    address _buyer,\n    string _filters,\n    string _dataRequest,\n    uint256 _price,\n    string _termsAndConditions,\n    string _buyerURL,\n    string _buyerPublicKey\n  ) public validAddress(_buyer) {\n    require(bytes(_buyerURL).length > 0);\n    require(bytes(_buyerPublicKey).length > 0);\n\n    buyer = _buyer;\n    filters = _filters;\n    dataRequest = _dataRequest;\n    price = _price;\n    termsAndConditions = _termsAndConditions;\n    buyerURL = _buyerURL;\n    buyerPublicKey = _buyerPublicKey;\n    orderStatus = OrderStatus.OrderCreated;\n    createdAt = uint32(block.timestamp);\n    transactionCompletedAt = 0;\n  }\n\n  /**\n   * @notice Adds a notary to the Data Order.\n   * @param notary Notary's address.\n   * @param responsesPercentage Percentage of DataResponses to audit per DataOrder.\n            Value must be between 0 and 100.\n   * @param notarizationFee Fee to be charged per validation done.\n   * @param notarizationTermsOfService Notary's terms and conditions for the order.\n   * @return true if the Notary was added successfully, reverts otherwise.\n   */\n  function addNotary(\n    address notary,\n    uint256 responsesPercentage,\n    uint256 notarizationFee,\n    string notarizationTermsOfService\n  ) public onlyOwner validAddress(notary) returns (bool) {\n    require(transactionCompletedAt == 0);\n    require(responsesPercentage <= 100);\n    require(!hasNotaryBeenAdded(notary));\n\n    notaryInfo[notary] = NotaryInfo(\n      responsesPercentage,\n      notarizationFee,\n      notarizationTermsOfService,\n      uint32(block.timestamp)\n    );\n    notaries.push(notary);\n    orderStatus = OrderStatus.NotaryAdded;\n    return true;\n  }\n\n   /**\n    * @notice Adds a new DataResponse.\n    * @param seller Address of the Seller.\n    * @param notary Notary address that the Seller chooses to use as notary,\n    *        this must be one within the allowed notaries and within the\n    *         DataOrder's notaries.\n    * @param dataHash Hash of the data that must be sent, this is a SHA256.\n    * @return true if the DataResponse was added successfully, reverts otherwise.\n    */\n  function addDataResponse(\n    address seller,\n    address notary,\n    string dataHash\n  ) public onlyOwner validAddress(seller) validAddress(notary) returns (bool) {\n    require(orderStatus == OrderStatus.NotaryAdded);\n    require(transactionCompletedAt == 0);\n    require(!hasSellerBeenAccepted(seller));\n    require(hasNotaryBeenAdded(notary));\n\n    sellerInfo[seller] = SellerInfo(\n      notary,\n      dataHash,\n      uint32(block.timestamp),\n      0,\n      DataResponseStatus.DataResponseAdded\n    );\n\n    sellers.push(seller);\n\n    return true;\n  }\n\n  /**\n   * @notice Closes a DataResponse.\n   * @dev Once the buyer receives the seller's data and checks that it is valid\n   *      or not, he must signal  DataResponse as completed.\n   * @param seller Seller address.\n   * @param transactionCompleted True, if the seller got paid for his/her data.\n   * @return true if DataResponse was successfully closed, reverts otherwise.\n   */\n  function closeDataResponse(\n    address seller,\n    bool transactionCompleted\n  ) public onlyOwner validAddress(seller) returns (bool) {\n    require(orderStatus != OrderStatus.TransactionCompleted);\n    require(transactionCompletedAt == 0);\n    require(hasSellerBeenAccepted(seller));\n    require(sellerInfo[seller].status == DataResponseStatus.DataResponseAdded);\n\n    sellerInfo[seller].status = transactionCompleted\n      ? DataResponseStatus.TransactionCompleted\n      : DataResponseStatus.RefundedToBuyer;\n    sellerInfo[seller].closedAt = uint32(block.timestamp);\n    return true;\n  }\n\n  /**\n   * @notice Closes the Data order.\n   * @dev Once the DataOrder is closed it will no longer accept new DataResponses.\n   * @return true if the DataOrder was successfully closed, reverts otherwise.\n   */\n  function close() public onlyOwner returns (bool) {\n    require(orderStatus != OrderStatus.TransactionCompleted);\n    require(transactionCompletedAt == 0);\n    orderStatus = OrderStatus.TransactionCompleted;\n    transactionCompletedAt = uint32(block.timestamp);\n    return true;\n  }\n\n  /**\n   * @notice Checks if a DataResponse for a given seller has been accepted.\n   * @param seller Seller address.\n   * @return true if the DataResponse was accepted, false otherwise.\n   */\n  function hasSellerBeenAccepted(\n    address seller\n  ) public view validAddress(seller) returns (bool) {\n    return sellerInfo[seller].createdAt != 0;\n  }\n\n  /**\n   * @notice Checks if the given notary was added to notarize this DataOrder.\n   * @param notary Notary address to check.\n   * @return true if the Notary was added, false otherwise.\n   */\n  function hasNotaryBeenAdded(\n    address notary\n  ) public view validAddress(notary) returns (bool) {\n    return notaryInfo[notary].addedAt != 0;\n  }\n\n  /**\n   * @notice Gets the notary information.\n   * @param notary Notary address to get info for.\n   * @return Notary information (address, responsesPercentage, notarizationFee,\n   *         notarizationTermsOfService, addedAt)\n   */\n  function getNotaryInfo(\n    address notary\n  ) public view validAddress(notary) returns (\n    address,\n    uint256,\n    uint256,\n    string,\n    uint32\n  ) {\n    require(hasNotaryBeenAdded(notary));\n    NotaryInfo memory info = notaryInfo[notary];\n    return (\n      notary,\n      info.responsesPercentage,\n      info.notarizationFee,\n      info.notarizationTermsOfService,\n      uint32(info.addedAt)\n    );\n  }\n\n  /**\n   * @notice Gets the seller information.\n   * @param seller Seller address to get info for.\n   * @return Seller information (address, notary, dataHash, createdAt, closedAt,\n   *         status)\n   */\n  function getSellerInfo(\n    address seller\n  ) public view validAddress(seller) returns (\n    address,\n    address,\n    string,\n    uint32,\n    uint32,\n    bytes32\n  ) {\n    require(hasSellerBeenAccepted(seller));\n    SellerInfo memory info = sellerInfo[seller];\n    return (\n      seller,\n      info.notary,\n      info.dataHash,\n      uint32(info.createdAt),\n      uint32(info.closedAt),\n      getDataResponseStatusAsString(info.status)\n    );\n  }\n\n  /**\n   * @notice Gets the selected notary for the given seller.\n   * @param seller Seller address.\n   * @return Address of the notary assigned to the given seller.\n   */\n  function getNotaryForSeller(\n    address seller\n  ) public view validAddress(seller) returns (address) {\n    require(hasSellerBeenAccepted(seller));\n    SellerInfo memory info = sellerInfo[seller];\n    return info.notary;\n  }\n\n  function getDataResponseStatusAsString(\n    DataResponseStatus drs\n  ) internal pure returns (bytes32) {\n    if (drs == DataResponseStatus.DataResponseAdded) {\n      return bytes32(\"DataResponseAdded\");\n    }\n\n    if (drs == DataResponseStatus.RefundedToBuyer) {\n      return bytes32(\"RefundedToBuyer\");\n    }\n\n    if (drs == DataResponseStatus.TransactionCompleted) {\n      return bytes32(\"TransactionCompleted\");\n    }\n\n    throw; // solium-disable-line security/no-throw\n  }\n\n}\n",
  "sourcePath": "/Users/grandata/work/wibson-core/contracts/DataOrder.sol",
  "compiler": {
    "name": "solc",
    "version": "0.4.24+commit.e67f0147.Emscripten.clang"
  },
  "schemaVersion": "2.0.0",
  "updatedAt": "2018-07-12T17:26:45.650Z"
}