{
  "contractName": "DataExchange",
  "abi": [
    {
      "anonymous": false,
      "inputs": [
        {
          "indexed": true,
          "name": "notary",
          "type": "address"
        },
        {
          "indexed": false,
          "name": "notaryUrl",
          "type": "string"
        }
      ],
      "name": "NotaryRegistered",
      "type": "event",
      "signature": "0xe89d0a5c1c3ef98dff90085eabb0e4b4a96244277ee3c5f81679a024c2ce9cf0"
    },
    {
      "anonymous": false,
      "inputs": [
        {
          "indexed": true,
          "name": "notary",
          "type": "address"
        },
        {
          "indexed": false,
          "name": "oldNotaryUrl",
          "type": "string"
        },
        {
          "indexed": false,
          "name": "newNotaryUrl",
          "type": "string"
        }
      ],
      "name": "NotaryUpdated",
      "type": "event",
      "signature": "0xb70d3d37cb3ca66ae3b9b82cfde193d73dae787d22b77f7c714a573b5e767de6"
    },
    {
      "anonymous": false,
      "inputs": [
        {
          "indexed": true,
          "name": "notary",
          "type": "address"
        },
        {
          "indexed": false,
          "name": "oldNotaryUrl",
          "type": "string"
        }
      ],
      "name": "NotaryUnregistered",
      "type": "event",
      "signature": "0xc765bc669d1eb91e88bd36aad9553c82972428e1a8ebd89a711deab18a953d36"
    },
    {
      "anonymous": false,
      "inputs": [
        {
          "indexed": true,
          "name": "orderId",
          "type": "uint256"
        },
        {
          "indexed": true,
          "name": "buyer",
          "type": "address"
        }
      ],
      "name": "DataOrderCreated",
      "type": "event",
      "signature": "0x4da70a6c86467b0d5d574c4b27418883408d1b0f13cc7d81aed73206b8339b3b"
    },
    {
      "anonymous": false,
      "inputs": [
        {
          "indexed": true,
          "name": "orderId",
          "type": "uint256"
        },
        {
          "indexed": true,
          "name": "buyer",
          "type": "address"
        }
      ],
      "name": "DataOrderClosed",
      "type": "event",
      "signature": "0x2a0373e2121813fd2621a2f2f56a80ebe2b7640382489cc0e3dbe8f6d5191ec6"
    },
    {
      "constant": false,
      "inputs": [
        {
          "name": "notaryUrl",
          "type": "string"
        }
      ],
      "name": "registerNotary",
      "outputs": [
        {
          "name": "",
          "type": "bool"
        }
      ],
      "payable": false,
      "stateMutability": "nonpayable",
      "type": "function",
      "signature": "0xff0d34cf"
    },
    {
      "constant": false,
      "inputs": [
        {
          "name": "newNotaryUrl",
          "type": "string"
        }
      ],
      "name": "updateNotaryUrl",
      "outputs": [
        {
          "name": "",
          "type": "bool"
        }
      ],
      "payable": false,
      "stateMutability": "nonpayable",
      "type": "function",
      "signature": "0x3e90280d"
    },
    {
      "constant": false,
      "inputs": [],
      "name": "unregisterNotary",
      "outputs": [
        {
          "name": "",
          "type": "bool"
        }
      ],
      "payable": false,
      "stateMutability": "nonpayable",
      "type": "function",
      "signature": "0x54a95980"
    },
    {
      "constant": false,
      "inputs": [
        {
          "name": "audience",
          "type": "string"
        },
        {
          "name": "price",
          "type": "uint256"
        },
        {
          "name": "requestedData",
          "type": "string"
        },
        {
          "name": "termsAndConditionsHash",
          "type": "bytes32"
        },
        {
          "name": "buyerUrl",
          "type": "string"
        }
      ],
      "name": "createDataOrder",
      "outputs": [
        {
          "name": "",
          "type": "uint256"
        }
      ],
      "payable": false,
      "stateMutability": "nonpayable",
      "type": "function",
      "signature": "0x5ca849ef"
    },
    {
      "constant": false,
      "inputs": [
        {
          "name": "orderId",
          "type": "uint256"
        }
      ],
      "name": "closeDataOrder",
      "outputs": [
        {
          "name": "",
          "type": "bool"
        }
      ],
      "payable": false,
      "stateMutability": "nonpayable",
      "type": "function",
      "signature": "0x0b59ebd5"
    },
    {
      "constant": true,
      "inputs": [
        {
          "name": "notaryAddress",
          "type": "address"
        }
      ],
      "name": "getNotaryUrl",
      "outputs": [
        {
          "name": "",
          "type": "string"
        }
      ],
      "payable": false,
      "stateMutability": "view",
      "type": "function",
      "signature": "0x815ca209"
    },
    {
      "constant": true,
      "inputs": [
        {
          "name": "orderId",
          "type": "uint256"
        }
      ],
      "name": "getDataOrder",
      "outputs": [
        {
          "name": "",
          "type": "address"
        },
        {
          "name": "",
          "type": "string"
        },
        {
          "name": "",
          "type": "uint256"
        },
        {
          "name": "",
          "type": "string"
        },
        {
          "name": "",
          "type": "bytes32"
        },
        {
          "name": "",
          "type": "string"
        },
        {
          "name": "",
          "type": "uint32"
        },
        {
          "name": "",
          "type": "uint32"
        }
      ],
      "payable": false,
      "stateMutability": "view",
      "type": "function",
      "signature": "0x31168113"
    },
    {
      "constant": true,
      "inputs": [],
      "name": "getDataOrdersLength",
      "outputs": [
        {
          "name": "",
          "type": "uint256"
        }
      ],
      "payable": false,
      "stateMutability": "view",
      "type": "function",
      "signature": "0x77d599d4"
    }
  ],
  "bytecode": "0x608060405234801561001057600080fd5b50611c6c806100206000396000f3fe608060405234801561001057600080fd5b50600436106100a5576000357c0100000000000000000000000000000000000000000000000000000000900480635ca849ef116100785780635ca849ef1461038957806377d599d4146104d4578063815ca209146104f2578063ff0d34cf146105af576100a5565b80630b59ebd5146100aa57806331168113146100f05780633e90280d146102d657806354a9598014610367575b600080fd5b6100d6600480360360208110156100c057600080fd5b8101908080359060200190929190505050610640565b604051808215151515815260200191505060405180910390f35b61011c6004803603602081101561010657600080fd5b810190808035906020019092919050505061089f565b604051808973ffffffffffffffffffffffffffffffffffffffff1673ffffffffffffffffffffffffffffffffffffffff1681526020018060200188815260200180602001878152602001806020018663ffffffff1663ffffffff1681526020018563ffffffff1663ffffffff16815260200184810384528b818151815260200191508051906020019080838360005b838110156101c65780820151818401526020810190506101ab565b50505050905090810190601f1680156101f35780820380516001836020036101000a031916815260200191505b50848103835289818151815260200191508051906020019080838360005b8381101561022c578082015181840152602081019050610211565b50505050905090810190601f1680156102595780820380516001836020036101000a031916815260200191505b50848103825287818151815260200191508051906020019080838360005b83811015610292578082015181840152602081019050610277565b50505050905090810190601f1680156102bf5780820380516001836020036101000a031916815260200191505b509b50505050505050505050505060405180910390f35b61034d600480360360208110156102ec57600080fd5b810190808035906020019064010000000081111561030957600080fd5b82018360208201111561031b57600080fd5b8035906020019184600183028401116401000000008311171561033d57600080fd5b9091929391929390505050610b21565b604051808215151515815260200191505060405180910390f35b61036f610e79565b604051808215151515815260200191505060405180910390f35b6104be600480360360a081101561039f57600080fd5b81019080803590602001906401000000008111156103bc57600080fd5b8201836020820111156103ce57600080fd5b803590602001918460018302840111640100000000831117156103f057600080fd5b9091929391929390803590602001909291908035906020019064010000000081111561041b57600080fd5b82018360208201111561042d57600080fd5b8035906020019184600183028401116401000000008311171561044f57600080fd5b9091929391929390803590602001909291908035906020019064010000000081111561047a57600080fd5b82018360208201111561048c57600080fd5b803590602001918460018302840111640100000000831117156104ae57600080fd5b90919293919293905050506110d7565b6040518082815260200191505060405180910390f35b6104dc61169f565b6040518082815260200191505060405180910390f35b6105346004803603602081101561050857600080fd5b81019080803573ffffffffffffffffffffffffffffffffffffffff1690602001909291905050506116ab565b6040518080602001828103825283818151815260200191508051906020019080838360005b83811015610574578082015181840152602081019050610559565b50505050905090810190601f1680156105a15780820380516001836020036101000a031916815260200191505b509250505060405180910390f35b610626600480360360208110156105c557600080fd5b81019080803590602001906401000000008111156105e257600080fd5b8201836020820111156105f457600080fd5b8035906020019184600183028401116401000000008311171561061657600080fd5b909192939192939050505061178c565b604051808215151515815260200191505060405180910390f35b6000808054905082106106bb576040517f08c379a00000000000000000000000000000000000000000000000000000000081526004018080602001828103825260138152602001807f696e76616c6964206f7264657220696e6465780000000000000000000000000081525060200191505060405180910390fd5b60008083815481106106c957fe5b906000526020600020906007020190503373ffffffffffffffffffffffffffffffffffffffff168160000160009054906101000a900473ffffffffffffffffffffffffffffffffffffffff1673ffffffffffffffffffffffffffffffffffffffff161461079e576040517f08c379a000000000000000000000000000000000000000000000000000000000815260040180806020018281038252601c8152602001807f73656e6465722063616e277420636c6f736520746865206f726465720000000081525060200191505060405180910390fd5b60008160060160049054906101000a900463ffffffff1663ffffffff161461082e576040517f08c379a00000000000000000000000000000000000000000000000000000000081526004018080602001828103825260148152602001807f6f7264657220616c726561647920636c6f73656400000000000000000000000081525060200191505060405180910390fd5b428160060160046101000a81548163ffffffff021916908363ffffffff1602179055503373ffffffffffffffffffffffffffffffffffffffff16837f2a0373e2121813fd2621a2f2f56a80ebe2b7640382489cc0e3dbe8f6d5191ec660405160405180910390a36001915050919050565b6000606060006060600060606000806000808a815481106108bc57fe5b906000526020600020906007020190508060000160009054906101000a900473ffffffffffffffffffffffffffffffffffffffff16816001018260020154836003018460040154856005018660060160009054906101000a900463ffffffff168760060160049054906101000a900463ffffffff16868054600181600116156101000203166002900480601f0160208091040260200160405190810160405280929190818152602001828054600181600116156101000203166002900480156109c65780601f1061099b576101008083540402835291602001916109c6565b820191906000526020600020905b8154815290600101906020018083116109a957829003601f168201915b50505050509650848054600181600116156101000203166002900480601f016020809104026020016040519081016040528092919081815260200182805460018160011615610100020316600290048015610a625780601f10610a3757610100808354040283529160200191610a62565b820191906000526020600020905b815481529060010190602001808311610a4557829003601f168201915b50505050509450828054600181600116156101000203166002900480601f016020809104026020016040519081016040528092919081815260200182805460018160011615610100020316600290048015610afe5780601f10610ad357610100808354040283529160200191610afe565b820191906000526020600020905b815481529060010190602001808311610ae157829003601f168201915b505050505092509850985098509850985098509850985050919395975091939597565b6000610b7083838080601f016020809104026020016040519081016040528093929190818152602001838380828437600081840152601f19601f8201169050808301925050505050505061197e565b610be2576040517f08c379a000000000000000000000000000000000000000000000000000000000815260040180806020018281038252601b8152602001807f6e6f7461727955726c206d757374206e6f7420626520656d707479000000000081525060200191505060405180910390fd5b610bea61198b565b610c5c576040517f08c379a00000000000000000000000000000000000000000000000000000000081526004018080602001828103825260158152602001807f4e6f74617279206e6f742072656769737465726564000000000000000000000081525060200191505060405180910390fd5b6060600160003373ffffffffffffffffffffffffffffffffffffffff1673ffffffffffffffffffffffffffffffffffffffff1681526020019081526020016000208054600181600116156101000203166002900480601f016020809104026020016040519081016040528092919081815260200182805460018160011615610100020316600290048015610d315780601f10610d0657610100808354040283529160200191610d31565b820191906000526020600020905b815481529060010190602001808311610d1457829003601f168201915b505050505090508383600160003373ffffffffffffffffffffffffffffffffffffffff1673ffffffffffffffffffffffffffffffffffffffff1681526020019081526020016000209190610d86929190611a72565b503373ffffffffffffffffffffffffffffffffffffffff167fb70d3d37cb3ca66ae3b9b82cfde193d73dae787d22b77f7c714a573b5e767de6828686604051808060200180602001838103835286818151815260200191508051906020019080838360005b83811015610e06578082015181840152602081019050610deb565b50505050905090810190601f168015610e335780820380516001836020036101000a031916815260200191505b508381038252858582818152602001925080828437600081840152601f19601f8201169050808301925050509550505050505060405180910390a2600191505092915050565b6000610e8361198b565b610ef5576040517f08c379a00000000000000000000000000000000000000000000000000000000081526004018080602001828103825260198152602001807f73656e646572206d75737420626520726567697374657265640000000000000081525060200191505060405180910390fd5b6060600160003373ffffffffffffffffffffffffffffffffffffffff1673ffffffffffffffffffffffffffffffffffffffff1681526020019081526020016000208054600181600116156101000203166002900480601f016020809104026020016040519081016040528092919081815260200182805460018160011615610100020316600290048015610fca5780601f10610f9f57610100808354040283529160200191610fca565b820191906000526020600020905b815481529060010190602001808311610fad57829003601f168201915b50505050509050600160003373ffffffffffffffffffffffffffffffffffffffff1673ffffffffffffffffffffffffffffffffffffffff168152602001908152602001600020600061101c9190611af2565b3373ffffffffffffffffffffffffffffffffffffffff167fc765bc669d1eb91e88bd36aad9553c82972428e1a8ebd89a711deab18a953d36826040518080602001828103825283818151815260200191508051906020019080838360005b8381101561109557808201518184015260208101905061107a565b50505050905090810190601f1680156110c25780820380516001836020036101000a031916815260200191505b509250505060405180910390a2600191505090565b600061112689898080601f016020809104026020016040519081016040528093929190818152602001838380828437600081840152601f19601f8201169050808301925050505050505061197e565b611198576040517f08c379a000000000000000000000000000000000000000000000000000000000815260040180806020018281038252601a8152602001807f61756469656e6365206d757374206e6f7420626520656d70747900000000000081525060200191505060405180910390fd5b6000871161120e576040517f08c379a000000000000000000000000000000000000000000000000000000000815260040180806020018281038252601f8152602001807f7072696365206d7573742062652067726561746572207468616e207a65726f0081525060200191505060405180910390fd5b61125b86868080601f016020809104026020016040519081016040528093929190818152602001838380828437600081840152601f19601f8201169050808301925050505050505061197e565b6112cd576040517f08c379a000000000000000000000000000000000000000000000000000000000815260040180806020018281038252601f8152602001807f72657175657374656444617461206d757374206e6f7420626520656d7074790081525060200191505060405180910390fd5b600060010284141561132a576040517f08c379a0000000000000000000000000000000000000000000000000000000008152600401808060200182810382526028815260200180611be06028913960400191505060405180910390fd5b61137783838080601f016020809104026020016040519081016040528093929190818152602001838380828437600081840152601f19601f8201169050808301925050505050505061197e565b6113e9576040517f08c379a000000000000000000000000000000000000000000000000000000000815260040180806020018281038252601a8152602001807f627579657255726c206d757374206e6f7420626520656d70747900000000000081525060200191505060405180910390fd5b60008080549050905060006040518061010001604052803373ffffffffffffffffffffffffffffffffffffffff1681526020018c8c8080601f016020809104026020016040519081016040528093929190818152602001838380828437600081840152601f19601f8201169050808301925050505050505081526020018a815260200189898080601f016020809104026020016040519081016040528093929190818152602001838380828437600081840152601f19601f82011690508083019250505050505050815260200187815260200186868080601f016020809104026020016040519081016040528093929190818152602001838380828437600081840152601f19601f8201169050808301925050505050505081526020014263ffffffff168152602001600063ffffffff168152509080600181540180825580915050906001820390600052602060002090600702016000909192909190915060008201518160000160006101000a81548173ffffffffffffffffffffffffffffffffffffffff021916908373ffffffffffffffffffffffffffffffffffffffff16021790555060208201518160010190805190602001906115ab929190611b3a565b506040820151816002015560608201518160030190805190602001906115d2929190611b3a565b506080820151816004015560a08201518160050190805190602001906115f9929190611b3a565b5060c08201518160060160006101000a81548163ffffffff021916908363ffffffff16021790555060e08201518160060160046101000a81548163ffffffff021916908363ffffffff1602179055505050503373ffffffffffffffffffffffffffffffffffffffff16817f4da70a6c86467b0d5d574c4b27418883408d1b0f13cc7d81aed73206b8339b3b60405160405180910390a38091505098975050505050505050565b60008080549050905090565b6060600160008373ffffffffffffffffffffffffffffffffffffffff1673ffffffffffffffffffffffffffffffffffffffff1681526020019081526020016000208054600181600116156101000203166002900480601f0160208091040260200160405190810160405280929190818152602001828054600181600116156101000203166002900480156117805780601f1061175557610100808354040283529160200191611780565b820191906000526020600020905b81548152906001019060200180831161176357829003601f168201915b50505050509050919050565b60006117db83838080601f016020809104026020016040519081016040528093929190818152602001838380828437600081840152601f19601f8201169050808301925050505050505061197e565b61184d576040517f08c379a000000000000000000000000000000000000000000000000000000000815260040180806020018281038252601b8152602001807f6e6f7461727955726c206d757374206e6f7420626520656d707479000000000081525060200191505060405180910390fd5b61185561198b565b156118ab576040517f08c379a0000000000000000000000000000000000000000000000000000000008152600401808060200182810382526039815260200180611c086039913960400191505060405180910390fd5b8282600160003373ffffffffffffffffffffffffffffffffffffffff1673ffffffffffffffffffffffffffffffffffffffff16815260200190815260200160002091906118f9929190611a72565b503373ffffffffffffffffffffffffffffffffffffffff167fe89d0a5c1c3ef98dff90085eabb0e4b4a96244277ee3c5f81679a024c2ce9cf0848460405180806020018281038252848482818152602001925080828437600081840152601f19601f820116905080830192505050935050505060405180910390a26001905092915050565b6000808251119050919050565b6000611a6d600160003373ffffffffffffffffffffffffffffffffffffffff1673ffffffffffffffffffffffffffffffffffffffff1681526020019081526020016000208054600181600116156101000203166002900480601f016020809104026020016040519081016040528092919081815260200182805460018160011615610100020316600290048015611a635780601f10611a3857610100808354040283529160200191611a63565b820191906000526020600020905b815481529060010190602001808311611a4657829003601f168201915b505050505061197e565b905090565b828054600181600116156101000203166002900490600052602060002090601f016020900481019282601f10611ab357803560ff1916838001178555611ae1565b82800160010185558215611ae1579182015b82811115611ae0578235825591602001919060010190611ac5565b5b509050611aee9190611bba565b5090565b50805460018160011615610100020316600290046000825580601f10611b185750611b37565b601f016020900490600052602060002090810190611b369190611bba565b5b50565b828054600181600116156101000203166002900490600052602060002090601f016020900481019282601f10611b7b57805160ff1916838001178555611ba9565b82800160010185558215611ba9579182015b82811115611ba8578251825591602001919060010190611b8d565b5b509050611bb69190611bba565b5090565b611bdc91905b80821115611bd8576000816000905550600101611bc0565b5090565b9056fe7465726d73416e64436f6e646974696f6e7348617368206d757374206e6f7420626520656d7074794e6f7461727920616c726561647920726567697374657265642028757365207570646174654e6f7461727955726c20746f2075706461746529a165627a7a7230582016ced55d7a179bde93650a69ed7f4d03c252dc7facdcdc41b68cc83918adee3b0029",
  "source": "pragma solidity ^0.5.7;\n\n\n/**\n * @title Data Exchange Marketplace\n * @notice This contract allows Notaries to register themselves and buyers to\n *         publish data orders, acording to the Wibson Protocol.\n *         For more information: https://wibson.org\n */\ncontract DataExchange {\n  event NotaryRegistered(address indexed notary, string notaryUrl);\n  event NotaryUpdated(address indexed notary, string oldNotaryUrl, string newNotaryUrl);\n  event NotaryUnregistered(address indexed notary, string oldNotaryUrl);\n  event DataOrderCreated(uint256 indexed orderId, address indexed buyer);\n  event DataOrderClosed(uint256 indexed orderId, address indexed buyer);\n\n  struct DataOrder {\n    address buyer;\n    string audience;\n    uint256 price;\n    string requestedData;\n    bytes32 termsAndConditionsHash;\n    string buyerUrl;\n    uint32 createdAt;\n    uint32 closedAt;\n  }\n\n  DataOrder[] private dataOrders;\n  mapping(address => string) private notaryUrls;\n\n  /**\n   * @notice Registers sender as a notary.\n   * @param notaryUrl Public URL of the notary where the notary info can be obtained.\n   *                  This URL should serve a JSON signed by the sender to prove\n   *                  authenticity. It is highly recommended to check the signature\n   *                  with the sender's address before using the notary's services.\n   * @return true if the notary was successfully registered, reverts otherwise.\n   */\n  function registerNotary(\n    string calldata notaryUrl\n  ) external returns (bool) {\n    require(_isNotEmpty(notaryUrl), \"notaryUrl must not be empty\");\n    require(!_isSenderNotary(), \"Notary already registered (use updateNotaryUrl to update)\");\n    notaryUrls[msg.sender] = notaryUrl;\n    emit NotaryRegistered(msg.sender, notaryUrl);\n    return true;\n  }\n\n  /**\n   * @notice Updates notary public URL of sender.\n   * @param newNotaryUrl Public URL of the notary where the notary info can be obtained.\n   *                     This URL should serve a JSON signed by the sender to prove\n   *                     authenticity. It is highly recommended to check the signature\n   *                     with the sender's address before using the notary's services.\n   * @return true if the notary public URL was successfully updated, reverts otherwise.\n   */\n  function updateNotaryUrl(\n    string calldata newNotaryUrl\n  ) external returns (bool) {\n    require(_isNotEmpty(newNotaryUrl), \"notaryUrl must not be empty\");\n    require(_isSenderNotary(), \"Notary not registered\");\n    string memory oldNotaryUrl = notaryUrls[msg.sender];\n    notaryUrls[msg.sender] = newNotaryUrl;\n    emit NotaryUpdated(msg.sender, oldNotaryUrl, newNotaryUrl);\n    return true;\n  }\n\n  /**\n   * @notice Unregisters sender as notary. Once unregistered, the notary does not\n   *         have any obligation to maintain the old public URL.\n   * @return true if the notary was successfully unregistered, reverts otherwise.\n   */\n  function unregisterNotary(\n  ) external returns (bool) {\n    require(_isSenderNotary(), \"sender must be registered\");\n    string memory oldNotaryUrl = notaryUrls[msg.sender];\n    delete notaryUrls[msg.sender];\n    emit NotaryUnregistered(msg.sender, oldNotaryUrl);\n    return true;\n  }\n\n  /**\n   * @notice Creates a DataOrder.\n   * @dev The `msg.sender` will become the buyer of the order.\n   * @param audience Target audience of the order.\n   * @param price Price that sellers will receive in exchange of their data.\n   * @param requestedData Requested data type (Geolocation, Facebook, etc).\n   * @param termsAndConditionsHash Hash of the Buyer's terms and conditions for the order.\n   * @param buyerUrl Public URL of the buyer where more information about the DataOrder\n   *                 can be obtained.\n   * @return The index of the newly created DataOrder. If the DataOrder could\n   *         not be created, reverts.\n   */\n  function createDataOrder(\n    string calldata audience,\n    uint256 price,\n    string calldata requestedData,\n    bytes32 termsAndConditionsHash,\n    string calldata buyerUrl\n  ) external returns (uint256) {\n    require(_isNotEmpty(audience), \"audience must not be empty\");\n    require(price > 0, \"price must be greater than zero\");\n    require(_isNotEmpty(requestedData), \"requestedData must not be empty\");\n    require(termsAndConditionsHash != 0, \"termsAndConditionsHash must not be empty\");\n    require(_isNotEmpty(buyerUrl), \"buyerUrl must not be empty\");\n\n    uint256 orderId = dataOrders.length;\n    dataOrders.push(DataOrder(\n      msg.sender,\n      audience,\n      price,\n      requestedData,\n      termsAndConditionsHash,\n      buyerUrl,\n      uint32(now),\n      uint32(0)\n    ));\n\n    emit DataOrderCreated(orderId, msg.sender);\n    return orderId;\n  }\n\n  /**\n   * @notice Closes the DataOrder.\n   * @dev The `msg.sender` must be the buyer of the order.\n   * @param orderId Index of the order to close.\n   * @return true if the DataOrder was successfully closed, reverts otherwise.\n   */\n  function closeDataOrder(\n    uint256 orderId\n  ) external returns (bool) {\n    require(orderId < dataOrders.length, \"invalid order index\");\n    DataOrder storage dataOrder = dataOrders[orderId];\n    require(dataOrder.buyer == msg.sender, \"sender can't close the order\");\n    require(dataOrder.closedAt == 0, \"order already closed\");\n    dataOrder.closedAt = uint32(now);\n\n    emit DataOrderClosed(orderId, msg.sender);\n    return true;\n  }\n\n  function getNotaryUrl(\n    address notaryAddress\n  ) external view returns (string memory) {\n    return notaryUrls[notaryAddress];\n  }\n\n  function getDataOrder(\n    uint256 orderId\n  ) external view returns (\n    address,\n    string memory,\n    uint256,\n    string memory,\n    bytes32,\n    string memory,\n    uint32,\n    uint32\n  ) {\n    DataOrder storage dataOrder = dataOrders[orderId];\n    return (\n      dataOrder.buyer,\n      dataOrder.audience,\n      dataOrder.price,\n      dataOrder.requestedData,\n      dataOrder.termsAndConditionsHash,\n      dataOrder.buyerUrl,\n      dataOrder.createdAt,\n      dataOrder.closedAt\n    );\n  }\n\n  function getDataOrdersLength(\n  ) external view returns (uint) {\n    return dataOrders.length;\n  }\n\n  function _isSenderNotary(\n  ) private view returns (bool) {\n    return _isNotEmpty(notaryUrls[msg.sender]);\n  }\n\n  function _isNotEmpty(\n    string memory s\n  ) private pure returns (bool) {\n    return bytes(s).length > 0;\n  }\n}\n",
  "sourcePath": "/Users/juancarrillo/Desktop/wibson/wibson-core/marketplace/contracts/DataExchange.sol",
  "compiler": {
    "name": "solc",
    "version": "0.5.7+commit.6da8b019.Emscripten.clang"
  },
  "schemaVersion": "3.0.6",
  "updatedAt": "2019-04-15T17:13:31.670Z",
  "devdoc": {
    "methods": {
      "closeDataOrder(uint256)": {
        "details": "The `msg.sender` must be the buyer of the order.",
        "params": {
          "orderId": "Index of the order to close."
        },
        "return": "true if the DataOrder was successfully closed, reverts otherwise."
      },
      "createDataOrder(string,uint256,string,bytes32,string)": {
        "details": "The `msg.sender` will become the buyer of the order.",
        "params": {
          "audience": "Target audience of the order.",
          "buyerUrl": "Public URL of the buyer where more information about the DataOrder                can be obtained.",
          "price": "Price that sellers will receive in exchange of their data.",
          "requestedData": "Requested data type (Geolocation, Facebook, etc).",
          "termsAndConditionsHash": "Hash of the Buyer's terms and conditions for the order."
        },
        "return": "The index of the newly created DataOrder. If the DataOrder could        not be created, reverts."
      },
      "registerNotary(string)": {
        "params": {
          "notaryUrl": "Public URL of the notary where the notary info can be obtained.                 This URL should serve a JSON signed by the sender to prove                 authenticity. It is highly recommended to check the signature                 with the sender's address before using the notary's services."
        },
        "return": "true if the notary was successfully registered, reverts otherwise."
      },
      "unregisterNotary()": {
        "return": "true if the notary was successfully unregistered, reverts otherwise."
      },
      "updateNotaryUrl(string)": {
        "params": {
          "newNotaryUrl": "Public URL of the notary where the notary info can be obtained.                    This URL should serve a JSON signed by the sender to prove                    authenticity. It is highly recommended to check the signature                    with the sender's address before using the notary's services."
        },
        "return": "true if the notary public URL was successfully updated, reverts otherwise."
      }
    },
    "title": "Data Exchange Marketplace"
  },
  "userdoc": {
    "methods": {
      "closeDataOrder(uint256)": {
        "notice": "Closes the DataOrder."
      },
      "createDataOrder(string,uint256,string,bytes32,string)": {
        "notice": "Creates a DataOrder."
      },
      "registerNotary(string)": {
        "notice": "Registers sender as a notary."
      },
      "unregisterNotary()": {
        "notice": "Unregisters sender as notary. Once unregistered, the notary does not        have any obligation to maintain the old public URL."
      },
      "updateNotaryUrl(string)": {
        "notice": "Updates notary public URL of sender."
      }
    },
    "notice": "This contract allows Notaries to register themselves and buyers to        publish data orders, acording to the Wibson Protocol.        For more information: https://wibson.org"
  }
}