{
  "contractName": "BatPay",
  "abi": [
    {
      "constant": false,
      "inputs": [
        {
          "name": "delegate",
          "type": "uint32"
        },
        {
          "name": "slot",
          "type": "uint32"
        },
        {
          "name": "to",
          "type": "uint32"
        },
        {
          "name": "payIndex",
          "type": "uint32"
        },
        {
          "name": "amount",
          "type": "uint64"
        },
        {
          "name": "fee",
          "type": "uint64"
        },
        {
          "name": "destination",
          "type": "address"
        },
        {
          "name": "signature",
          "type": "bytes"
        }
      ],
      "name": "collect",
      "outputs": [],
      "payable": false,
      "stateMutability": "nonpayable",
      "type": "function"
    },
    {
      "constant": false,
      "inputs": [
        {
          "name": "fromId",
          "type": "uint32"
        },
        {
          "name": "amount",
          "type": "uint64"
        },
        {
          "name": "fee",
          "type": "uint64"
        },
        {
          "name": "payData",
          "type": "bytes"
        },
        {
          "name": "newCount",
          "type": "uint256"
        },
        {
          "name": "rootHash",
          "type": "bytes32"
        },
        {
          "name": "lock",
          "type": "bytes32"
        },
        {
          "name": "metadata",
          "type": "bytes32"
        }
      ],
      "name": "transfer",
      "outputs": [],
      "payable": false,
      "stateMutability": "nonpayable",
      "type": "function"
    },
    {
      "constant": true,
      "inputs": [
        {
          "name": "",
          "type": "uint256"
        }
      ],
      "name": "bulkRegistrations",
      "outputs": [
        {
          "name": "rootHash",
          "type": "bytes32"
        },
        {
          "name": "n",
          "type": "uint32"
        },
        {
          "name": "minId",
          "type": "uint32"
        }
      ],
      "payable": false,
      "stateMutability": "view",
      "type": "function"
    },
    {
      "constant": true,
      "inputs": [
        {
          "name": "id",
          "type": "uint256"
        }
      ],
      "name": "isValidId",
      "outputs": [
        {
          "name": "",
          "type": "bool"
        }
      ],
      "payable": false,
      "stateMutability": "view",
      "type": "function"
    },
    {
      "constant": false,
      "inputs": [],
      "name": "register",
      "outputs": [
        {
          "name": "ret",
          "type": "uint32"
        }
      ],
      "payable": false,
      "stateMutability": "nonpayable",
      "type": "function"
    },
    {
      "constant": false,
      "inputs": [
        {
          "name": "payIndex",
          "type": "uint256"
        }
      ],
      "name": "refund",
      "outputs": [
        {
          "name": "",
          "type": "bool"
        }
      ],
      "payable": false,
      "stateMutability": "nonpayable",
      "type": "function"
    },
    {
      "constant": false,
      "inputs": [
        {
          "name": "addr",
          "type": "address"
        },
        {
          "name": "proof",
          "type": "uint256[]"
        },
        {
          "name": "id",
          "type": "uint256"
        },
        {
          "name": "bulkId",
          "type": "uint256"
        }
      ],
      "name": "claimId",
      "outputs": [],
      "payable": false,
      "stateMutability": "nonpayable",
      "type": "function"
    },
    {
      "constant": false,
      "inputs": [
        {
          "name": "payIndex",
          "type": "uint32"
        },
        {
          "name": "unlockerId",
          "type": "uint32"
        },
        {
          "name": "key",
          "type": "bytes"
        }
      ],
      "name": "unlock",
      "outputs": [
        {
          "name": "",
          "type": "bool"
        }
      ],
      "payable": false,
      "stateMutability": "nonpayable",
      "type": "function"
    },
    {
      "constant": false,
      "inputs": [
        {
          "name": "amount",
          "type": "uint64"
        },
        {
          "name": "id",
          "type": "uint256"
        }
      ],
      "name": "withdraw",
      "outputs": [],
      "payable": false,
      "stateMutability": "nonpayable",
      "type": "function"
    },
    {
      "constant": false,
      "inputs": [
        {
          "name": "delegate",
          "type": "uint32"
        },
        {
          "name": "slot",
          "type": "uint32"
        },
        {
          "name": "data",
          "type": "bytes"
        }
      ],
      "name": "challenge_2",
      "outputs": [],
      "payable": false,
      "stateMutability": "nonpayable",
      "type": "function"
    },
    {
      "constant": false,
      "inputs": [
        {
          "name": "delegate",
          "type": "uint32"
        },
        {
          "name": "slot",
          "type": "uint32"
        }
      ],
      "name": "challenge_success",
      "outputs": [],
      "payable": false,
      "stateMutability": "nonpayable",
      "type": "function"
    },
    {
      "constant": true,
      "inputs": [],
      "name": "paymentsLength",
      "outputs": [
        {
          "name": "",
          "type": "uint256"
        }
      ],
      "payable": false,
      "stateMutability": "view",
      "type": "function"
    },
    {
      "constant": false,
      "inputs": [
        {
          "name": "amount",
          "type": "uint64"
        },
        {
          "name": "id",
          "type": "uint256"
        }
      ],
      "name": "deposit",
      "outputs": [],
      "payable": false,
      "stateMutability": "nonpayable",
      "type": "function"
    },
    {
      "constant": true,
      "inputs": [],
      "name": "instantSlot",
      "outputs": [
        {
          "name": "",
          "type": "uint256"
        }
      ],
      "payable": false,
      "stateMutability": "view",
      "type": "function"
    },
    {
      "constant": true,
      "inputs": [],
      "name": "accountsLength",
      "outputs": [
        {
          "name": "",
          "type": "uint256"
        }
      ],
      "payable": false,
      "stateMutability": "view",
      "type": "function"
    },
    {
      "constant": false,
      "inputs": [
        {
          "name": "delegate",
          "type": "uint32"
        },
        {
          "name": "slot",
          "type": "uint32"
        },
        {
          "name": "payData",
          "type": "bytes"
        }
      ],
      "name": "challenge_4",
      "outputs": [],
      "payable": false,
      "stateMutability": "nonpayable",
      "type": "function"
    },
    {
      "constant": true,
      "inputs": [],
      "name": "maxAccount",
      "outputs": [
        {
          "name": "",
          "type": "uint256"
        }
      ],
      "payable": false,
      "stateMutability": "view",
      "type": "function"
    },
    {
      "constant": true,
      "inputs": [
        {
          "name": "",
          "type": "uint32"
        },
        {
          "name": "",
          "type": "uint32"
        }
      ],
      "name": "collects",
      "outputs": [
        {
          "name": "minPayIndex",
          "type": "uint32"
        },
        {
          "name": "maxPayIndex",
          "type": "uint32"
        },
        {
          "name": "amount",
          "type": "uint64"
        },
        {
          "name": "delegateAmount",
          "type": "uint64"
        },
        {
          "name": "to",
          "type": "uint32"
        },
        {
          "name": "block",
          "type": "uint64"
        },
        {
          "name": "delegate",
          "type": "uint32"
        },
        {
          "name": "challenger",
          "type": "uint32"
        },
        {
          "name": "index",
          "type": "uint32"
        },
        {
          "name": "challengeAmount",
          "type": "uint64"
        },
        {
          "name": "status",
          "type": "uint8"
        },
        {
          "name": "addr",
          "type": "address"
        },
        {
          "name": "data",
          "type": "bytes32"
        }
      ],
      "payable": false,
      "stateMutability": "view",
      "type": "function"
    },
    {
      "constant": true,
      "inputs": [
        {
          "name": "",
          "type": "uint256"
        }
      ],
      "name": "payments",
      "outputs": [
        {
          "name": "from",
          "type": "uint32"
        },
        {
          "name": "amount",
          "type": "uint64"
        },
        {
          "name": "fee",
          "type": "uint64"
        },
        {
          "name": "minId",
          "type": "uint32"
        },
        {
          "name": "maxId",
          "type": "uint32"
        },
        {
          "name": "totalCount",
          "type": "uint32"
        },
        {
          "name": "block",
          "type": "uint64"
        },
        {
          "name": "hash",
          "type": "bytes32"
        },
        {
          "name": "lock",
          "type": "bytes32"
        },
        {
          "name": "metadata",
          "type": "bytes32"
        }
      ],
      "payable": false,
      "stateMutability": "view",
      "type": "function"
    },
    {
      "constant": true,
      "inputs": [],
      "name": "owner",
      "outputs": [
        {
          "name": "",
          "type": "address"
        }
      ],
      "payable": false,
      "stateMutability": "view",
      "type": "function"
    },
    {
      "constant": false,
      "inputs": [
        {
          "name": "delegate",
          "type": "uint32"
        },
        {
          "name": "slot",
          "type": "uint32"
        }
      ],
      "name": "challenge_failed",
      "outputs": [],
      "payable": false,
      "stateMutability": "nonpayable",
      "type": "function"
    },
    {
      "constant": false,
      "inputs": [
        {
          "name": "delegate",
          "type": "uint32"
        },
        {
          "name": "slot",
          "type": "uint32"
        },
        {
          "name": "challenger",
          "type": "uint32"
        }
      ],
      "name": "challenge_1",
      "outputs": [],
      "payable": false,
      "stateMutability": "nonpayable",
      "type": "function"
    },
    {
      "constant": true,
      "inputs": [
        {
          "name": "id",
          "type": "uint256"
        }
      ],
      "name": "balanceOf",
      "outputs": [
        {
          "name": "",
          "type": "uint64"
        }
      ],
      "payable": false,
      "stateMutability": "view",
      "type": "function"
    },
    {
      "constant": true,
      "inputs": [],
      "name": "newAccount",
      "outputs": [
        {
          "name": "",
          "type": "uint256"
        }
      ],
      "payable": false,
      "stateMutability": "view",
      "type": "function"
    },
    {
      "constant": false,
      "inputs": [
        {
          "name": "delegate",
          "type": "uint32"
        },
        {
          "name": "slot",
          "type": "uint32"
        }
      ],
      "name": "freeSlot",
      "outputs": [],
      "payable": false,
      "stateMutability": "nonpayable",
      "type": "function"
    },
    {
      "constant": true,
      "inputs": [],
      "name": "params",
      "outputs": [
        {
          "name": "maxBulk",
          "type": "uint32"
        },
        {
          "name": "maxTransfer",
          "type": "uint32"
        },
        {
          "name": "challengeBlocks",
          "type": "uint32"
        },
        {
          "name": "challengeStepBlocks",
          "type": "uint32"
        },
        {
          "name": "collectStake",
          "type": "uint64"
        },
        {
          "name": "challengeStake",
          "type": "uint64"
        },
        {
          "name": "unlockBlocks",
          "type": "uint32"
        },
        {
          "name": "massExitIdBlocks",
          "type": "uint32"
        },
        {
          "name": "massExitIdStepBlocks",
          "type": "uint32"
        },
        {
          "name": "massExitBalanceBlocks",
          "type": "uint32"
        },
        {
          "name": "massExitBalanceStepBlocks",
          "type": "uint32"
        },
        {
          "name": "massExitStake",
          "type": "uint64"
        },
        {
          "name": "massExitChallengeStake",
          "type": "uint64"
        }
      ],
      "payable": false,
      "stateMutability": "view",
      "type": "function"
    },
    {
      "constant": false,
      "inputs": [
        {
          "name": "n",
          "type": "uint256"
        },
        {
          "name": "rootHash",
          "type": "bytes32"
        }
      ],
      "name": "bulkRegister",
      "outputs": [],
      "payable": false,
      "stateMutability": "nonpayable",
      "type": "function"
    },
    {
      "constant": true,
      "inputs": [
        {
          "name": "id",
          "type": "uint256"
        }
      ],
      "name": "isClaimedId",
      "outputs": [
        {
          "name": "",
          "type": "bool"
        }
      ],
      "payable": false,
      "stateMutability": "view",
      "type": "function"
    },
    {
      "constant": true,
      "inputs": [
        {
          "name": "",
          "type": "uint256"
        }
      ],
      "name": "accounts",
      "outputs": [
        {
          "name": "addr",
          "type": "address"
        },
        {
          "name": "balance",
          "type": "uint64"
        },
        {
          "name": "collected",
          "type": "uint32"
        }
      ],
      "payable": false,
      "stateMutability": "view",
      "type": "function"
    },
    {
      "constant": true,
      "inputs": [
        {
          "name": "id",
          "type": "uint256"
        }
      ],
      "name": "isOwnerId",
      "outputs": [
        {
          "name": "",
          "type": "bool"
        }
      ],
      "payable": false,
      "stateMutability": "view",
      "type": "function"
    },
    {
      "constant": true,
      "inputs": [],
      "name": "bulkLength",
      "outputs": [
        {
          "name": "",
          "type": "uint256"
        }
      ],
      "payable": false,
      "stateMutability": "view",
      "type": "function"
    },
    {
      "constant": true,
      "inputs": [],
      "name": "token",
      "outputs": [
        {
          "name": "",
          "type": "address"
        }
      ],
      "payable": false,
      "stateMutability": "view",
      "type": "function"
    },
    {
      "constant": false,
      "inputs": [
        {
          "name": "delegate",
          "type": "uint32"
        },
        {
          "name": "slot",
          "type": "uint32"
        },
        {
          "name": "data",
          "type": "bytes"
        },
        {
          "name": "index",
          "type": "uint32"
        }
      ],
      "name": "challenge_3",
      "outputs": [],
      "payable": false,
      "stateMutability": "nonpayable",
      "type": "function"
    },
    {
      "inputs": [
        {
          "name": "_token",
          "type": "address"
        },
        {
          "name": "maxBulk",
          "type": "uint32"
        },
        {
          "name": "maxTransfer",
          "type": "uint32"
        },
        {
          "name": "challengeBlocks",
          "type": "uint32"
        },
        {
          "name": "challengeStepBlocks",
          "type": "uint32"
        },
        {
          "name": "collectStake",
          "type": "uint64"
        },
        {
          "name": "challengeStake",
          "type": "uint64"
        },
        {
          "name": "unlockBlocks",
          "type": "uint32"
        }
      ],
      "payable": false,
      "stateMutability": "nonpayable",
      "type": "constructor"
    },
    {
      "anonymous": false,
      "inputs": [
        {
          "indexed": false,
          "name": "payIndex",
          "type": "uint256"
        },
        {
          "indexed": false,
          "name": "from",
          "type": "uint256"
        },
        {
          "indexed": false,
          "name": "totalCount",
          "type": "uint256"
        },
        {
          "indexed": false,
          "name": "amount",
          "type": "uint256"
        }
      ],
      "name": "Transfer",
      "type": "event"
    },
    {
      "anonymous": false,
      "inputs": [
        {
          "indexed": false,
          "name": "payIndex",
          "type": "uint256"
        },
        {
          "indexed": false,
          "name": "key",
          "type": "bytes"
        }
      ],
      "name": "Unlock",
      "type": "event"
    },
    {
      "anonymous": false,
      "inputs": [
        {
          "indexed": false,
          "name": "delegate",
          "type": "uint256"
        },
        {
          "indexed": false,
          "name": "slot",
          "type": "uint256"
        },
        {
          "indexed": false,
          "name": "to",
          "type": "uint256"
        },
        {
          "indexed": false,
          "name": "fromPayindex",
          "type": "uint256"
        },
        {
          "indexed": false,
          "name": "toPayIndex",
          "type": "uint256"
        },
        {
          "indexed": false,
          "name": "amount",
          "type": "uint256"
        }
      ],
      "name": "Collect",
      "type": "event"
    },
    {
      "anonymous": false,
      "inputs": [
        {
          "indexed": false,
          "name": "delegate",
          "type": "uint256"
        },
        {
          "indexed": false,
          "name": "slot",
          "type": "uint256"
        },
        {
          "indexed": false,
          "name": "challenger",
          "type": "uint256"
        }
      ],
      "name": "Challenge_1",
      "type": "event"
    },
    {
      "anonymous": false,
      "inputs": [
        {
          "indexed": false,
          "name": "delegate",
          "type": "uint256"
        },
        {
          "indexed": false,
          "name": "slot",
          "type": "uint256"
        }
      ],
      "name": "Challenge_2",
      "type": "event"
    },
    {
      "anonymous": false,
      "inputs": [
        {
          "indexed": false,
          "name": "delegate",
          "type": "uint256"
        },
        {
          "indexed": false,
          "name": "slot",
          "type": "uint256"
        },
        {
          "indexed": false,
          "name": "index",
          "type": "uint256"
        }
      ],
      "name": "Challenge_3",
      "type": "event"
    },
    {
      "anonymous": false,
      "inputs": [
        {
          "indexed": false,
          "name": "delegate",
          "type": "uint256"
        },
        {
          "indexed": false,
          "name": "slot",
          "type": "uint256"
        }
      ],
      "name": "Challenge_4",
      "type": "event"
    },
    {
      "anonymous": false,
      "inputs": [
        {
          "indexed": false,
          "name": "delegate",
          "type": "uint256"
        },
        {
          "indexed": false,
          "name": "slot",
          "type": "uint256"
        }
      ],
      "name": "Challenge_success",
      "type": "event"
    },
    {
      "anonymous": false,
      "inputs": [
        {
          "indexed": false,
          "name": "delegate",
          "type": "uint256"
        },
        {
          "indexed": false,
          "name": "slot",
          "type": "uint256"
        }
      ],
      "name": "Challenge_failed",
      "type": "event"
    },
    {
      "anonymous": false,
      "inputs": [
        {
          "indexed": false,
          "name": "n",
          "type": "uint256"
        },
        {
          "indexed": false,
          "name": "minId",
          "type": "uint256"
        },
        {
          "indexed": false,
          "name": "bulkId",
          "type": "uint256"
        }
      ],
      "name": "BulkRegister",
      "type": "event"
    },
    {
      "anonymous": false,
      "inputs": [
        {
          "indexed": false,
          "name": "id",
          "type": "uint256"
        },
        {
          "indexed": false,
          "name": "addr",
          "type": "address"
        }
      ],
      "name": "Register",
      "type": "event"
    }
  ],
  "bytecode": "0x608060405234801561001057600080fd5b506040516101008061482083398101604090815281516020830151918301516060840151608085015160a086015160c087015160e0909701516003805433600160a060020a03199182161790915560048054909116600160a060020a03909716969096179095556000805463ffffffff1990811663ffffffff9889161767ffffffff0000000019166401000000009689169690960295909517604060020a63ffffffff021916680100000000000000009488169490940293909317606060020a63ffffffff0219166c010000000000000000000000009287169290920291909117608060020a60c060020a03191670010000000000000000000000000000000067ffffffffffffffff9283160217600160c060020a03167801000000000000000000000000000000000000000000000000919096160294909417845560018054909116929091169190911790556146b390819061016d90396000f3006080604052600436106101875763ffffffff60e060020a60003504166307034be6811461018c57806312d403d31461022e5780631694e2af1461027b5780631a96c519146102b85780631aa3a008146102e4578063278ecde11461031257806332dbf93a1461032a578063407256b61461039657806343387983146104025780634629401f14610427578063503e1ac8146104935780635de42046146104b75780636170c4b1146104de578063705f09251461050357806371a9774514610518578063792c8ba81461052d57806379c1f6bf146105995780637b0f952f146105ae57806387d81789146106655780638da5cb5b146106ea5780639096a66b1461071b5780639b4156ff1461073f5780639cc7f70814610769578063bf335e621461079e578063c79c9512146107b3578063cff0ab96146107d7578063d34e3c8314610872578063df949e141461088d578063f2a40db8146108a5578063f85074c2146108f4578063fae5f7fc1461090c578063fc0c546a14610921578063fc6bdb7014610936575b600080fd5b34801561019857600080fd5b50604080516020601f60e43560048181013592830184900484028501840190955281845261022c9463ffffffff8135811695602480358316966044358416966064359094169567ffffffffffffffff60843581169660a43590911695600160a060020a0360c43516953695929461010494919391909101919081908401838280828437509497506109aa9650505050505050565b005b34801561023a57600080fd5b5061022c6004803563ffffffff16906024803567ffffffffffffffff908116926044359091169160643590810191013560843560a43560c43560e4356115a4565b34801561028757600080fd5b50610293600435611d8f565b6040805193845263ffffffff9283166020850152911682820152519081900360600190f35b3480156102c457600080fd5b506102d0600435611dcd565b604080519115158252519081900360200190f35b3480156102f057600080fd5b506102f9611dd4565b6040805163ffffffff9092168252519081900360200190f35b34801561031e57600080fd5b506102d0600435611f36565b34801561033657600080fd5b5060408051602060046024803582810135848102808701860190975280865261022c968435600160a060020a0316963696604495919490910192918291850190849080828437509497505084359550505060209092013591506123619050565b3480156103a257600080fd5b50604080516020600460443581810135601f81018490048402850184019095528484526102d094823563ffffffff9081169560248035909216953695946064949293019190819084018382808284375094975061269b9650505050505050565b34801561040e57600080fd5b5061022c67ffffffffffffffff60043516602435612a6c565b34801561043357600080fd5b50604080516020600460443581810135601f810184900484028501840190955284845261022c94823563ffffffff90811695602480359092169536959460649492930191908190840183828082843750949750612c959650505050505050565b34801561049f57600080fd5b5061022c63ffffffff60043581169060243516612e55565b3480156104c357600080fd5b506104cc612fa1565b60408051918252519081900360200190f35b3480156104ea57600080fd5b5061022c67ffffffffffffffff60043516602435612fa7565b34801561050f57600080fd5b506104cc6131e3565b34801561052457600080fd5b506104cc6131e9565b34801561053957600080fd5b50604080516020600460443581810135601f810184900484028501840190955284845261022c94823563ffffffff908116956024803590921695369594606494929301919081908401838280828437509497506131ef9650505050505050565b3480156105a557600080fd5b506104cc6133b3565b3480156105ba57600080fd5b506105d263ffffffff600435811690602435166133bb565b6040805163ffffffff9e8f1681529c8e1660208e015267ffffffffffffffff9b8c168d820152998b1660608d0152978c1660808c015295891660a08b0152938a1660c08a015291891660e08901529097166101008701529590931661012085015260ff909416610140840152600160a060020a039091166101608301526101808201929092529051908190036101a00190f35b34801561067157600080fd5b5061067d600435613466565b6040805163ffffffff9b8c16815267ffffffffffffffff9a8b166020820152988a1689820152968a16606089015294891660808801529290971660a086015290941660c084015260e083019490945261010082019290925261012081019290925251908190036101400190f35b3480156106f657600080fd5b506106ff6134eb565b60408051600160a060020a039092168252519081900360200190f35b34801561072757600080fd5b5061022c63ffffffff600435811690602435166134fa565b34801561074b57600080fd5b5061022c63ffffffff60043581169060243581169060443516613653565b34801561077557600080fd5b50610781600435613810565b6040805167ffffffffffffffff9092168252519081900360200190f35b3480156107aa57600080fd5b506104cc613892565b3480156107bf57600080fd5b5061022c63ffffffff60043581169060243516613898565b3480156107e357600080fd5b506107ec61390b565b6040805163ffffffff9e8f1681529c8e1660208e01529a8d168c8c0152988c1660608c015267ffffffffffffffff97881660808c015295871660a08b0152938a1660c08a015291891660e0890152881661010088015287166101208701529095166101408501529384166101608401529092166101808201529051908190036101a00190f35b34801561087e57600080fd5b5061022c60043560243561398c565b34801561089957600080fd5b506102d0600435613be2565b3480156108b157600080fd5b506108bd600435613c20565b60408051600160a060020a03909416845267ffffffffffffffff909216602084015263ffffffff1682820152519081900360600190f35b34801561090057600080fd5b506102d0600435613c68565b34801561091857600080fd5b506104cc613ca5565b34801561092d57600080fd5b506106ff613cab565b34801561094257600080fd5b50604080516020600460443581810135601f810184900484028501840190955284845261022c94823563ffffffff908116956024803590921695369594606494929301919081908401838280828437509497505050923563ffffffff169350613cba92505050565b6109b2614505565b6109ba614505565b60008060006109ce8d63ffffffff16613c68565b1515610a24576040805160e560020a62461bcd02815260206004820152601060248201527f696e76616c69642064656c656761746500000000000000000000000000000000604482015290519081900360640190fd5b610a2e8d8d613f31565b6005805463ffffffff8f16908110610a4257fe5b6000918252602091829020604080516060810182529190920154600160a060020a038116825267ffffffffffffffff60a060020a8204169382019390935263ffffffff60e060020a909304831691810191909152600554909650908c161115610af5576040805160e560020a62461bcd02815260206004820152601d60248201527f746f206d75737420626520612076616c6964206163636f756e74206964000000604482015290519081900360640190fd5b6005805463ffffffff8d16908110610b0957fe5b6000918252602091829020604080516060810182529290910154600160a060020a03811680845260a060020a820467ffffffffffffffff169484019490945260e060020a900463ffffffff169082015294501515610bd7576040805160e560020a62461bcd02815260206004820152602860248201527f6163636f756e7420726567697374726174696f6e2068617320746f206265206360448201527f6f6d706c65746564000000000000000000000000000000000000000000000000606482015290519081900360840190fd5b60008a63ffffffff16118015610bf5575060075463ffffffff8b1611155b1515610c4b576040805160e560020a62461bcd02815260206004820152601060248201527f696e76616c696420706179496e64657800000000000000000000000000000000604482015290519081900360640190fd5b836040015163ffffffff168a63ffffffff16111515610cb4576040805160e560020a62461bcd02815260206004820152601d60248201527f706179496e646578206973206e6f7420612076616c69642076616c7565000000604482015290519081900360640190fd5b43600760018c0363ffffffff16815481101515610ccd57fe5b600091825260209091206001600590920201015467ffffffffffffffff1610610d66576040805160e560020a62461bcd02815260206004820152602c60248201527f63616e6e6f7420636f6c6c656374207061796d656e747320746861742063616e60448201527f20626520756e6c6f636b65640000000000000000000000000000000000000000606482015290519081900360840190fd5b67ffffffffffffffff808a169089161115610dcb576040805160e560020a62461bcd02815260206004820152600e60248201527f66656520697320746f6f20626967000000000000000000000000000000000000604482015290519081900360640190fd5b600860008e63ffffffff1663ffffffff16815260200190815260200160002060008d63ffffffff1663ffffffff16815260200190815260200160002092508c8360010160086101000a81548163ffffffff021916908363ffffffff1602179055508a63ffffffff168d63ffffffff1614151561110e57308d8c86604001518d8d8d8d6040516020018089600160a060020a0316600160a060020a0316606060020a0281526014018863ffffffff1663ffffffff1660e060020a0281526004018763ffffffff1663ffffffff1660e060020a0281526004018663ffffffff1663ffffffff1660e060020a0281526004018563ffffffff1663ffffffff1660e060020a0281526004018467ffffffffffffffff1667ffffffffffffffff1660c060020a0281526008018367ffffffffffffffff1667ffffffffffffffff1660c060020a02815260080182600160a060020a0316600160a060020a0316606060020a028152601401985050505050505050506040516020818303038152906040526040518082805190602001908083835b60208310610f785780518252601f199092019160209182019101610f59565b51815160209384036101000a6000190180199092169116179052604080519290940182900382208a517f0a568efe00000000000000000000000000000000000000000000000000000000845260048401828152602485019687528e5160448601528e51929a50600160a060020a03909116975073__Challenge_____________________________9650630a568efe958a95508e94919390926064909201919085019080838360005b83811015611039578181015183820152602001611021565b50505050905090810190601f1680156110665780820380516001836020036101000a031916815260200191505b50935050505060206040518083038186803b15801561108457600080fd5b505af4158015611098573d6000803e3d6000fd5b505050506040513d60208110156110ae57600080fd5b5051600160a060020a03161461110e576040805160e560020a62461bcd02815260206004820152601260248201527f4261642075736572207369676e61747572650000000000000000000000000000604482015290519081900360640190fd5b506040830151825463ffffffff191663ffffffff9182161767ffffffff0000000019166401000000008b831602178355600054608060020a900467ffffffffffffffff1690618000908d161061120a57825477ffffffffffffffff000000000000000000000000000000001916608060020a67ffffffffffffffff8b811691820292909217855560208601516111bc92908116916111ad918c16614307565b67ffffffffffffffff16614333565b67ffffffffffffffff908116602086015260028401805473ffffffffffffffffffffffffffffffffffffffff1916905561120390828116906111ad908c8116908c16614307565b9050611266565b60028301805473ffffffffffffffffffffffffffffffffffffffff1916600160a060020a038916179055825477ffffffffffffffff000000000000000000000000000000001916608060020a67ffffffffffffffff8a16021783555b602085015167ffffffffffffffff808316911610156112cf576040805160e560020a62461bcd02815260206004820152601060248201527f6e6f7420656e6f7567682066756e647300000000000000000000000000000000604482015290519081900360640190fd5b6112df8d63ffffffff1682614358565b82546fffffffffffffffff000000000000000019166801000000000000000067ffffffffffffffff8b81168202929092177bffffffff000000000000000000000000000000000000000000000000191660c060020a63ffffffff8f811691820292909217875560005460018801805460e060020a67ffffffffffffffff199091169590920484164301909516939093177cff00000000000000000000000000000000000000000000000000000000191692909217909255908b1660408601526005805486929081106113ad57fe5b60009182526020918290208351910180549284015160409094015173ffffffffffffffffffffffffffffffffffffffff19909316600160a060020a03928316176000805160206146288339815191521660a060020a67ffffffffffffffff9095169490940293909317600160e060020a031660e060020a63ffffffff909316929092029190911790915587161580159061144f57506180008c63ffffffff1610155b1561159557600060058c63ffffffff1681548110151561146b57fe5b600091825260208083209190910180546000805160206146288339815191521660a060020a67ffffffffffffffff958616021790556004805488830151604080517fa9059cbb000000000000000000000000000000000000000000000000000000008152600160a060020a038f811695820195909552919096166024820152945191169363a9059cbb9360448083019493928390030190829087803b15801561151357600080fd5b505af1158015611527573d6000803e3d6000fd5b505050506040513d602081101561153d57600080fd5b50511515611595576040805160e560020a62461bcd02815260206004820152600f60248201527f7472616e73666572206661696c65640000000000000000000000000000000000604482015290519081900360640190fd5b50505050505050505050505050565b6115ac614525565b6000806115b7614505565b63ffffffff808e16855267ffffffffffffffff808e1660208701528c16604086015261010085018790526001546000916115f391439116614333565b67ffffffffffffffff1660c086015261161163ffffffff8f16611dcd565b1515611667576040805160e560020a62461bcd02815260206004820152600e60248201527f696e76616c69642066726f6d4964000000000000000000000000000000000000604482015290519081900360640190fd5b899350600184116116c2576040805160e560020a62461bcd02815260206004820152601960248201527f70617944617461206c656e67746820697320696e76616c696400000000000000604482015290519081900360640190fd5b8a8a60018181106116cf57fe5b9050013560f860020a900460f860020a027effffffffffffffffffffffffffffffffffffffffffffffffffffffffffffff191660f860020a9004925060058e63ffffffff1681548110151561172057fe5b60009182526020808320604080516060810182529390910154600160a060020a038116845260a060020a810467ffffffffffffffff169284019290925260e060020a90910463ffffffff1690820152925083116117c7576040805160e560020a62461bcd02815260206004820152601f60248201527f6279746573207065722049642073686f756c6420626520706f73697469766500604482015290519081900360640190fd5b8151600160a060020a03163314611828576040805160e560020a62461bcd02815260206004820152601d60248201527f6f6e6c79206f776e6572206f662069642063616e207472616e73666572000000604482015290519081900360640190fd5b826002850381151561183657fe5b061561188c576040805160e560020a62461bcd02815260206004820152601960248201527f70617944617461206c656e67746820697320696e76616c696400000000000000604482015290519081900360640190fd5b6118a86002850361189d858c614333565b63ffffffff16614425565b63ffffffff90811660a0870181905260005464010000000090049091161161191a576040805160e560020a62461bcd02815260206004820152600f60248201527f746f6f206d616e79207061796565730000000000000000000000000000000000604482015290519081900360640190fd5b61195561193b8e67ffffffffffffffff168760a0015163ffffffff16614444565b67ffffffffffffffff168d67ffffffffffffffff16614333565b9050816020015167ffffffffffffffff168167ffffffffffffffff16111515156119c9576040805160e560020a62461bcd02815260206004820152601060248201527f6e6f7420656e6f7567682066756e647300000000000000000000000000000000604482015290519081900360640190fd5b6119eb826020015167ffffffffffffffff168267ffffffffffffffff16614307565b826020019067ffffffffffffffff16908167ffffffffffffffff16815250508160058f63ffffffff16815481101515611a2057fe5b60009182526020918290208351910180549284015160409094015173ffffffffffffffffffffffffffffffffffffffff19909316600160a060020a03909216919091176000805160206146288339815191521660a060020a67ffffffffffffffff9094169390930292909217600160e060020a031660e060020a63ffffffff92831602179091556005541660608601819052611abc908a614333565b63ffffffff1660808601526000891115611ada57611ada898961398c565b61012085018690526040518b908b90602001808383808284378201915050925050506040516020818303038152906040526040518082805190602001908083835b60208310611b3a5780518252601f199092019160209182019101611b1b565b6001836020036101000a03801982511681845116808217855250505050505090500191505060405180910390208560e0019060001916908160001916815250506007859080600181540180825580915050906001820390600052602060002090600502016000909192909190915060008201518160000160006101000a81548163ffffffff021916908363ffffffff16021790555060208201518160000160046101000a81548167ffffffffffffffff021916908367ffffffffffffffff160217905550604082015181600001600c6101000a81548167ffffffffffffffff021916908367ffffffffffffffff16021790555060608201518160000160146101000a81548163ffffffff021916908363ffffffff16021790555060808201518160000160186101000a81548163ffffffff021916908363ffffffff16021790555060a082015181600001601c6101000a81548163ffffffff021916908363ffffffff16021790555060c08201518160010160006101000a81548167ffffffffffffffff021916908367ffffffffffffffff16021790555060e08201518160020190600019169055610100820151816003019060001916905561012082015181600401906000191690555050507fd036ea84a5f8e245cab2b3370fbb356025392aa87922c52d009c6d16821e62cc60016007805490500386600001518760a001518860200151604051808581526020018463ffffffff1681526020018363ffffffff1681526020018267ffffffffffffffff16815260200194505050505060405180910390a15050505050505050505050505050565b6006805482908110611d9d57fe5b60009182526020909120600290910201805460019091015490915063ffffffff8082169164010000000090041683565b6005541190565b60055460009063ffffffff11611e34576040805160e560020a62461bcd02815260206004820152601560248201527f6e6f206d6f7265206163636f756e7473206c6566740000000000000000000000604482015290519081900360640190fd5b50600580546040805160608101825233808252600060208084018281528486018381526001880189559790925292517f036b6384b5eca791c62761152d0c79bb0604c104a5fb6f4eb0703f3154bb3db0860180549251975173ffffffffffffffffffffffffffffffffffffffff19909316600160a060020a03909216919091176000805160206146288339815191521660a060020a67ffffffffffffffff9098169790970296909617600160e060020a031660e060020a63ffffffff92831602179095558251948416855290840152805191927fa902c0ee3df5ddb3d1ab80437a22cd86a19a2295f7c96c5e387ea29d9d0bfaad929081900390910190a15b90565b6000611f40614525565b6007546000908410611f9c576040805160e560020a62461bcd02815260206004820152601260248201527f696e76616c6964207061796d656e742049640000000000000000000000000000604482015290519081900360640190fd5b6007805485908110611faa57fe5b60009182526020909120600360059092020101541515612014576040805160e560020a62461bcd02815260206004820152601b60248201527f7061796d656e7420697320616c726561647920756e6c6f636b65640000000000604482015290519081900360640190fd5b600780548590811061202257fe5b600091825260209091206001600590920201015467ffffffffffffffff16431015612097576040805160e560020a62461bcd02815260206004820152601d60248201527f48617368206c6f636b20686173206e6f74206578706972656420796574000000604482015290519081900360640190fd5b60078054859081106120a557fe5b6000918252602080832060408051610140810182526005909402909101805463ffffffff808216865267ffffffffffffffff6401000000008304811695870195909552606060020a820485169386019390935260a060020a81048316606086015260c060020a81048316608086015260e060020a900490911660a08401819052600182015490921660c0840152600281015460e0840152600381015461010084015260040154610120830152909350116121a9576040805160e560020a62461bcd02815260206004820152601860248201527f7061796d656e7420616c726561647920726566756e6465640000000000000000604482015290519081900360640190fd5b6121ec6121ce8360a0015163ffffffff16846020015167ffffffffffffffff16614444565b67ffffffffffffffff16836040015167ffffffffffffffff16614333565b600060a084018190526040840181905260208401526007805491925083918690811061221457fe5b600091825260209182902083516005929092020180549284015160408501516060860151608087015160a088015163ffffffff1990971663ffffffff968716176bffffffffffffffff00000000191664010000000067ffffffffffffffff958616021773ffffffffffffffff0000000000000000000000001916606060020a938516939093029290921777ffffffff0000000000000000000000000000000000000000191660a060020a91861691909102177bffffffff000000000000000000000000000000000000000000000000191660c060020a9185169190910217600160e060020a031660e060020a9484169490940293909317815560c084015160018201805467ffffffffffffffff1916919094161790925560e08301516002830155610100830151600383015561012090920151600490910155825161235a91168261446f565b5050919050565b60065460009081908190819085106123c3576040805160e560020a62461bcd02815260206004820181905260248201527f7468652062756c6b4964207265666572656e63656420697320696e76616c6964604482015290519081900360640190fd5b60068054869081106123d157fe5b906000526020600020906002020160010160049054906101000a900463ffffffff1663ffffffff16935060068581548110151561240a57fe5b60009182526020909120600160029092020101546006805463ffffffff9092169450908690811061243757fe5b906000526020600020906002020160000154915073__Merkle________________________________6358e81d33888689038b600160a060020a03166040518463ffffffff1660e060020a0281526004018080602001848152602001838152602001828103825285818151815260200191508051906020019060200280838360005b838110156124d15781810151838201526020016124b9565b5050505090500194505050505060206040518083038186803b1580156124f657600080fd5b505af415801561250a573d6000803e3d6000fd5b505050506040513d602081101561252057600080fd5b50519050838610801590612535575082840186105b15156125b1576040805160e560020a62461bcd02815260206004820152603b60248201527f74686520696420737065636966696564206973206e6f742070617274206f662060448201527f746861742062756c6b20726567697374726174696f6e20736c6f740000000000606482015290519081900360840190fd5b808214612608576040805160e560020a62461bcd02815260206004820152601460248201527f696e76616c6964204d65726b6c652070726f6f66000000000000000000000000604482015290519081900360640190fd5b60408051878152600160a060020a038a16602082015281517fa902c0ee3df5ddb3d1ab80437a22cd86a19a2295f7c96c5e387ea29d9d0bfaad929181900390910190a18760058781548110151561265b57fe5b6000918252602090912001805473ffffffffffffffffffffffffffffffffffffffff1916600160a060020a03929092169190911790555050505050505050565b600754600090819063ffffffff8616106126ff576040805160e560020a62461bcd02815260206004820152601060248201527f696e76616c696420706179496e64657800000000000000000000000000000000604482015290519081900360640190fd5b61270e8463ffffffff16611dcd565b1515612764576040805160e560020a62461bcd02815260206004820152601260248201527f496e76616c696420756e6c6f636b657249640000000000000000000000000000604482015290519081900360640190fd5b6007805463ffffffff871690811061277857fe5b600091825260209091206001600590920201015467ffffffffffffffff1643106127ec576040805160e560020a62461bcd02815260206004820152601160248201527f48617368206c6f636b2065787069726564000000000000000000000000000000604482015290519081900360640190fd5b8383604051602001808363ffffffff1663ffffffff1660e060020a02815260040182805190602001908083835b602083106128385780518252601f199092019160209182019101612819565b6001836020036101000a038019825116818451168082178552505050505050905001925050506040516020818303038152906040526040518082805190602001908083835b6020831061289c5780518252601f19909201916020918201910161287d565b6001836020036101000a0380198251168184511680821785525050505050509050019150506040518091039020905060078563ffffffff168154811015156128e057fe5b6000918252602090912060036005909202010154811461294a576040805160e560020a62461bcd02815260206004820152600b60248201527f496e76616c6964206b6579000000000000000000000000000000000000000000604482015290519081900360640190fd5b600780546000919063ffffffff881690811061296257fe5b6000918252602090912060036005909202010155600780546129ba9163ffffffff8088169290891690811061299357fe5b6000918252602090912060059091020154606060020a900467ffffffffffffffff1661446f565b7f398f375c8a361a482df2c189cdbc2e073d85754e7bd89e9f35b445a0e8e7a6b38584604051808363ffffffff16815260200180602001828103825283818151815260200191508051906020019080838360005b83811015612a26578181015183820152602001612a0e565b50505050905090810190601f168015612a535780820380516001836020036101000a031916815260200191505b50935050505060405180910390a1506001949350505050565b60008082612a7981613c68565b1515612aca576040805160e560020a62461bcd0281526020600482015260216024820152600080516020614648833981519152604482015260fa60020a601902606482015290519081900360840190fd5b6005805485908110612ad857fe5b60009182526020909120015460058054600160a060020a0390921694509085908110612b0057fe5b60009182526020909120015467ffffffffffffffff60a060020a909104811692508516821015612b7a576040805160e560020a62461bcd02815260206004820152601260248201527f696e73756666696369656e742066756e64730000000000000000000000000000604482015290519081900360640190fd5b600067ffffffffffffffff861611612bdc576040805160e560020a62461bcd02815260206004820152601860248201527f616d6f756e742073686f756c64206265206e6f6e7a65726f0000000000000000604482015290519081900360640190fd5b612be68486614358565b60048054604080517fa9059cbb000000000000000000000000000000000000000000000000000000008152600160a060020a038781169482019490945267ffffffffffffffff891660248201529051929091169163a9059cbb916044808201926020929091908290030181600087803b158015612c6257600080fd5b505af1158015612c76573d6000803e3d6000fd5b505050506040513d6020811015612c8c57600080fd5b50505050505050565b8263ffffffff16612ca581613c68565b1515612cf6576040805160e560020a62461bcd0281526020600482015260216024820152600080516020614648833981519152604482015260fa60020a601902606482015290519081900360840190fd5b63ffffffff8085166000908152600860209081526040808320938716835292815282822092517f6d8a33ef000000000000000000000000000000000000000000000000000000008152600481018481526024820184905260606044830190815287516064840152875173__Challenge_____________________________96636d8a33ef96909590948a949392608490910191850190808383895b83811015612da9578181015183820152602001612d91565b50505050905090810190601f168015612dd65780820380516001836020036101000a031916815260200191505b5094505050505060006040518083038186803b158015612df557600080fd5b505af4158015612e09573d6000803e3d6000fd5b50506040805163ffffffff80891682528716602082015281517fa6b618db47d96afabc807683596130152dec6207d8ea1b4800ced668e51d455e9450908190039091019150a150505050565b8163ffffffff16612e6581611dcd565b1515612ea9576040805160e560020a62461bcd02815260206004820152600f6024820152600080516020614668833981519152604482015290519081900360640190fd5b63ffffffff8084166000908152600860209081526040808320938616835292905281812082517fb914d34c00000000000000000000000000000000000000000000000000000000815260048101919091526024810182905260056044820152915173__Challenge_____________________________9263b914d34c926064808301939192829003018186803b158015612f4257600080fd5b505af4158015612f56573d6000803e3d6000fd5b50506040805163ffffffff80881682528616602082015281517fea84141dc4f16894fd619ecf68cd5c846093001bc9618a5e301af86c437631449450908190039091019150a1505050565b60075490565b600554600090821080612fbb575060001982145b1515613011576040805160e560020a62461bcd02815260206004820152600a60248201527f696e76616c696420696400000000000000000000000000000000000000000000604482015290519081900360640190fd5b600067ffffffffffffffff841611613073576040805160e560020a62461bcd02815260206004820152601960248201527f616d6f756e742073686f756c6420626520706f73697469766500000000000000604482015290519081900360640190fd5b60048054604080517f23b872dd000000000000000000000000000000000000000000000000000000008152339381019390935230602484015267ffffffffffffffff8616604484015251600160a060020a03909116916323b872dd9160648083019260209291908290030181600087803b1580156130f057600080fd5b505af1158015613104573d6000803e3d6000fd5b505050506040513d602081101561311a57600080fd5b50511515613172576040805160e560020a62461bcd02815260206004820152600f60248201527f7472616e73666572206661696c65640000000000000000000000000000000000604482015290519081900360640190fd5b6000198214156131d457613184611dd4565b63ffffffff1690508260058281548110151561319c57fe5b9060005260206000200160000160146101000a81548167ffffffffffffffff021916908367ffffffffffffffff1602179055506131de565b6131de828461446f565b505050565b61800081565b60055490565b8263ffffffff166131ff81613c68565b1515613250576040805160e560020a62461bcd0281526020600482015260216024820152600080516020614648833981519152604482015260fa60020a601902606482015290519081900360840190fd5b63ffffffff8085166000908152600860209081526040808320938716835292815282822092517f24c7f2f00000000000000000000000000000000000000000000000000000000081526004810184815260076024830181905260606044840190815288516064850152885173__Challenge_____________________________976324c7f2f097909693958b9594608490910192908601918190849084905b838110156133075781810151838201526020016132ef565b50505050905090810190601f1680156133345780820380516001836020036101000a031916815260200191505b5094505050505060006040518083038186803b15801561335357600080fd5b505af4158015613367573d6000803e3d6000fd5b50506040805163ffffffff80891682528716602082015281517f6819dcb1f3afd29b2613c73a541aa5b6422a1528363a6c0fc8222def0960090b9450908190039091019150a150505050565b63ffffffff81565b6008602090815260009283526040808420909152908252902080546001820154600283015460039093015463ffffffff8084169464010000000085048216946801000000000000000080820467ffffffffffffffff90811696608060020a80850483169760c060020a90950487169683831696948304811695606060020a84048216959284049091169360a060020a8404169260e060020a900460ff1691600160a060020a0316908d565b600780548290811061347457fe5b60009182526020909120600590910201805460018201546002830154600384015460049094015463ffffffff808516965067ffffffffffffffff6401000000008604811696606060020a870482169660a060020a810484169660c060020a820485169660e060020a9092049094169493909216928a565b600354600160a060020a031681565b8163ffffffff1661350a81613c68565b151561355b576040805160e560020a62461bcd0281526020600482015260216024820152600080516020614648833981519152604482015260fa60020a601902606482015290519081900360840190fd5b63ffffffff8084166000908152600860209081526040808320938616835292905281812082517f08bde2e700000000000000000000000000000000000000000000000000000000815260048101919091526024810182905260056044820152915173__Challenge_____________________________926308bde2e7926064808301939192829003018186803b1580156135f457600080fd5b505af4158015613608573d6000803e3d6000fd5b50506040805163ffffffff80881682528616602082015281517f9c76408a4cd30d32bf25bc3f5dc58c5eb4810ad0cb9bafe582788a786511b6029450908190039091019150a1505050565b8263ffffffff1661366381611dcd565b15156136a7576040805160e560020a62461bcd02815260206004820152600f6024820152600080516020614668833981519152604482015290519081900360640190fd5b8163ffffffff166136b781613c68565b1515613708576040805160e560020a62461bcd0281526020600482015260216024820152600080516020614648833981519152604482015260fa60020a601902606482015290519081900360840190fd5b63ffffffff8086166000908152600860209081526040808320888516845290915280822081517f5eb9e98f0000000000000000000000000000000000000000000000000000000081526004810191909152602481018390526005604482015292861660648401525173__Challenge_____________________________92635eb9e98f926084808301939192829003018186803b1580156137a857600080fd5b505af41580156137bc573d6000803e3d6000fd5b50506040805163ffffffff808a168252808916602083015287168183015290517f8a7099b7d12b47ee2af9b0bf42f66665ddee80e29613a8735da394f3382f5bb29350908190036060019150a15050505050565b60008161381c81611dcd565b1515613860576040805160e560020a62461bcd02815260206004820152600f6024820152600080516020614668833981519152604482015290519081900360640190fd5b600580548490811061386e57fe5b60009182526020909120015460a060020a900467ffffffffffffffff169392505050565b60001981565b6138a78263ffffffff16613c68565b15156138fd576040805160e560020a62461bcd02815260206004820152601660248201527f6f6e6c792064656c65676174652063616e2063616c6c00000000000000000000604482015290519081900360640190fd5b6139078282613f31565b5050565b60005460015460025463ffffffff8084169364010000000080820483169468010000000000000000808404851695606060020a80860487169667ffffffffffffffff608060020a80890482169860c060020a90048216978784169790810484169681048416959481048416949181049093169260a060020a9004821691168d565b600082116139e4576040805160e560020a62461bcd02815260206004820152601560248201527f43616e6e6f742072656769737465722030206964730000000000000000000000604482015290519081900360640190fd5b60005463ffffffff168210613a69576040805160e560020a62461bcd02815260206004820152603160248201527f43616e6e6f742072656769737465722074686973206e756d626572206f66206960448201527f64732073696d756c74616e656f75736c79000000000000000000000000000000606482015290519081900360840190fd5b60055463ffffffff90613a7c90846144f6565b1115613ad2576040805160e560020a62461bcd02815260206004820152601f60248201527f43616e6e6f742072656769737465723a2072616e206f7574206f662069647300604482015290519081900360640190fd5b60055460065460408051858152602081019390935282810191909152517f9862cc43f4a88dac2960cf68db647bbdd971785677f61f57da13545b1172805a9181900360600190a16040805160608101825282815263ffffffff848116602083019081526005805483169484019485526006805460018101825560009190915293517ff652222313e28459528d920b65115c16c04f3efc82aaedc97be59f3f377c0d3f60029095029485015590517ff652222313e28459528d920b65115c16c04f3efc82aaedc97be59f3f377c0d409093018054945163ffffffff199095169383169390931767ffffffff000000001916640100000000949092169390930217905580548301906131de9082614579565b6000613bed82611dcd565b8015613c1a57506005805483908110613c0257fe5b600091825260209091200154600160a060020a031615155b92915050565b6005805482908110613c2e57fe5b600091825260209091200154600160a060020a038116915060a060020a810467ffffffffffffffff169060e060020a900463ffffffff1683565b6000613c7382611dcd565b8015613c1a57506005805483908110613c8857fe5b600091825260209091200154600160a060020a0316331492915050565b60065490565b600454600160a060020a031681565b8363ffffffff16613cca81611dcd565b1515613d0e576040805160e560020a62461bcd02815260206004820152600f6024820152600080516020614668833981519152604482015290519081900360640190fd5b63ffffffff80861660009081526008602090815260408083208885168452909152902060010154613d4791606060020a90910416613c68565b1515613dc2576040805160e560020a62461bcd028152602060048201526024808201527f6f6e6c79206368616c6c656e6765722063616e2063616c6c206368616c6c656e60448201527f67655f3200000000000000000000000000000000000000000000000000000000606482015290519081900360840190fd5b63ffffffff80861660009081526008602090815260408083208885168452825280832090517fdecaf53d0000000000000000000000000000000000000000000000000000000081526004810182815260248201859052948716606482015260806044820190815288516084830152885173__Challenge_____________________________9663decaf53d9694958b948b94929360a4909101918601908083838a5b83811015613e7c578181015183820152602001613e64565b50505050905090810190601f168015613ea95780820380516001836020036101000a031916815260200191505b509550505050505060006040518083038186803b158015613ec957600080fd5b505af4158015613edd573d6000803e3d6000fd5b50506040805163ffffffff808a168252808916602083015286168183015290517f71b30ac4c3205f9ebdd12a5697622d35986d5ed9c9d29fe62c03abd46ad748269350908190036060019150a15050505050565b613f3961459d565b5063ffffffff80831660009081526008602090815260408083208585168452825280832081516101a08101835281548087168252640100000000810487169482019490945267ffffffffffffffff68010000000000000000808604821694830194909452608060020a8086048216606084015260c060020a90950487166080830152600183015480821660a0840152938404871660c0830152606060020a8404871660e083015293830490951661010086015260a060020a820490921661012085015260ff60e060020a9091041661014084018190526002820154600160a060020a03166101608501526003909101546101808401528190151561403c57614300565b82610140015160ff16600114801561406257508260a0015167ffffffffffffffff164310155b15156140b8576040805160e560020a62461bcd02815260206004820152601260248201527f736c6f74206e6f7420617661696c61626c650000000000000000000000000000604482015290519081900360640190fd5b60608301516000546140ef9163ffffffff8816916140ea9167ffffffffffffffff90811691608060020a900416614333565b61446f565b6141426005846080015163ffffffff1681548110151561410b57fe5b6000918252602090912001546040850151606086015167ffffffffffffffff60a060020a9093048316926111ad9281169116614307565b61016084015190925060009150600160a060020a03161561416c575060009067ffffffffffffffff165b816005846080015163ffffffff1681548110151561418657fe5b60009182526020808320909101805467ffffffffffffffff9490941660a060020a026000805160206146288339815191529094169390931790925563ffffffff8088168252600883526040808320918816835292522060010180547cff000000000000000000000000000000000000000000000000000000001916905580156143005760048054610160850151604080517fa9059cbb000000000000000000000000000000000000000000000000000000008152600160a060020a0392831694810194909452602484018590525191169163a9059cbb9160448083019260209291908290030181600087803b15801561427e57600080fd5b505af1158015614292573d6000803e3d6000fd5b505050506040513d60208110156142a857600080fd5b50511515614300576040805160e560020a62461bcd02815260206004820152600f60248201527f7472616e73666572206661696c65640000000000000000000000000000000000604482015290519081900360640190fd5b5050505050565b60008183038383111561431657fe5b68010000000000000000811061432857fe5b8091505b5092915050565b600082820183811080159061435057506801000000000000000081105b151561432857fe5b8161436281611dcd565b15156143a6576040805160e560020a62461bcd02815260206004820152600f6024820152600080516020614668833981519152604482015290519081900360640190fd5b6143df6005848154811015156143b857fe5b60009182526020909120015467ffffffffffffffff60a060020a9091048116908416614307565b60058054859081106143ed57fe5b9060005260206000200160000160146101000a81548167ffffffffffffffff021916908367ffffffffffffffff160217905550505050565b600080828481151561443357fe5b049050640100000000811061432857fe5b600080831515614457576000915061432c565b5082820282848281151561446757fe5b041461431657fe5b8161447981611dcd565b15156144bd576040805160e560020a62461bcd02815260206004820152600f6024820152600080516020614668833981519152604482015290519081900360640190fd5b6143df6005848154811015156144cf57fe5b60009182526020909120015467ffffffffffffffff60a060020a9091048116908416614333565b60008282018381101561432857fe5b604080516060810182526000808252602082018190529181019190915290565b6040805161014081018252600080825260208201819052918101829052606081018290526080810182905260a0810182905260c0810182905260e08101829052610100810182905261012081019190915290565b8154818355818111156131de576000838152602090206131de918101908301614609565b604080516101a081018252600080825260208201819052918101829052606081018290526080810182905260a0810182905260c0810182905260e08101829052610100810182905261012081018290526101408101829052610160810182905261018081019190915290565b611f3391905b80821115614623576000815560010161460f565b50905600ffffffff0000000000000000ffffffffffffffffffffffffffffffffffffffff4f6e6c79206f776e65722063616e20696e766f6b652074686973206d6574686f6964206973206e6f742076616c69640000000000000000000000000000000000a165627a7a723058207c04015bb61ed4c67675cdec33314c59197c0efd3b12cfd96f0763d0a8d986410029",
  "source": "pragma solidity ^0.4.24;\nimport \"./IERC20.sol\";\nimport \"./Accounts.sol\";\nimport \"./Payments.sol\";\nimport \"./SafeMath.sol\";\n\n/// @title BatchPayment processing\n/// @notice This contract allows to scale ERC-20 token transfer for fees or micropayments\n/// on the few-buyers / many-sellers setting.\n\ncontract BatPay is Accounts, Payments\n{  \n    /*\n     * Public functions\n     */\n\n    /// @dev Contract constructor, sets ERC20 token this contract will use for payments\n    /// @param _token ERC20 contract address\n    /// @param maxBulk Maximum number of users to registers in a single bulkRegister\n    /// @param maxTransfer Maximum number of destinations on a single transfer\n    /// @param challengeBlocks number of blocks to wait for a challenge\n    /// @param challengeStepBlocks number of blocks to wait for a single step on the challenge game\n    /// @param collectStake stake in tokens for a collect operation\n    /// @param challengeStake stake in tokens for the challenger of a collect operation\n    /// @param unlockBlocks number of blocks to wait after transfer for an unlock operation\n    constructor(\n        IERC20 _token,\n        uint32 maxBulk, \n        uint32 maxTransfer, \n        uint32 challengeBlocks, \n        uint32 challengeStepBlocks,\n        uint64 collectStake,\n        uint64 challengeStake,\n        uint32 unlockBlocks) \n        public \n    {\n        owner = msg.sender;\n        token = IERC20(_token);\n        params.maxBulk = maxBulk;\n        params.maxTransfer = maxTransfer;\n        params.challengeBlocks = challengeBlocks;\n        params.challengeStepBlocks = challengeStepBlocks;\n        params.collectStake = collectStake;\n        params.challengeStake = challengeStake;\n        params.unlockBlocks = unlockBlocks;\n    }\n\n}",
  "sourcePath": "/Users/nicolas/dev/BatchPayments/contracts/BatPay.sol",
  "compiler": {
    "name": "solc",
    "version": "0.4.25+commit.59dbf8f1.Emscripten.clang"
  },
  "schemaVersion": "2.0.2",
  "updatedAt": "2019-02-18T20:00:46.740Z"
}