{
  "contractName": "BatPay",
  "abi": [
    {
      "constant": true,
      "inputs": [
        {
          "name": "",
          "type": "uint256"
        }
      ],
      "name": "bulkRegistrations",
      "outputs": [
        {
          "name": "rootHash",
          "type": "bytes32"
        },
        {
          "name": "n",
          "type": "uint32"
        },
        {
          "name": "minId",
          "type": "uint32"
        }
      ],
      "payable": false,
      "stateMutability": "view",
      "type": "function"
    },
    {
      "constant": true,
      "inputs": [],
      "name": "challengeStepBlocks",
      "outputs": [
        {
          "name": "",
          "type": "uint256"
        }
      ],
      "payable": false,
      "stateMutability": "view",
      "type": "function"
    },
    {
      "constant": true,
      "inputs": [],
      "name": "challengeStake",
      "outputs": [
        {
          "name": "",
          "type": "uint64"
        }
      ],
      "payable": false,
      "stateMutability": "view",
      "type": "function"
    },
    {
      "constant": true,
      "inputs": [],
      "name": "collectStake",
      "outputs": [
        {
          "name": "",
          "type": "uint64"
        }
      ],
      "payable": false,
      "stateMutability": "view",
      "type": "function"
    },
    {
      "constant": true,
      "inputs": [],
      "name": "instantSlot",
      "outputs": [
        {
          "name": "",
          "type": "uint32"
        }
      ],
      "payable": false,
      "stateMutability": "view",
      "type": "function"
    },
    {
      "constant": true,
      "inputs": [],
      "name": "maxBalance",
      "outputs": [
        {
          "name": "",
          "type": "uint256"
        }
      ],
      "payable": false,
      "stateMutability": "view",
      "type": "function"
    },
    {
      "constant": true,
      "inputs": [],
      "name": "maxAccount",
      "outputs": [
        {
          "name": "",
          "type": "uint256"
        }
      ],
      "payable": false,
      "stateMutability": "view",
      "type": "function"
    },
    {
      "constant": true,
      "inputs": [
        {
          "name": "",
          "type": "uint32"
        },
        {
          "name": "",
          "type": "uint32"
        }
      ],
      "name": "collects",
      "outputs": [
        {
          "name": "minPayIndex",
          "type": "uint32"
        },
        {
          "name": "maxPayIndex",
          "type": "uint32"
        },
        {
          "name": "amount",
          "type": "uint64"
        },
        {
          "name": "delegateAmount",
          "type": "uint64"
        },
        {
          "name": "to",
          "type": "uint32"
        },
        {
          "name": "block",
          "type": "uint64"
        },
        {
          "name": "status",
          "type": "uint8"
        },
        {
          "name": "delegate",
          "type": "uint32"
        },
        {
          "name": "challenger",
          "type": "uint32"
        },
        {
          "name": "index",
          "type": "uint32"
        },
        {
          "name": "challengeAmount",
          "type": "uint64"
        },
        {
          "name": "addr",
          "type": "address"
        },
        {
          "name": "data",
          "type": "bytes32"
        }
      ],
      "payable": false,
      "stateMutability": "view",
      "type": "function"
    },
    {
      "constant": true,
      "inputs": [],
      "name": "maxCollect",
      "outputs": [
        {
          "name": "",
          "type": "uint256"
        }
      ],
      "payable": false,
      "stateMutability": "view",
      "type": "function"
    },
    {
      "constant": true,
      "inputs": [
        {
          "name": "",
          "type": "uint256"
        }
      ],
      "name": "payments",
      "outputs": [
        {
          "name": "from",
          "type": "uint32"
        },
        {
          "name": "amount",
          "type": "uint64"
        },
        {
          "name": "fee",
          "type": "uint64"
        },
        {
          "name": "minId",
          "type": "uint32"
        },
        {
          "name": "maxId",
          "type": "uint32"
        },
        {
          "name": "totalCount",
          "type": "uint32"
        },
        {
          "name": "block",
          "type": "uint64"
        },
        {
          "name": "hash",
          "type": "bytes32"
        },
        {
          "name": "lock",
          "type": "bytes32"
        },
        {
          "name": "metadata",
          "type": "bytes32"
        }
      ],
      "payable": false,
      "stateMutability": "view",
      "type": "function"
    },
    {
      "constant": true,
      "inputs": [],
      "name": "owner",
      "outputs": [
        {
          "name": "",
          "type": "address"
        }
      ],
      "payable": false,
      "stateMutability": "view",
      "type": "function"
    },
    {
      "constant": true,
      "inputs": [],
      "name": "challengeBlocks",
      "outputs": [
        {
          "name": "",
          "type": "uint256"
        }
      ],
      "payable": false,
      "stateMutability": "view",
      "type": "function"
    },
    {
      "constant": true,
      "inputs": [],
      "name": "unlockBlocks",
      "outputs": [
        {
          "name": "",
          "type": "uint256"
        }
      ],
      "payable": false,
      "stateMutability": "view",
      "type": "function"
    },
    {
      "constant": true,
      "inputs": [],
      "name": "maxBulk",
      "outputs": [
        {
          "name": "",
          "type": "uint256"
        }
      ],
      "payable": false,
      "stateMutability": "view",
      "type": "function"
    },
    {
      "constant": true,
      "inputs": [],
      "name": "newAccount",
      "outputs": [
        {
          "name": "",
          "type": "uint256"
        }
      ],
      "payable": false,
      "stateMutability": "view",
      "type": "function"
    },
    {
      "constant": true,
      "inputs": [],
      "name": "maxTransfer",
      "outputs": [
        {
          "name": "",
          "type": "uint256"
        }
      ],
      "payable": false,
      "stateMutability": "view",
      "type": "function"
    },
    {
      "constant": true,
      "inputs": [
        {
          "name": "",
          "type": "uint256"
        }
      ],
      "name": "accounts",
      "outputs": [
        {
          "name": "addr",
          "type": "address"
        },
        {
          "name": "balance",
          "type": "uint64"
        },
        {
          "name": "collected",
          "type": "uint32"
        }
      ],
      "payable": false,
      "stateMutability": "view",
      "type": "function"
    },
    {
      "constant": true,
      "inputs": [],
      "name": "token",
      "outputs": [
        {
          "name": "",
          "type": "address"
        }
      ],
      "payable": false,
      "stateMutability": "view",
      "type": "function"
    },
    {
      "inputs": [
        {
          "name": "_token",
          "type": "address"
        }
      ],
      "payable": false,
      "stateMutability": "nonpayable",
      "type": "constructor"
    },
    {
      "anonymous": false,
      "inputs": [
        {
          "indexed": false,
          "name": "payIndex",
          "type": "uint256"
        },
        {
          "indexed": false,
          "name": "from",
          "type": "uint256"
        },
        {
          "indexed": false,
          "name": "totalCount",
          "type": "uint256"
        },
        {
          "indexed": false,
          "name": "amount",
          "type": "uint256"
        }
      ],
      "name": "Transfer",
      "type": "event"
    },
    {
      "anonymous": false,
      "inputs": [
        {
          "indexed": false,
          "name": "payIndex",
          "type": "uint256"
        },
        {
          "indexed": false,
          "name": "key",
          "type": "bytes"
        }
      ],
      "name": "Unlock",
      "type": "event"
    },
    {
      "anonymous": false,
      "inputs": [
        {
          "indexed": false,
          "name": "delegate",
          "type": "uint256"
        },
        {
          "indexed": false,
          "name": "slot",
          "type": "uint256"
        },
        {
          "indexed": false,
          "name": "to",
          "type": "uint256"
        },
        {
          "indexed": false,
          "name": "fromPayindex",
          "type": "uint256"
        },
        {
          "indexed": false,
          "name": "toPayIndex",
          "type": "uint256"
        },
        {
          "indexed": false,
          "name": "amount",
          "type": "uint256"
        }
      ],
      "name": "Collect",
      "type": "event"
    },
    {
      "anonymous": false,
      "inputs": [
        {
          "indexed": false,
          "name": "n",
          "type": "uint256"
        },
        {
          "indexed": false,
          "name": "minId",
          "type": "uint256"
        },
        {
          "indexed": false,
          "name": "bulkId",
          "type": "uint256"
        }
      ],
      "name": "BulkRegister",
      "type": "event"
    },
    {
      "anonymous": false,
      "inputs": [
        {
          "indexed": false,
          "name": "id",
          "type": "uint256"
        },
        {
          "indexed": false,
          "name": "addr",
          "type": "address"
        }
      ],
      "name": "Register",
      "type": "event"
    },
    {
      "anonymous": false,
      "inputs": [
        {
          "indexed": false,
          "name": "delegate",
          "type": "uint256"
        },
        {
          "indexed": false,
          "name": "slot",
          "type": "uint256"
        },
        {
          "indexed": false,
          "name": "challenger",
          "type": "uint256"
        }
      ],
      "name": "Challenge_1",
      "type": "event"
    },
    {
      "anonymous": false,
      "inputs": [
        {
          "indexed": false,
          "name": "delegate",
          "type": "uint256"
        },
        {
          "indexed": false,
          "name": "slot",
          "type": "uint256"
        }
      ],
      "name": "Challenge_2",
      "type": "event"
    },
    {
      "anonymous": false,
      "inputs": [
        {
          "indexed": false,
          "name": "delegate",
          "type": "uint256"
        },
        {
          "indexed": false,
          "name": "slot",
          "type": "uint256"
        },
        {
          "indexed": false,
          "name": "index",
          "type": "uint256"
        }
      ],
      "name": "Challenge_3",
      "type": "event"
    },
    {
      "anonymous": false,
      "inputs": [
        {
          "indexed": false,
          "name": "delegate",
          "type": "uint256"
        },
        {
          "indexed": false,
          "name": "slot",
          "type": "uint256"
        }
      ],
      "name": "Challenge_4",
      "type": "event"
    },
    {
      "anonymous": false,
      "inputs": [
        {
          "indexed": false,
          "name": "delegate",
          "type": "uint256"
        },
        {
          "indexed": false,
          "name": "slot",
          "type": "uint256"
        }
      ],
      "name": "Challenge_sucess",
      "type": "event"
    },
    {
      "anonymous": false,
      "inputs": [
        {
          "indexed": false,
          "name": "delegate",
          "type": "uint256"
        },
        {
          "indexed": false,
          "name": "slot",
          "type": "uint256"
        }
      ],
      "name": "Challenge_failed",
      "type": "event"
    },
    {
      "constant": true,
      "inputs": [
        {
          "name": "id",
          "type": "uint256"
        }
      ],
      "name": "isValidId",
      "outputs": [
        {
          "name": "",
          "type": "bool"
        }
      ],
      "payable": false,
      "stateMutability": "view",
      "type": "function"
    },
    {
      "constant": true,
      "inputs": [
        {
          "name": "id",
          "type": "uint256"
        }
      ],
      "name": "isOwnerId",
      "outputs": [
        {
          "name": "",
          "type": "bool"
        }
      ],
      "payable": false,
      "stateMutability": "view",
      "type": "function"
    },
    {
      "constant": true,
      "inputs": [
        {
          "name": "id",
          "type": "uint256"
        }
      ],
      "name": "isClaimedId",
      "outputs": [
        {
          "name": "",
          "type": "bool"
        }
      ],
      "payable": false,
      "stateMutability": "view",
      "type": "function"
    },
    {
      "constant": false,
      "inputs": [
        {
          "name": "n",
          "type": "uint256"
        },
        {
          "name": "rootHash",
          "type": "bytes32"
        }
      ],
      "name": "bulkRegister",
      "outputs": [],
      "payable": false,
      "stateMutability": "nonpayable",
      "type": "function"
    },
    {
      "constant": false,
      "inputs": [
        {
          "name": "addr",
          "type": "address"
        },
        {
          "name": "proof",
          "type": "uint256[]"
        },
        {
          "name": "id",
          "type": "uint256"
        },
        {
          "name": "bulkId",
          "type": "uint256"
        }
      ],
      "name": "claimId",
      "outputs": [],
      "payable": false,
      "stateMutability": "nonpayable",
      "type": "function"
    },
    {
      "constant": false,
      "inputs": [],
      "name": "register",
      "outputs": [
        {
          "name": "ret",
          "type": "uint32"
        }
      ],
      "payable": false,
      "stateMutability": "nonpayable",
      "type": "function"
    },
    {
      "constant": false,
      "inputs": [
        {
          "name": "amount",
          "type": "uint64"
        },
        {
          "name": "id",
          "type": "uint256"
        }
      ],
      "name": "withdraw",
      "outputs": [],
      "payable": false,
      "stateMutability": "nonpayable",
      "type": "function"
    },
    {
      "constant": false,
      "inputs": [
        {
          "name": "amount",
          "type": "uint64"
        },
        {
          "name": "id",
          "type": "uint256"
        }
      ],
      "name": "deposit",
      "outputs": [],
      "payable": false,
      "stateMutability": "nonpayable",
      "type": "function"
    },
    {
      "constant": false,
      "inputs": [
        {
          "name": "fromId",
          "type": "uint32"
        },
        {
          "name": "amount",
          "type": "uint64"
        },
        {
          "name": "fee",
          "type": "uint64"
        },
        {
          "name": "payData",
          "type": "bytes"
        },
        {
          "name": "newCount",
          "type": "uint256"
        },
        {
          "name": "roothash",
          "type": "bytes32"
        },
        {
          "name": "lock",
          "type": "bytes32"
        },
        {
          "name": "metadata",
          "type": "bytes32"
        }
      ],
      "name": "transfer",
      "outputs": [],
      "payable": false,
      "stateMutability": "nonpayable",
      "type": "function"
    },
    {
      "constant": false,
      "inputs": [
        {
          "name": "payIndex",
          "type": "uint32"
        },
        {
          "name": "unlockerId",
          "type": "uint32"
        },
        {
          "name": "key",
          "type": "bytes"
        }
      ],
      "name": "unlock",
      "outputs": [
        {
          "name": "",
          "type": "bool"
        }
      ],
      "payable": false,
      "stateMutability": "nonpayable",
      "type": "function"
    },
    {
      "constant": false,
      "inputs": [
        {
          "name": "payIndex",
          "type": "uint256"
        }
      ],
      "name": "refund",
      "outputs": [
        {
          "name": "",
          "type": "bool"
        }
      ],
      "payable": false,
      "stateMutability": "nonpayable",
      "type": "function"
    },
    {
      "constant": false,
      "inputs": [
        {
          "name": "delegate",
          "type": "uint32"
        },
        {
          "name": "slot",
          "type": "uint32"
        }
      ],
      "name": "freeSlot",
      "outputs": [],
      "payable": false,
      "stateMutability": "nonpayable",
      "type": "function"
    },
    {
      "constant": false,
      "inputs": [
        {
          "name": "delegate",
          "type": "uint32"
        },
        {
          "name": "slot",
          "type": "uint32"
        },
        {
          "name": "to",
          "type": "uint32"
        },
        {
          "name": "payIndex",
          "type": "uint32"
        },
        {
          "name": "amount",
          "type": "uint64"
        },
        {
          "name": "fee",
          "type": "uint64"
        },
        {
          "name": "destination",
          "type": "address"
        },
        {
          "name": "signature",
          "type": "bytes"
        }
      ],
      "name": "collect",
      "outputs": [],
      "payable": false,
      "stateMutability": "nonpayable",
      "type": "function"
    },
    {
      "constant": false,
      "inputs": [
        {
          "name": "delegate",
          "type": "uint32"
        },
        {
          "name": "slot",
          "type": "uint32"
        },
        {
          "name": "challenger",
          "type": "uint32"
        }
      ],
      "name": "challenge_1",
      "outputs": [],
      "payable": false,
      "stateMutability": "nonpayable",
      "type": "function"
    },
    {
      "constant": false,
      "inputs": [
        {
          "name": "delegate",
          "type": "uint32"
        },
        {
          "name": "slot",
          "type": "uint32"
        },
        {
          "name": "data",
          "type": "bytes"
        }
      ],
      "name": "challenge_2",
      "outputs": [],
      "payable": false,
      "stateMutability": "nonpayable",
      "type": "function"
    },
    {
      "constant": false,
      "inputs": [
        {
          "name": "delegate",
          "type": "uint32"
        },
        {
          "name": "slot",
          "type": "uint32"
        },
        {
          "name": "data",
          "type": "bytes"
        },
        {
          "name": "index",
          "type": "uint32"
        }
      ],
      "name": "challenge_3",
      "outputs": [],
      "payable": false,
      "stateMutability": "nonpayable",
      "type": "function"
    },
    {
      "constant": false,
      "inputs": [
        {
          "name": "delegate",
          "type": "uint32"
        },
        {
          "name": "slot",
          "type": "uint32"
        },
        {
          "name": "payData",
          "type": "bytes"
        }
      ],
      "name": "challenge_4",
      "outputs": [],
      "payable": false,
      "stateMutability": "nonpayable",
      "type": "function"
    },
    {
      "constant": false,
      "inputs": [
        {
          "name": "delegate",
          "type": "uint32"
        },
        {
          "name": "slot",
          "type": "uint32"
        }
      ],
      "name": "challenge_success",
      "outputs": [],
      "payable": false,
      "stateMutability": "nonpayable",
      "type": "function"
    },
    {
      "constant": false,
      "inputs": [
        {
          "name": "delegate",
          "type": "uint32"
        },
        {
          "name": "slot",
          "type": "uint32"
        }
      ],
      "name": "challenge_failed",
      "outputs": [],
      "payable": false,
      "stateMutability": "nonpayable",
      "type": "function"
    },
    {
      "constant": true,
      "inputs": [
        {
          "name": "id",
          "type": "uint256"
        }
      ],
      "name": "balanceOf",
      "outputs": [
        {
          "name": "",
          "type": "uint64"
        }
      ],
      "payable": false,
      "stateMutability": "view",
      "type": "function"
    },
    {
      "constant": true,
      "inputs": [],
      "name": "accountsLength",
      "outputs": [
        {
          "name": "",
          "type": "uint256"
        }
      ],
      "payable": false,
      "stateMutability": "view",
      "type": "function"
    },
    {
      "constant": true,
      "inputs": [],
      "name": "paymentsLength",
      "outputs": [
        {
          "name": "",
          "type": "uint256"
        }
      ],
      "payable": false,
      "stateMutability": "view",
      "type": "function"
    },
    {
      "constant": true,
      "inputs": [],
      "name": "bulkLength",
      "outputs": [
        {
          "name": "",
          "type": "uint256"
        }
      ],
      "payable": false,
      "stateMutability": "view",
      "type": "function"
    }
  ],
  "bytecode": "0x608060405234801561001057600080fd5b50604051602080614ba783398101604052516001805433600160a060020a03199182161790915560028054909116600160a060020a03909216919091179055614b498061005e6000396000f3006080604052600436106101df5763ffffffff60e060020a60003504166307034be681146101e457806312d403d3146102855780631694e2af1461030e5780631a96c5191461034b5780631aa3a00814610377578063278ecde1146103a557806332dbf93a146103bd57806334a88a7714610429578063407256b61461045057806343387983146104bc5780634629401f146104e0578063503e1ac81461054c578063571dc452146105705780635c31ae52146105705780635de42046146105a15780636170c4b1146105b6578063705f0925146105da57806371a97745146105ef57806373ad468a14610604578063792c8ba81461061957806379c1f6bf146106855780637b0f952f1461069a57806383c2396c1461074c57806387d81789146107615780638da5cb5b146107e55780639096a66b14610816578063917749281461083a5780639b4156ff1461084f5780639cc7f70814610879578063a5f8ebcb14610891578063b5055c44146108a6578063bf335e62146108bb578063c79c9512146108d0578063d34e3c83146108f4578063df949e141461090f578063ed233ee914610927578063f2a40db81461093c578063f85074c21461098a578063fae5f7fc146109a2578063fc0c546a146109b7578063fc6bdb70146109cc575b600080fd5b3480156101f057600080fd5b50604080516020601f60e4356004818101359283018490048402850184019095528184526102839463ffffffff813581169560248035831696604435841696606435909416956001604060020a0360843581169660a43590911695600160a060020a0360c4351695369592946101049491939190910191908190840183828082843750949750610a409650505050505050565b005b34801561029157600080fd5b50604080516020601f6064356004818101359283018490048402850184019095528184526102839463ffffffff813516946001604060020a036024803582169660443590921695369560849493920191819084018382808284375094975050843595505050602083013592604081013592506060013590506116cd565b34801561031a57600080fd5b50610326600435611ec3565b6040805193845263ffffffff9283166020850152911682820152519081900360600190f35b34801561035757600080fd5b50610363600435611f01565b604080519115158252519081900360200190f35b34801561038357600080fd5b5061038c611f08565b6040805163ffffffff9092168252519081900360200190f35b3480156103b157600080fd5b50610363600435612078565b3480156103c957600080fd5b50604080516020600460248035828101358481028087018601909752808652610283968435600160a060020a0316963696604495919490910192918291850190849080828437509497505084359550505060209092013591506124af9050565b34801561043557600080fd5b5061043e6127e9565b60408051918252519081900360200190f35b34801561045c57600080fd5b50604080516020600460443581810135601f810184900484028501840190955284845261036394823563ffffffff908116956024803590921695369594606494929301919081908401838280828437509497506127ee9650505050505050565b3480156104c857600080fd5b506102836001604060020a0360043516602435612bcd565b3480156104ec57600080fd5b50604080516020600460443581810135601f810184900484028501840190955284845261028394823563ffffffff90811695602480359092169536959460649492930191908190840183828082843750949750612def9650505050505050565b34801561055857600080fd5b5061028363ffffffff60043581169060243516612fa6565b34801561057c57600080fd5b506105856127e9565b604080516001604060020a039092168252519081900360200190f35b3480156105ad57600080fd5b5061043e6130e9565b3480156105c257600080fd5b506102836001604060020a03600435166024356130ef565b3480156105e657600080fd5b5061038c613326565b3480156105fb57600080fd5b5061043e61332c565b34801561061057600080fd5b5061043e613332565b34801561062557600080fd5b50604080516020600460443581810135601f810184900484028501840190955284845261028394823563ffffffff9081169560248035909216953695946064949293019190819084018382808284375094975061333d9650505050505050565b34801561069157600080fd5b5061043e61350a565b3480156106a657600080fd5b506106be63ffffffff60043581169060243516613512565b6040805163ffffffff9e8f1681529c8e1660208e01526001604060020a039b8c168d820152998b1660608d0152978c1660808c015295891660a08b015260ff90941660c08a015291891660e0890152881661010088015290961661012086015294909216610140840152600160a060020a039093166101608301526101808201529051908190036101a00190f35b34801561075857600080fd5b5061043e6135fb565b34801561076d57600080fd5b50610779600435613601565b6040805163ffffffff9b8c1681526001604060020a039a8b166020820152988a1689820152968a16606089015294891660808801529290971660a086015290941660c084015260e083019490945261010082019290925261012081019290925251908190036101400190f35b3480156107f157600080fd5b506107fa61368e565b60408051600160a060020a039092168252519081900360200190f35b34801561082257600080fd5b5061028363ffffffff6004358116906024351661369d565b34801561084657600080fd5b5061043e6137e0565b34801561085b57600080fd5b5061028363ffffffff600435811690602435811690604435166137e6565b34801561088557600080fd5b5061058560043561399a565b34801561089d57600080fd5b5061043e613a1b565b3480156108b257600080fd5b5061043e613a20565b3480156108c757600080fd5b5061043e613a27565b3480156108dc57600080fd5b5061028363ffffffff60043581169060243516613a2d565b34801561090057600080fd5b50610283600435602435614047565b34801561091b57600080fd5b50610363600435614298565b34801561093357600080fd5b5061043e6142d6565b34801561094857600080fd5b506109546004356142dd565b60408051600160a060020a0390941684526001604060020a03909216602084015263ffffffff1682820152519081900360600190f35b34801561099657600080fd5b50610363600435614324565b3480156109ae57600080fd5b5061043e614361565b3480156109c357600080fd5b506107fa614367565b3480156109d857600080fd5b50604080516020600460443581810135601f810184900484028501840190955284845261028394823563ffffffff908116956024803590921695369594606494929301919081908401838280828437509497505050923563ffffffff16935061437692505050565b610a486149c0565b610a506149c0565b610a586149e0565b600354600090819063ffffffff8e1610610ae2576040805160e560020a62461bcd02815260206004820152602360248201527f64656c6567617465206d75737420626520612076616c6964206163636f756e7460448201527f2069640000000000000000000000000000000000000000000000000000000000606482015290519081900360840190fd5b6003805463ffffffff8f16908110610af657fe5b6000918252602091829020604080516060810182529290910154600160a060020a03811680845260a060020a82046001604060020a03169484019490945260e060020a900463ffffffff169082015295501515610bc3576040805160e560020a62461bcd02815260206004820152603560248201527f6163636f756e7420726567697374726174696f6e2068617320626520746f206360448201527f6f6d706c6574656420666f722064656c65676174650000000000000000000000606482015290519081900360840190fd5b8451600160a060020a03163314610c4a576040805160e560020a62461bcd02815260206004820152602260248201527f6f6e6c792064656c65676174652063616e20696e69746961746520636f6c6c6560448201527f6374000000000000000000000000000000000000000000000000000000000000606482015290519081900360840190fd5b60035463ffffffff8c161115610caa576040805160e560020a62461bcd02815260206004820152601d60248201527f746f206d75737420626520612076616c6964206163636f756e74206964000000604482015290519081900360640190fd5b6003805463ffffffff8d16908110610cbe57fe5b6000918252602091829020604080516060810182529290910154600160a060020a03811680845260a060020a82046001604060020a03169484019490945260e060020a900463ffffffff169082015294501515610d8b576040805160e560020a62461bcd02815260206004820152602860248201527f6163636f756e7420726567697374726174696f6e2068617320746f206265206360448201527f6f6d706c65746564000000000000000000000000000000000000000000000000606482015290519081900360840190fd5b60008a63ffffffff16118015610da9575060055463ffffffff8b1611155b1515610dff576040805160e560020a62461bcd02815260206004820152601060248201527f696e76616c696420706179496e64657800000000000000000000000000000000604482015290519081900360640190fd5b836040015163ffffffff168a63ffffffff16111515610e68576040805160e560020a62461bcd02815260206004820152601d60248201527f706179496e646578206973206e6f7420612076616c69642076616c7565000000604482015290519081900360640190fd5b43600560018c0363ffffffff16815481101515610e8157fe5b60009182526020909120600160059092020101546001604060020a031610610f19576040805160e560020a62461bcd02815260206004820152602c60248201527f63616e6e6f7420636f6c6c656374207061796d656e747320746861742063616e60448201527f20626520756e6c6f636b65640000000000000000000000000000000000000000606482015290519081900360840190fd5b6001604060020a03808a169089161115610f7d576040805160e560020a62461bcd02815260206004820152600e60248201527f66656520697320746f6f20626967000000000000000000000000000000000000604482015290519081900360640190fd5b63ffffffff808e1660e08501819052908c1614611155578c8b85604001518c8c8c8c604051602001808863ffffffff1663ffffffff1660e060020a0281526004018763ffffffff1663ffffffff1660e060020a0281526004018663ffffffff1663ffffffff1660e060020a0281526004018563ffffffff1663ffffffff1660e060020a028152600401846001604060020a03166001604060020a031660c060020a028152600801836001604060020a03166001604060020a031660c060020a02815260080182600160a060020a0316600160a060020a03166c010000000000000000000000000281526014019750505050505050506040516020818303038152906040526040518082805190602001908083835b602083106110b05780518252601f199092019160209182019101611091565b6001836020036101000a038019825116818451168082178552505050505050905001915050604051809103902091508360000151600160a060020a03166110f783886145f0565b600160a060020a031614611155576040805160e560020a62461bcd02815260206004820152601260248201527f4261642075736572207369676e61747572650000000000000000000000000000604482015290519081900360640190fd5b61115f8d8d613a2d565b50604083015163ffffffff90811683528981166020840152606490618000908d16106112b6576001604060020a03808a166060850181905260208601516111bd92908116916111af918c166147c6565b6001604060020a03166147f2565b6001604060020a03166020850152600160a060020a0387161561128957600254602080860151604080517fa9059cbb000000000000000000000000000000000000000000000000000000008152600160a060020a038c811660048301526001604060020a0390931660248201529051919093169263a9059cbb9260448083019391928290030181600087803b15801561125557600080fd5b505af1158015611269573d6000803e3d6000fd5b505050506040513d602081101561127f57600080fd5b5050600060208501525b60006101608401526112af6001604060020a03808316906111af908c8116908c166147c6565b90506112d6565b600160a060020a0387166101608401526001604060020a03881660608401525b60208501516001604060020a038083169116101561133e576040805160e560020a62461bcd02815260206004820152601060248201527f6e6f7420656e6f7567682066756e647300000000000000000000000000000000604482015290519081900360640190fd5b61134e8d63ffffffff1682614817565b8883604001906001604060020a031690816001604060020a0316815250508a836080019063ffffffff16908163ffffffff168152505061012c43018360a001906001604060020a031690816001604060020a03168152505060018360c0019060ff16908160ff1681525050826000808f63ffffffff1663ffffffff16815260200190815260200160002060008e63ffffffff1663ffffffff16815260200190815260200160002060008201518160000160006101000a81548163ffffffff021916908363ffffffff16021790555060208201518160000160046101000a81548163ffffffff021916908363ffffffff16021790555060408201518160000160086101000a8154816001604060020a0302191690836001604060020a0316021790555060608201518160000160106101000a8154816001604060020a0302191690836001604060020a0316021790555060808201518160000160186101000a81548163ffffffff021916908363ffffffff16021790555060a08201518160010160006101000a8154816001604060020a0302191690836001604060020a0316021790555060c08201518160010160086101000a81548160ff021916908360ff16021790555060e08201518160010160096101000a81548163ffffffff021916908363ffffffff16021790555061010082015181600101600d6101000a81548163ffffffff021916908363ffffffff1602179055506101208201518160010160116101000a81548163ffffffff021916908363ffffffff1602179055506101408201518160010160156101000a8154816001604060020a0302191690836001604060020a031602179055506101608201518160020160006101000a815481600160a060020a030219169083600160a060020a03160217905550610180820151816003019060001916905590505089846040019063ffffffff16908163ffffffff16815250508360038c63ffffffff1681548110151561162757fe5b60009182526020918290208351910180549284015160409094015173ffffffffffffffffffffffffffffffffffffffff19909316600160a060020a03909216919091177bffffffffffffffff0000000000000000000000000000000000000000191660a060020a6001604060020a039094169390930292909217600160e060020a031660e060020a63ffffffff9092169190910217905550505050505050505050505050565b6116d5614a4c565b6000806116e06149c0565b63ffffffff8c1684526001604060020a03808c1660208601528a166040850152610100840186905260006117154360146147f2565b6001604060020a031660c086015261173263ffffffff8e16611f01565b1515611788576040805160e560020a62461bcd02815260206004820152600e60248201527f696e76616c69642066726f6d4964000000000000000000000000000000000000604482015290519081900360640190fd5b89519350600184116117e4576040805160e560020a62461bcd02815260206004820152601960248201527f70617944617461206c656e67746820697320696e76616c696400000000000000604482015290519081900360640190fd5b8960018151811015156117f357fe5b90602001015160f860020a900460f860020a0260f860020a9004925060038d63ffffffff1681548110151561182457fe5b60009182526020808320604080516060810182529390910154600160a060020a038116845260a060020a81046001604060020a03169284019290925260e060020a90910463ffffffff1690820152925083116118ca576040805160e560020a62461bcd02815260206004820152601f60248201527f6279746573207065722049642073686f756c6420626520706f73697469766500604482015290519081900360640190fd5b8151600160a060020a0316331461192b576040805160e560020a62461bcd02815260206004820152601d60248201527f6f6e6c79206f776e6572206f662069642063616e207472616e73666572000000604482015290519081900360640190fd5b826002850381151561193957fe5b061561198f576040805160e560020a62461bcd02815260206004820152601960248201527f70617944617461206c656e67746820697320696e76616c696400000000000000604482015290519081900360640190fd5b6119ab600285036119a0858c6147f2565b63ffffffff166148e1565b63ffffffff1660a08601819052620186a011611a11576040805160e560020a62461bcd02815260206004820152600f60248201527f746f6f206d616e79207061796565730000000000000000000000000000000000604482015290519081900360640190fd5b611a49611a318d6001604060020a03168760a0015163ffffffff16614900565b6001604060020a03168c6001604060020a03166147f2565b905081602001516001604060020a0316816001604060020a031611151515611abb576040805160e560020a62461bcd02815260206004820152601060248201527f6e6f7420656e6f7567682066756e647300000000000000000000000000000000604482015290519081900360640190fd5b611adb82602001516001604060020a0316826001604060020a03166147c6565b82602001906001604060020a031690816001604060020a0316815250508160038e63ffffffff16815481101515611b0e57fe5b60009182526020918290208351910180549284015160409094015173ffffffffffffffffffffffffffffffffffffffff19909316600160a060020a03909216919091177bffffffffffffffff0000000000000000000000000000000000000000191660a060020a6001604060020a039094169390930292909217600160e060020a031660e060020a63ffffffff92831602179091556003541660608601819052611bb8908a6147f2565b63ffffffff1660808601526000891115611bd657611bd68989614047565b61012085018690526040518a518b9160209081019182918401908083835b60208310611c135780518252601f199092019160209182019101611bf4565b6001836020036101000a0380198251168184511680821785525050505050509050019150506040516020818303038152906040526040518082805190602001908083835b60208310611c765780518252601f199092019160209182019101611c57565b6001836020036101000a03801982511681845116808217855250505050505090500191505060405180910390208560e0019060001916908160001916815250506005859080600181540180825580915050906001820390600052602060002090600502016000909192909190915060008201518160000160006101000a81548163ffffffff021916908363ffffffff16021790555060208201518160000160046101000a8154816001604060020a0302191690836001604060020a03160217905550604082015181600001600c6101000a8154816001604060020a0302191690836001604060020a0316021790555060608201518160000160146101000a81548163ffffffff021916908363ffffffff16021790555060808201518160000160186101000a81548163ffffffff021916908363ffffffff16021790555060a082015181600001601c6101000a81548163ffffffff021916908363ffffffff16021790555060c08201518160010160006101000a8154816001604060020a0302191690836001604060020a0316021790555060e08201518160020190600019169055610100820151816003019060001916905561012082015181600401906000191690555050507fd036ea84a5f8e245cab2b3370fbb356025392aa87922c52d009c6d16821e62cc60016005805490500386600001518760a001518860200151604051808581526020018463ffffffff1681526020018363ffffffff168152602001826001604060020a0316815260200194505050505060405180910390a150505050505050505050505050565b6004805482908110611ed157fe5b60009182526020909120600290910201805460019091015490915063ffffffff8082169164010000000090041683565b6003541190565b60035460009063ffffffff11611f68576040805160e560020a62461bcd02815260206004820152601560248201527f6e6f206d6f7265206163636f756e7473206c6566740000000000000000000000604482015290519081900360640190fd5b50600380546040805160608101825233808252600060208084018281528486018381526001880189559790925292517fc2575a0e9e593c00f959f8c92f12db2869c3395a3b0502d05e2516446f71f85b860180549251975173ffffffffffffffffffffffffffffffffffffffff19909316600160a060020a03909216919091177bffffffffffffffff0000000000000000000000000000000000000000191660a060020a6001604060020a039098169790970296909617600160e060020a031660e060020a63ffffffff92831602179095558251948416855290840152805191927fa902c0ee3df5ddb3d1ab80437a22cd86a19a2295f7c96c5e387ea29d9d0bfaad929081900390910190a15b90565b6000612082614a4c565b60055460009084106120de576040805160e560020a62461bcd02815260206004820152601260248201527f696e76616c6964207061796d656e742049640000000000000000000000000000604482015290519081900360640190fd5b60058054859081106120ec57fe5b60009182526020909120600360059092020101541515612156576040805160e560020a62461bcd02815260206004820152601b60248201527f7061796d656e7420697320616c726561647920756e6c6f636b65640000000000604482015290519081900360640190fd5b600580548590811061216457fe5b60009182526020909120600160059092020101546001604060020a03164310156121d8576040805160e560020a62461bcd02815260206004820152601d60248201527f48617368206c6f636b20686173206e6f74206578706972656420796574000000604482015290519081900360640190fd5b60058054859081106121e657fe5b6000918252602080832060408051610140810182526005909402909101805463ffffffff80821686526001604060020a0364010000000083048116958701959095526c01000000000000000000000000820485169386019390935260a060020a81048316606086015260c060020a81048316608086015260e060020a900490911660a08401819052600182015490921660c0840152600281015460e0840152600381015461010084015260040154610120830152909350116122f2576040805160e560020a62461bcd02815260206004820152601860248201527f7061796d656e7420616c726561647920726566756e6465640000000000000000604482015290519081900360640190fd5b6123326123168360a0015163ffffffff1684602001516001604060020a0316614900565b6001604060020a031683604001516001604060020a03166147f2565b600060a084018190526040840181905260208401526005805491925083918690811061235a57fe5b600091825260209182902083516005929092020180549284015160408501516060860151608087015160a088015163ffffffff1990971663ffffffff968716176bffffffffffffffff0000000019166401000000006001604060020a03958616021773ffffffffffffffff00000000000000000000000019166c01000000000000000000000000938516939093029290921777ffffffff0000000000000000000000000000000000000000191660a060020a91861691909102177bffffffff000000000000000000000000000000000000000000000000191660c060020a9185169190910217600160e060020a031660e060020a9484169490940293909317815560c084015160018201805467ffffffffffffffff1916919094161790925560e0830151600283015561010083015160038301556101209092015160049091015582516124a891168261492b565b5050919050565b6004546000908190819081908510612511576040805160e560020a62461bcd02815260206004820181905260248201527f7468652062756c6b4964207265666572656e63656420697320696e76616c6964604482015290519081900360640190fd5b600480548690811061251f57fe5b906000526020600020906002020160010160049054906101000a900463ffffffff1663ffffffff16935060048581548110151561255857fe5b60009182526020909120600160029092020101546004805463ffffffff9092169450908690811061258557fe5b906000526020600020906002020160000154915073__Merkle________________________________6358e81d33888689038b600160a060020a03166040518463ffffffff1660e060020a0281526004018080602001848152602001838152602001828103825285818151815260200191508051906020019060200280838360005b8381101561261f578181015183820152602001612607565b5050505090500194505050505060206040518083038186803b15801561264457600080fd5b505af4158015612658573d6000803e3d6000fd5b505050506040513d602081101561266e57600080fd5b50519050838610801590612683575082840186105b15156126ff576040805160e560020a62461bcd02815260206004820152603b60248201527f74686520696420737065636966696564206973206e6f742070617274206f662060448201527f746861742062756c6b20726567697374726174696f6e20736c6f740000000000606482015290519081900360840190fd5b808214612756576040805160e560020a62461bcd02815260206004820152601460248201527f696e76616c6964204d65726b6c652070726f6f66000000000000000000000000604482015290519081900360640190fd5b60408051878152600160a060020a038a16602082015281517fa902c0ee3df5ddb3d1ab80437a22cd86a19a2295f7c96c5e387ea29d9d0bfaad929181900390910190a1876003878154811015156127a957fe5b6000918252602090912001805473ffffffffffffffffffffffffffffffffffffffff1916600160a060020a03929092169190911790555050505050505050565b606481565b600554600090819063ffffffff861610612852576040805160e560020a62461bcd02815260206004820152601060248201527f696e76616c696420706179496e64657800000000000000000000000000000000604482015290519081900360640190fd5b6128618463ffffffff16611f01565b15156128b7576040805160e560020a62461bcd02815260206004820152601260248201527f496e76616c696420756e6c6f636b657249640000000000000000000000000000604482015290519081900360640190fd5b6005805463ffffffff87169081106128cb57fe5b60009182526020909120600160059092020101546001604060020a0316431061293e576040805160e560020a62461bcd02815260206004820152601160248201527f48617368206c6f636b2065787069726564000000000000000000000000000000604482015290519081900360640190fd5b8383604051602001808363ffffffff1663ffffffff1660e060020a02815260040182805190602001908083835b6020831061298a5780518252601f19909201916020918201910161296b565b6001836020036101000a038019825116818451168082178552505050505050905001925050506040516020818303038152906040526040518082805190602001908083835b602083106129ee5780518252601f1990920191602091820191016129cf565b6001836020036101000a0380198251168184511680821785525050505050509050019150506040518091039020905060058563ffffffff16815481101515612a3257fe5b60009182526020909120600360059092020101548114612a9c576040805160e560020a62461bcd02815260206004820152600b60248201527f496e76616c6964206b6579000000000000000000000000000000000000000000604482015290519081900360640190fd5b600580546000919063ffffffff8816908110612ab457fe5b90600052602060002090600502016003018160001916905550612b1b8463ffffffff1660058763ffffffff16815481101515612aec57fe5b60009182526020909120600590910201546c0100000000000000000000000090046001604060020a031661492b565b7f398f375c8a361a482df2c189cdbc2e073d85754e7bd89e9f35b445a0e8e7a6b38584604051808363ffffffff16815260200180602001828103825283818151815260200191508051906020019080838360005b83811015612b87578181015183820152602001612b6f565b50505050905090810190601f168015612bb45780820380516001836020036101000a031916815260200191505b50935050505060405180910390a1506001949350505050565b60008082612bda81614324565b1515612c2b576040805160e560020a62461bcd0281526020600482015260216024820152600080516020614ade833981519152604482015260fa60020a601902606482015290519081900360840190fd5b6003805485908110612c3957fe5b60009182526020909120015460038054600160a060020a0390921694509085908110612c6157fe5b6000918252602090912001546001604060020a0360a060020a909104811692508516821015612cda576040805160e560020a62461bcd02815260206004820152601260248201527f696e73756666696369656e742066756e64730000000000000000000000000000604482015290519081900360640190fd5b60006001604060020a03861611612d3b576040805160e560020a62461bcd02815260206004820152601860248201527f616d6f756e742073686f756c64206265206e6f6e7a65726f0000000000000000604482015290519081900360640190fd5b612d458486614817565b600254604080517fa9059cbb000000000000000000000000000000000000000000000000000000008152600160a060020a0386811660048301526001604060020a03891660248301529151919092169163a9059cbb9160448083019260209291908290030181600087803b158015612dbc57600080fd5b505af1158015612dd0573d6000803e3d6000fd5b505050506040513d6020811015612de657600080fd5b50505050505050565b8263ffffffff16612dff81614324565b1515612e50576040805160e560020a62461bcd0281526020600482015260216024820152600080516020614ade833981519152604482015260fa60020a601902606482015290519081900360840190fd5b63ffffffff808516600090815260208181526040808320938716835292815282822083517f8b99aae0000000000000000000000000000000000000000000000000000000008152600481018281526024820195865287516044830152875173__Challenge_____________________________96638b99aae09694958a9593949193606490920192908601918190849084905b83811015612efb578181015183820152602001612ee3565b50505050905090810190601f168015612f285780820380516001836020036101000a031916815260200191505b50935050505060006040518083038186803b158015612f4657600080fd5b505af4158015612f5a573d6000803e3d6000fd5b50506040805163ffffffff80891682528716602082015281517fa6b618db47d96afabc807683596130152dec6207d8ea1b4800ced668e51d455e9450908190039091019150a150505050565b8163ffffffff16612fb681611f01565b1515612ffa576040805160e560020a62461bcd02815260206004820152600f6024820152600080516020614afe833981519152604482015290519081900360640190fd5b63ffffffff808416600090815260208181526040808320938616835292905281812082517f877a63cd000000000000000000000000000000000000000000000000000000008152600481019190915260036024820152915173__Challenge_____________________________9263877a63cd926044808301939192829003018186803b15801561308a57600080fd5b505af415801561309e573d6000803e3d6000fd5b50506040805163ffffffff80881682528616602082015281517fddf2e4f59885acfed46c41e8aba379875ae0c42b8d3be093ed6adb1d291929419450908190039091019150a1505050565b60055490565b600354600090821080613103575060001982145b1515613159576040805160e560020a62461bcd02815260206004820152600a60248201527f696e76616c696420696400000000000000000000000000000000000000000000604482015290519081900360640190fd5b60006001604060020a038416116131ba576040805160e560020a62461bcd02815260206004820152601960248201527f616d6f756e742073686f756c6420626520706f73697469766500000000000000604482015290519081900360640190fd5b600254604080517f23b872dd0000000000000000000000000000000000000000000000000000000081523360048201523060248201526001604060020a03861660448201529051600160a060020a03909216916323b872dd916064808201926020929091908290030181600087803b15801561323557600080fd5b505af1158015613249573d6000803e3d6000fd5b505050506040513d602081101561325f57600080fd5b505115156132b7576040805160e560020a62461bcd02815260206004820152600f60248201527f7472616e73666572206661696c65640000000000000000000000000000000000604482015290519081900360640190fd5b600019821415613317576132c9611f08565b63ffffffff169050826003828154811015156132e157fe5b9060005260206000200160000160146101000a8154816001604060020a0302191690836001604060020a03160217905550613321565b613321828461492b565b505050565b61800081565b60035490565b6001604060020a0381565b8263ffffffff1661334d81614324565b151561339e576040805160e560020a62461bcd0281526020600482015260216024820152600080516020614ade833981519152604482015260fa60020a601902606482015290519081900360840190fd5b63ffffffff808516600090815260208181526040808320938716835292815282822092517fd8b076eb0000000000000000000000000000000000000000000000000000000081526004810184815260036024830181905260056044840181905260806064850190815289516084860152895173__Challenge_____________________________9863d8b076eb989097949693958c95909460a40192908601918190849084905b8381101561345d578181015183820152602001613445565b50505050905090810190601f16801561348a5780820380516001836020036101000a031916815260200191505b509550505050505060006040518083038186803b1580156134aa57600080fd5b505af41580156134be573d6000803e3d6000fd5b50506040805163ffffffff80891682528716602082015281517f6819dcb1f3afd29b2613c73a541aa5b6422a1528363a6c0fc8222def0960090b9450908190039091019150a150505050565b63ffffffff81565b6000602081815292815260408082209093529081522080546001820154600283015460039093015463ffffffff8084169464010000000085048216946001604060020a0368010000000000000000808304821696700100000000000000000000000000000000840483169660c060020a9094048616958184169560ff9383049390931694690100000000000000000083048216946d0100000000000000000000000000840483169471010000000000000000000000000000000000850490931693750100000000000000000000000000000000000000000090041691600160a060020a0316908d565b6103e881565b600580548290811061360f57fe5b60009182526020909120600590910201805460018201546002830154600384015460049094015463ffffffff80851696506001604060020a0364010000000086048116966c01000000000000000000000000870482169660a060020a810484169660c060020a820485169660e060020a9092049094169493909216928a565b600154600160a060020a031681565b8163ffffffff166136ad81611f01565b15156136f1576040805160e560020a62461bcd02815260206004820152600f6024820152600080516020614afe833981519152604482015290519081900360640190fd5b63ffffffff808416600090815260208181526040808320938616835292905281812082517f0d9617b4000000000000000000000000000000000000000000000000000000008152600481019190915260036024820152915173__Challenge_____________________________92630d9617b4926044808301939192829003018186803b15801561378157600080fd5b505af4158015613795573d6000803e3d6000fd5b50506040805163ffffffff80881682528616602082015281517f9c76408a4cd30d32bf25bc3f5dc58c5eb4810ad0cb9bafe582788a786511b6029450908190039091019150a1505050565b61012c81565b8263ffffffff166137f681611f01565b151561383a576040805160e560020a62461bcd02815260206004820152600f6024820152600080516020614afe833981519152604482015290519081900360640190fd5b8163ffffffff1661384a81614324565b151561389b576040805160e560020a62461bcd0281526020600482015260216024820152600080516020614ade833981519152604482015260fa60020a601902606482015290519081900360840190fd5b63ffffffff808616600090815260208181526040808320888516845290915280822081517f2e1a929400000000000000000000000000000000000000000000000000000000815260048101919091526003602482015292861660448401525173__Challenge_____________________________92632e1a9294926064808301939192829003018186803b15801561393257600080fd5b505af4158015613946573d6000803e3d6000fd5b50506040805163ffffffff808a168252808916602083015287168183015290517f8a7099b7d12b47ee2af9b0bf42f66665ddee80e29613a8735da394f3382f5bb29350908190036060019150a15050505050565b6000816139a681611f01565b15156139ea576040805160e560020a62461bcd02815260206004820152600f6024820152600080516020614afe833981519152604482015290519081900360640190fd5b60038054849081106139f857fe5b60009182526020909120015460a060020a90046001604060020a03169392505050565b601481565b6201000081565b60001981565b613a356149e0565b6000613a468463ffffffff16614324565b1515613a9c576040805160e560020a62461bcd02815260206004820152601660248201527f6f6e6c792064656c65676174652063616e2063616c6c00000000000000000000604482015290519081900360640190fd5b63ffffffff808516600090815260208181526040808320878516845282529182902082516101a0810184528154808616825264010000000081048616938201939093526001604060020a036801000000000000000080850482169583019590955270010000000000000000000000000000000084048116606083015260c060020a90930485166080820152600182015480841660a083015260ff9481049490941660c0820181905269010000000000000000008504861660e08301526d01000000000000000000000000008504861661010083015271010000000000000000000000000000000000850490951661012082015275010000000000000000000000000000000000000000009093049091166101408301526002810154600160a060020a03166101608301526003015461018082015292501515613bdd57614041565b8160c0015160ff166001148015613c0157508160a001516001604060020a03164310155b1515613c57576040805160e560020a62461bcd02815260206004820152601260248201527f736c6f74206e6f7420617661696c61626c650000000000000000000000000000604482015290519081900360640190fd5b613c878463ffffffff16613c8284606001516001604060020a031660646001604060020a03166147f2565b61492b565b613cd96003836080015163ffffffff16815481101515613ca357fe5b600091825260209091200154604084015160608501516001604060020a0360a060020a9093048316926111af92811691166147c6565b610160830151909150600160a060020a031615613d9e57600254610160830151604080517fa9059cbb000000000000000000000000000000000000000000000000000000008152600160a060020a0392831660048201526001604060020a03851660248201529051919092169163a9059cbb9160448083019260209291908290030181600087803b158015613d6d57600080fd5b505af1158015613d81573d6000803e3d6000fd5b505050506040513d6020811015613d9757600080fd5b5060009150505b806003836080015163ffffffff16815481101515613db857fe5b600091825260208083209190910180547bffffffffffffffff0000000000000000000000000000000000000000191660a060020a6001604060020a039586160217905560c0850182815263ffffffff88811684528383526040808520898316865284529384902087518154948901519589015160608a015160808b015163ffffffff199097169285169290921767ffffffff00000000191664010000000097851697909702969096176fffffffffffffffff000000000000000019166801000000000000000096881687021777ffffffffffffffff00000000000000000000000000000000191670010000000000000000000000000000000091881691909102177bffffffff000000000000000000000000000000000000000000000000191660c060020a9483169490940293909317835560a0870151600184018054935160e08a01516101008b01516101208c01516101408d015167ffffffffffffffff19909816958b169590951768ff0000000000000000191660ff909316909802919091176cffffffff00000000000000000019166901000000000000000000918516919091021770ffffffff0000000000000000000000000019166d0100000000000000000000000000968416969096029590951774ffffffff00000000000000000000000000000000001916710100000000000000000000000000000000009190921602177fffffff0000000000000000ffffffffffffffffffffffffffffffffffffffffff167501000000000000000000000000000000000000000000919094160292909217905561016083015160028201805473ffffffffffffffffffffffffffffffffffffffff1916600160a060020a039092169190911790556101808301516003909101555b50505050565b6000821161409f576040805160e560020a62461bcd02815260206004820152601560248201527f43616e6e6f742072656769737465722030206964730000000000000000000000604482015290519081900360640190fd5b62010000821061411f576040805160e560020a62461bcd02815260206004820152603160248201527f43616e6e6f742072656769737465722074686973206e756d626572206f66206960448201527f64732073696d756c74616e656f75736c79000000000000000000000000000000606482015290519081900360840190fd5b60035463ffffffff9061413290846149b1565b1115614188576040805160e560020a62461bcd02815260206004820152601f60248201527f43616e6e6f742072656769737465723a2072616e206f7574206f662069647300604482015290519081900360640190fd5b60035460045460408051858152602081019390935282810191909152517f9862cc43f4a88dac2960cf68db647bbdd971785677f61f57da13545b1172805a9181900360600190a16040805160608101825282815263ffffffff848116602083019081526003805483169484019485526004805460018101825560009190915293517f8a35acfbc15ff81a39ae7d344fd709f28e8600b4aa8c65c6b64bfe7fe36bd19b60029095029485015590517f8a35acfbc15ff81a39ae7d344fd709f28e8600b4aa8c65c6b64bfe7fe36bd19c9093018054945163ffffffff199095169383169390931767ffffffff000000001916640100000000949092169390930217905580548301906133219082614aa0565b60006142a382611f01565b80156142d0575060038054839081106142b857fe5b600091825260209091200154600160a060020a031615155b92915050565b620186a081565b60038054829081106142eb57fe5b600091825260209091200154600160a060020a038116915060a060020a81046001604060020a03169060e060020a900463ffffffff1683565b600061432f82611f01565b80156142d05750600380548390811061434457fe5b600091825260209091200154600160a060020a0316331492915050565b60045490565b600254600160a060020a031681565b8363ffffffff1661438681611f01565b15156143ca576040805160e560020a62461bcd02815260206004820152600f6024820152600080516020614afe833981519152604482015290519081900360640190fd5b63ffffffff808616600090815260208181526040808320888516845290915290206001015461440b916d010000000000000000000000000090910416614324565b1515614486576040805160e560020a62461bcd028152602060048201526024808201527f6f6e6c79206368616c6c656e6765722063616e2063616c6c206368616c6c656e60448201527f67655f3200000000000000000000000000000000000000000000000000000000606482015290519081900360840190fd5b63ffffffff8086166000908152602081815260408083208885168452825280832090517fad47770100000000000000000000000000000000000000000000000000000000815260048101828152948716604482015260606024820190815288516064830152885173__Challenge_____________________________9663ad4777019694958b958b9592949360849093019291870191908190849084905b8381101561453c578181015183820152602001614524565b50505050905090810190601f1680156145695780820380516001836020036101000a031916815260200191505b5094505050505060006040518083038186803b15801561458857600080fd5b505af415801561459c573d6000803e3d6000fd5b50506040805163ffffffff808a168252808916602083015286168183015290517f71b30ac4c3205f9ebdd12a5697622d35986d5ed9c9d29fe62c03abd46ad748269350908190036060019150a15050505050565b600060606000806000806040805190810160405280601c81526020017f19457468657265756d205369676e6564204d6573736167653a0a333200000000815250945084886040516020018083805190602001908083835b602083106146665780518252601f199092019160209182019101614647565b51815160209384036101000a600019018019909216911617905292019384525060408051808503815293820190819052835193945092839250908401908083835b602083106146c65780518252601f1990920191602091820191016146a7565b6001836020036101000a038019825116818451168082178552505050505050905001915050604051809103902093508651604114151561470957600095506147bb565b50505060208401516040850151606086015160001a601b60ff8216101561472e57601b015b8060ff16601b1415801561474657508060ff16601c14155b1561475457600095506147bb565b604080516000808252602080830180855288905260ff8516838501526060830187905260808301869052925160019360a0808501949193601f19840193928390039091019190865af11580156147ae573d6000803e3d6000fd5b5050506020604051035195505b505050505092915050565b6000818303838311156147d557fe5b6801000000000000000081106147e757fe5b8091505b5092915050565b600082820183811080159061480f57506801000000000000000081105b15156147e757fe5b8161482181611f01565b1515614865576040805160e560020a62461bcd02815260206004820152600f6024820152600080516020614afe833981519152604482015290519081900360640190fd5b61489d60038481548110151561487757fe5b6000918252602090912001546001604060020a0360a060020a90910481169084166147c6565b60038054859081106148ab57fe5b9060005260206000200160000160146101000a8154816001604060020a0302191690836001604060020a03160217905550505050565b60008082848115156148ef57fe5b04905064010000000081106147e757fe5b60008083151561491357600091506147eb565b5082820282848281151561492357fe5b04146147d557fe5b8161493581611f01565b1515614979576040805160e560020a62461bcd02815260206004820152600f6024820152600080516020614afe833981519152604482015290519081900360640190fd5b61489d60038481548110151561498b57fe5b6000918252602090912001546001604060020a0360a060020a90910481169084166147f2565b6000828201838110156147e757fe5b604080516060810182526000808252602082018190529181019190915290565b604080516101a081018252600080825260208201819052918101829052606081018290526080810182905260a0810182905260c0810182905260e08101829052610100810182905261012081018290526101408101829052610160810182905261018081019190915290565b6040805161014081018252600080825260208201819052918101829052606081018290526080810182905260a0810182905260c0810182905260e08101829052610100810182905261012081019190915290565b8154818355818111156133215760008381526020902061332191810190830161207591905b80821115614ad95760008155600101614ac5565b509056004f6e6c79206f776e65722063616e20696e766f6b652074686973206d6574686f6964206973206e6f742076616c69640000000000000000000000000000000000a165627a7a723058205ae94481dfca1b71ea34dd10f6359882850d7a6cc37f5d57d8e897c11d18579b0029",
  "source": "pragma solidity ^0.4.24;\nimport \"./IERC20.sol\";\nimport \"./Merkle.sol\";\nimport \"./Challenge.sol\";\nimport \"./Account.sol\";\nimport \"./SafeMath.sol\";\n\ncontract BatPay {\n    uint constant public maxAccount = 2**32-1;\n    uint constant public maxBulk = 2**16;\n    uint constant public newAccount = 2**256-1; // special account id. It's NOT in the range of accounts\n    uint constant public maxBalance = 2**64-1;\n    uint constant public maxTransfer = 100000;\n    uint constant public unlockBlocks = 20; \n    uint constant public maxCollect = 1000;\n    uint32 constant public instantSlot = 32768;\n    uint constant public challengeBlocks = 300;     \n    uint constant public challengeStepBlocks = 100;\n    uint64 constant public collectStake = 100;\n    uint64 constant public challengeStake = 100;\n\n    event Transfer(uint payIndex, uint from, uint totalCount, uint amount);\n    event Unlock(uint payIndex, bytes key);\n    event Collect(uint delegate, uint slot, uint to, uint fromPayindex, uint toPayIndex, uint amount);\n    event BulkRegister(uint n, uint minId, uint bulkId );\n    event Register(uint id, address addr);\n    event Challenge_1(uint delegate, uint slot, uint challenger);\n    event Challenge_2(uint delegate, uint slot);\n    event Challenge_3(uint delegate, uint slot, uint index);\n    event Challenge_4(uint delegate, uint slot);\n    event Challenge_sucess(uint delegate, uint slot);\n    event Challenge_failed(uint delegate, uint slot);  \n\n    mapping (uint32 => mapping (uint32 => Challenge.CollectSlot)) public collects;\n\n    address public owner;\n    IERC20 public token;\n    Account.Record[] public accounts;\n    Account.BulkRecord[] public bulkRegistrations;\n    Challenge.Payment[] public payments;\n\n    function isValidId(uint id) public view returns (bool) {\n        return (id < accounts.length);\n    }\n\n    // TODO: rename this function to something more meaningful\n    function isOwnerId(uint id) public view returns (bool) {\n        return isValidId(id) && msg.sender == accounts[id].addr;\n    }\n\n    function isClaimedId(uint id) public view returns (bool) {\n        return isValidId(id) && accounts[id].addr != 0;\n    }\n\n    modifier validId(uint id) {\n        require(isValidId(id), \"id is not valid\");\n        _;\n    }\n\n    modifier onlyOwnerId(uint id) {\n        require(isOwnerId(id), \"Only owner can invoke this method\");\n        _;\n    }\n    \n    modifier claimedId(uint id) {\n        require(isClaimedId(id), \"account has no associated address\");\n        _;\n    }\n\n    constructor(address _token) public {\n        owner = msg.sender;\n        token = IERC20(_token);\n    }\n\n    // Reserve n accounts but delay assigning addresses\n    // Accounts will be claimed later using MerkleTree's rootHash\n   \n    function bulkRegister(uint256 n, bytes32 rootHash) public {\n        require(n > 0, \"Cannot register 0 ids\");\n        require(n < maxBulk, \"Cannot register this number of ids simultaneously\");\n        require(SafeMath.add(accounts.length, n) <= maxAccount, \"Cannot register: ran out of ids\");\n\n        emit BulkRegister(n, accounts.length, bulkRegistrations.length);\n        bulkRegistrations.push(Account.BulkRecord(rootHash, uint32(n), uint32(accounts.length)));\n        accounts.length += n;\n    }\n\n    function claimId(address addr, uint256[] memory proof, uint id, uint bulkId) public {\n        require(bulkId < bulkRegistrations.length, \"the bulkId referenced is invalid\");\n        uint minId = bulkRegistrations[bulkId].minId;\n        uint n = bulkRegistrations[bulkId].n;\n        bytes32 rootHash = bulkRegistrations[bulkId].rootHash;\n        bytes32 hash = Merkle.evalProof(proof, id - minId, uint256(addr));\n        \n        require(id >= minId && id < minId+n, \"the id specified is not part of that bulk registration slot\");\n        require(hash == rootHash, \"invalid Merkle proof\");\n        emit Register(id, addr);\n\n        accounts[id].addr = addr;\n    }\n\n    // Register a new account\n \n    function register() public returns (uint32 ret) {\n        require(accounts.length < maxAccount, \"no more accounts left\");\n        ret = (uint32)(accounts.length);\n        accounts.push(Account.Record(msg.sender, 0, 0));\n        emit Register(ret, msg.sender);\n        return ret;\n    } \n\n/*\n    function withdrawTo(\n        uint32 delegate,\n        uint32 id,  \n        uint64 amount, \n        uint64 fee,\n        address destination,\n        bytes signature) \n        public \n        onlyOwnerId(delegate) \n        claimedId(id)\n    {\n        bytes32 hash = keccak256(abi.encodePacked(delegate, id, amount, fee, destination));\n        \n        require(recoverHelper(hash, signature) == accounts[id].addr, \"invalid signature\");\n        require(accounts[id].balance >= amount, \"not enough founds\");\n        require(fee <= amount, \"invalid fee\");\n\n        accounts[id].balance -= amount;\n        accounts[delegate].balance += fee;\n        token.transfer(destination, amount - fee);\n    }\n\n*/\n    function withdraw(uint64 amount, uint256 id) \n    public\n    onlyOwnerId(id) \n    {    \n        address addr = accounts[id].addr;\n        uint64 balance = accounts[id].balance;\n\n        require(balance >= amount, \"insufficient funds\");\n        require(amount > 0, \"amount should be nonzero\");\n        \n        balanceSub(id, amount);\n        \n        token.transfer(addr, amount);        \n    }\n\n    function deposit(uint64 amount, uint256 id) public {\n        require(id < accounts.length || id == newAccount, \"invalid id\");\n        require(amount > 0, \"amount should be positive\");\n        require(token.transferFrom(msg.sender, address(this), amount), \"transfer failed\");\n\n        if (id == newAccount)      \n        {               // new account\n            uint newId = register();\n            accounts[newId].balance = amount;\n        } else {        // existing account  \n            balanceAdd(id, amount);\n        }\n    }\n\n    function transfer(\n        uint32 fromId, \n        uint64 amount, \n        uint64 fee,\n        bytes memory payData, \n        uint newCount,      //  # of new Users included on bulkRegistration\n        bytes32 roothash,\n        bytes32 lock,\n        bytes32 metadata) \n        public \n    {\n        Challenge.Payment memory p;\n        p.from = fromId;\n        p.amount = amount;\n        p.fee = fee;\n        p.lock = lock;\n        p.block = SafeMath.add64(block.number,unlockBlocks);\n\n        require(isValidId(fromId), \"invalid fromId\");\n        uint len = payData.length;\n        require(len > 1, \"payData length is invalid\");\n        uint bytesPerId = uint(payData[1]);\n        Account.Record memory from = accounts[fromId];\n        \n        require(bytesPerId > 0, \"bytes per Id should be positive\");\n        require(from.addr == msg.sender, \"only owner of id can transfer\");\n        require((len-2) % bytesPerId == 0, \"payData length is invalid\");\n\n        p.totalCount = SafeMath.div32(len-2, SafeMath.add32(bytesPerId,newCount));\n        require(p.totalCount < maxTransfer, \"too many payees\");\n        \n        uint64 total = SafeMath.add64(SafeMath.mul64(amount, p.totalCount), fee); \n        require (total <= from.balance, \"not enough funds\");\n\n        from.balance = SafeMath.sub64(from.balance, total);\n        accounts[fromId] = from;\n\n        p.minId = uint32(accounts.length);\n        p.maxId = SafeMath.add32(p.minId, newCount); \n        if (newCount > 0) {\n            bulkRegister(newCount, roothash);\n        }\n\n        p.metadata = metadata; \n        p.hash = keccak256(abi.encodePacked(payData));\n\n        payments.push(p);\n  \n        emit Transfer(payments.length-1, p.from, p.totalCount, p.amount);\n    }\n\n    function unlock(uint32 payIndex, uint32 unlockerId, bytes memory key) public returns(bool) {\n        require(payIndex < payments.length, \"invalid payIndex\");\n        require(isValidId(unlockerId), \"Invalid unlockerId\");\n        require(block.number < payments[payIndex].block, \"Hash lock expired\");\n        bytes32 h = keccak256(abi.encodePacked(unlockerId, key));\n        require(h == payments[payIndex].lock, \"Invalid key\");\n        \n        payments[payIndex].lock = bytes32(0);\n        balanceAdd(unlockerId, payments[payIndex].fee);\n        \n        emit Unlock(payIndex, key);\n        return true;\n    }\n\n    function refund(uint payIndex) public returns (bool) {\n        require(payIndex < payments.length, \"invalid payment Id\");\n        require(payments[payIndex].lock != 0, \"payment is already unlocked\");\n        require(block.number >= payments[payIndex].block, \"Hash lock has not expired yet\");\n        Challenge.Payment memory p = payments[payIndex];\n        \n        require(p.totalCount > 0, \"payment already refunded\");\n        \n        uint64 total = SafeMath.add64(\n            SafeMath.mul64(p.totalCount, p.amount),\n            p.fee);\n\n        p.totalCount = 0;\n        p.fee = 0;\n        p.amount = 0;\n        payments[payIndex] = p;\n \n        // Complete refund\n        balanceAdd(p.from, total);\n    }\n\n\n    function recoverHelper(bytes32 hash, bytes _sig) internal pure returns (address) {\n        bytes memory prefix = \"\\x19Ethereum Signed Message:\\n32\";\n        bytes32 prefixedHash = keccak256(abi.encodePacked(prefix, hash));\n\n        bytes32 r;\n        bytes32 s;\n        uint8 v;\n\n        // Check the signature length\n        if (_sig.length != 65) {\n            return (address(0));\n        }\n\n        // Divide the signature in r, s and v variables\n        // ecrecover takes the signature parameters, and the only way to get them\n        // currently is to use assembly.\n        // solium-disable-next-line security/no-inline-assembly\n        assembly {\n        r := mload(add(_sig, 32))\n        s := mload(add(_sig, 64))\n        v := byte(0, mload(add(_sig, 96)))\n        }\n\n        // Version of signature should be 27 or 28, but 0 and 1 are also possible versions\n        if (v < 27) {\n            v += 27;\n        }\n\n        // If the version is correct return the signer address\n        if (v != 27 && v != 28) {\n            return address(0);\n        }\n\n        return ecrecover(prefixedHash, v, r, s); \n    }\n\n    function freeSlot(uint32 delegate, uint32 slot) public {\n        require(isOwnerId(delegate), \"only delegate can call\");\n\n        Challenge.CollectSlot memory s = collects[delegate][slot];\n\n        if (s.status == 0) return;\n\n        require (s.status == 1 && block.number >= s.block, \"slot not available\"); \n    \n        // Refund Stake \n        balanceAdd(delegate, SafeMath.add64(s.delegateAmount, collectStake));\n\n        uint64 balance = SafeMath.add64(\n            accounts[s.to].balance, \n            SafeMath.sub64(s.amount, s.delegateAmount));\n\n        if (s.addr != address(0)) {\n            token.transfer(s.addr, balance);\n            balance = 0;\n        } \n        accounts[s.to].balance = balance;\n        s.status = 0;\n        collects[delegate][slot] = s;\n    }\n    \n    function collect(\n        uint32 delegate,\n        uint32 slot,\n        uint32 to, \n        uint32 payIndex,\n        uint64 amount,\n        uint64 fee, \n        address destination,\n        bytes memory signature\n        ) \n        public\n        \n    {\n        // Check delegate is valid\n        require(delegate < accounts.length, \"delegate must be a valid account id\");\n        Account.Record memory acc = accounts[delegate];\n        require(acc.addr != 0, \"account registration has be to completed for delegate\");\n        require(acc.addr == msg.sender, \"only delegate can initiate collect\");\n        \n        // Check to is valid\n        require(to <= accounts.length, \"to must be a valid account id\");\n\n        Account.Record memory tacc = accounts[to];\n        require(tacc.addr != 0, \"account registration has to be completed\");\n\n        // Check payIndex is valid\n        require(payIndex > 0 && payIndex <= payments.length, \"invalid payIndex\");\n        require(payIndex > tacc.collected, \"payIndex is not a valid value\");\n        require(payments[payIndex-1].block < block.number, \"cannot collect payments that can be unlocked\");\n\n        // Check if fee is valid\n        require (fee <= amount, \"fee is too big\");\n\n        Challenge.CollectSlot memory sl;\n     \n        sl.delegate = delegate;\n\n        if (delegate != to) {\n            // Check that \"to\" != delegate, check who signed this transaction\n            bytes32 hash = keccak256(abi.encodePacked(delegate, to, tacc.collected, payIndex, amount, fee, destination)); \n            \n            require(recoverHelper(hash, signature) == tacc.addr, \"Bad user signature\");\n        }\n\n        // free slot if necessary\n        freeSlot(delegate, slot);\n        \n        sl.minPayIndex = tacc.collected;\n        sl.maxPayIndex = payIndex;\n\n        uint64 needed = collectStake;\n        // check if this is an instant collect\n        if (slot >= instantSlot) {\n            sl.delegateAmount = amount;\n            tacc.balance = SafeMath.add64(\n                tacc.balance,\n                SafeMath.sub64(amount, fee));\n\n            // check if the user is withdrawing its balance\n            if (destination != address(0)) {\n                token.transfer(destination, tacc.balance);\n                tacc.balance = 0;\n            }\n\n            sl.addr = address(0);\n            needed = SafeMath.add64(\n                needed, \n                SafeMath.sub64(amount, fee));\n        } else\n        {\n            sl.addr = destination;\n            sl.delegateAmount = fee;\n        }    \n\n        // Check amount & balance\n        require (acc.balance >= needed, \"not enough funds\");\n\n        balanceSub(delegate, needed);\n        \n        sl.amount = amount;\n        sl.to = to;\n        sl.block = uint64(block.number + challengeBlocks);\n        sl.status = 1;\n        collects[delegate][slot] = sl;\n     \n        tacc.collected = uint32(payIndex);\n        accounts[to] = tacc;\n    }\n\n    function challenge_1(\n        uint32 delegate, \n        uint32 slot, \n        uint32 challenger) \n        validId(delegate)\n        public\n        onlyOwnerId(challenger) \n    {\n        Challenge.challenge_1(collects[delegate][slot], accounts, challenger);\n        emit Challenge_1(delegate, slot, challenger);\n    }\n\n    function challenge_2(\n        uint32 delegate, \n        uint32 slot, \n        bytes memory data)\n        public  \n        onlyOwnerId(delegate)\n    {\n        Challenge.challenge_2(collects[delegate][slot], data);\n        emit Challenge_2(delegate, slot);\n    }\n\n\n    function challenge_3(\n        uint32 delegate,\n        uint32 slot, \n        bytes memory data, \n        uint32 index)\n        validId(delegate) \n        public \n    {\n        require(isOwnerId(collects[delegate][slot].challenger), \"only challenger can call challenge_2\");\n        \n        Challenge.challenge_3(collects[delegate][slot], data, index);\n        emit Challenge_3(delegate, slot, index);\n    }\n\n    function challenge_4(\n        uint32 delegate,\n        uint32 slot,\n        bytes memory payData) \n        public \n        onlyOwnerId(delegate) \n    {\n        Challenge.challenge_4(\n            collects[delegate][slot], \n            accounts, \n            payments,\n            payData\n            );\n  \n        emit Challenge_4(delegate, slot);\n    }\n\n\n    function challenge_success(\n        uint32 delegate,\n        uint32 slot\n        )\n        public\n        validId(delegate) \n    {\n        Challenge.challenge_success(collects[delegate][slot], accounts);\n        emit Challenge_sucess(delegate, slot);\n    }\n\n    function challenge_failed(\n        uint32 delegate,\n        uint32 slot)\n        public\n        validId(delegate) \n    {\n        Challenge.challenge_failed(collects[delegate][slot], accounts);\n        emit Challenge_failed(delegate, slot);\n    }\n\n\n    function balanceAdd(uint id, uint64 diff) private validId(id) {\n        accounts[id].balance = SafeMath.add64(accounts[id].balance, diff);\n    }\n\n    function balanceSub(uint id, uint64 diff) private validId(id) {\n        accounts[id].balance = SafeMath.sub64(accounts[id].balance, diff);\n    }\n\n    function balanceOf(uint id) public view validId(id) returns (uint64) {\n        return accounts[id].balance;\n    }\n\n    function accountsLength() public view returns (uint) {\n        return accounts.length;\n    }\n\n    function paymentsLength() public view returns (uint) {\n        return payments.length;\n    }\n\n    function bulkLength() public view returns (uint) {\n        return bulkRegistrations.length;\n    }\n\n}",
  "sourcePath": "/Users/nicolas/dev/BatchPayments/contracts/BatPay.sol",
  "compiler": {
    "name": "solc",
    "version": "0.4.24+commit.e67f0147.Emscripten.clang"
  },
  "schemaVersion": "2.0.0",
  "updatedAt": "2019-02-04T20:49:26.127Z"
}