{
  "contractName": "BatPay",
  "abi": [
    {
      "constant": false,
      "inputs": [
        {
          "name": "fromId",
          "type": "uint32"
        },
        {
          "name": "amount",
          "type": "uint64"
        },
        {
          "name": "fee",
          "type": "uint64"
        },
        {
          "name": "payData",
          "type": "bytes"
        },
        {
          "name": "newCount",
          "type": "uint256"
        },
        {
          "name": "rootHash",
          "type": "bytes32"
        },
        {
          "name": "lockingKeyHash",
          "type": "bytes32"
        },
        {
          "name": "metadata",
          "type": "bytes32"
        }
      ],
      "name": "registerPayment",
      "outputs": [],
      "payable": false,
      "stateMutability": "nonpayable",
      "type": "function"
    },
    {
      "constant": false,
      "inputs": [
        {
          "name": "delegate",
          "type": "uint32"
        },
        {
          "name": "slotId",
          "type": "uint32"
        },
        {
          "name": "toAccountId",
          "type": "uint32"
        },
        {
          "name": "payIndex",
          "type": "uint32"
        },
        {
          "name": "declaredAmount",
          "type": "uint64"
        },
        {
          "name": "fee",
          "type": "uint64"
        },
        {
          "name": "destination",
          "type": "address"
        },
        {
          "name": "signature",
          "type": "bytes"
        }
      ],
      "name": "collect",
      "outputs": [],
      "payable": false,
      "stateMutability": "nonpayable",
      "type": "function"
    },
    {
      "constant": true,
      "inputs": [],
      "name": "newAccountFlag",
      "outputs": [
        {
          "name": "",
          "type": "uint256"
        }
      ],
      "payable": false,
      "stateMutability": "view",
      "type": "function"
    },
    {
      "constant": true,
      "inputs": [],
      "name": "getAccountsLength",
      "outputs": [
        {
          "name": "",
          "type": "uint256"
        }
      ],
      "payable": false,
      "stateMutability": "view",
      "type": "function"
    },
    {
      "constant": true,
      "inputs": [
        {
          "name": "",
          "type": "uint256"
        }
      ],
      "name": "bulkRegistrations",
      "outputs": [
        {
          "name": "rootHash",
          "type": "bytes32"
        },
        {
          "name": "recordCount",
          "type": "uint32"
        },
        {
          "name": "smallestRecordId",
          "type": "uint32"
        }
      ],
      "payable": false,
      "stateMutability": "view",
      "type": "function"
    },
    {
      "constant": true,
      "inputs": [
        {
          "name": "accountId",
          "type": "uint256"
        }
      ],
      "name": "isValidId",
      "outputs": [
        {
          "name": "",
          "type": "bool"
        }
      ],
      "payable": false,
      "stateMutability": "view",
      "type": "function"
    },
    {
      "constant": false,
      "inputs": [],
      "name": "register",
      "outputs": [
        {
          "name": "ret",
          "type": "uint32"
        }
      ],
      "payable": false,
      "stateMutability": "nonpayable",
      "type": "function"
    },
    {
      "constant": false,
      "inputs": [
        {
          "name": "addr",
          "type": "address"
        },
        {
          "name": "proof",
          "type": "bytes32[]"
        },
        {
          "name": "accountId",
          "type": "uint256"
        },
        {
          "name": "bulkId",
          "type": "uint256"
        }
      ],
      "name": "claimBulkRegistrationId",
      "outputs": [],
      "payable": false,
      "stateMutability": "nonpayable",
      "type": "function"
    },
    {
      "constant": true,
      "inputs": [],
      "name": "maxAccountId",
      "outputs": [
        {
          "name": "",
          "type": "uint256"
        }
      ],
      "payable": false,
      "stateMutability": "view",
      "type": "function"
    },
    {
      "constant": false,
      "inputs": [
        {
          "name": "payIndex",
          "type": "uint256"
        }
      ],
      "name": "refundLockedPayment",
      "outputs": [
        {
          "name": "",
          "type": "bool"
        }
      ],
      "payable": false,
      "stateMutability": "nonpayable",
      "type": "function"
    },
    {
      "constant": false,
      "inputs": [
        {
          "name": "payIndex",
          "type": "uint32"
        },
        {
          "name": "unlockerAccountId",
          "type": "uint32"
        },
        {
          "name": "key",
          "type": "bytes"
        }
      ],
      "name": "unlock",
      "outputs": [
        {
          "name": "",
          "type": "bool"
        }
      ],
      "payable": false,
      "stateMutability": "nonpayable",
      "type": "function"
    },
    {
      "constant": false,
      "inputs": [
        {
          "name": "amount",
          "type": "uint64"
        },
        {
          "name": "accountId",
          "type": "uint256"
        }
      ],
      "name": "withdraw",
      "outputs": [],
      "payable": false,
      "stateMutability": "nonpayable",
      "type": "function"
    },
    {
      "constant": false,
      "inputs": [
        {
          "name": "delegate",
          "type": "uint32"
        },
        {
          "name": "slot",
          "type": "uint32"
        },
        {
          "name": "data",
          "type": "bytes"
        }
      ],
      "name": "challenge_2",
      "outputs": [],
      "payable": false,
      "stateMutability": "nonpayable",
      "type": "function"
    },
    {
      "constant": false,
      "inputs": [
        {
          "name": "delegate",
          "type": "uint32"
        },
        {
          "name": "slot",
          "type": "uint32"
        }
      ],
      "name": "challenge_success",
      "outputs": [],
      "payable": false,
      "stateMutability": "nonpayable",
      "type": "function"
    },
    {
      "constant": true,
      "inputs": [
        {
          "name": "accountId",
          "type": "uint256"
        }
      ],
      "name": "isAccountOwner",
      "outputs": [
        {
          "name": "",
          "type": "bool"
        }
      ],
      "payable": false,
      "stateMutability": "view",
      "type": "function"
    },
    {
      "constant": false,
      "inputs": [
        {
          "name": "amount",
          "type": "uint64"
        },
        {
          "name": "accountId",
          "type": "uint256"
        }
      ],
      "name": "deposit",
      "outputs": [],
      "payable": false,
      "stateMutability": "nonpayable",
      "type": "function"
    },
    {
      "constant": true,
      "inputs": [],
      "name": "instantSlot",
      "outputs": [
        {
          "name": "",
          "type": "uint256"
        }
      ],
      "payable": false,
      "stateMutability": "view",
      "type": "function"
    },
    {
      "constant": false,
      "inputs": [
        {
          "name": "delegate",
          "type": "uint32"
        },
        {
          "name": "slot",
          "type": "uint32"
        },
        {
          "name": "payData",
          "type": "bytes"
        }
      ],
      "name": "challenge_4",
      "outputs": [],
      "payable": false,
      "stateMutability": "nonpayable",
      "type": "function"
    },
    {
      "constant": true,
      "inputs": [
        {
          "name": "",
          "type": "uint32"
        },
        {
          "name": "",
          "type": "uint32"
        }
      ],
      "name": "collects",
      "outputs": [
        {
          "name": "minPayIndex",
          "type": "uint32"
        },
        {
          "name": "maxPayIndex",
          "type": "uint32"
        },
        {
          "name": "amount",
          "type": "uint64"
        },
        {
          "name": "delegateAmount",
          "type": "uint64"
        },
        {
          "name": "to",
          "type": "uint32"
        },
        {
          "name": "block",
          "type": "uint64"
        },
        {
          "name": "delegate",
          "type": "uint32"
        },
        {
          "name": "challenger",
          "type": "uint32"
        },
        {
          "name": "index",
          "type": "uint32"
        },
        {
          "name": "challengeAmount",
          "type": "uint64"
        },
        {
          "name": "status",
          "type": "uint8"
        },
        {
          "name": "addr",
          "type": "address"
        },
        {
          "name": "data",
          "type": "bytes32"
        }
      ],
      "payable": false,
      "stateMutability": "view",
      "type": "function"
    },
    {
      "constant": true,
      "inputs": [
        {
          "name": "",
          "type": "uint256"
        }
      ],
      "name": "payments",
      "outputs": [
        {
          "name": "fromAccountId",
          "type": "uint32"
        },
        {
          "name": "amount",
          "type": "uint64"
        },
        {
          "name": "fee",
          "type": "uint64"
        },
        {
          "name": "smallestAccountId",
          "type": "uint32"
        },
        {
          "name": "greatestAccountId",
          "type": "uint32"
        },
        {
          "name": "totalNumberOfPayees",
          "type": "uint32"
        },
        {
          "name": "lockTimeoutBlockNumber",
          "type": "uint64"
        },
        {
          "name": "paymentDataHash",
          "type": "bytes32"
        },
        {
          "name": "lockingKeyHash",
          "type": "bytes32"
        },
        {
          "name": "metadata",
          "type": "bytes32"
        }
      ],
      "payable": false,
      "stateMutability": "view",
      "type": "function"
    },
    {
      "constant": true,
      "inputs": [],
      "name": "owner",
      "outputs": [
        {
          "name": "",
          "type": "address"
        }
      ],
      "payable": false,
      "stateMutability": "view",
      "type": "function"
    },
    {
      "constant": false,
      "inputs": [
        {
          "name": "delegate",
          "type": "uint32"
        },
        {
          "name": "slot",
          "type": "uint32"
        }
      ],
      "name": "challenge_failed",
      "outputs": [],
      "payable": false,
      "stateMutability": "nonpayable",
      "type": "function"
    },
    {
      "constant": false,
      "inputs": [
        {
          "name": "delegate",
          "type": "uint32"
        },
        {
          "name": "slot",
          "type": "uint32"
        },
        {
          "name": "challenger",
          "type": "uint32"
        }
      ],
      "name": "challenge_1",
      "outputs": [],
      "payable": false,
      "stateMutability": "nonpayable",
      "type": "function"
    },
    {
      "constant": true,
      "inputs": [
        {
          "name": "accountId",
          "type": "uint256"
        }
      ],
      "name": "balanceOf",
      "outputs": [
        {
          "name": "",
          "type": "uint64"
        }
      ],
      "payable": false,
      "stateMutability": "view",
      "type": "function"
    },
    {
      "constant": true,
      "inputs": [],
      "name": "getPaymentsLength",
      "outputs": [
        {
          "name": "",
          "type": "uint256"
        }
      ],
      "payable": false,
      "stateMutability": "view",
      "type": "function"
    },
    {
      "constant": true,
      "inputs": [],
      "name": "getBulkLength",
      "outputs": [
        {
          "name": "",
          "type": "uint256"
        }
      ],
      "payable": false,
      "stateMutability": "view",
      "type": "function"
    },
    {
      "constant": false,
      "inputs": [
        {
          "name": "delegate",
          "type": "uint32"
        },
        {
          "name": "slot",
          "type": "uint32"
        }
      ],
      "name": "freeSlot",
      "outputs": [],
      "payable": false,
      "stateMutability": "nonpayable",
      "type": "function"
    },
    {
      "constant": true,
      "inputs": [],
      "name": "params",
      "outputs": [
        {
          "name": "maxBulk",
          "type": "uint32"
        },
        {
          "name": "maxTransfer",
          "type": "uint32"
        },
        {
          "name": "challengeBlocks",
          "type": "uint32"
        },
        {
          "name": "challengeStepBlocks",
          "type": "uint32"
        },
        {
          "name": "collectStake",
          "type": "uint64"
        },
        {
          "name": "challengeStake",
          "type": "uint64"
        },
        {
          "name": "unlockBlocks",
          "type": "uint32"
        },
        {
          "name": "massExitIdBlocks",
          "type": "uint32"
        },
        {
          "name": "massExitIdStepBlocks",
          "type": "uint32"
        },
        {
          "name": "massExitBalanceBlocks",
          "type": "uint32"
        },
        {
          "name": "massExitBalanceStepBlocks",
          "type": "uint32"
        },
        {
          "name": "massExitStake",
          "type": "uint64"
        },
        {
          "name": "massExitChallengeStake",
          "type": "uint64"
        },
        {
          "name": "maxCollectAmount",
          "type": "uint64"
        }
      ],
      "payable": false,
      "stateMutability": "view",
      "type": "function"
    },
    {
      "constant": false,
      "inputs": [
        {
          "name": "bulkSize",
          "type": "uint256"
        },
        {
          "name": "rootHash",
          "type": "bytes32"
        }
      ],
      "name": "bulkRegister",
      "outputs": [],
      "payable": false,
      "stateMutability": "nonpayable",
      "type": "function"
    },
    {
      "constant": true,
      "inputs": [
        {
          "name": "",
          "type": "uint256"
        }
      ],
      "name": "accounts",
      "outputs": [
        {
          "name": "owner",
          "type": "address"
        },
        {
          "name": "balance",
          "type": "uint64"
        },
        {
          "name": "lastCollectedPaymentId",
          "type": "uint32"
        }
      ],
      "payable": false,
      "stateMutability": "view",
      "type": "function"
    },
    {
      "constant": true,
      "inputs": [],
      "name": "token",
      "outputs": [
        {
          "name": "",
          "type": "address"
        }
      ],
      "payable": false,
      "stateMutability": "view",
      "type": "function"
    },
    {
      "constant": false,
      "inputs": [
        {
          "name": "delegate",
          "type": "uint32"
        },
        {
          "name": "slot",
          "type": "uint32"
        },
        {
          "name": "data",
          "type": "bytes"
        },
        {
          "name": "index",
          "type": "uint32"
        }
      ],
      "name": "challenge_3",
      "outputs": [],
      "payable": false,
      "stateMutability": "nonpayable",
      "type": "function"
    },
    {
      "inputs": [
        {
          "name": "token_",
          "type": "address"
        },
        {
          "name": "maxBulk",
          "type": "uint32"
        },
        {
          "name": "maxTransfer",
          "type": "uint32"
        },
        {
          "name": "challengeBlocks",
          "type": "uint32"
        },
        {
          "name": "challengeStepBlocks",
          "type": "uint32"
        },
        {
          "name": "collectStake",
          "type": "uint64"
        },
        {
          "name": "challengeStake",
          "type": "uint64"
        },
        {
          "name": "unlockBlocks",
          "type": "uint32"
        },
        {
          "name": "maxCollectAmount",
          "type": "uint64"
        }
      ],
      "payable": false,
      "stateMutability": "nonpayable",
      "type": "constructor"
    },
    {
      "anonymous": false,
      "inputs": [
        {
          "indexed": true,
          "name": "payIndex",
          "type": "uint256"
        },
        {
          "indexed": true,
          "name": "from",
          "type": "uint256"
        },
        {
          "indexed": false,
          "name": "totalNumberOfPayees",
          "type": "uint256"
        },
        {
          "indexed": false,
          "name": "amount",
          "type": "uint256"
        }
      ],
      "name": "PaymentRegistered",
      "type": "event"
    },
    {
      "anonymous": false,
      "inputs": [
        {
          "indexed": true,
          "name": "payIndex",
          "type": "uint256"
        },
        {
          "indexed": false,
          "name": "key",
          "type": "bytes"
        }
      ],
      "name": "PaymentUnlocked",
      "type": "event"
    },
    {
      "anonymous": false,
      "inputs": [
        {
          "indexed": false,
          "name": "beneficiaryAccountId",
          "type": "uint32"
        },
        {
          "indexed": false,
          "name": "amountRefunded",
          "type": "uint64"
        }
      ],
      "name": "PaymentRefunded",
      "type": "event"
    },
    {
      "anonymous": false,
      "inputs": [
        {
          "indexed": true,
          "name": "delegate",
          "type": "uint256"
        },
        {
          "indexed": true,
          "name": "slot",
          "type": "uint256"
        },
        {
          "indexed": true,
          "name": "to",
          "type": "uint256"
        },
        {
          "indexed": false,
          "name": "fromPayindex",
          "type": "uint256"
        },
        {
          "indexed": false,
          "name": "toPayIndex",
          "type": "uint256"
        },
        {
          "indexed": false,
          "name": "amount",
          "type": "uint256"
        }
      ],
      "name": "Collect",
      "type": "event"
    },
    {
      "anonymous": false,
      "inputs": [
        {
          "indexed": true,
          "name": "delegate",
          "type": "uint256"
        },
        {
          "indexed": true,
          "name": "slot",
          "type": "uint256"
        },
        {
          "indexed": false,
          "name": "challenger",
          "type": "uint256"
        }
      ],
      "name": "Challenge1",
      "type": "event"
    },
    {
      "anonymous": false,
      "inputs": [
        {
          "indexed": true,
          "name": "delegate",
          "type": "uint256"
        },
        {
          "indexed": true,
          "name": "slot",
          "type": "uint256"
        }
      ],
      "name": "Challenge2",
      "type": "event"
    },
    {
      "anonymous": false,
      "inputs": [
        {
          "indexed": true,
          "name": "delegate",
          "type": "uint256"
        },
        {
          "indexed": true,
          "name": "slot",
          "type": "uint256"
        },
        {
          "indexed": false,
          "name": "index",
          "type": "uint256"
        }
      ],
      "name": "Challenge3",
      "type": "event"
    },
    {
      "anonymous": false,
      "inputs": [
        {
          "indexed": true,
          "name": "delegate",
          "type": "uint256"
        },
        {
          "indexed": true,
          "name": "slot",
          "type": "uint256"
        }
      ],
      "name": "Challenge4",
      "type": "event"
    },
    {
      "anonymous": false,
      "inputs": [
        {
          "indexed": true,
          "name": "delegate",
          "type": "uint256"
        },
        {
          "indexed": true,
          "name": "slot",
          "type": "uint256"
        }
      ],
      "name": "ChallengeSuccess",
      "type": "event"
    },
    {
      "anonymous": false,
      "inputs": [
        {
          "indexed": true,
          "name": "delegate",
          "type": "uint256"
        },
        {
          "indexed": true,
          "name": "slot",
          "type": "uint256"
        }
      ],
      "name": "ChallengeFailed",
      "type": "event"
    },
    {
      "anonymous": false,
      "inputs": [
        {
          "indexed": false,
          "name": "bulkSize",
          "type": "uint256"
        },
        {
          "indexed": false,
          "name": "smallestAccountId",
          "type": "uint256"
        },
        {
          "indexed": false,
          "name": "bulkId",
          "type": "uint256"
        }
      ],
      "name": "BulkRegister",
      "type": "event"
    },
    {
      "anonymous": false,
      "inputs": [
        {
          "indexed": false,
          "name": "accountId",
          "type": "uint256"
        },
        {
          "indexed": false,
          "name": "accountAddress",
          "type": "address"
        }
      ],
      "name": "AccountRegistered",
      "type": "event"
    }
  ],
  "bytecode": "0x608060405234801561001057600080fd5b50604051610120806200457a83398101604090815281516020830151918301516060840151608085015160a086015160c087015160e088015161010090980151959794959394929391929091600160a060020a038916151561007157600080fd5b6003805433600160a060020a03199182161790915560048054909116600160a060020a039a909a16999099179098556000805463ffffffff1990811663ffffffff998a161767ffffffff000000001916640100000000988a169890980297909717604060020a63ffffffff02191668010000000000000000968916870217606060020a63ffffffff0219166c010000000000000000000000009589169590950294909417608060020a60c060020a03191670010000000000000000000000000000000067ffffffffffffffff9485160217600160c060020a03167801000000000000000000000000000000000000000000000000928416929092029190911783556001805490951695169490941790925560028054604060020a608060020a0319169390941602919091179091556143ca908190620001b090396000f30060806040526004361061017c5763ffffffff60e060020a60003504166304be2716811461018157806307034be6146101cf578063125e9b781461026e57806314f326a1146102955780631694e2af146102aa5780631a96c519146102e75780631aa3a008146103135780632fdb5658146103415780633483711e146103ad57806337740457146103c2578063407256b6146103da57806343387983146104465780634629401f1461046a578063503e1ac8146104d65780635fced646146104fa5780636170c4b114610512578063705f092514610536578063792c8ba81461054b5780637b0f952f146105b757806387d817891461066d5780638da5cb5b146106f15780639096a66b146107225780639b4156ff146107465780639cc7f70814610770578063b8e0ffbe146107a4578063c4cc55e6146107b9578063c79c9512146107ce578063cff0ab96146107f2578063d34e3c831461093e578063f2a40db814610959578063fc0c546a146109a7578063fc6bdb70146109bc575b600080fd5b34801561018d57600080fd5b506101cd6004803563ffffffff1690602480356001604060020a03908116926044359091169160643590810191013560843560a43560c43560e435610a30565b005b3480156101db57600080fd5b50604080516020601f60e4356004818101359283018490048402850184019095528184526101cd9463ffffffff813581169560248035831696604435841696606435909416956001604060020a0360843581169660a43590911695600160a060020a0360c4351695369592946101049491939190910191908190840183828082843750949750610f1c9650505050505050565b34801561027a57600080fd5b50610283611b84565b60408051918252519081900360200190f35b3480156102a157600080fd5b50610283611b8a565b3480156102b657600080fd5b506102c2600435611b91565b6040805193845263ffffffff9283166020850152911682820152519081900360600190f35b3480156102f357600080fd5b506102ff600435611bce565b604080519115158252519081900360200190f35b34801561031f57600080fd5b50610328611bd5565b6040805163ffffffff9092168252519081900360200190f35b34801561034d57600080fd5b506040805160206004602480358281013584810280870186019097528086526101cd968435600160a060020a031696369660449591949091019291829185019084908082843750949750508435955050506020909201359150611d0e9050565b3480156103b957600080fd5b5061028361203b565b3480156103ce57600080fd5b506102ff600435612043565b3480156103e657600080fd5b50604080516020600460443581810135601f81018490048402850184019095528484526102ff94823563ffffffff9081169560248035909216953695946064949293019190819084018382808284375094975061248e9650505050505050565b34801561045257600080fd5b506101cd6001604060020a0360043516602435612846565b34801561047657600080fd5b50604080516020600460443581810135601f81018490048402850184019095528484526101cd94823563ffffffff90811695602480359092169536959460649492930191908190840183828082843750949750612a549650505050505050565b3480156104e257600080fd5b506101cd63ffffffff60043581169060243516612bf9565b34801561050657600080fd5b506102ff600435612d22565b34801561051e57600080fd5b506101cd6001604060020a0360043516602435612d60565b34801561054257600080fd5b50610283612f6d565b34801561055757600080fd5b50604080516020600460443581810135601f81018490048402850184019095528484526101cd94823563ffffffff90811695602480359092169536959460649492930191908190840183828082843750949750612f739650505050505050565b3480156105c357600080fd5b506105db63ffffffff6004358116906024351661311c565b6040805163ffffffff9e8f1681529c8e1660208e01526001604060020a039b8c168d820152998b1660608d0152978c1660808c015295891660a08b0152938a1660c08a015291891660e08901529097166101008701529590931661012085015260ff909416610140840152600160a060020a039091166101608301526101808201929092529051908190036101a00190f35b34801561067957600080fd5b506106856004356131c0565b6040805163ffffffff9b8c1681526001604060020a039a8b166020820152988a1689820152968a16606089015294891660808801529290971660a086015290941660c084015260e083019490945261010082019290925261012081019290925251908190036101400190f35b3480156106fd57600080fd5b50610706613243565b60408051600160a060020a039092168252519081900360200190f35b34801561072e57600080fd5b506101cd63ffffffff60043581169060243516613252565b34801561075257600080fd5b506101cd63ffffffff60043581169060243581169060443516613390565b34801561077c57600080fd5b50610788600435613541565b604080516001604060020a039092168252519081900360200190f35b3480156107b057600080fd5b506102836135c2565b3480156107c557600080fd5b506102836135c8565b3480156107da57600080fd5b506101cd63ffffffff600435811690602435166135ce565b3480156107fe57600080fd5b506108076139bb565b604051808f63ffffffff1663ffffffff1681526020018e63ffffffff1663ffffffff1681526020018d63ffffffff1663ffffffff1681526020018c63ffffffff1663ffffffff1681526020018b6001604060020a03166001604060020a031681526020018a6001604060020a03166001604060020a031681526020018963ffffffff1663ffffffff1681526020018863ffffffff1663ffffffff1681526020018763ffffffff1663ffffffff1681526020018663ffffffff1663ffffffff1681526020018563ffffffff1663ffffffff168152602001846001604060020a03166001604060020a03168152602001836001604060020a03166001604060020a03168152602001826001604060020a03166001604060020a031681526020019e50505050505050505050505050505060405180910390f35b34801561094a57600080fd5b506101cd600435602435613a3f565b34801561096557600080fd5b50610971600435613c8f565b60408051600160a060020a0390941684526001604060020a03909216602084015263ffffffff1682820152519081900360600190f35b3480156109b357600080fd5b50610706613cd6565b3480156109c857600080fd5b50604080516020600460443581810135601f81018490048402850184019095528484526101cd94823563ffffffff908116956024803590921695369594606494929301919081908401838280828437509497505050923563ffffffff169350613ce592505050565b610a38614201565b6000610a498b63ffffffff16612d22565b1515610a93576040805160e560020a62461bcd02815260206004820152600e6024820152609260020a6d1a5b9d985b1a5908199c9bdb525902604482015290519081900360640190fd5b63ffffffff808c1683526001604060020a03808c1660208501528a166040840152610100830185905261012083018490526005541660608301819052610ad99087613f32565b63ffffffff9081166080840152600154610af591439116613f60565b6001604060020a031660c083015260405188908890602001808383808284378201915050925050506040516020818303038152906040526040518082805190602001908083835b60208310610b5b5780518252601f199092019160209182019101610b3c565b51815160209384036101000a6000190180199092169116179052604080519290940182900390912060e0880152915160e260020a632b2bf0c702815260048101928352602481018c9052610c2b945073__Challenge_____________________________935063acafc31c928d92508c9181906044018484808284378201915050935050505060206040518083038186803b158015610bf957600080fd5b505af4158015610c0d573d6000803e3d6000fd5b505050506040513d6020811015610c2357600080fd5b505187613f32565b63ffffffff90811660a08401819052600054602060020a900490911611610cbf576040805160e560020a62461bcd02815260206004820152603760248201527f746f6f206d616e79207061796565732c2073686f756c64206265206c657373206044820152604960020a763a3430b71031b7b73334b39036b0bc2a3930b739b332b902606482015290519081900360840190fd5b610cdc8a6001604060020a03168360a0015163ffffffff16613f80565b9050610cfa816001604060020a03168a6001604060020a0316613f60565b9050610d0c8b63ffffffff1682613fbe565b6000861115610d1f57610d1f8686613a3f565b6007829080600181540180825580915050906001820390600052602060002090600502016000909192909190915060008201518160000160006101000a81548163ffffffff021916908363ffffffff16021790555060208201518160000160046101000a8154816001604060020a0302191690836001604060020a03160217905550604082015181600001600c6101000a8154816001604060020a0302191690836001604060020a0316021790555060608201518160000160146101000a81548163ffffffff021916908363ffffffff16021790555060808201518160000160186101000a81548163ffffffff021916908363ffffffff16021790555060a082015181600001601c6101000a81548163ffffffff021916908363ffffffff16021790555060c08201518160010160006101000a8154816001604060020a0302191690836001604060020a0316021790555060e0820151816002019060001916905561010082015181600301906000191690556101208201518160040190600019169055505050816000015163ffffffff166001600780549050037ffbefa9690638ebc9b45d230d36e88fe90ae680b2d8701523123cf14f1eec1c9f8460a001518560200151604051808363ffffffff168152602001826001604060020a031681526020019250505060405180910390a35050505050505050505050565b610f24614255565b6000806000806000610f3b8e63ffffffff16612d22565b1515610f87576040805160e560020a62461bcd0281526020600482015260106024820152608060020a6f696e76616c69642064656c656761746502604482015290519081900360640190fd5b610f968c63ffffffff16611bce565b1515610ffe576040805160e560020a62461bcd02815260206004820152602660248201527f746f4163636f756e744964206d75737420626520612076616c6964206163636f604482015260d260020a651d5b9d081a5902606482015290519081900360840190fd5b6110088e8e6135ce565b6005805463ffffffff8e1690811061101c57fe5b6000918252602091829020604080516060810182529290910154600160a060020a03811680845260a060020a82046001604060020a03169484019490945260e060020a900463ffffffff1690820152965015156110d7576040805160e560020a62461bcd02815260206004820152602860248201527f6163636f756e7420726567697374726174696f6e2068617320746f2062652063604482015260c260020a671bdb5c1b195d195902606482015290519081900360840190fd5b63ffffffff8e8116908d161461139257308e8d88604001518e8e8e8e6040516020018089600160a060020a0316600160a060020a0316606060020a0281526014018863ffffffff1663ffffffff1660e060020a0281526004018763ffffffff1663ffffffff1660e060020a0281526004018663ffffffff1663ffffffff1660e060020a0281526004018563ffffffff1663ffffffff1660e060020a028152600401846001604060020a03166001604060020a031660c060020a028152600801836001604060020a03166001604060020a031660c060020a02815260080182600160a060020a0316600160a060020a0316606060020a028152601401985050505050505050506040516020818303038152906040526040518082805190602001908083835b6020831061121a5780518252601f1990920191602091820191016111fb565b51815160209384036101000a6000190180199092169116179052604080519290940182900382208c5160e160020a63052b477f02845260048401828152602485019687528f5160448601528f51929d50600160a060020a03909116975073__Challenge_____________________________9650630a568efe958d95508f94919390926064909201919085019080838360005b838110156112c55781810151838201526020016112ad565b50505050905090810190601f1680156112f25780820380516001836020036101000a031916815260200191505b50935050505060206040518083038186803b15801561131057600080fd5b505af4158015611324573d6000803e3d6000fd5b505050506040513d602081101561133a57600080fd5b5051600160a060020a031614611392576040805160e560020a62461bcd0281526020600482015260126024820152607060020a714261642075736572207369676e617475726502604482015290519081900360640190fd5b60008b63ffffffff161180156113b0575060075463ffffffff8c1611155b151561140f576040805160e560020a62461bcd02815260206004820152602f602482015260008051602061433f8339815191526044820152608a60020a6e1d081d1a185d081b1bdb99c81e595d02606482015290519081900360840190fd5b856040015163ffffffff168b63ffffffff16111515611495576040805160e560020a62461bcd02815260206004820152603160248201527f6163636f756e7420616c726561647920636f6c6c6563746564207061796d656e6044820152607b60020a700e8e640eae040e8de40e0c2f292dcc8caf02606482015290519081900360840190fd5b43600760018d0363ffffffff168154811015156114ae57fe5b60009182526020909120600160059092020101546001604060020a031610611538576040805160e560020a62461bcd02815260206004820152602c60248201527f63616e6e6f7420636f6c6c656374207061796d656e747320746861742063616e604482015260a260020a6b081899481d5b9b1bd8dad95902606482015290519081900360840190fd5b6002546001604060020a03604060020a9091048116908b1611156115a5576040805160e560020a62461bcd0281526020600482015260196024820152603860020a786465636c61726564416d6f756e7420697320746f6f2062696702604482015290519081900360640190fd5b6001604060020a03808b16908a16111561162a576040805160e560020a62461bcd02815260206004820152603560248201527f66656520697320746f6f206269672c2073686f756c6420626520736d616c6c656044820152605a60020a741c881d1a185b88191958db185c9959105b5bdd5b9d02606482015290519081900360840190fd5b600860008f63ffffffff1663ffffffff16815260200190815260200160002060008e63ffffffff1663ffffffff16815260200190815260200160002093508d8460010160086101000a81548163ffffffff021916908363ffffffff16021790555085604001518460000160006101000a81548163ffffffff021916908363ffffffff1602179055508a8460000160046101000a81548163ffffffff021916908363ffffffff160217905550898460000160086101000a8154816001604060020a0302191690836001604060020a031602179055508b8460000160186101000a81548163ffffffff021916908363ffffffff16021790555073__Challenge_____________________________639e749fe66000800160089054906101000a900463ffffffff166040518263ffffffff1660e060020a028152600401808263ffffffff16815260200191505060206040518083038186803b15801561178d57600080fd5b505af41580156117a1573d6000803e3d6000fd5b505050506040513d60208110156117b757600080fd5b505160018501805460e060020a6001604060020a03199091166001604060020a039384161760e060020a60ff021916179055600054608060020a900416925061800063ffffffff8e1610611884576118218a6001604060020a03168a6001604060020a03166140ec565b84546001604060020a03808d16608060020a02608060020a60c060020a031990921691909117865590925061185b90848116908416613f60565b600285018054600160a060020a0319169055925061187f63ffffffff8d1683614110565b6118c4565b8354608060020a60c060020a031916608060020a6001604060020a038b1602178455600284018054600160a060020a031916600160a060020a038a161790555b826001604060020a031660058f63ffffffff168154811015156118e357fe5b60009182526020909120015460a060020a90046001604060020a0316101561194b576040805160e560020a62461bcd0281526020600482015260106024820152608060020a6f6e6f7420656e6f7567682066756e647302604482015290519081900360640190fd5b8a60058d63ffffffff1681548110151561196157fe5b60009182526020909120018054600160e060020a031660e060020a63ffffffff93841602179055611994908f1684613fbe565b600160a060020a038816158015906119b457506180008d63ffffffff1610155b15611aff576005805463ffffffff8e169081106119cd57fe5b60009182526020822001546005805460a060020a9092046001604060020a031693509063ffffffff8f16908110611a0057fe5b6000918252602080832091909101805460a060020a60e060020a03191660a060020a6001604060020a0395861602179055600480546040805160e060020a63a9059cbb028152600160a060020a038f81169482019490945295871660248701525191169363a9059cbb9360448083019493928390030190829087803b158015611a8857600080fd5b505af1158015611a9c573d6000803e3d6000fd5b505050506040513d6020811015611ab257600080fd5b50511515611aff576040805160e560020a62461bcd02815260206004820152600f6024820152608a60020a6e1d1c985b9cd9995c8819985a5b195902604482015290519081900360640190fd5b8b63ffffffff168d63ffffffff168f63ffffffff167f0403b27027bdde07a134c7fe8395a7320031dcf931f9d03f4190752c7922feec89604001518f8f604051808463ffffffff1681526020018363ffffffff168152602001826001604060020a03168152602001935050505060405180910390a45050505050505050505050505050565b60001981565b6005545b90565b6006805482908110611b9f57fe5b60009182526020909120600290910201805460019091015490915063ffffffff80821691602060020a90041683565b6005541190565b60055460009063ffffffff11611c30576040805160e560020a62461bcd0281526020600482015260156024820152605a60020a741b9bc81b5bdc99481858d8dbdd5b9d1cc81b19599d02604482015290519081900360640190fd5b50600580546040805160608101825233808252600060208084018281528486018381526001880189559790925292517f036b6384b5eca791c62761152d0c79bb0604c104a5fb6f4eb0703f3154bb3db08601805492519751600160a060020a0319909316600160a060020a039092169190911760a060020a60e060020a03191660a060020a6001604060020a039098169790970296909617600160e060020a031660e060020a63ffffffff928316021790955582519484168552908401528051919260008051602061437f833981519152929081900390910190a190565b6006546000908190819081908510611d70576040805160e560020a62461bcd02815260206004820181905260248201527f7468652062756c6b4964207265666572656e63656420697320696e76616c6964604482015290519081900360640190fd5b6006805486908110611d7e57fe5b906000526020600020906002020160010160049054906101000a900463ffffffff1663ffffffff169350600685815481101515611db757fe5b60009182526020909120600160029092020101546006805463ffffffff90921694509086908110611de457fe5b906000526020600020906002020160000154915073__Merkle________________________________639484be8488611e1d89886141da565b60405160e060020a63ffffffff851602815260248101829052600160a060020a038d1660448201819052606060048301908152845160648401528451919290918291608401906020878101910280838360005b83811015611e88578181015183820152602001611e70565b5050505090500194505050505060206040518083038186803b158015611ead57600080fd5b505af4158015611ec1573d6000803e3d6000fd5b505050506040513d6020811015611ed757600080fd5b50519050838610801590611eec575082840186105b1515611f76576040805160e560020a62461bcd02815260206004820152604260248201527f746865206163636f756e74496420737065636966696564206973206e6f74207060448201527f617274206f6620746861742062756c6b20726567697374726174696f6e20736c606482015260f260020a611bdd02608482015290519081900360a40190fd5b808214611fc7576040805160e560020a62461bcd0281526020600482015260146024820152606160020a7334b73b30b634b21026b2b935b63290383937b7b302604482015290519081900360640190fd5b60408051878152600160a060020a038a166020820152815160008051602061437f833981519152929181900390910190a18760058781548110151561200857fe5b60009182526020909120018054600160a060020a031916600160a060020a03929092169190911790555050505050505050565b63ffffffff81565b600061204d614201565b60075460009084106120b2576040805160e560020a62461bcd02815260206004820152602f602482015260008051602061433f8339815191526044820152608a60020a6e1d081d1a185d081b1bdb99c81e595d02606482015290519081900360840190fd5b60078054859081106120c057fe5b6000918252602090912060036005909202010154151561212a576040805160e560020a62461bcd02815260206004820152601b60248201527f7061796d656e7420697320616c726561647920756e6c6f636b65640000000000604482015290519081900360640190fd5b600780548590811061213857fe5b60009182526020909120600160059092020101546001604060020a03164310156121ac576040805160e560020a62461bcd02815260206004820152601d60248201527f48617368206c6f636b20686173206e6f74206578706972656420796574000000604482015290519081900360640190fd5b60078054859081106121ba57fe5b6000918252602080832060408051610140810182526005909402909101805463ffffffff80821686526001604060020a03602060020a8304811695870195909552606060020a820485169386019390935260a060020a81048316606086015260c060020a81048316608086015260e060020a900490911660a08401819052600182015490921660c0840152600281015460e0840152600381015461010084015260040154610120830152909350116122ba576040805160e560020a62461bcd0281526020600482015260186024820152604260020a771c185e5b595b9d08185b1c9958591e481c99599d5b99195902604482015290519081900360640190fd5b6122fa6122de8360a0015163ffffffff1684602001516001604060020a0316613f80565b6001604060020a031683604001516001604060020a0316613f60565b600060a084018190526040840181905260208401526007805491925083918690811061232257fe5b600091825260209182902083516005929092020180549284015160408501516060860151608087015160a088015163ffffffff1990971663ffffffff96871617602060020a606060020a031916602060020a6001604060020a039586160217606060020a60a060020a031916606060020a938516939093029290921760a060020a63ffffffff02191660a060020a918616919091021760c060020a63ffffffff02191660c060020a9185169190910217600160e060020a031660e060020a9484169490940293909317815560c08401516001820180546001604060020a031916919094161790925560e083015160028301556101008301516003830155610120909201516004909101558251612439911682614110565b81516040805163ffffffff90921682526001604060020a038316602083015280517f5237d1300784adfc279ef3a96834ad6ca9e7b7ac63239501fc5bacafa7afe1559281900390910190a15060019392505050565b600754600090819063ffffffff8616106124fb576040805160e560020a62461bcd02815260206004820152602f602482015260008051602061433f8339815191526044820152608a60020a6e1d081d1a185d081b1bdb99c81e595d02606482015290519081900360840190fd5b61250a8463ffffffff16611bce565b151561255f576040805160e560020a62461bcd0281526020600482015260196024820152603a60020a78125b9d985b1a59081d5b9b1bd8dad95c9058d8dbdd5b9d125902604482015290519081900360640190fd5b6007805463ffffffff871690811061257357fe5b60009182526020909120600160059092020101546001604060020a031643106125dd576040805160e560020a62461bcd0281526020600482015260116024820152607a60020a7012185cda081b1bd8dac8195e1c1a5c995902604482015290519081900360640190fd5b8383604051602001808363ffffffff1663ffffffff1660e060020a02815260040182805190602001908083835b602083106126295780518252601f19909201916020918201910161260a565b6001836020036101000a038019825116818451168082178552505050505050905001925050506040516020818303038152906040526040518082805190602001908083835b6020831061268d5780518252601f19909201916020918201910161266e565b6001836020036101000a0380198251168184511680821785525050505050509050019150506040518091039020905060078563ffffffff168154811015156126d157fe5b6000918252602090912060036005909202010154811461272c576040805160e560020a62461bcd02815260206004820152600b602482015260a860020a6a496e76616c6964206b657902604482015290519081900360640190fd5b600780546000919063ffffffff881690811061274457fe5b60009182526020909120600360059092020101556007805461279b9163ffffffff8088169290891690811061277557fe5b6000918252602090912060059091020154606060020a90046001604060020a0316614110565b8463ffffffff167f6cc2ecf280386f84dd7995041ad66179851f8fe110b7f57c2085884b3dfae194846040518080602001828103825283818151815260200191508051906020019080838360005b838110156128015781810151838201526020016127e9565b50505050905090810190601f16801561282e5780820380516001836020036101000a031916815260200191505b509250505060405180910390a2506001949350505050565b6000808261285381612d22565b15156128ac576040805160e560020a62461bcd028152602060048201526029602482015260008051602061435f833981519152604482015260ba60020a681a5cc81b595d1a1bd902606482015290519081900360840190fd5b60058054859081106128ba57fe5b60009182526020909120015460058054600160a060020a03909216945090859081106128e257fe5b6000918252602090912001546001604060020a0360a060020a909104811692508516821015612953576040805160e560020a62461bcd0281526020600482015260126024820152607060020a71696e73756666696369656e742066756e647302604482015290519081900360640190fd5b60006001604060020a038616116129b2576040805160e560020a62461bcd0281526020600482015260186024820152604060020a77616d6f756e742073686f756c64206265206e6f6e7a65726f02604482015290519081900360640190fd5b6129bc8486613fbe565b600480546040805160e060020a63a9059cbb028152600160a060020a03878116948201949094526001604060020a03891660248201529051929091169163a9059cbb916044808201926020929091908290030181600087803b158015612a2157600080fd5b505af1158015612a35573d6000803e3d6000fd5b505050506040513d6020811015612a4b57600080fd5b50505050505050565b8263ffffffff16612a6481612d22565b1515612abd576040805160e560020a62461bcd028152602060048201526029602482015260008051602061435f833981519152604482015260ba60020a681a5cc81b595d1a1bd902606482015290519081900360840190fd5b63ffffffff80851660009081526008602090815260408083209387168352928152828220925160e060020a632d66d661028152600481018481526024820184905260606044830190815287516064840152875173__Challenge_____________________________96632d66d66196909590948a949392608490910191850190808383895b83811015612b5a578181015183820152602001612b42565b50505050905090810190601f168015612b875780820380516001836020036101000a031916815260200191505b5094505050505060006040518083038186803b158015612ba657600080fd5b505af4158015612bba573d6000803e3d6000fd5b505060405163ffffffff8087169350871691507fd7515a6b2c1e8e3f982e96f1b4c105f0f4607f9c6c64648f706221397b60a55090600090a350505050565b8163ffffffff16612c0981611bce565b1515612c4d576040805160e560020a62461bcd028152602060048201526016602482015260008051602061431f833981519152604482015290519081900360640190fd5b63ffffffff80841660009081526008602090815260408083209386168352929052818120825160e160020a63405ef27b02815260048101919091526024810182905260056044820152915173__Challenge_____________________________926380bde4f6926064808301939192829003018186803b158015612cd057600080fd5b505af4158015612ce4573d6000803e3d6000fd5b505060405163ffffffff8086169350861691507fed5d5a09a0c360ae8f4d4743e83680240a51985240cc41649dc27ec426eb73a290600090a3505050565b6000612d2d82611bce565b8015612d5a57506005805483908110612d4257fe5b600091825260209091200154600160a060020a031633145b92915050565b600554600090821080612d74575060001982145b1515612dc1576040805160e560020a62461bcd0281526020600482015260116024820152607a60020a701a5b9d985b1a59081858d8dbdd5b9d125902604482015290519081900360640190fd5b60006001604060020a03841611612e21576040805160e560020a62461bcd0281526020600482015260196024820152603860020a78616d6f756e742073686f756c6420626520706f73697469766502604482015290519081900360640190fd5b600480546040805160e060020a6323b872dd02815233938101939093523060248401526001604060020a038616604484015251600160a060020a03909116916323b872dd9160648083019260209291908290030181600087803b158015612e8757600080fd5b505af1158015612e9b573d6000803e3d6000fd5b505050506040513d6020811015612eb157600080fd5b50511515612efe576040805160e560020a62461bcd02815260206004820152600f6024820152608a60020a6e1d1c985b9cd9995c8819985a5b195902604482015290519081900360640190fd5b600019821415612f5e57612f10611bd5565b63ffffffff16905082600582815481101515612f2857fe5b9060005260206000200160000160146101000a8154816001604060020a0302191690836001604060020a03160217905550612f68565b612f688284614110565b505050565b61800081565b8263ffffffff16612f8381612d22565b1515612fdc576040805160e560020a62461bcd028152602060048201526029602482015260008051602061435f833981519152604482015260ba60020a681a5cc81b595d1a1bd902606482015290519081900360840190fd5b63ffffffff80851660009081526008602090815260408083209387168352928152828220925160e460020a63024c7f2f0281526004810184815260076024830181905260606044840190815288516064850152885173__Challenge_____________________________976324c7f2f097909693958b9594608490910192908601918190849084905b8381101561307d578181015183820152602001613065565b50505050905090810190601f1680156130aa5780820380516001836020036101000a031916815260200191505b5094505050505060006040518083038186803b1580156130c957600080fd5b505af41580156130dd573d6000803e3d6000fd5b505060405163ffffffff8087169350871691507f51be4ad99306a29aaff226c9916d87e4c09a270644cf52e226f801625372960290600090a350505050565b6008602090815260009283526040808420909152908252902080546001820154600283015460039093015463ffffffff80841694602060020a8504821694604060020a8082046001604060020a0390811696608060020a80850483169760c060020a90950487169683831696948304811695606060020a84048216959284049091169360a060020a8404169260e060020a900460ff1691600160a060020a0316908d565b60078054829081106131ce57fe5b60009182526020909120600590910201805460018201546002830154600384015460049094015463ffffffff80851696506001604060020a03602060020a8604811696606060020a870482169660a060020a810484169660c060020a820485169660e060020a9092049094169493909216928a565b600354600160a060020a031681565b8163ffffffff1661326281612d22565b15156132bb576040805160e560020a62461bcd028152602060048201526029602482015260008051602061435f833981519152604482015260ba60020a681a5cc81b595d1a1bd902606482015290519081900360840190fd5b63ffffffff80841660009081526008602090815260408083209386168352929052818120825160e060020a63377dac0302815260048101919091526024810182905260056044820152915173__Challenge_____________________________9263377dac03926064808301939192829003018186803b15801561333e57600080fd5b505af4158015613352573d6000803e3d6000fd5b505060405163ffffffff8086169350861691507f764cffa99ad24d0b737f04ad6e947e0c5237da11528bbc95a60d5f753168bce590600090a3505050565b8263ffffffff166133a081611bce565b15156133e4576040805160e560020a62461bcd028152602060048201526016602482015260008051602061431f833981519152604482015290519081900360640190fd5b8163ffffffff166133f481612d22565b151561344d576040805160e560020a62461bcd028152602060048201526029602482015260008051602061435f833981519152604482015260ba60020a681a5cc81b595d1a1bd902606482015290519081900360840190fd5b63ffffffff80861660009081526008602090815260408083208885168452909152808220815160e360020a6318cde0750281526004810191909152602481018390526005604482015292861660648401525173__Challenge_____________________________9263c66f03a8926084808301939192829003018186803b1580156134d757600080fd5b505af41580156134eb573d6000803e3d6000fd5b505050508363ffffffff168563ffffffff167f7ead680ada8d9e1356fc4bcb157550954c7cdc74cf4298d66426ae9f785d68ed85604051808263ffffffff16815260200191505060405180910390a35050505050565b60008161354d81611bce565b1515613591576040805160e560020a62461bcd028152602060048201526016602482015260008051602061431f833981519152604482015290519081900360640190fd5b600580548490811061359f57fe5b60009182526020909120015460a060020a90046001604060020a03169392505050565b60075490565b60065490565b6135d6614275565b5063ffffffff80831660009081526008602090815260408083208585168452825280832081516101a08101835281548087168252602060020a81048716948201949094526001604060020a03604060020a808604821694830194909452608060020a8086048216606084015260c060020a90950487166080830152600183015480821660a0840152938404871660c0830152606060020a8404871660e083015293830490951661010086015260a060020a820490921661012085015260ff60e060020a9091041661014084018190526002820154600160a060020a031661016085015260039091015461018084015215156136d0576139b5565b81610140015160ff16600114151561372a576040805160e560020a62461bcd0281526020600482015260126024820152607060020a71736c6f74206e6f7420617661696c61626c6502604482015290519081900360640190fd5b60a08201516001604060020a0316431015613787576040805160e560020a62461bcd0281526020600482015260126024820152607060020a71736c6f74206e6f7420617661696c61626c6502604482015290519081900360640190fd5b63ffffffff80851660008181526008602090815260408083209488168352939052918220600101805460e060020a60ff0219169055606084015191546137ea926137e5916001604060020a0391821691608060020a90910416613f60565b614110565b61380e82604001516001604060020a031683606001516001604060020a03166140ec565b610160830151909150600160a060020a0316156139a15761386c816001604060020a03166005846080015163ffffffff1681548110151561384b57fe5b60009182526020909120015460a060020a90046001604060020a0316613f60565b905060006005836080015163ffffffff1681548110151561388957fe5b6000918252602090912001805460a060020a60e060020a03191660a060020a6001604060020a039384160217905581161561399c57600480546101608401516040805160e060020a63a9059cbb028152600160a060020a03928316948101949094526001604060020a03851660248501525191169163a9059cbb9160448083019260209291908290030181600087803b15801561392557600080fd5b505af1158015613939573d6000803e3d6000fd5b505050506040513d602081101561394f57600080fd5b5051151561399c576040805160e560020a62461bcd02815260206004820152600f6024820152608a60020a6e1d1c985b9cd9995c8819985a5b195902604482015290519081900360640190fd5b6139b5565b6139b5826080015163ffffffff1682614110565b50505050565b60005460015460025463ffffffff80841693602060020a808204831694604060020a808404851695606060020a8086048716966001604060020a03608060020a80890482169860c060020a9004821697878416979081048416968082048516969582048516959282049094169360a060020a9091048316928281169291909104168e565b60008211613a94576040805160e560020a62461bcd0281526020600482015260176024820152604860020a7642756c6b2073697a652063616e2774206265207a65726f02604482015290519081900360640190fd5b60005463ffffffff168210613b10576040805160e560020a62461bcd02815260206004820152603160248201527f43616e6e6f742072656769737465722074686973206e756d626572206f6620696044820152607860020a7064732073696d756c74616e656f75736c7902606482015290519081900360840190fd5b60055463ffffffff90613b2390846141ef565b1115613b79576040805160e560020a62461bcd02815260206004820152601f60248201527f43616e6e6f742072656769737465723a2072616e206f7574206f662069647300604482015290519081900360640190fd5b60055460065460408051858152602081019390935282810191909152517f9862cc43f4a88dac2960cf68db647bbdd971785677f61f57da13545b1172805a9181900360600190a16040805160608101825282815263ffffffff848116602083019081526005805483169484019485526006805460018101825560009190915293517ff652222313e28459528d920b65115c16c04f3efc82aaedc97be59f3f377c0d3f60029095029485015590517ff652222313e28459528d920b65115c16c04f3efc82aaedc97be59f3f377c0d409093018054945163ffffffff199095169383169390931767ffffffff000000001916602060020a949092169390930217905554613c8490836141ef565b612f686005826142e1565b6005805482908110613c9d57fe5b600091825260209091200154600160a060020a038116915060a060020a81046001604060020a03169060e060020a900463ffffffff1683565b600454600160a060020a031681565b8363ffffffff16613cf581611bce565b1515613d39576040805160e560020a62461bcd028152602060048201526016602482015260008051602061431f833981519152604482015290519081900360640190fd5b63ffffffff80861660009081526008602090815260408083208885168452909152902060010154613d7291606060020a90910416612d22565b1515613dd7576040805160e560020a62461bcd028152602060048201526024808201527f6f6e6c79206368616c6c656e6765722063616e2063616c6c206368616c6c656e604482015260e160020a6333b2af9902606482015290519081900360840190fd5b63ffffffff808616600090815260086020908152604080832088851684528252808320905160e260020a63054c32490281526004810182815260248201859052948716606482015260806044820190815288516084830152885173__Challenge_____________________________96631530c9249694958b948b94929360a4909101918601908083838a5b83811015613e7b578181015183820152602001613e63565b50505050905090810190601f168015613ea85780820380516001836020036101000a031916815260200191505b509550505050505060006040518083038186803b158015613ec857600080fd5b505af4158015613edc573d6000803e3d6000fd5b505050508363ffffffff168563ffffffff167fdd04d7f039f1aa4cbadd486eb11d0ea9077188ed866b0f1607956feebd3b36a984604051808263ffffffff16815260200191505060405180910390a35050505050565b6000828201838110801590613f4a5750602060020a81105b1515613f5557600080fd5b8091505b5092915050565b6000828201838110801590613f4a5750604060020a8110613f5557600080fd5b600080831515613f935760009150613f59565b50828202828482811515613fa357fe5b0414613fae57600080fd5b604060020a8110613f5557600080fd5b600082613fca81611bce565b151561400e576040805160e560020a62461bcd028152602060048201526016602482015260008051602061431f833981519152604482015290519081900360640190fd5b600580548590811061401c57fe5b6000918252602090912001546001604060020a0360a060020a90910481169250831682101561408b576040805160e560020a62461bcd0281526020600482015260106024820152608060020a6f6e6f7420656e6f7567682066756e647302604482015290519081900360640190fd5b6140a7826001604060020a0316846001604060020a03166140ec565b60058054869081106140b557fe5b9060005260206000200160000160146101000a8154816001604060020a0302191690836001604060020a0316021790555050505050565b600080838311156140fc57600080fd5b50818303604060020a8110613f5557600080fd5b8161411a81611bce565b151561415e576040805160e560020a62461bcd028152602060048201526016602482015260008051602061431f833981519152604482015290519081900360640190fd5b61419660058481548110151561417057fe5b6000918252602090912001546001604060020a0360a060020a9091048116908416613f60565b60058054859081106141a457fe5b9060005260206000200160000160146101000a8154816001604060020a0302191690836001604060020a03160217905550505050565b6000828211156141e957600080fd5b50900390565b600082820183811015613f5557600080fd5b6040805161014081018252600080825260208201819052918101829052606081018290526080810182905260a0810182905260c0810182905260e08101829052610100810182905261012081019190915290565b604080516060810182526000808252602082018190529181019190915290565b604080516101a081018252600080825260208201819052918101829052606081018290526080810182905260a0810182905260c0810182905260e08101829052610100810182905261012081018290526101408101829052610160810182905261018081019190915290565b815481835581811115612f6857600083815260209020612f68918101908301611b8e91905b8082111561431a5760008155600101614306565b509056006163636f756e744964206973206e6f742076616c696400000000000000000000696e76616c696420706179496e6465782c207061796d656e7473206973206e6f4f6e6c79206163636f756e74206f776e65722063616e20696e766f6b65207468de338ca976df8cb181c40c0c8d8ed2a5634cc3893a9b41c2b9b550649531889ca165627a7a7230582083ac1b49e2bcb9aaf87bf29059f4783e54a12596772c6408e5f86d2ee7ecfe1a0029",
  "source": "pragma solidity ^0.4.25;\n\n\nimport \"./IERC20.sol\";\nimport \"./Accounts.sol\";\nimport \"./Payments.sol\";\nimport \"./SafeMath.sol\";\n\n\n/**\n * @title BatchPayment processing\n * @notice This contract allows to scale ERC-20 token transfer for fees or\n *         micropayments on the few-buyers / many-sellers setting.\n */ \ncontract BatPay is Payments {\n\n    /**\n     * @dev Contract constructor, sets ERC20 token this contract will use for payments\n     * @param token_ ERC20 contract address\n     * @param maxBulk Maximum number of users to register in a single bulkRegister\n     * @param maxTransfer Maximum number of destinations on a single payment\n     * @param challengeBlocks number of blocks to wait for a challenge\n     * @param challengeStepBlocks number of blocks to wait for a single step on\n     *        the challenge game\n     * @param collectStake stake in tokens for a collect operation\n     * @param challengeStake stake in tokens for the challenger of a collect operation\n     * @param unlockBlocks number of blocks to wait after registering payment\n     *        for an unlock operation\n     */\n    constructor(\n        IERC20 token_,\n        uint32 maxBulk, \n        uint32 maxTransfer, \n        uint32 challengeBlocks, \n        uint32 challengeStepBlocks,\n        uint64 collectStake,\n        uint64 challengeStake,\n        uint32 unlockBlocks,\n        uint64 maxCollectAmount\n    )\n        public\n    {\n        require(token_ != address(0));\n        owner = msg.sender;\n        token = IERC20(token_);\n        params.maxBulk = maxBulk;\n        params.maxTransfer = maxTransfer;\n        params.challengeBlocks = challengeBlocks;\n        params.challengeStepBlocks = challengeStepBlocks;\n        params.collectStake = collectStake;\n        params.challengeStake = challengeStake;\n        params.unlockBlocks = unlockBlocks;\n        params.maxCollectAmount = maxCollectAmount;\n    }\n}\n",
  "sourcePath": "/Users/juancarrillo/Desktop/wibson/BatchPayments/contracts/BatPay.sol",
  "compiler": {
    "name": "solc",
    "version": "0.4.25+commit.59dbf8f1.Emscripten.clang"
  },
  "schemaVersion": "2.0.2",
  "updatedAt": "2019-04-15T15:03:51.756Z"
}