{
  "contractName": "DataExchange",
  "abi": [
    {
      "constant": true,
      "inputs": [
        {
          "name": "",
          "type": "uint256"
        }
      ],
      "name": "dataOrders",
      "outputs": [
        {
          "name": "buyer",
          "type": "address"
        },
        {
          "name": "audience",
          "type": "string"
        },
        {
          "name": "price",
          "type": "uint256"
        },
        {
          "name": "requestedData",
          "type": "string"
        },
        {
          "name": "termsAndConditionsHash",
          "type": "bytes32"
        },
        {
          "name": "buyerUrl",
          "type": "string"
        },
        {
          "name": "createdAt",
          "type": "uint32"
        },
        {
          "name": "closedAt",
          "type": "uint32"
        }
      ],
      "payable": false,
      "stateMutability": "view",
      "type": "function",
      "signature": "0x2587d110"
    },
    {
      "constant": true,
      "inputs": [
        {
          "name": "",
          "type": "address"
        }
      ],
      "name": "notaryUrls",
      "outputs": [
        {
          "name": "",
          "type": "string"
        }
      ],
      "payable": false,
      "stateMutability": "view",
      "type": "function",
      "signature": "0xa7568d34"
    },
    {
      "anonymous": false,
      "inputs": [
        {
          "indexed": true,
          "name": "notary",
          "type": "address"
        },
        {
          "indexed": false,
          "name": "notaryUrl",
          "type": "string"
        }
      ],
      "name": "NotaryRegistered",
      "type": "event",
      "signature": "0xe89d0a5c1c3ef98dff90085eabb0e4b4a96244277ee3c5f81679a024c2ce9cf0"
    },
    {
      "anonymous": false,
      "inputs": [
        {
          "indexed": true,
          "name": "notary",
          "type": "address"
        },
        {
          "indexed": false,
          "name": "oldNotaryUrl",
          "type": "string"
        },
        {
          "indexed": false,
          "name": "newNotaryUrl",
          "type": "string"
        }
      ],
      "name": "NotaryUpdated",
      "type": "event",
      "signature": "0xb70d3d37cb3ca66ae3b9b82cfde193d73dae787d22b77f7c714a573b5e767de6"
    },
    {
      "anonymous": false,
      "inputs": [
        {
          "indexed": true,
          "name": "notary",
          "type": "address"
        },
        {
          "indexed": false,
          "name": "oldNotaryUrl",
          "type": "string"
        }
      ],
      "name": "NotaryUnregistered",
      "type": "event",
      "signature": "0xc765bc669d1eb91e88bd36aad9553c82972428e1a8ebd89a711deab18a953d36"
    },
    {
      "anonymous": false,
      "inputs": [
        {
          "indexed": true,
          "name": "orderId",
          "type": "uint256"
        },
        {
          "indexed": true,
          "name": "buyer",
          "type": "address"
        }
      ],
      "name": "DataOrderCreated",
      "type": "event",
      "signature": "0x4da70a6c86467b0d5d574c4b27418883408d1b0f13cc7d81aed73206b8339b3b"
    },
    {
      "anonymous": false,
      "inputs": [
        {
          "indexed": true,
          "name": "orderId",
          "type": "uint256"
        },
        {
          "indexed": true,
          "name": "buyer",
          "type": "address"
        }
      ],
      "name": "DataOrderClosed",
      "type": "event",
      "signature": "0x2a0373e2121813fd2621a2f2f56a80ebe2b7640382489cc0e3dbe8f6d5191ec6"
    },
    {
      "constant": false,
      "inputs": [
        {
          "name": "notaryUrl",
          "type": "string"
        }
      ],
      "name": "registerNotary",
      "outputs": [
        {
          "name": "",
          "type": "bool"
        }
      ],
      "payable": false,
      "stateMutability": "nonpayable",
      "type": "function",
      "signature": "0xff0d34cf"
    },
    {
      "constant": false,
      "inputs": [
        {
          "name": "newNotaryUrl",
          "type": "string"
        }
      ],
      "name": "updateNotaryUrl",
      "outputs": [
        {
          "name": "",
          "type": "bool"
        }
      ],
      "payable": false,
      "stateMutability": "nonpayable",
      "type": "function",
      "signature": "0x3e90280d"
    },
    {
      "constant": false,
      "inputs": [],
      "name": "unregisterNotary",
      "outputs": [
        {
          "name": "",
          "type": "bool"
        }
      ],
      "payable": false,
      "stateMutability": "nonpayable",
      "type": "function",
      "signature": "0x54a95980"
    },
    {
      "constant": false,
      "inputs": [
        {
          "name": "audience",
          "type": "string"
        },
        {
          "name": "price",
          "type": "uint256"
        },
        {
          "name": "requestedData",
          "type": "string"
        },
        {
          "name": "termsAndConditionsHash",
          "type": "bytes32"
        },
        {
          "name": "buyerUrl",
          "type": "string"
        }
      ],
      "name": "createDataOrder",
      "outputs": [
        {
          "name": "",
          "type": "uint256"
        }
      ],
      "payable": false,
      "stateMutability": "nonpayable",
      "type": "function",
      "signature": "0x5ca849ef"
    },
    {
      "constant": false,
      "inputs": [
        {
          "name": "orderId",
          "type": "uint256"
        }
      ],
      "name": "closeDataOrder",
      "outputs": [
        {
          "name": "",
          "type": "bool"
        }
      ],
      "payable": false,
      "stateMutability": "nonpayable",
      "type": "function",
      "signature": "0x0b59ebd5"
    },
    {
      "constant": true,
      "inputs": [
        {
          "name": "notaryAddress",
          "type": "address"
        }
      ],
      "name": "getNotaryUrl",
      "outputs": [
        {
          "name": "",
          "type": "string"
        }
      ],
      "payable": false,
      "stateMutability": "view",
      "type": "function",
      "signature": "0x815ca209"
    },
    {
      "constant": true,
      "inputs": [
        {
          "name": "orderId",
          "type": "uint256"
        }
      ],
      "name": "getDataOrder",
      "outputs": [
        {
          "name": "",
          "type": "address"
        },
        {
          "name": "",
          "type": "string"
        },
        {
          "name": "",
          "type": "uint256"
        },
        {
          "name": "",
          "type": "string"
        },
        {
          "name": "",
          "type": "bytes32"
        },
        {
          "name": "",
          "type": "string"
        },
        {
          "name": "",
          "type": "uint32"
        },
        {
          "name": "",
          "type": "uint32"
        }
      ],
      "payable": false,
      "stateMutability": "view",
      "type": "function",
      "signature": "0x31168113"
    },
    {
      "constant": true,
      "inputs": [],
      "name": "getDataOrdersLength",
      "outputs": [
        {
          "name": "",
          "type": "uint256"
        }
      ],
      "payable": false,
      "stateMutability": "view",
      "type": "function",
      "signature": "0x77d599d4"
    }
  ],
  "bytecode": "0x608060405234801561001057600080fd5b50612232806100206000396000f3fe608060405234801561001057600080fd5b50600436106100bb576000357c0100000000000000000000000000000000000000000000000000000000900480635ca849ef116100835780635ca849ef1461058557806377d599d4146106d0578063815ca209146106ee578063a7568d34146107ab578063ff0d34cf14610868576100bb565b80630b59ebd5146100c05780632587d1101461010657806331168113146102ec5780633e90280d146104d257806354a9598014610563575b600080fd5b6100ec600480360360208110156100d657600080fd5b81019080803590602001909291905050506108f9565b604051808215151515815260200191505060405180910390f35b6101326004803603602081101561011c57600080fd5b8101908080359060200190929190505050610b58565b604051808973ffffffffffffffffffffffffffffffffffffffff1673ffffffffffffffffffffffffffffffffffffffff1681526020018060200188815260200180602001878152602001806020018663ffffffff1663ffffffff1681526020018563ffffffff1663ffffffff16815260200184810384528b818151815260200191508051906020019080838360005b838110156101dc5780820151818401526020810190506101c1565b50505050905090810190601f1680156102095780820380516001836020036101000a031916815260200191505b50848103835289818151815260200191508051906020019080838360005b83811015610242578082015181840152602081019050610227565b50505050905090810190601f16801561026f5780820380516001836020036101000a031916815260200191505b50848103825287818151815260200191508051906020019080838360005b838110156102a857808201518184015260208101905061028d565b50505050905090810190601f1680156102d55780820380516001836020036101000a031916815260200191505b509b50505050505050505050505060405180910390f35b6103186004803603602081101561030257600080fd5b8101908080359060200190929190505050610db5565b604051808973ffffffffffffffffffffffffffffffffffffffff1673ffffffffffffffffffffffffffffffffffffffff1681526020018060200188815260200180602001878152602001806020018663ffffffff1663ffffffff1681526020018563ffffffff1663ffffffff16815260200184810384528b818151815260200191508051906020019080838360005b838110156103c25780820151818401526020810190506103a7565b50505050905090810190601f1680156103ef5780820380516001836020036101000a031916815260200191505b50848103835289818151815260200191508051906020019080838360005b8381101561042857808201518184015260208101905061040d565b50505050905090810190601f1680156104555780820380516001836020036101000a031916815260200191505b50848103825287818151815260200191508051906020019080838360005b8381101561048e578082015181840152602081019050610473565b50505050905090810190601f1680156104bb5780820380516001836020036101000a031916815260200191505b509b50505050505050505050505060405180910390f35b610549600480360360208110156104e857600080fd5b810190808035906020019064010000000081111561050557600080fd5b82018360208201111561051757600080fd5b8035906020019184600183028401116401000000008311171561053957600080fd5b9091929391929390505050611037565b604051808215151515815260200191505060405180910390f35b61056b61138f565b604051808215151515815260200191505060405180910390f35b6106ba600480360360a081101561059b57600080fd5b81019080803590602001906401000000008111156105b857600080fd5b8201836020820111156105ca57600080fd5b803590602001918460018302840111640100000000831117156105ec57600080fd5b9091929391929390803590602001909291908035906020019064010000000081111561061757600080fd5b82018360208201111561062957600080fd5b8035906020019184600183028401116401000000008311171561064b57600080fd5b9091929391929390803590602001909291908035906020019064010000000081111561067657600080fd5b82018360208201111561068857600080fd5b803590602001918460018302840111640100000000831117156106aa57600080fd5b90919293919293905050506115ed565b6040518082815260200191505060405180910390f35b6106d8611bb5565b6040518082815260200191505060405180910390f35b6107306004803603602081101561070457600080fd5b81019080803573ffffffffffffffffffffffffffffffffffffffff169060200190929190505050611bc1565b6040518080602001828103825283818151815260200191508051906020019080838360005b83811015610770578082015181840152602081019050610755565b50505050905090810190601f16801561079d5780820380516001836020036101000a031916815260200191505b509250505060405180910390f35b6107ed600480360360208110156107c157600080fd5b81019080803573ffffffffffffffffffffffffffffffffffffffff169060200190929190505050611ca2565b6040518080602001828103825283818151815260200191508051906020019080838360005b8381101561082d578082015181840152602081019050610812565b50505050905090810190601f16801561085a5780820380516001836020036101000a031916815260200191505b509250505060405180910390f35b6108df6004803603602081101561087e57600080fd5b810190808035906020019064010000000081111561089b57600080fd5b8201836020820111156108ad57600080fd5b803590602001918460018302840111640100000000831117156108cf57600080fd5b9091929391929390505050611d52565b604051808215151515815260200191505060405180910390f35b600080805490508210610974576040517f08c379a00000000000000000000000000000000000000000000000000000000081526004018080602001828103825260138152602001807f696e76616c6964206f7264657220696e6465780000000000000000000000000081525060200191505060405180910390fd5b600080838154811061098257fe5b906000526020600020906007020190503373ffffffffffffffffffffffffffffffffffffffff168160000160009054906101000a900473ffffffffffffffffffffffffffffffffffffffff1673ffffffffffffffffffffffffffffffffffffffff1614610a57576040517f08c379a000000000000000000000000000000000000000000000000000000000815260040180806020018281038252601c8152602001807f73656e6465722063616e277420636c6f736520746865206f726465720000000081525060200191505060405180910390fd5b60008160060160049054906101000a900463ffffffff1663ffffffff1614610ae7576040517f08c379a00000000000000000000000000000000000000000000000000000000081526004018080602001828103825260148152602001807f6f7264657220616c726561647920636c6f73656400000000000000000000000081525060200191505060405180910390fd5b428160060160046101000a81548163ffffffff021916908363ffffffff1602179055503373ffffffffffffffffffffffffffffffffffffffff16837f2a0373e2121813fd2621a2f2f56a80ebe2b7640382489cc0e3dbe8f6d5191ec660405160405180910390a36001915050919050565b60008181548110610b6557fe5b90600052602060002090600702016000915090508060000160009054906101000a900473ffffffffffffffffffffffffffffffffffffffff1690806001018054600181600116156101000203166002900480601f016020809104026020016040519081016040528092919081815260200182805460018160011615610100020316600290048015610c375780601f10610c0c57610100808354040283529160200191610c37565b820191906000526020600020905b815481529060010190602001808311610c1a57829003601f168201915b505050505090806002015490806003018054600181600116156101000203166002900480601f016020809104026020016040519081016040528092919081815260200182805460018160011615610100020316600290048015610cdb5780601f10610cb057610100808354040283529160200191610cdb565b820191906000526020600020905b815481529060010190602001808311610cbe57829003601f168201915b505050505090806004015490806005018054600181600116156101000203166002900480601f016020809104026020016040519081016040528092919081815260200182805460018160011615610100020316600290048015610d7f5780601f10610d5457610100808354040283529160200191610d7f565b820191906000526020600020905b815481529060010190602001808311610d6257829003601f168201915b5050505050908060060160009054906101000a900463ffffffff16908060060160049054906101000a900463ffffffff16905088565b6000606060006060600060606000806000808a81548110610dd257fe5b906000526020600020906007020190508060000160009054906101000a900473ffffffffffffffffffffffffffffffffffffffff16816001018260020154836003018460040154856005018660060160009054906101000a900463ffffffff168760060160049054906101000a900463ffffffff16868054600181600116156101000203166002900480601f016020809104026020016040519081016040528092919081815260200182805460018160011615610100020316600290048015610edc5780601f10610eb157610100808354040283529160200191610edc565b820191906000526020600020905b815481529060010190602001808311610ebf57829003601f168201915b50505050509650848054600181600116156101000203166002900480601f016020809104026020016040519081016040528092919081815260200182805460018160011615610100020316600290048015610f785780601f10610f4d57610100808354040283529160200191610f78565b820191906000526020600020905b815481529060010190602001808311610f5b57829003601f168201915b50505050509450828054600181600116156101000203166002900480601f0160208091040260200160405190810160405280929190818152602001828054600181600116156101000203166002900480156110145780601f10610fe957610100808354040283529160200191611014565b820191906000526020600020905b815481529060010190602001808311610ff757829003601f168201915b505050505092509850985098509850985098509850985050919395975091939597565b600061108683838080601f016020809104026020016040519081016040528093929190818152602001838380828437600081840152601f19601f82011690508083019250505050505050611f44565b6110f8576040517f08c379a000000000000000000000000000000000000000000000000000000000815260040180806020018281038252601b8152602001807f6e6f7461727955726c206d757374206e6f7420626520656d707479000000000081525060200191505060405180910390fd5b611100611f51565b611172576040517f08c379a00000000000000000000000000000000000000000000000000000000081526004018080602001828103825260158152602001807f4e6f74617279206e6f742072656769737465726564000000000000000000000081525060200191505060405180910390fd5b6060600160003373ffffffffffffffffffffffffffffffffffffffff1673ffffffffffffffffffffffffffffffffffffffff1681526020019081526020016000208054600181600116156101000203166002900480601f0160208091040260200160405190810160405280929190818152602001828054600181600116156101000203166002900480156112475780601f1061121c57610100808354040283529160200191611247565b820191906000526020600020905b81548152906001019060200180831161122a57829003601f168201915b505050505090508383600160003373ffffffffffffffffffffffffffffffffffffffff1673ffffffffffffffffffffffffffffffffffffffff168152602001908152602001600020919061129c929190612038565b503373ffffffffffffffffffffffffffffffffffffffff167fb70d3d37cb3ca66ae3b9b82cfde193d73dae787d22b77f7c714a573b5e767de6828686604051808060200180602001838103835286818151815260200191508051906020019080838360005b8381101561131c578082015181840152602081019050611301565b50505050905090810190601f1680156113495780820380516001836020036101000a031916815260200191505b508381038252858582818152602001925080828437600081840152601f19601f8201169050808301925050509550505050505060405180910390a2600191505092915050565b6000611399611f51565b61140b576040517f08c379a00000000000000000000000000000000000000000000000000000000081526004018080602001828103825260198152602001807f73656e646572206d75737420626520726567697374657265640000000000000081525060200191505060405180910390fd5b6060600160003373ffffffffffffffffffffffffffffffffffffffff1673ffffffffffffffffffffffffffffffffffffffff1681526020019081526020016000208054600181600116156101000203166002900480601f0160208091040260200160405190810160405280929190818152602001828054600181600116156101000203166002900480156114e05780601f106114b5576101008083540402835291602001916114e0565b820191906000526020600020905b8154815290600101906020018083116114c357829003601f168201915b50505050509050600160003373ffffffffffffffffffffffffffffffffffffffff1673ffffffffffffffffffffffffffffffffffffffff168152602001908152602001600020600061153291906120b8565b3373ffffffffffffffffffffffffffffffffffffffff167fc765bc669d1eb91e88bd36aad9553c82972428e1a8ebd89a711deab18a953d36826040518080602001828103825283818151815260200191508051906020019080838360005b838110156115ab578082015181840152602081019050611590565b50505050905090810190601f1680156115d85780820380516001836020036101000a031916815260200191505b509250505060405180910390a2600191505090565b600061163c89898080601f016020809104026020016040519081016040528093929190818152602001838380828437600081840152601f19601f82011690508083019250505050505050611f44565b6116ae576040517f08c379a000000000000000000000000000000000000000000000000000000000815260040180806020018281038252601a8152602001807f61756469656e6365206d757374206e6f7420626520656d70747900000000000081525060200191505060405180910390fd5b60008711611724576040517f08c379a000000000000000000000000000000000000000000000000000000000815260040180806020018281038252601f8152602001807f7072696365206d7573742062652067726561746572207468616e207a65726f0081525060200191505060405180910390fd5b61177186868080601f016020809104026020016040519081016040528093929190818152602001838380828437600081840152601f19601f82011690508083019250505050505050611f44565b6117e3576040517f08c379a000000000000000000000000000000000000000000000000000000000815260040180806020018281038252601f8152602001807f72657175657374656444617461206d757374206e6f7420626520656d7074790081525060200191505060405180910390fd5b6000600102841415611840576040517f08c379a00000000000000000000000000000000000000000000000000000000081526004018080602001828103825260288152602001806121a66028913960400191505060405180910390fd5b61188d83838080601f016020809104026020016040519081016040528093929190818152602001838380828437600081840152601f19601f82011690508083019250505050505050611f44565b6118ff576040517f08c379a000000000000000000000000000000000000000000000000000000000815260040180806020018281038252601a8152602001807f627579657255726c206d757374206e6f7420626520656d70747900000000000081525060200191505060405180910390fd5b60008080549050905060006040518061010001604052803373ffffffffffffffffffffffffffffffffffffffff1681526020018c8c8080601f016020809104026020016040519081016040528093929190818152602001838380828437600081840152601f19601f8201169050808301925050505050505081526020018a815260200189898080601f016020809104026020016040519081016040528093929190818152602001838380828437600081840152601f19601f82011690508083019250505050505050815260200187815260200186868080601f016020809104026020016040519081016040528093929190818152602001838380828437600081840152601f19601f8201169050808301925050505050505081526020014263ffffffff168152602001600063ffffffff168152509080600181540180825580915050906001820390600052602060002090600702016000909192909190915060008201518160000160006101000a81548173ffffffffffffffffffffffffffffffffffffffff021916908373ffffffffffffffffffffffffffffffffffffffff1602179055506020820151816001019080519060200190611ac1929190612100565b50604082015181600201556060820151816003019080519060200190611ae8929190612100565b506080820151816004015560a0820151816005019080519060200190611b0f929190612100565b5060c08201518160060160006101000a81548163ffffffff021916908363ffffffff16021790555060e08201518160060160046101000a81548163ffffffff021916908363ffffffff1602179055505050503373ffffffffffffffffffffffffffffffffffffffff16817f4da70a6c86467b0d5d574c4b27418883408d1b0f13cc7d81aed73206b8339b3b60405160405180910390a38091505098975050505050505050565b60008080549050905090565b6060600160008373ffffffffffffffffffffffffffffffffffffffff1673ffffffffffffffffffffffffffffffffffffffff1681526020019081526020016000208054600181600116156101000203166002900480601f016020809104026020016040519081016040528092919081815260200182805460018160011615610100020316600290048015611c965780601f10611c6b57610100808354040283529160200191611c96565b820191906000526020600020905b815481529060010190602001808311611c7957829003601f168201915b50505050509050919050565b60016020528060005260406000206000915090508054600181600116156101000203166002900480601f016020809104026020016040519081016040528092919081815260200182805460018160011615610100020316600290048015611d4a5780601f10611d1f57610100808354040283529160200191611d4a565b820191906000526020600020905b815481529060010190602001808311611d2d57829003601f168201915b505050505081565b6000611da183838080601f016020809104026020016040519081016040528093929190818152602001838380828437600081840152601f19601f82011690508083019250505050505050611f44565b611e13576040517f08c379a000000000000000000000000000000000000000000000000000000000815260040180806020018281038252601b8152602001807f6e6f7461727955726c206d757374206e6f7420626520656d707479000000000081525060200191505060405180910390fd5b611e1b611f51565b15611e71576040517f08c379a00000000000000000000000000000000000000000000000000000000081526004018080602001828103825260398152602001806121ce6039913960400191505060405180910390fd5b8282600160003373ffffffffffffffffffffffffffffffffffffffff1673ffffffffffffffffffffffffffffffffffffffff1681526020019081526020016000209190611ebf929190612038565b503373ffffffffffffffffffffffffffffffffffffffff167fe89d0a5c1c3ef98dff90085eabb0e4b4a96244277ee3c5f81679a024c2ce9cf0848460405180806020018281038252848482818152602001925080828437600081840152601f19601f820116905080830192505050935050505060405180910390a26001905092915050565b6000808251119050919050565b6000612033600160003373ffffffffffffffffffffffffffffffffffffffff1673ffffffffffffffffffffffffffffffffffffffff1681526020019081526020016000208054600181600116156101000203166002900480601f0160208091040260200160405190810160405280929190818152602001828054600181600116156101000203166002900480156120295780601f10611ffe57610100808354040283529160200191612029565b820191906000526020600020905b81548152906001019060200180831161200c57829003601f168201915b5050505050611f44565b905090565b828054600181600116156101000203166002900490600052602060002090601f016020900481019282601f1061207957803560ff19168380011785556120a7565b828001600101855582156120a7579182015b828111156120a657823582559160200191906001019061208b565b5b5090506120b49190612180565b5090565b50805460018160011615610100020316600290046000825580601f106120de57506120fd565b601f0160209004906000526020600020908101906120fc9190612180565b5b50565b828054600181600116156101000203166002900490600052602060002090601f016020900481019282601f1061214157805160ff191683800117855561216f565b8280016001018555821561216f579182015b8281111561216e578251825591602001919060010190612153565b5b50905061217c9190612180565b5090565b6121a291905b8082111561219e576000816000905550600101612186565b5090565b9056fe7465726d73416e64436f6e646974696f6e7348617368206d757374206e6f7420626520656d7074794e6f7461727920616c726561647920726567697374657265642028757365207570646174654e6f7461727955726c20746f2075706461746529a165627a7a72305820d5b29e93288506be33c6f3e4f2f27d99b24a0fc8e2ba060e561e64ad684f7af30029",
  "source": "pragma solidity 0.5.7;\n\n\n/**\n * @title Data Exchange Marketplace\n * @notice This contract allows Notaries to register themselves and buyers to\n *         publish data orders, acording to the Wibson Protocol.\n *         For more information: https://wibson.org\n */\ncontract DataExchange {\n    event NotaryRegistered(address indexed notary, string notaryUrl);\n    event NotaryUpdated(address indexed notary, string oldNotaryUrl, string newNotaryUrl);\n    event NotaryUnregistered(address indexed notary, string oldNotaryUrl);\n    event DataOrderCreated(uint256 indexed orderId, address indexed buyer);\n    event DataOrderClosed(uint256 indexed orderId, address indexed buyer);\n\n    struct DataOrder {\n        address buyer;\n        string audience;\n        uint256 price;\n        string requestedData;\n        bytes32 termsAndConditionsHash;\n        string buyerUrl;\n        uint32 createdAt;\n        uint32 closedAt;\n    }\n\n    DataOrder[] public dataOrders;\n    mapping(address => string) public notaryUrls;\n\n  /**\n   * @notice Registers sender as a notary.\n   * @param notaryUrl Public URL of the notary where the notary info can be obtained.\n   *                  This URL should serve a JSON signed by the sender to prove\n   *                  authenticity. It is highly recommended to check the signature\n   *                  with the sender's address before using the notary's services.\n   * @return true if the notary was successfully registered, reverts otherwise.\n   */\n    function registerNotary(\n        string calldata notaryUrl\n    ) external returns (bool) {\n        require(_isNotEmpty(notaryUrl), \"notaryUrl must not be empty\");\n        require(!_isSenderNotary(), \"Notary already registered (use updateNotaryUrl to update)\");\n        notaryUrls[msg.sender] = notaryUrl;\n        emit NotaryRegistered(msg.sender, notaryUrl);\n        return true;\n    }\n\n  /**\n   * @notice Updates notary public URL of sender.\n   * @param newNotaryUrl Public URL of the notary where the notary info can be obtained.\n   *                     This URL should serve a JSON signed by the sender to prove\n   *                     authenticity. It is highly recommended to check the signature\n   *                     with the sender's address before using the notary's services.\n   * @return true if the notary public URL was successfully updated, reverts otherwise.\n   */\n    function updateNotaryUrl(\n        string calldata newNotaryUrl\n    ) external returns (bool) {\n        require(_isNotEmpty(newNotaryUrl), \"notaryUrl must not be empty\");\n        require(_isSenderNotary(), \"Notary not registered\");\n        string memory oldNotaryUrl = notaryUrls[msg.sender];\n        notaryUrls[msg.sender] = newNotaryUrl;\n        emit NotaryUpdated(msg.sender, oldNotaryUrl, newNotaryUrl);\n        return true;\n    }\n\n  /**\n   * @notice Unregisters sender as notary. Once unregistered, the notary does not\n   *         have any obligation to maintain the old public URL.\n   * @return true if the notary was successfully unregistered, reverts otherwise.\n   */\n    function unregisterNotary(\n    ) external returns (bool) {\n        require(_isSenderNotary(), \"sender must be registered\");\n        string memory oldNotaryUrl = notaryUrls[msg.sender];\n        delete notaryUrls[msg.sender];\n        emit NotaryUnregistered(msg.sender, oldNotaryUrl);\n        return true;\n    }\n\n  /**\n   * @notice Creates a DataOrder.\n   * @dev The `msg.sender` will become the buyer of the order.\n   * @param audience Target audience of the order.\n   * @param price Price that sellers will receive in exchange of their data.\n   * @param requestedData Requested data type (Geolocation, Facebook, etc).\n   * @param termsAndConditionsHash Hash of the Buyer's terms and conditions for the order.\n   * @param buyerUrl Public URL of the buyer where more information about the DataOrder\n   *                 can be obtained.\n   * @return The index of the newly created DataOrder. If the DataOrder could\n   *         not be created, reverts.\n   */\n    function createDataOrder(\n        string calldata audience,\n        uint256 price,\n        string calldata requestedData,\n        bytes32 termsAndConditionsHash,\n        string calldata buyerUrl\n    ) external returns (uint256) {\n        require(_isNotEmpty(audience), \"audience must not be empty\");\n        require(price > 0, \"price must be greater than zero\");\n        require(_isNotEmpty(requestedData), \"requestedData must not be empty\");\n        require(termsAndConditionsHash != 0, \"termsAndConditionsHash must not be empty\");\n        require(_isNotEmpty(buyerUrl), \"buyerUrl must not be empty\");\n\n        uint256 orderId = dataOrders.length;\n        dataOrders.push(DataOrder(\n            msg.sender,\n            audience,\n            price,\n            requestedData,\n            termsAndConditionsHash,\n            buyerUrl,\n            uint32(now),\n            uint32(0)\n        ));\n\n        emit DataOrderCreated(orderId, msg.sender);\n        return orderId;\n    }\n\n  /**\n   * @notice Closes the DataOrder.\n   * @dev The `msg.sender` must be the buyer of the order.\n   * @param orderId Index of the order to close.\n   * @return true if the DataOrder was successfully closed, reverts otherwise.\n   */\n    function closeDataOrder(\n        uint256 orderId\n    ) external returns (bool) {\n        require(orderId < dataOrders.length, \"invalid order index\");\n        DataOrder storage dataOrder = dataOrders[orderId];\n        require(dataOrder.buyer == msg.sender, \"sender can't close the order\");\n        require(dataOrder.closedAt == 0, \"order already closed\");\n        dataOrder.closedAt = uint32(now);\n\n        emit DataOrderClosed(orderId, msg.sender);\n        return true;\n    }\n\n    function getNotaryUrl(\n        address notaryAddress\n    ) external view returns (string memory) {\n        return notaryUrls[notaryAddress];\n    }\n\n    function getDataOrder(\n        uint256 orderId\n    ) external view returns (\n        address,\n        string memory,\n        uint256,\n        string memory,\n        bytes32,\n        string memory,\n        uint32,\n        uint32\n    ) {\n        DataOrder storage dataOrder = dataOrders[orderId];\n        return (\n            dataOrder.buyer,\n            dataOrder.audience,\n            dataOrder.price,\n            dataOrder.requestedData,\n            dataOrder.termsAndConditionsHash,\n            dataOrder.buyerUrl,\n            dataOrder.createdAt,\n            dataOrder.closedAt\n        );\n    }\n\n    function getDataOrdersLength(\n    ) external view returns (uint) {\n        return dataOrders.length;\n    }\n\n    function _isSenderNotary(\n    ) private view returns (bool) {\n        return _isNotEmpty(notaryUrls[msg.sender]);\n    }\n\n    function _isNotEmpty(\n        string memory s\n    ) private pure returns (bool) {\n        return bytes(s).length > 0;\n    }\n}\n",
  "sourcePath": "/Users/agustinmodugno/code/wibson-core/marketplace/contracts/DataExchange.sol",
  "compiler": {
    "name": "solc",
    "version": "0.5.7+commit.6da8b019.Emscripten.clang"
  },
  "schemaVersion": "3.0.6",
  "updatedAt": "2019-05-20T15:01:12.744Z",
  "devdoc": {
    "methods": {
      "closeDataOrder(uint256)": {
        "details": "The `msg.sender` must be the buyer of the order.",
        "params": {
          "orderId": "Index of the order to close."
        },
        "return": "true if the DataOrder was successfully closed, reverts otherwise."
      },
      "createDataOrder(string,uint256,string,bytes32,string)": {
        "details": "The `msg.sender` will become the buyer of the order.",
        "params": {
          "audience": "Target audience of the order.",
          "buyerUrl": "Public URL of the buyer where more information about the DataOrder                can be obtained.",
          "price": "Price that sellers will receive in exchange of their data.",
          "requestedData": "Requested data type (Geolocation, Facebook, etc).",
          "termsAndConditionsHash": "Hash of the Buyer's terms and conditions for the order."
        },
        "return": "The index of the newly created DataOrder. If the DataOrder could        not be created, reverts."
      },
      "registerNotary(string)": {
        "params": {
          "notaryUrl": "Public URL of the notary where the notary info can be obtained.                 This URL should serve a JSON signed by the sender to prove                 authenticity. It is highly recommended to check the signature                 with the sender's address before using the notary's services."
        },
        "return": "true if the notary was successfully registered, reverts otherwise."
      },
      "unregisterNotary()": {
        "return": "true if the notary was successfully unregistered, reverts otherwise."
      },
      "updateNotaryUrl(string)": {
        "params": {
          "newNotaryUrl": "Public URL of the notary where the notary info can be obtained.                    This URL should serve a JSON signed by the sender to prove                    authenticity. It is highly recommended to check the signature                    with the sender's address before using the notary's services."
        },
        "return": "true if the notary public URL was successfully updated, reverts otherwise."
      }
    },
    "title": "Data Exchange Marketplace"
  },
  "userdoc": {
    "methods": {
      "closeDataOrder(uint256)": {
        "notice": "Closes the DataOrder."
      },
      "createDataOrder(string,uint256,string,bytes32,string)": {
        "notice": "Creates a DataOrder."
      },
      "registerNotary(string)": {
        "notice": "Registers sender as a notary."
      },
      "unregisterNotary()": {
        "notice": "Unregisters sender as notary. Once unregistered, the notary does not        have any obligation to maintain the old public URL."
      },
      "updateNotaryUrl(string)": {
        "notice": "Updates notary public URL of sender."
      }
    },
    "notice": "This contract allows Notaries to register themselves and buyers to        publish data orders, acording to the Wibson Protocol.        For more information: https://wibson.org"
  }
}