{
  "contractName": "DataExchange",
  "abi": [
    {
      "constant": true,
      "inputs": [
        {
          "name": "",
          "type": "address"
        },
        {
          "name": "",
          "type": "address"
        },
        {
          "name": "",
          "type": "address"
        }
      ],
      "name": "buyerBalance",
      "outputs": [
        {
          "name": "",
          "type": "uint256"
        }
      ],
      "payable": false,
      "stateMutability": "view",
      "type": "function"
    },
    {
      "constant": true,
      "inputs": [
        {
          "name": "",
          "type": "address"
        },
        {
          "name": "",
          "type": "uint256"
        }
      ],
      "name": "ordersByBuyer",
      "outputs": [
        {
          "name": "",
          "type": "address"
        }
      ],
      "payable": false,
      "stateMutability": "view",
      "type": "function"
    },
    {
      "constant": true,
      "inputs": [
        {
          "name": "",
          "type": "address"
        },
        {
          "name": "",
          "type": "address"
        }
      ],
      "name": "buyerRemainingBudgetForAudits",
      "outputs": [
        {
          "name": "",
          "type": "uint256"
        }
      ],
      "payable": false,
      "stateMutability": "view",
      "type": "function"
    },
    {
      "constant": false,
      "inputs": [],
      "name": "unpause",
      "outputs": [],
      "payable": false,
      "stateMutability": "nonpayable",
      "type": "function"
    },
    {
      "constant": true,
      "inputs": [],
      "name": "paused",
      "outputs": [
        {
          "name": "",
          "type": "bool"
        }
      ],
      "payable": false,
      "stateMutability": "view",
      "type": "function"
    },
    {
      "constant": false,
      "inputs": [],
      "name": "renounceOwnership",
      "outputs": [],
      "payable": false,
      "stateMutability": "nonpayable",
      "type": "function"
    },
    {
      "constant": false,
      "inputs": [],
      "name": "pause",
      "outputs": [],
      "payable": false,
      "stateMutability": "nonpayable",
      "type": "function"
    },
    {
      "constant": true,
      "inputs": [],
      "name": "owner",
      "outputs": [
        {
          "name": "",
          "type": "address"
        }
      ],
      "payable": false,
      "stateMutability": "view",
      "type": "function"
    },
    {
      "constant": true,
      "inputs": [
        {
          "name": "",
          "type": "address"
        },
        {
          "name": "",
          "type": "uint256"
        }
      ],
      "name": "ordersByNotary",
      "outputs": [
        {
          "name": "",
          "type": "address"
        }
      ],
      "payable": false,
      "stateMutability": "view",
      "type": "function"
    },
    {
      "constant": false,
      "inputs": [
        {
          "name": "tokens",
          "type": "address[]"
        }
      ],
      "name": "destroy",
      "outputs": [],
      "payable": false,
      "stateMutability": "nonpayable",
      "type": "function"
    },
    {
      "constant": true,
      "inputs": [
        {
          "name": "",
          "type": "address"
        },
        {
          "name": "",
          "type": "uint256"
        }
      ],
      "name": "ordersBySeller",
      "outputs": [
        {
          "name": "",
          "type": "address"
        }
      ],
      "payable": false,
      "stateMutability": "view",
      "type": "function"
    },
    {
      "constant": true,
      "inputs": [],
      "name": "minimumInitialBudgetForAudits",
      "outputs": [
        {
          "name": "",
          "type": "uint256"
        }
      ],
      "payable": false,
      "stateMutability": "view",
      "type": "function"
    },
    {
      "constant": false,
      "inputs": [
        {
          "name": "_newOwner",
          "type": "address"
        }
      ],
      "name": "transferOwnership",
      "outputs": [],
      "payable": false,
      "stateMutability": "nonpayable",
      "type": "function"
    },
    {
      "inputs": [
        {
          "name": "tokenAddress",
          "type": "address"
        },
        {
          "name": "ownerAddress",
          "type": "address"
        }
      ],
      "payable": false,
      "stateMutability": "nonpayable",
      "type": "constructor"
    },
    {
      "anonymous": false,
      "inputs": [
        {
          "indexed": true,
          "name": "notary",
          "type": "address"
        }
      ],
      "name": "NotaryRegistered",
      "type": "event"
    },
    {
      "anonymous": false,
      "inputs": [
        {
          "indexed": true,
          "name": "notary",
          "type": "address"
        }
      ],
      "name": "NotaryUpdated",
      "type": "event"
    },
    {
      "anonymous": false,
      "inputs": [
        {
          "indexed": true,
          "name": "notary",
          "type": "address"
        }
      ],
      "name": "NotaryUnregistered",
      "type": "event"
    },
    {
      "anonymous": false,
      "inputs": [
        {
          "indexed": true,
          "name": "orderAddr",
          "type": "address"
        }
      ],
      "name": "NewOrder",
      "type": "event"
    },
    {
      "anonymous": false,
      "inputs": [
        {
          "indexed": true,
          "name": "orderAddr",
          "type": "address"
        },
        {
          "indexed": true,
          "name": "notary",
          "type": "address"
        }
      ],
      "name": "NotaryAdded",
      "type": "event"
    },
    {
      "anonymous": false,
      "inputs": [
        {
          "indexed": true,
          "name": "orderAddr",
          "type": "address"
        },
        {
          "indexed": true,
          "name": "seller",
          "type": "address"
        }
      ],
      "name": "DataAdded",
      "type": "event"
    },
    {
      "anonymous": false,
      "inputs": [
        {
          "indexed": true,
          "name": "orderAddr",
          "type": "address"
        },
        {
          "indexed": true,
          "name": "seller",
          "type": "address"
        }
      ],
      "name": "TransactionCompleted",
      "type": "event"
    },
    {
      "anonymous": false,
      "inputs": [
        {
          "indexed": true,
          "name": "orderAddr",
          "type": "address"
        }
      ],
      "name": "OrderClosed",
      "type": "event"
    },
    {
      "anonymous": false,
      "inputs": [],
      "name": "Pause",
      "type": "event"
    },
    {
      "anonymous": false,
      "inputs": [],
      "name": "Unpause",
      "type": "event"
    },
    {
      "anonymous": false,
      "inputs": [
        {
          "indexed": true,
          "name": "previousOwner",
          "type": "address"
        }
      ],
      "name": "OwnershipRenounced",
      "type": "event"
    },
    {
      "anonymous": false,
      "inputs": [
        {
          "indexed": true,
          "name": "previousOwner",
          "type": "address"
        },
        {
          "indexed": true,
          "name": "newOwner",
          "type": "address"
        }
      ],
      "name": "OwnershipTransferred",
      "type": "event"
    },
    {
      "constant": false,
      "inputs": [
        {
          "name": "notary",
          "type": "address"
        },
        {
          "name": "name",
          "type": "string"
        },
        {
          "name": "notaryUrl",
          "type": "string"
        },
        {
          "name": "publicKey",
          "type": "string"
        }
      ],
      "name": "registerNotary",
      "outputs": [
        {
          "name": "",
          "type": "bool"
        }
      ],
      "payable": false,
      "stateMutability": "nonpayable",
      "type": "function"
    },
    {
      "constant": false,
      "inputs": [
        {
          "name": "notary",
          "type": "address"
        }
      ],
      "name": "unregisterNotary",
      "outputs": [
        {
          "name": "",
          "type": "bool"
        }
      ],
      "payable": false,
      "stateMutability": "nonpayable",
      "type": "function"
    },
    {
      "constant": false,
      "inputs": [
        {
          "name": "_minimumInitialBudgetForAudits",
          "type": "uint256"
        }
      ],
      "name": "setMinimumInitialBudgetForAudits",
      "outputs": [
        {
          "name": "",
          "type": "bool"
        }
      ],
      "payable": false,
      "stateMutability": "nonpayable",
      "type": "function"
    },
    {
      "constant": false,
      "inputs": [
        {
          "name": "filters",
          "type": "string"
        },
        {
          "name": "dataRequest",
          "type": "string"
        },
        {
          "name": "price",
          "type": "uint256"
        },
        {
          "name": "initialBudgetForAudits",
          "type": "uint256"
        },
        {
          "name": "termsAndConditions",
          "type": "string"
        },
        {
          "name": "buyerURL",
          "type": "string"
        },
        {
          "name": "publicKey",
          "type": "string"
        }
      ],
      "name": "newOrder",
      "outputs": [
        {
          "name": "",
          "type": "address"
        }
      ],
      "payable": false,
      "stateMutability": "nonpayable",
      "type": "function"
    },
    {
      "constant": false,
      "inputs": [
        {
          "name": "orderAddr",
          "type": "address"
        },
        {
          "name": "notary",
          "type": "address"
        },
        {
          "name": "responsesPercentage",
          "type": "uint256"
        },
        {
          "name": "notarizationFee",
          "type": "uint256"
        },
        {
          "name": "notarizationTermsOfService",
          "type": "string"
        },
        {
          "name": "notarySignature",
          "type": "bytes"
        }
      ],
      "name": "addNotaryToOrder",
      "outputs": [
        {
          "name": "",
          "type": "bool"
        }
      ],
      "payable": false,
      "stateMutability": "nonpayable",
      "type": "function"
    },
    {
      "constant": false,
      "inputs": [
        {
          "name": "orderAddr",
          "type": "address"
        },
        {
          "name": "seller",
          "type": "address"
        },
        {
          "name": "notary",
          "type": "address"
        },
        {
          "name": "dataHash",
          "type": "string"
        },
        {
          "name": "signature",
          "type": "bytes"
        }
      ],
      "name": "addDataResponseToOrder",
      "outputs": [
        {
          "name": "",
          "type": "bool"
        }
      ],
      "payable": false,
      "stateMutability": "nonpayable",
      "type": "function"
    },
    {
      "constant": false,
      "inputs": [
        {
          "name": "orderAddr",
          "type": "address"
        },
        {
          "name": "seller",
          "type": "address"
        },
        {
          "name": "wasAudited",
          "type": "bool"
        },
        {
          "name": "isDataValid",
          "type": "bool"
        },
        {
          "name": "notarySignature",
          "type": "bytes"
        }
      ],
      "name": "closeDataResponse",
      "outputs": [
        {
          "name": "",
          "type": "bool"
        }
      ],
      "payable": false,
      "stateMutability": "nonpayable",
      "type": "function"
    },
    {
      "constant": false,
      "inputs": [
        {
          "name": "orderAddr",
          "type": "address"
        }
      ],
      "name": "closeOrder",
      "outputs": [
        {
          "name": "",
          "type": "bool"
        }
      ],
      "payable": false,
      "stateMutability": "nonpayable",
      "type": "function"
    },
    {
      "constant": true,
      "inputs": [
        {
          "name": "notary",
          "type": "address"
        }
      ],
      "name": "getOrdersForNotary",
      "outputs": [
        {
          "name": "",
          "type": "address[]"
        }
      ],
      "payable": false,
      "stateMutability": "view",
      "type": "function"
    },
    {
      "constant": true,
      "inputs": [
        {
          "name": "seller",
          "type": "address"
        }
      ],
      "name": "getOrdersForSeller",
      "outputs": [
        {
          "name": "",
          "type": "address[]"
        }
      ],
      "payable": false,
      "stateMutability": "view",
      "type": "function"
    },
    {
      "constant": true,
      "inputs": [
        {
          "name": "buyer",
          "type": "address"
        }
      ],
      "name": "getOrdersForBuyer",
      "outputs": [
        {
          "name": "",
          "type": "address[]"
        }
      ],
      "payable": false,
      "stateMutability": "view",
      "type": "function"
    },
    {
      "constant": true,
      "inputs": [],
      "name": "getOpenOrders",
      "outputs": [
        {
          "name": "",
          "type": "address[]"
        }
      ],
      "payable": false,
      "stateMutability": "view",
      "type": "function"
    },
    {
      "constant": true,
      "inputs": [],
      "name": "getAllowedNotaries",
      "outputs": [
        {
          "name": "",
          "type": "address[]"
        }
      ],
      "payable": false,
      "stateMutability": "view",
      "type": "function"
    },
    {
      "constant": true,
      "inputs": [
        {
          "name": "notary",
          "type": "address"
        }
      ],
      "name": "getNotaryInfo",
      "outputs": [
        {
          "name": "",
          "type": "address"
        },
        {
          "name": "",
          "type": "string"
        },
        {
          "name": "",
          "type": "string"
        },
        {
          "name": "",
          "type": "string"
        },
        {
          "name": "",
          "type": "bool"
        }
      ],
      "payable": false,
      "stateMutability": "view",
      "type": "function"
    }
  ],
  "bytecode": "0x60806040526000805460a060020a60ff02191690553480156200002157600080fd5b506040516040806200595983398101604052805160209091015160008054600160a060020a0319163317905581600160a060020a03811615156200006457600080fd5b600160a060020a0381163014156200007b57600080fd5b81600160a060020a03811615156200009257600080fd5b600160a060020a038116301415620000a957600080fd5b600160a060020a038481169084161415620000c357600080fd5b600e8054600160a060020a031916600160a060020a0386161790556000600f55620000f78364010000000062000101810204565b50505050620001a1565b600054600160a060020a031633146200011957600080fd5b6200012d8164010000000062000130810204565b50565b600160a060020a03811615156200014657600080fd5b60008054604051600160a060020a03808516939216917f8be0079c531659141344cd1fd0a4f28419497f9722a3daafe3b4186f6b6457e091a360008054600160a060020a031916600160a060020a0392909216919091179055565b6157a880620001b16000396000f300608060405260043610620001615763ffffffff60e060020a6000350416630636d7ac8114620001665780630aa4b3be14620001dc578063319fa887146200021e578063373dfb1414620002615780633cedd004146200028b5780633f4ba83a14620002ba57806343ca78a214620002d457806352748cfe14620004695780635ac31e68146200051c5780635c975abb146200054057806360909c511462000558578063715018a614620005d65780638456cb5914620005ee5780638da5cb5b146200060657806390e72127146200061e5780639e2d04781462000642578063ac70066514620006fa578063b7915e39146200071e578063c106f2671462000736578063c6786e5a146200075d578063c83abb4014620007b5578063d9ec338a146200089b578063dbe5bab514620008c2578063e0ffe8e314620008da578063e411c71f1462000a3b578063f2fde38b1462000a53578063fdc990641462000a77575b600080fd5b3480156200017357600080fd5b506200018a600160a060020a036004351662000a9b565b60408051602080825283518183015283519192839290830191858101910280838360005b83811015620001c8578181015183820152602001620001ae565b505050509050019250505060405180910390f35b348015620001e957600080fd5b506200020c600160a060020a036004358116906024358116906044351662000b42565b60408051918252519081900360200190f35b3480156200022b57600080fd5b5062000245600160a060020a036004351660243562000b65565b60408051600160a060020a039092168252519081900360200190f35b3480156200026e57600080fd5b506200020c600160a060020a036004358116906024351662000b9d565b3480156200029857600080fd5b50620002a660043562000bba565b604080519115158252519081900360200190f35b348015620002c757600080fd5b50620002d262000bdc565b005b348015620002e157600080fd5b50620002f8600160a060020a036004351662000c54565b6040518086600160a060020a0316600160a060020a0316815260200180602001806020018060200185151515158152602001848103845288818151815260200191508051906020019080838360005b838110156200036157818101518382015260200162000347565b50505050905090810190601f1680156200038f5780820380516001836020036101000a031916815260200191505b50848103835287518152875160209182019189019080838360005b83811015620003c4578181015183820152602001620003aa565b50505050905090810190601f168015620003f25780820380516001836020036101000a031916815260200191505b50848103825286518152865160209182019188019080838360005b83811015620004275781810151838201526020016200040d565b50505050905090810190601f168015620004555780820380516001836020036101000a031916815260200191505b509850505050505050505060405180910390f35b3480156200047657600080fd5b50604080516020601f606435600481810135928301849004840285018401909552818452620002a694600160a060020a03813581169560248035831696604435909316953695608494920191819084018382808284375050604080516020601f89358b018035918201839004830284018301909452808352979a99988101979196509182019450925082915084018382808284375094975062000f529650505050505050565b3480156200052957600080fd5b506200018a600160a060020a036004351662001453565b3480156200054d57600080fd5b50620002a6620014f8565b3480156200056557600080fd5b50604080516020601f608435600481810135928301849004840285018401909552818452620002a694600160a060020a038135811695602480359092169560443515159560643515159536959460a49493910191908190840183828082843750949750620015089650505050505050565b348015620005e357600080fd5b50620002d26200198d565b348015620005fb57600080fd5b50620002d2620019fa565b3480156200061357600080fd5b506200024562001a77565b3480156200062b57600080fd5b50620002a6600160a060020a036004351662001a86565b3480156200064f57600080fd5b50604080516020601f608435600481810135928301849004840285018401909552818452620002a694600160a060020a0381358116956024803590921695604435956064359536959460a4949391019190819084018382808284375050604080516020601f89358b018035918201839004830284018301909452808352979a99988101979196509182019450925082915084018382808284375094975062001e389650505050505050565b3480156200070757600080fd5b506200018a600160a060020a0360043516620024aa565b3480156200072b57600080fd5b506200018a6200254f565b3480156200074357600080fd5b5062000245600160a060020a0360043516602435620025b7565b3480156200076a57600080fd5b5060408051602060048035808201358381028086018501909652808552620002d295369593946024949385019291829185019084908082843750949750620025d39650505050505050565b348015620007c257600080fd5b5060408051602060046024803582810135601f8101859004850286018501909652858552620002a6958335600160a060020a031695369560449491939091019190819084018382808284375050604080516020601f89358b018035918201839004830284018301909452808352979a99988101979196509182019450925082915084018382808284375050604080516020601f89358b018035918201839004830284018301909452808352979a9998810197919650918201945092508291508401838280828437509497506200274e9650505050505050565b348015620008a857600080fd5b5062000245600160a060020a0360043516602435620029b6565b348015620008cf57600080fd5b506200018a620029d2565b348015620008e757600080fd5b506040805160206004803580820135601f81018490048402850184019095528484526200024594369492936024939284019190819084018382808284375050604080516020601f89358b018035918201839004830284018301909452808352979a99988101979196509182019450925082915084018382808284375050604080516020888301358a018035601f8101839004830284018301909452838352979a89359a8a8301359a9199909850606090910196509194509081019250819084018382808284375050604080516020601f89358b018035918201839004830284018301909452808352979a99988101979196509182019450925082915084018382808284375050604080516020601f89358b018035918201839004830284018301909452808352979a99988101979196509182019450925082915084018382808284375094975062002a369650505050505050565b34801562000a4857600080fd5b506200020c62002ebd565b34801562000a6057600080fd5b50620002d2600160a060020a036004351662002ec3565b34801562000a8457600080fd5b50620002a6600160a060020a036004351662002ee9565b606081600160a060020a038116151562000ab457600080fd5b600160a060020a03811630141562000acb57600080fd5b600160a060020a0383166000908152600760209081526040918290208054835181840281018401909452808452909183018282801562000b3557602002820191906000526020600020905b8154600160a060020a0316815260019091019060200180831162000b16575b5050505050915050919050565b600c60209081526000938452604080852082529284528284209052825290205481565b60096020528160005260406000208181548110151562000b8157fe5b600091825260209091200154600160a060020a03169150829050565b600d60209081526000928352604080842090915290825290205481565b60008054600160a060020a0316331462000bd357600080fd5b50600f55600190565b600054600160a060020a0316331462000bf457600080fd5b60005460a060020a900460ff16151562000c0d57600080fd5b6000805474ff0000000000000000000000000000000000000000191681556040517f7805862f689e2f13df9f062ff482ad3ad112aca9e0847911ed832e158c525b339190a1565b60006060806060600062000c6762003b8a565b86600160a060020a038116151562000c7e57600080fd5b600160a060020a03811630141562000c9557600080fd5b600160a060020a038881166000908152600a6020908152604091829020825160808101845281549094168452600180820180548551600261010094831615949094026000190190911692909204601f810185900485028301850190955284825291938584019391929183018282801562000d535780601f1062000d275761010080835404028352916020019162000d53565b820191906000526020600020905b81548152906001019060200180831162000d3557829003601f168201915b5050509183525050600282810180546040805160206001841615610100026000190190931694909404601f8101839004830285018301909152808452938101939083018282801562000de95780601f1062000dbd5761010080835404028352916020019162000de9565b820191906000526020600020905b81548152906001019060200180831162000dcb57829003601f168201915b505050918352505060038201805460408051602060026001851615610100026000190190941693909304601f810184900484028201840190925281815293820193929183018282801562000e815780601f1062000e555761010080835404028352916020019162000e81565b820191906000526020600020905b81548152906001019060200180831162000e6357829003601f168201915b50505050508152505091508160000151826020015183604001518460600151600573__MultiMap______________________________6375ce4ef990918e6040518363ffffffff1660e060020a0281526004018083815260200182600160a060020a0316600160a060020a031681526020019250505060206040518083038186803b15801562000f1057600080fd5b505af415801562000f25573d6000803e3d6000fd5b505050506040513d602081101562000f3c57600080fd5b5051939c929b5090995097509095509350505050565b6000805481908190819060a060020a900460ff161562000f7157600080fd5b600160a060020a0389166000908152600b6020526040902054899060ff16151562000f9b57600080fd5b89935083600160a060020a0316637150d8ae6040518163ffffffff1660e060020a028152600401602060405180830381600087803b15801562000fdd57600080fd5b505af115801562000ff2573d6000803e3d6000fd5b505050506040513d60208110156200100957600080fd5b5051925033600160a060020a038416146200102357600080fd5b6040805160a081018252600160a060020a03808d16825285811660208301528b811692820192909252908916606082015230608082015262001065906200303a565b83600160a060020a03166343dcbc86896040518263ffffffff1660e060020a0281526004018082600160a060020a0316600160a060020a03168152602001915050602060405180830381600087803b158015620010c157600080fd5b505af1158015620010d6573d6000803e3d6000fd5b505050506040513d6020811015620010ed57600080fd5b50511515620010fb57600080fd5b73__CryptoUtils___________________________6324c91c1b8b8b8b8b8b6040518663ffffffff1660e060020a0281526004018086600160a060020a0316600160a060020a0316815260200185600160a060020a0316600160a060020a0316815260200184600160a060020a0316600160a060020a031681526020018060200180602001838103835285818151815260200191508051906020019080838360005b83811015620011b75781810151838201526020016200119d565b50505050905090810190601f168015620011e55780820380516001836020036101000a031916815260200191505b50838103825284518152845160209182019186019080838360005b838110156200121a57818101518382015260200162001200565b50505050905090810190601f168015620012485780820380516001836020036101000a031916815260200191505b5097505050505050505060206040518083038186803b1580156200126b57600080fd5b505af415801562001280573d6000803e3d6000fd5b505050506040513d60208110156200129757600080fd5b50511515620012a557600080fd5b6040517fffaef25e000000000000000000000000000000000000000000000000000000008152600160a060020a038a8116600483019081528a821660248401526060604484019081528a5160648501528a519288169363ffaef25e938e938e938e939192909160840190602085019080838360005b83811015620013345781810151838201526020016200131a565b50505050905090810190601f168015620013625780820380516001836020036101000a031916815260200191505b50945050505050602060405180830381600087803b1580156200138457600080fd5b505af115801562001399573d6000803e3d6000fd5b505050506040513d6020811015620013b057600080fd5b50519150811515620013c157600080fd5b620013cd848a6200310e565b600160a060020a0389811660008181526007602090815260408083208054600181018255908452918320909101805473ffffffffffffffffffffffffffffffffffffffff19168f86161790555191928716917f96a360ee9d47dddc23543ca7e1b847174c225dc8f968677e1d5b6f35f978108f9190a35060019998505050505050505050565b606081600160a060020a03811615156200146c57600080fd5b600160a060020a0381163014156200148357600080fd5b600160a060020a0383166000908152600860209081526040918290208054835181840281018401909452808452909183018282801562000b3557602002820191906000526020600020908154600160a060020a0316815260019091019060200180831162000b16575050505050915050919050565b60005460a060020a900460ff1681565b60008054819081908190819060a060020a900460ff16156200152957600080fd5b600160a060020a038a166000908152600b60205260409020548a9060ff1615156200155357600080fd5b8a945084600160a060020a0316637150d8ae6040518163ffffffff1660e060020a028152600401602060405180830381600087803b1580156200159557600080fd5b505af1158015620015aa573d6000803e3d6000fd5b505050506040513d6020811015620015c157600080fd5b5051604080517fc081efc1000000000000000000000000000000000000000000000000000000008152600160a060020a038d8116600483015291519296509087169163c081efc1916024808201926020929091908290030181600087803b1580156200162c57600080fd5b505af115801562001641573d6000803e3d6000fd5b505050506040513d60208110156200165857600080fd5b505115156200166657600080fd5b84600160a060020a0316634372df998b6040518263ffffffff1660e060020a0281526004018082600160a060020a0316600160a060020a03168152602001915050602060405180830381600087803b158015620016c257600080fd5b505af1158015620016d7573d6000803e3d6000fd5b505050506040513d6020811015620016ee57600080fd5b5051925033600160a060020a038516148062001712575033600160a060020a038416145b15156200171e57600080fd5b73__CryptoUtils___________________________636c7e02368c8c868d8d8d6040518763ffffffff1660e060020a0281526004018087600160a060020a0316600160a060020a0316815260200186600160a060020a0316600160a060020a0316815260200185600160a060020a0316600160a060020a03168152602001841515151581526020018315151515815260200180602001828103825283818151815260200191508051906020019080838360005b83811015620017eb578181015183820152602001620017d1565b50505050905090810190601f168015620018195780820380516001836020036101000a031916815260200191505b5097505050505050505060206040518083038186803b1580156200183c57600080fd5b505af415801562001851573d6000803e3d6000fd5b505050506040513d60208110156200186857600080fd5b505115156200187657600080fd5b881580620018815750875b604080517f96661b04000000000000000000000000000000000000000000000000000000008152600160a060020a038d8116600483015283151560248301529151929450908716916396661b04916044808201926020929091908290030181600087803b158015620018f257600080fd5b505af115801562001907573d6000803e3d6000fd5b505050506040513d60208110156200191e57600080fd5b505115156200192c57600080fd5b6200193c85858c868d8d62003687565b89600160a060020a031685600160a060020a03167fcc3f610635149ab98af5df8f627c661ab8d314e273ae1ab29a88bac48d90b68e60405160405180910390a35060019a9950505050505050505050565b600054600160a060020a03163314620019a557600080fd5b60008054604051600160a060020a03909116917ff8df31144d9c2f0f6b59d69b8b98abd5459d07f2742c4df920b25aae33c6482091a26000805473ffffffffffffffffffffffffffffffffffffffff19169055565b600054600160a060020a0316331462001a1257600080fd5b60005460a060020a900460ff161562001a2a57600080fd5b6000805474ff0000000000000000000000000000000000000000191660a060020a1781556040517f6985a02210a168e66602d3235cb6db0e70f92b3ba4d376a33c0f3d9434bff6259190a1565b600054600160a060020a031681565b60008054819081908190819060a060020a900460ff161562001aa757600080fd5b600160a060020a0386166000908152600b6020526040902054869060ff16151562001ad157600080fd5b604080517f75ce4ef900000000000000000000000000000000000000000000000000000000815260016004820152600160a060020a0389166024820152905173__MultiMap______________________________916375ce4ef9916044808301926020929190829003018186803b15801562001b4c57600080fd5b505af415801562001b61573d6000803e3d6000fd5b505050506040513d602081101562001b7857600080fd5b5051151562001b8657600080fd5b86945084600160a060020a0316637150d8ae6040518163ffffffff1660e060020a028152600401602060405180830381600087803b15801562001bc857600080fd5b505af115801562001bdd573d6000803e3d6000fd5b505050506040513d602081101562001bf457600080fd5b5051935033600160a060020a038516148062001c1a5750600054600160a060020a031633145b151562001c2657600080fd5b84600160a060020a03166343d726d66040518163ffffffff1660e060020a028152600401602060405180830381600087803b15801562001c6557600080fd5b505af115801562001c7a573d6000803e3d6000fd5b505050506040513d602081101562001c9157600080fd5b50519250821562001e2d57600160a060020a038481166000818152600d602090815260408083208a861684528252808320805490849055600e54825160e060020a63a9059cbb028152600481019690965260248601829052915190975094169363a9059cbb93604480820194918390030190829087803b15801562001d1557600080fd5b505af115801562001d2a573d6000803e3d6000fd5b505050506040513d602081101562001d4157600080fd5b5051151562001d4f57600080fd5b604080517f7d98ebde00000000000000000000000000000000000000000000000000000000815260016004820152600160a060020a0389166024820152905173__MultiMap______________________________91637d98ebde916044808301926020929190829003018186803b15801562001dca57600080fd5b505af415801562001ddf573d6000803e3d6000fd5b505050506040513d602081101562001df657600080fd5b5050604051600160a060020a038816907fc674f2738d835a5ee10ac4c9fc95355170bec02f7b438d737c8821ca222640f990600090a25b509095945050505050565b6000805481908190819060a060020a900460ff161562001e5757600080fd5b600160a060020a038a166000908152600b60205260409020548a9060ff16151562001e8157600080fd5b89600160a060020a038116151562001e9857600080fd5b600160a060020a03811630141562001eaf57600080fd5b8b945084600160a060020a0316637150d8ae6040518163ffffffff1660e060020a028152600401602060405180830381600087803b15801562001ef157600080fd5b505af115801562001f06573d6000803e3d6000fd5b505050506040513d602081101562001f1d57600080fd5b5051935033600160a060020a0385161462001f3757600080fd5b84600160a060020a03166343dcbc868c6040518263ffffffff1660e060020a0281526004018082600160a060020a0316600160a060020a03168152602001915050602060405180830381600087803b15801562001f9357600080fd5b505af115801562001fa8573d6000803e3d6000fd5b505050506040513d602081101562001fbf57600080fd5b50511562001fcc57600080fd5b604080517f75ce4ef900000000000000000000000000000000000000000000000000000000815260056004820152600160a060020a038d166024820152905173__MultiMap______________________________916375ce4ef9916044808301926020929190829003018186803b1580156200204757600080fd5b505af41580156200205c573d6000803e3d6000fd5b505050506040513d60208110156200207357600080fd5b505115156200208157600080fd5b73__CryptoUtils___________________________634ae90a408d8d8d8d8d8d6040518763ffffffff1660e060020a0281526004018087600160a060020a0316600160a060020a0316815260200186600160a060020a0316600160a060020a031681526020018581526020018481526020018060200180602001838103835285818151815260200191508051906020019080838360005b838110156200213257818101518382015260200162002118565b50505050905090810190601f168015620021605780820380516001836020036101000a031916815260200191505b50838103825284518152845160209182019186019080838360005b83811015620021955781810151838201526020016200217b565b50505050905090810190601f168015620021c35780820380516001836020036101000a031916815260200191505b509850505050505050505060206040518083038186803b158015620021e757600080fd5b505af4158015620021fc573d6000803e3d6000fd5b505050506040513d60208110156200221357600080fd5b505115156200222157600080fd5b84600160a060020a031663502341738c8c8c8c6040518563ffffffff1660e060020a0281526004018085600160a060020a0316600160a060020a0316815260200184815260200183815260200180602001828103825283818151815260200191508051906020019080838360005b83811015620022a95781810151838201526020016200228f565b50505050905090810190601f168015620022d75780820380516001836020036101000a031916815260200191505b5095505050505050602060405180830381600087803b158015620022fa57600080fd5b505af11580156200230f573d6000803e3d6000fd5b505050506040513d60208110156200232657600080fd5b5051925082156200249a57604080517fb57ab3ac00000000000000000000000000000000000000000000000000000000815260016004820152600160a060020a038e166024820152905173__MultiMap______________________________9163b57ab3ac916044808301926020929190829003018186803b158015620023ac57600080fd5b505af4158015620023c1573d6000803e3d6000fd5b505050506040513d6020811015620023d857600080fd5b810190808051906020019092919050505050600860008c600160a060020a0316600160a060020a031681526020019081526020016000208c90806001815401808255809150509060018203906000526020600020016000909192909190916101000a815481600160a060020a030219169083600160a060020a03160217905550508a600160a060020a031685600160a060020a03167f1997ecb04f39d7db4275612f9a263cd6be2a25f09421d77219d00ab96d472a8060405160405180910390a35b50909a9950505050505050505050565b606081600160a060020a0381161515620024c357600080fd5b600160a060020a038116301415620024da57600080fd5b600160a060020a0383166000908152600960209081526040918290208054835181840281018401909452808452909183018282801562000b3557602002820191906000526020600020908154600160a060020a0316815260019091019060200180831162000b16575050505050915050919050565b60606005600101805480602002602001604051908101604052809291908181526020018280548015620025ac57602002820191906000526020600020905b8154600160a060020a031681526001909101906020018083116200258d575b505050505090505b90565b60086020528160005260406000208181548110151562000b8157fe5b6000805481908190600160a060020a03163314620025f057600080fd5b600092505b8351831015620027405783838151811015156200260e57fe5b6020908102909101810151604080517f70a082310000000000000000000000000000000000000000000000000000000081523060048201529051919450600160a060020a038516926370a08231926024808401938290030181600087803b1580156200267957600080fd5b505af11580156200268e573d6000803e3d6000fd5b505050506040513d6020811015620026a557600080fd5b5051600080546040805160e060020a63a9059cbb028152600160a060020a0392831660048201526024810185905290519394509085169263a9059cbb92604480840193602093929083900390910190829087803b1580156200270657600080fd5b505af11580156200271b573d6000803e3d6000fd5b505050506040513d60208110156200273257600080fd5b5050600190920191620025f5565b600054600160a060020a0316ff5b600080548190600160a060020a031633146200276957600080fd5b60005460a060020a900460ff16156200278157600080fd5b85600160a060020a03811615156200279857600080fd5b600160a060020a038116301415620027af57600080fd5b600160a060020a038781166000818152600a60209081526040918290205482517fb57ab3ac00000000000000000000000000000000000000000000000000000000815260056004820152602481019490945291519190931615945073__MultiMap______________________________9263b57ab3ac9260448082019391829003018186803b1580156200284257600080fd5b505af415801562002857573d6000803e3d6000fd5b505050506040513d60208110156200286e57600080fd5b505115156200287c57600080fd5b60408051608081018252600160a060020a0389811680835260208084018b81528486018b9052606085018a90526000928352600a8252949091208351815473ffffffffffffffffffffffffffffffffffffffff191693169290921782559251805192939192620028f3926001850192019062003bbc565b50604082015180516200291191600284019160209091019062003bbc565b50606082015180516200292f91600384019160209091019062003bbc565b5090505081156200297457604051600160a060020a038816907f1e59e06fbc9b065c65d072c1f7a2ed1d81154e6e57768747c6c082207dca730890600090a2620029a9565b604051600160a060020a038816907f9db0a73cad02bbf95f84090f7c99969d3a1cf17d5da896752289967f9f80a58490600090a25b5060019695505050505050565b60076020528160005260406000208181548110151562000b8157fe5b606060018001805480602002602001604051908101604052809291908181526020018280548015620025ac57602002820191906000526020600020908154600160a060020a031681526001909101906020018083116200258d575050505050905090565b60008054819060a060020a900460ff161562002a5157600080fd5b600f5486101562002a6157600080fd5b600e54604080517fdd62ed3e00000000000000000000000000000000000000000000000000000000815233600482015230602482015290518892600160a060020a03169163dd62ed3e9160448083019260209291908290030181600087803b15801562002acd57600080fd5b505af115801562002ae2573d6000803e3d6000fd5b505050506040513d602081101562002af957600080fd5b5051101562002b0757600080fd5b338989898989898962002b1962003c41565b8089600160a060020a0316600160a060020a03168152602001806020018060200188815260200187815260200180602001806020018060200186810386528d818151815260200191508051906020019080838360005b8381101562002b8957818101518382015260200162002b6f565b50505050905090810190601f16801562002bb75780820380516001836020036101000a031916815260200191505b5086810385528c5181528c516020918201918e019080838360005b8381101562002bec57818101518382015260200162002bd2565b50505050905090810190601f16801562002c1a5780820380516001836020036101000a031916815260200191505b5086810384528951815289516020918201918b019080838360005b8381101562002c4f57818101518382015260200162002c35565b50505050905090810190601f16801562002c7d5780820380516001836020036101000a031916815260200191505b5086810383528851815288516020918201918a019080838360005b8381101562002cb257818101518382015260200162002c98565b50505050905090810190601f16801562002ce05780820380516001836020036101000a031916815260200191505b50868103825287518152875160209182019189019080838360005b8381101562002d1557818101518382015260200162002cfb565b50505050905090810190601f16801562002d435780820380516001836020036101000a031916815260200191505b509d5050505050505050505050505050604051809103906000f08015801562002d70573d6000803e3d6000fd5b50600e54604080517f23b872dd000000000000000000000000000000000000000000000000000000008152336004820152306024820152604481018a90529051929350600160a060020a03909116916323b872dd916064808201926020929091908290030181600087803b15801562002de857600080fd5b505af115801562002dfd573d6000803e3d6000fd5b505050506040513d602081101562002e1457600080fd5b5050336000818152600d60209081526040808320600160a060020a0386168085529083528184208b90559383526009825280832080546001818101835591855283852001805473ffffffffffffffffffffffffffffffffffffffff191686179055848452600b909252808320805460ff1916909217909155517fcf6ea478d30b7e2b0d188cd4bc726f7e42c48dd94081b929ae8f03b8743f02d99190a298975050505050505050565b600f5481565b600054600160a060020a0316331462002edb57600080fd5b62002ee68162003acb565b50565b60008054600160a060020a0316331462002f0257600080fd5b60005460a060020a900460ff161562002f1a57600080fd5b81600160a060020a038116151562002f3157600080fd5b600160a060020a03811630141562002f4857600080fd5b604080517f7d98ebde00000000000000000000000000000000000000000000000000000000815260056004820152600160a060020a0385166024820152905173__MultiMap______________________________91637d98ebde916044808301926020929190829003018186803b15801562002fc357600080fd5b505af415801562002fd8573d6000803e3d6000fd5b505050506040513d602081101562002fef57600080fd5b5051151562002ffd57600080fd5b604051600160a060020a038416907fd2df117cdff329511dba7edac459dd05c2b14dc4c88ea1faf058c15de773b43390600090a250600192915050565b6000805b6005821015620031095760008383600581106200305757fe5b6020020151600160a060020a031614156200307157600080fd5b6200308482600163ffffffff62003b4916565b90505b6005811015620030ee578281600581106200309e57fe5b6020020151600160a060020a0316838360058110620030b957fe5b6020020151600160a060020a03161415620030d357600080fd5b620030e681600163ffffffff62003b4916565b905062003087565b6200310182600163ffffffff62003b4916565b91506200303e565b505050565b600080600080600080600080600060149054906101000a900460ff161515156200313757600080fd5b89600160a060020a0316637150d8ae6040518163ffffffff1660e060020a028152600401602060405180830381600087803b1580156200317657600080fd5b505af11580156200318b573d6000803e3d6000fd5b505050506040513d6020811015620031a257600080fd5b5051604080517f4372df99000000000000000000000000000000000000000000000000000000008152600160a060020a038c811660048301529151929a50908c1691634372df99916024808201926020929091908290030181600087803b1580156200320d57600080fd5b505af115801562003222573d6000803e3d6000fd5b505050506040513d60208110156200323957600080fd5b5051600160a060020a03808a166000908152600d60209081526040808320938f168084529382528083205481517fa035b1fe0000000000000000000000000000000000000000000000000000000081529151959c509a50929363a035b1fe93600480820194918390030190829087803b158015620032b657600080fd5b505af1158015620032cb573d6000803e3d6000fd5b505050506040513d6020811015620032e257600080fd5b5051604080517f43ca78a2000000000000000000000000000000000000000000000000000000008152600160a060020a038a811660048301529151929750908c16916343ca78a29160248082019260009290919082900301818387803b1580156200334c57600080fd5b505af115801562003361573d6000803e3d6000fd5b505050506040513d6000823e601f3d908101601f1916820160405260a08110156200338b57600080fd5b8151602083015160408401516060850180519395929491939183019291640100000000811115620033bb57600080fd5b82016020810184811115620033cf57600080fd5b8151640100000000811182820187101715620033ea57600080fd5b50949a506200340b96508b95508a94505063ffffffff62003b491692505050565b925062003419848762003b5d565b91506200342d838363ffffffff62003b7716565b905062003441868363ffffffff62003b7716565b600d60008a600160a060020a0316600160a060020a0316815260200190815260200160002060008c600160a060020a0316600160a060020a031681526020019081526020016000208190555080600e60009054906101000a9004600160a060020a0316600160a060020a031663dd62ed3e8a306040518363ffffffff1660e060020a0281526004018083600160a060020a0316600160a060020a0316815260200182600160a060020a0316600160a060020a0316815260200192505050602060405180830381600087803b1580156200351957600080fd5b505af11580156200352e573d6000803e3d6000fd5b505050506040513d60208110156200354557600080fd5b505110156200355357600080fd5b600e54604080517f23b872dd000000000000000000000000000000000000000000000000000000008152600160a060020a038b8116600483015230602483015260448201859052915191909216916323b872dd9160648083019260209291908290030181600087803b158015620035c957600080fd5b505af1158015620035de573d6000803e3d6000fd5b505050506040513d6020811015620035f557600080fd5b505115156200360357600080fd5b600160a060020a038089166000908152600c602090815260408083208e851684528252808320938d168352929052205462003645908463ffffffff62003b4916565b600160a060020a039889166000908152600c602090815260408083209d8c1683529c81528c82209b909a16815299909852505050959094209290925550505050565b60008054819081908190819060a060020a900460ff1615620036a857600080fd5b8a600160a060020a031663a035b1fe6040518163ffffffff1660e060020a028152600401602060405180830381600087803b158015620036e757600080fd5b505af1158015620036fc573d6000803e3d6000fd5b505050506040513d60208110156200371357600080fd5b5051604080517f43ca78a2000000000000000000000000000000000000000000000000000000008152600160a060020a038b811660048301529151929750908d16916343ca78a29160248082019260009290919082900301818387803b1580156200377d57600080fd5b505af115801562003792573d6000803e3d6000fd5b505050506040513d6000823e601f3d908101601f1916820160405260a0811015620037bc57600080fd5b8151602083015160408401516060850180519395929491939183019291640100000000811115620037ec57600080fd5b820160208101848111156200380057600080fd5b81516401000000008111828201871017156200381b57600080fd5b50949a506200383c96508b95508a94505063ffffffff62003b491692505050565b925082600c60008c600160a060020a0316600160a060020a0316815260200190815260200160002060008d600160a060020a0316600160a060020a0316815260200190815260200160002060008b600160a060020a0316600160a060020a031681526020019081526020016000205410151515620038b957600080fd5b600160a060020a03808b166000908152600c602090815260408083208f851684528252808320938d1683529290522054620038fb908463ffffffff62003b7716565b600c60008c600160a060020a0316600160a060020a0316815260200190815260200160002060008d600160a060020a0316600160a060020a0316815260200190815260200160002060008b600160a060020a0316600160a060020a03168152602001908152602001600020819055508662003977578962003979565b875b9150861580620039865750855b62003992578962003994565b885b600e546040805160e060020a63a9059cbb028152600160a060020a03868116600483015260248201899052915193945091169163a9059cbb916044808201926020929091908290030181600087803b158015620039f057600080fd5b505af115801562003a05573d6000803e3d6000fd5b505050506040513d602081101562003a1c57600080fd5b5051151562003a2a57600080fd5b600e546040805160e060020a63a9059cbb028152600160a060020a038481166004830152602482018990529151919092169163a9059cbb9160448083019260209291908290030181600087803b15801562003a8457600080fd5b505af115801562003a99573d6000803e3d6000fd5b505050506040513d602081101562003ab057600080fd5b5051151562003abe57600080fd5b5050505050505050505050565b600160a060020a038116151562003ae157600080fd5b60008054604051600160a060020a03808516939216917f8be0079c531659141344cd1fd0a4f28419497f9722a3daafe3b4186f6b6457e091a36000805473ffffffffffffffffffffffffffffffffffffffff1916600160a060020a0392909216919091179055565b8181018281101562003b5757fe5b92915050565b600081831062003b6e578162003b70565b825b9392505050565b60008282111562003b8457fe5b50900390565b6080604051908101604052806000600160a060020a031681526020016060815260200160608152602001606081525090565b828054600181600116156101000203166002900490600052602060002090601f016020900481019282601f1062003bff57805160ff191683800117855562003c2f565b8280016001018555821562003c2f579182015b8281111562003c2f57825182559160200191906001019062003c12565b5062003c3d92915062003c52565b5090565b604051611b0d8062003c7083390190565b620025b491905b8082111562003c3d576000815560010162003c59560060806040523480156200001157600080fd5b5060405162001b0d38038062001b0d83398101604090815281516020830151918301516060840151608085015160a086015160c087015160e088015160008054600160a060020a03191633179055959796870196948501959394929391830192908101910187600160a060020a03811615156200008d57600080fd5b600160a060020a038116301415620000a457600080fd5b8251600010620000b357600080fd5b8151600010620000c257600080fd5b60018054600160a060020a031916600160a060020a038b161790558751620000f29060029060208b01906200018a565b508651620001089060039060208a01906200018a565b50600486905560058590558351620001289060069060208701906200018a565b5082516200013e9060079060208601906200018a565b508151620001549060089060208501906200018a565b50506009805468ff00000000ffffffff19164263ffffffff161767ffffffff0000000019169055506200022f9650505050505050565b828054600181600116156101000203166002900490600052602060002090601f016020900481019282601f10620001cd57805160ff1916838001178555620001fd565b82800160010185558215620001fd579182015b82811115620001fd578251825591602001919060010190620001e0565b506200020b9291506200020f565b5090565b6200022c91905b808211156200020b576000815560010162000216565b90565b6118ce806200023f6000396000f3006080604052600436106101535763ffffffff7c01000000000000000000000000000000000000000000000000000000006000350416632728e28b81146101585780634372df991461019157806343ca78a2146101ce57806343d726d6146102a157806343dcbc86146102ca57806350234173146102eb578063600f1f2b1461035757806363ffab31146103855780636d4b76d51461040f578063715018a6146104275780637150d8ae1461043e5780638da5cb5b1461045357806396661b041461046857806396e8150a1461048e578063a035b1fe14610526578063b1f4ff901461054d578063c081efc114610562578063c883e32014610583578063cee26ed514610598578063cf09e0d0146105b0578063cf317b7e146105c5578063d778ce3c14610699578063ec935940146106ae578063f2fde38b146106c3578063f678462f146106e4578063ffaef25e146106f9575b600080fd5b34801561016457600080fd5b5061016d610768565b6040518082600281111561017d57fe5b60ff16815260200191505060405180910390f35b34801561019d57600080fd5b506101b2600160a060020a036004351661077d565b60408051600160a060020a039092168252519081900360200190f35b3480156101da57600080fd5b506101ef600160a060020a03600435166108e4565b6040518086600160a060020a0316600160a060020a03168152602001858152602001848152602001806020018363ffffffff1663ffffffff168152602001828103825284818151815260200191508051906020019080838360005b8381101561026257818101518382015260200161024a565b50505050905090810190601f16801561028f5780820380516001836020036101000a031916815260200191505b50965050505050505060405180910390f35b3480156102ad57600080fd5b506102b6610a30565b604080519115158252519081900360200190f35b3480156102d657600080fd5b506102b6600160a060020a0360043516610acb565b3480156102f757600080fd5b50604080516020601f6064356004818101359283018490048402850184019095528184526102b694600160a060020a038135169460248035956044359536956084949301918190840183828082843750949750610b219650505050505050565b34801561036357600080fd5b5061036c610cd4565b6040805163ffffffff9092168252519081900360200190f35b34801561039157600080fd5b5061039a610ce8565b6040805160208082528351818301528351919283929083019185019080838360005b838110156103d45781810151838201526020016103bc565b50505050905090810190601f1680156104015780820380516001836020036101000a031916815260200191505b509250505060405180910390f35b34801561041b57600080fd5b506101b2600435610d76565b34801561043357600080fd5b5061043c610d9e565b005b34801561044a57600080fd5b506101b2610e0a565b34801561045f57600080fd5b506101b2610e19565b34801561047457600080fd5b506102b6600160a060020a03600435166024351515610e28565b34801561049a57600080fd5b506104af600160a060020a0360043516610fa2565b60408051600160a060020a038716815263ffffffff80861692820192909252908316606082015260208101608082018360028111156104ea57fe5b60ff168152602001828103825286818151815260200191508051906020019080838360008381101561026257818101518382015260200161024a565b34801561053257600080fd5b5061053b611081565b60408051918252519081900360200190f35b34801561055957600080fd5b5061039a611087565b34801561056e57600080fd5b506102b6600160a060020a03600435166110df565b34801561058f57600080fd5b5061053b611135565b3480156105a457600080fd5b506101b260043561113b565b3480156105bc57600080fd5b5061036c611149565b3480156105d157600080fd5b506105e6600160a060020a0360043516611155565b60408051600160a060020a038089168252871660208083019190915263ffffffff80871660608401528516608083015260a0820184905260c0928201838152875193830193909352865191929160e084019188019080838360005b83811015610659578181015183820152602001610641565b50505050905090810190601f1680156106865780820380516001836020036101000a031916815260200191505b5097505050505050505060405180910390f35b3480156106a557600080fd5b5061039a6112f4565b3480156106ba57600080fd5b5061039a61134f565b3480156106cf57600080fd5b5061043c600160a060020a03600435166113aa565b3480156106f057600080fd5b5061039a6113cd565b34801561070557600080fd5b50604080516020600460443581810135601f81018490048402850184019095528484526102b6948235600160a060020a03908116956024803590921695369594606494929301919081908401838280828437509497506114289650505050505050565b60095468010000000000000000900460ff1681565b60006107876117ae565b82600160a060020a038116151561079d57600080fd5b600160a060020a0381163014156107b357600080fd5b600160a060020a038481166000908152600a6020908152604091829020825160a08101845281549094168452600180820180548551600261010094831615949094026000190190911692909204601f810185900485028301850190955284825291938584019391929183018282801561086d5780601f106108425761010080835404028352916020019161086d565b820191906000526020600020905b81548152906001019060200180831161085057829003601f168201915b505050918352505060028281015463ffffffff8082166020850152640100000000820416604084015260609092019168010000000000000000900460ff16908111156108b557fe5b60028111156108c057fe5b905250604081015190925063ffffffff1615156108dc57600080fd5b505192915050565b6000806000606060006108f56117db565b86600160a060020a038116151561090b57600080fd5b600160a060020a03811630141561092157600080fd5b61092a88610acb565b151561093557600080fd5b600160a060020a0388166000908152600b6020908152604091829020825160808101845281548152600180830154828501526002808401805487519381161561010002600019011691909104601f810186900486028301860187528083529295939493860193919290918301828280156109f05780601f106109c5576101008083540402835291602001916109f0565b820191906000526020600020905b8154815290600101906020018083116109d357829003601f168201915b50505091835250506003919091015463ffffffff1660209182015281519082015160408301516060909301519a9b919a9099509197509095509350505050565b60008054600160a060020a03163314610a4857600080fd5b600260095468010000000000000000900460ff166002811115610a6757fe5b1415610a7257600080fd5b600954640100000000900463ffffffff1615610a8d57600080fd5b506009805468ff00000000000000001916680200000000000000001767ffffffff0000000019166401000000004263ffffffff160217905560015b90565b600081600160a060020a0381161515610ae357600080fd5b600160a060020a038116301415610af957600080fd5b5050600160a060020a03166000908152600b602052604090206003015463ffffffff16151590565b60008054600160a060020a03163314610b3957600080fd5b84600160a060020a0381161515610b4f57600080fd5b600160a060020a038116301415610b6557600080fd5b600260095468010000000000000000900460ff166002811115610b8457fe5b1415610b8f57600080fd5b600954640100000000900463ffffffff1615610baa57600080fd5b6064851115610bb857600080fd5b610bc186610acb565b15610bcb57600080fd5b60408051608081018252868152602080820187815282840187815263ffffffff42166060850152600160a060020a038b166000908152600b845294909420835181559051600182015592518051929392610c2b926002850192019061180a565b50606091909101516003909101805463ffffffff191663ffffffff909216919091179055600d8054600181810183556000929092527fd7b6990105719101dabeb77144f2a3385c8033acd3af97e9423a695e81ad1eb501805473ffffffffffffffffffffffffffffffffffffffff1916600160a060020a0389161790556009805468ff000000000000000019166801000000000000000083021790555060019695505050505050565b600954640100000000900463ffffffff1681565b6008805460408051602060026001851615610100026000190190941693909304601f81018490048402820184019092528181529291830182828015610d6e5780601f10610d4357610100808354040283529160200191610d6e565b820191906000526020600020905b815481529060010190602001808311610d5157829003601f168201915b505050505081565b600d805482908110610d8457fe5b600091825260209091200154600160a060020a0316905081565b600054600160a060020a03163314610db557600080fd5b60008054604051600160a060020a03909116917ff8df31144d9c2f0f6b59d69b8b98abd5459d07f2742c4df920b25aae33c6482091a26000805473ffffffffffffffffffffffffffffffffffffffff19169055565b600154600160a060020a031681565b600054600160a060020a031681565b60008054600160a060020a03163314610e4057600080fd5b82600160a060020a0381161515610e5657600080fd5b600160a060020a038116301415610e6c57600080fd5b600260095468010000000000000000900460ff166002811115610e8b57fe5b1415610e9657600080fd5b600954640100000000900463ffffffff1615610eb157600080fd5b610eba846110df565b1515610ec557600080fd5b6000600160a060020a0385166000908152600a6020526040902060029081015468010000000000000000900460ff1690811115610efe57fe5b14610f0857600080fd5b82610f14576001610f17565b60025b600160a060020a0385166000908152600a6020526040902060029081018054909168ff0000000000000000199091169068010000000000000000908490811115610f5d57fe5b0217905550505050600160a060020a03166000908152600a60205260409020600201805467ffffffff0000000019166401000000004263ffffffff1602179055600190565b600a602090815260009182526040918290208054600180830180548651600261010094831615949094026000190190911692909204601f8101869004860283018601909652858252600160a060020a0390921694929390929083018282801561104c5780601f106110215761010080835404028352916020019161104c565b820191906000526020600020905b81548152906001019060200180831161102f57829003601f168201915b5050506002909301549192505063ffffffff8082169164010000000081049091169060ff680100000000000000009091041685565b60045481565b6002805460408051602060018416156101000260001901909316849004601f81018490048402820184019092528181529291830182828015610d6e5780601f10610d4357610100808354040283529160200191610d6e565b600081600160a060020a03811615156110f757600080fd5b600160a060020a03811630141561110d57600080fd5b5050600160a060020a03166000908152600a602052604090206002015463ffffffff16151590565b60055481565b600c805482908110610d8457fe5b60095463ffffffff1681565b600080606060008060006111676117ae565b87600160a060020a038116151561117d57600080fd5b600160a060020a03811630141561119357600080fd5b600160a060020a038981166000908152600a6020908152604091829020825160a08101845281549094168452600180820180548551600261010094831615949094026000190190911692909204601f810185900485028301850190955284825291938584019391929183018282801561124d5780601f106112225761010080835404028352916020019161124d565b820191906000526020600020905b81548152906001019060200180831161123057829003601f168201915b505050918352505060028281015463ffffffff8082166020850152640100000000820416604084015260609092019168010000000000000000900460ff169081111561129557fe5b60028111156112a057fe5b905250604081015190925063ffffffff1615156112bc57600080fd5b8882600001518360200151846040015185606001516112de876080015161167e565b949e939d50919b50995097509095509350505050565b6007805460408051602060026001851615610100026000190190941693909304601f81018490048402820184019092528181529291830182828015610d6e5780601f10610d4357610100808354040283529160200191610d6e565b6003805460408051602060026001851615610100026000190190941693909304601f81018490048402820184019092528181529291830182828015610d6e5780601f10610d4357610100808354040283529160200191610d6e565b600054600160a060020a031633146113c157600080fd5b6113ca81611731565b50565b6006805460408051602060026001851615610100026000190190941693909304601f81018490048402820184019092528181529291830182828015610d6e5780601f10610d4357610100808354040283529160200191610d6e565b60008054600160a060020a0316331461144057600080fd5b83600160a060020a038116151561145657600080fd5b600160a060020a03811630141561146c57600080fd5b83600160a060020a038116151561148257600080fd5b600160a060020a03811630141561149857600080fd5b600160095468010000000000000000900460ff1660028111156114b757fe5b146114c157600080fd5b600954640100000000900463ffffffff16156114dc57600080fd5b6114e5866110df565b156114ef57600080fd5b6114f885610acb565b151561150357600080fd5b60a06040519081016040528086600160a060020a031681526020018581526020014263ffffffff168152602001600063ffffffff1681526020016000600281111561154a57fe5b9052600160a060020a038781166000908152600a602090815260409091208351815473ffffffffffffffffffffffffffffffffffffffff191693169290921782558281015180516115a1926001850192019061180a565b50604082015160028083018054606086015163ffffffff9081166401000000000267ffffffff00000000199190951663ffffffff199092169190911716929092178083556080850151929168ff000000000000000019909116906801000000000000000090849081111561161157fe5b021790555050600c8054600181810183556000929092527fdf6966c971051c3d54ec59162606531493a51404a002842f56009d7e5cf4a8c7018054600160a060020a038a1673ffffffffffffffffffffffffffffffffffffffff1990911617905593505050509392505050565b60008082600281111561168d57fe5b14156116ba57507f44617461526573706f6e7365416464656400000000000000000000000000000061172c565b60018260028111156116c857fe5b14156116f557507f526566756e646564546f4275796572000000000000000000000000000000000061172c565b600282600281111561170357fe5b141561015357507f5472616e73616374696f6e436f6d706c657465640000000000000000000000005b919050565b600160a060020a038116151561174657600080fd5b60008054604051600160a060020a03808516939216917f8be0079c531659141344cd1fd0a4f28419497f9722a3daafe3b4186f6b6457e091a36000805473ffffffffffffffffffffffffffffffffffffffff1916600160a060020a0392909216919091179055565b6040805160a081018252600080825260606020830181905292820181905291810182905290608082015290565b608060405190810160405280600081526020016000815260200160608152602001600063ffffffff1681525090565b828054600181600116156101000203166002900490600052602060002090601f016020900481019282601f1061184b57805160ff1916838001178555611878565b82800160010185558215611878579182015b8281111561187857825182559160200191906001019061185d565b50611884929150611888565b5090565b610ac891905b80821115611884576000815560010161188e5600a165627a7a72305820fa7a1947c26318780b22134a524bd4d2dfb54459d23805a1f5e547bf63cf49340029a165627a7a723058200283d933bf6cbadbf965e544b2771fa231bc6bbba7fe383724761b34efe58d730029",
  "source": "pragma solidity ^0.4.24;\n\nimport \"zeppelin-solidity/contracts/lifecycle/TokenDestructible.sol\";\nimport \"zeppelin-solidity/contracts/lifecycle/Pausable.sol\";\nimport \"zeppelin-solidity/contracts/math/Math.sol\";\nimport \"zeppelin-solidity/contracts/math/SafeMath.sol\";\n\nimport \"./DataOrder.sol\";\nimport \"./Wibcoin.sol\";\nimport \"./lib/MultiMap.sol\";\nimport \"./lib/CryptoUtils.sol\";\n\n\n/**\n * @title DataExchange\n * @author Wibson Development Team <developers@wibson.org>\n * @dev `DataExchange` is the core contract of the Wibson Protocol.\n *      This allows the creation, management, and tracking of `DataOrder`s.\n *      Also, such has some helper methods to access the data needed by the different\n *      parties involved in the Protocol.\n */\ncontract DataExchange is TokenDestructible, Pausable {\n  using SafeMath for uint256;\n  using MultiMap for MultiMap.MapStorage;\n\n  event NotaryRegistered(address indexed notary);\n  event NotaryUpdated(address indexed notary);\n  event NotaryUnregistered(address indexed notary);\n\n  event NewOrder(address indexed orderAddr);\n  event NotaryAdded(address indexed orderAddr, address indexed notary);\n  event DataAdded(address indexed orderAddr, address indexed seller);\n  event TransactionCompleted(address indexed orderAddr, address indexed seller);\n  event OrderClosed(address indexed orderAddr);\n\n  struct NotaryInfo {\n    address addr;\n    string name;\n    string notaryUrl;\n    string publicKey;\n  }\n\n  MultiMap.MapStorage openOrders;\n  MultiMap.MapStorage validNotaries;\n  MultiMap.MapStorage allowedNotaries;\n\n  mapping(address => address[]) public ordersBySeller;\n  mapping(address => address[]) public ordersByNotary;\n  mapping(address => address[]) public ordersByBuyer;\n  mapping(address => NotaryInfo) internal notaryInfo;\n  // Tracks the orders created by this contract.\n  mapping(address => bool) private orders;\n\n  // @dev buyerBalance Keeps track of the buyer's balance per order-seller.\n  // TODO: Is there a better way to do this?\n  mapping(\n    address => mapping(address => mapping(address => uint256))\n  ) public buyerBalance;\n\n  // @dev buyerRemainingBudgetForAudits Keeps track of the buyer's remaining\n  // budget from the initial one set on the `DataOrder`\n  mapping(address => mapping(address => uint256)) public buyerRemainingBudgetForAudits;\n\n  modifier validAddress(address addr) {\n    require(addr != address(0));\n    require(addr != address(this));\n    _;\n  }\n\n  modifier isOrderLegit(address order) {\n    require(orders[order]);\n    _;\n  }\n\n  // @dev token A Wibcoin implementation of an ERC20 standard token.\n  Wibcoin token;\n\n  // @dev The minimum for initial budget for audits per `DataOrder`.\n  uint256 public minimumInitialBudgetForAudits;\n\n  /**\n   * @dev Contract constructor.\n   * @param tokenAddress Address of the Wibcoin token address (ERC20).\n   * @param ownerAddress Address of the DataExchange owner.\n   */\n  constructor(\n    address tokenAddress,\n    address ownerAddress\n  ) public validAddress(tokenAddress) validAddress(ownerAddress) {\n    require(tokenAddress != ownerAddress);\n\n    token = Wibcoin(tokenAddress);\n    minimumInitialBudgetForAudits = 0;\n    transferOwnership(ownerAddress);\n  }\n\n  /**\n   * @dev Registers a new notary or replaces an already existing one.\n   * @notice At least one notary is needed to enable `DataExchange` operation.\n   * @param notary Address of a Notary to add.\n   * @param name Name Of the Notary.\n   * @param notaryUrl Public URL of the notary where the data must be sent.\n   * @param publicKey PublicKey used by the Notary.\n   * @return Whether the notary was successfully registered or not.\n   */\n  function registerNotary(\n    address notary,\n    string name,\n    string notaryUrl,\n    string publicKey\n  ) public onlyOwner whenNotPaused validAddress(notary) returns (bool) {\n    bool isNew = notaryInfo[notary].addr == address(0);\n\n    require(allowedNotaries.insert(notary));\n    notaryInfo[notary] = NotaryInfo(\n      notary,\n      name,\n      notaryUrl,\n      publicKey\n    );\n\n    if (isNew) {\n      emit NotaryRegistered(notary);\n    } else {\n      emit NotaryUpdated(notary);\n    }\n    return true;\n  }\n\n  /**\n   * @dev Unregisters an existing notary.\n   * @notice At least one notary is needed to enable `DataExchange` operation.\n   * @param notary Address of a Notary to unregister.\n   * @return Whether the notary was successfully unregistered. False if not\n   * existed.\n   */\n  function unregisterNotary(\n    address notary\n  ) public onlyOwner whenNotPaused validAddress(notary) returns (bool) {\n    require(allowedNotaries.remove(notary));\n\n    emit NotaryUnregistered(notary);\n    return true;\n  }\n\n  /**\n   * @dev Sets the minimum initial budget for audits to be placed by a buyer\n   * on `DataOrder` creation.\n   * @notice The initial budget for audit is used as a preventive method to reduce\n   * spam `DataOrders` in the network.\n   * @param _minimumInitialBudgetForAudits The new minimum for initial budget for\n   * audits per `DataOrder`.\n   * @return Whether the new value was successfully modified or not.\n   */\n  function setMinimumInitialBudgetForAudits(\n    uint256 _minimumInitialBudgetForAudits\n  ) public onlyOwner returns (bool) {\n    minimumInitialBudgetForAudits = _minimumInitialBudgetForAudits;\n    return true;\n  }\n\n  /**\n   * @dev Creates a New Order.\n   * @notice The `msg.sender` will become the buyer of the order.\n   * @param filters Target audience of the order.\n   * @param dataRequest Requested data type (Geolocation, Facebook, etc).\n   * @param price Price per added Data Response.\n   * @param initialBudgetForAudits The initial budget set for future audits.\n   * @param termsAndConditions Buyer's terms and conditions for the order.\n   * @param buyerURL Public URL of the buyer where the data must be sent.\n   * @param publicKey Public Key of the buyer, which will be used to encrypt the\n   *        data to be sent.\n   * @return The address of the newly created order.\n   */\n  function newOrder(\n    string filters,\n    string dataRequest,\n    uint256 price,\n    uint256 initialBudgetForAudits,\n    string termsAndConditions,\n    string buyerURL,\n    string publicKey\n  ) public whenNotPaused returns (address) {\n    require(initialBudgetForAudits >= minimumInitialBudgetForAudits);\n    require(token.allowance(msg.sender, this) >= initialBudgetForAudits);\n\n    address newOrderAddr = new DataOrder(\n      msg.sender,\n      filters,\n      dataRequest,\n      price,\n      initialBudgetForAudits,\n      termsAndConditions,\n      buyerURL,\n      publicKey\n    );\n\n    token.transferFrom(msg.sender, this, initialBudgetForAudits);\n    buyerRemainingBudgetForAudits[msg.sender][newOrderAddr] = initialBudgetForAudits;\n\n    ordersByBuyer[msg.sender].push(newOrderAddr);\n    orders[newOrderAddr] = true;\n\n    emit NewOrder(newOrderAddr);\n    return newOrderAddr;\n  }\n\n  /**\n   * @dev The buyer adds a notary to the Data Order with the percentage of\n   * responses to audit, the notarization fee and the notary's signature\n   * over these arguments.\n   * @notice The `msg.sender` must be the buyer.\n   * @param orderAddr Order Address to accept notarize.\n   * @param notary Notary's address.\n   * @param responsesPercentage Percentage of `DataResponses` to audit per\n   * `DataOrder`. Value must be between 0 and 100.\n   * @param notarizationFee Fee to be charged per validation done.\n   * @param notarizationTermsOfService Notary's terms and conditions for the order.\n   * @param notarySignature Notary's signature over the other arguments.\n   * @return Whether the Notary was added successfully or not.\n   */\n  function addNotaryToOrder(\n    address orderAddr,\n    address notary,\n    uint256 responsesPercentage,\n    uint256 notarizationFee,\n    string notarizationTermsOfService,\n    bytes notarySignature\n  ) public whenNotPaused isOrderLegit(orderAddr) validAddress(notary) returns (bool) {\n    DataOrder order = DataOrder(orderAddr);\n    address buyer = order.buyer();\n    require(msg.sender == buyer);\n\n    require(!order.hasNotaryBeenAdded(notary));\n    require(allowedNotaries.exist(notary));\n\n    require(\n      CryptoUtils.isNotaryAdditionValid(\n        orderAddr,\n        notary,\n        responsesPercentage,\n        notarizationFee,\n        notarizationTermsOfService,\n        notarySignature\n      )\n    );\n\n    bool okay = order.addNotary(\n      notary,\n      responsesPercentage,\n      notarizationFee,\n      notarizationTermsOfService\n    );\n\n    if (okay) {\n      openOrders.insert(orderAddr);\n      ordersByNotary[notary].push(orderAddr);\n      emit NotaryAdded(order, notary);\n    }\n    return okay;\n  }\n\n  /**\n   * @dev Adds a new DataResponse to the given order.\n   * @notice 1. The `msg.sender` must be the buyer of the order.\n   *         2. The buyer must allow the `DataExchange` to withdraw the price of\n   *            the order.\n   * @param orderAddr Order address where the DataResponse must be added.\n   * @param seller Address of the Seller.\n   * @param notary Notary address that the Seller chose to use as notarizer,\n   *        this must be one within the allowed notaries and within the\n   *        `DataOrder`'s notaries.\n   * @param dataHash Hash of the data that must be sent, this is a SHA256.\n   * @param signature Signature of DataResponse.\n   * @return Whether the DataResponse was set successfully or not.\n   */\n  function addDataResponseToOrder(\n    address orderAddr,\n    address seller,\n    address notary,\n    string dataHash,\n    bytes signature\n  ) public whenNotPaused isOrderLegit(orderAddr) returns (bool) {\n    DataOrder order = DataOrder(orderAddr);\n    address buyer = order.buyer();\n    require(msg.sender == buyer);\n    allDistinct(\n      [\n        orderAddr,\n        buyer,\n        seller,\n        notary,\n        address(this)\n      ]\n    );\n    require(order.hasNotaryBeenAdded(notary));\n\n    require(\n      CryptoUtils.isDataResponseValid(\n        orderAddr,\n        seller,\n        notary,\n        dataHash,\n        signature\n      )\n    );\n\n    bool okay = order.addDataResponse(\n      seller,\n      notary,\n      dataHash\n    );\n    require(okay);\n\n    chargeBuyer(order, seller);\n\n    ordersBySeller[seller].push(orderAddr);\n    emit DataAdded(order, seller);\n    return true;\n  }\n\n  /**\n   * @dev Closes a DataResponse (aka close transaction). Once the buyer receives\n   *      the seller's data and checks that it is valid or not, he must close\n   *      the DataResponse signaling the result.\n   * @notice 1. This method requires an offline signature from the notary set in\n   *         the DataResponse, which will indicate the audit result or if\n   *         the data was not audited at all.\n   *           - If the notary did not audit the data or it verifies that it was\n   *             valid, funds will be sent to the Seller.\n   *           - If the notary signals the data as invalid, funds will be\n   *             handed back to the Buyer.\n   *           - Otherwise, funds will be locked at the `DataExchange` contract\n   *             until the issue is solved.\n   *         2. This also works as a pause mechanism in case the system is\n   *         working under abnormal scenarios while allowing the parties to keep\n   *         exchanging information without losing their funds until the system\n   *         is back up.\n   *         3. The `msg.sender` must be the buyer or the notary in case the\n   *         former does not show up. Only through the notary's signature it is\n   *         decided who must receive the funds.\n   * @param orderAddr Order address where the DataResponse belongs to.\n   * @param seller Seller address.\n   * @param wasAudited Indicates whether the data was audited or not.\n   * @param isDataValid Indicates the result of the audit, if happened.\n   * @param notarySignature Off-chain Notary signature\n   * @return Whether the DataResponse was successfully closed or not.\n   */\n  function closeDataResponse(\n    address orderAddr,\n    address seller,\n    bool wasAudited,\n    bool isDataValid,\n    bytes notarySignature\n  ) public whenNotPaused isOrderLegit(orderAddr) returns (bool) {\n    DataOrder order = DataOrder(orderAddr);\n    address buyer = order.buyer();\n    require(order.hasSellerBeenAccepted(seller));\n\n    address notary = order.getNotaryForSeller(seller);\n    require(msg.sender == buyer || msg.sender == notary);\n    require(\n      CryptoUtils.isNotaryVeredictValid(\n        orderAddr,\n        seller,\n        notary,\n        wasAudited,\n        isDataValid,\n        notarySignature\n      )\n    );\n    bool transactionCompleted = !wasAudited || isDataValid;\n    require(order.closeDataResponse(seller, transactionCompleted));\n    payPlayers(\n      order,\n      buyer,\n      seller,\n      notary,\n      wasAudited,\n      isDataValid\n    );\n\n    emit TransactionCompleted(order, seller);\n    return true;\n  }\n\n  /**\n   * @dev Closes the Data order.\n   * @notice Onces the data is closed it will no longer accepts new\n   *         DataResponse anymore.\n   *         The `msg.sender` must be the buyer of the order or the owner of the\n   *         contract in a emergency case.\n   * @param orderAddr Order address to close.\n   * @return Whether the DataOrder was successfully closed or not.\n   */\n  function closeOrder(\n    address orderAddr\n  ) public whenNotPaused isOrderLegit(orderAddr) returns (bool) {\n    require(openOrders.exist(orderAddr));\n    DataOrder order = DataOrder(orderAddr);\n    address buyer = order.buyer();\n    require(msg.sender == buyer || msg.sender == owner);\n\n    bool okay = order.close();\n    if (okay) {\n      // remaining budget for audits go back to buyer.\n      uint256 remainingBudget = buyerRemainingBudgetForAudits[buyer][order];\n      buyerRemainingBudgetForAudits[buyer][order] = 0;\n      require(token.transfer(buyer, remainingBudget));\n\n      openOrders.remove(orderAddr);\n      emit OrderClosed(orderAddr);\n    }\n\n    return okay;\n  }\n\n  /**\n   * @dev Gets all the data orders associated with a notary.\n   * @param notary Notary address to get orders for.\n   * @return A list of `DataOrder` addresses.\n   */\n  function getOrdersForNotary(\n    address notary\n  ) public view validAddress(notary) returns (address[]) {\n    return ordersByNotary[notary];\n  }\n\n  /**\n   * @dev Gets all the data orders associated with a seller.\n   * @param seller Seller address to get orders for.\n   * @return A list of `DataOrder` addresses.\n   */\n  function getOrdersForSeller(\n    address seller\n  ) public view validAddress(seller) returns (address[]) {\n    return ordersBySeller[seller];\n  }\n\n  /**\n   * @dev Gets all the data orders associated with a buyer.\n   * @param buyer Buyer address to get orders for.\n   * @return A list of `DataOrder` addresses.\n   */\n  function getOrdersForBuyer(\n    address buyer\n  ) public view validAddress(buyer) returns (address[]) {\n    return ordersByBuyer[buyer];\n  }\n\n  /**\n   * @dev Gets all the open data orders, that is all the `DataOrder`s that still\n   *      are receiving new `DataResponse`.\n   * @return A list of `DataOrder` addresses.\n   */\n  function getOpenOrders() public view returns (address[]) {\n    return openOrders.addresses;\n  }\n\n  /**\n   * @dev Gets the list of allowed notaries.\n   * @return List of notary addresses.\n   */\n  function getAllowedNotaries() public view returns (address[]) {\n    return allowedNotaries.addresses;\n  }\n\n  /**\n   * @dev Gets information about a give notary.\n   * @param notary Notary address to get info for.\n   * @return Notary information (address, name, notaryUrl, publicKey, isActive).\n   */\n  function getNotaryInfo(\n    address notary\n  ) public view validAddress(notary) returns (address, string, string, string, bool) {\n    NotaryInfo memory info = notaryInfo[notary];\n\n    return (\n      info.addr,\n      info.name,\n      info.notaryUrl,\n      info.publicKey,\n      allowedNotaries.exist(notary)\n    );\n  }\n\n  /**\n   * @dev Requires that five addresses are distinct between themselves and zero.\n   * @param addresses array of five addresses to explore.\n   */\n  function allDistinct(address[5] addresses) private pure {\n    for (uint i = 0; i < addresses.length; i = i.add(1)) {\n      require(addresses[i] != address(0));\n      for (uint j = i.add(1); j < addresses.length; j = j.add(1)) {\n        require(addresses[i] != addresses[j]);\n      }\n    }\n  }\n\n  /**\n   * @dev Charges a buyer the orderPrice and notary fee for a given `DataResponse`.\n   * @notice 1. Tokens are held in the DataExchange contract until players must\n   *            be paid.\n   *         2. This function follows a basic invoice flow:\n   *             base price\n   *           + extra fees\n   *             ---------\n   *             total charges\n   *           - pre paid charges\n   *             ---------\n   *             final charges\n   *\n   * @param order DataOrder to which the DataResponse applies.\n   * @param seller Address of the Seller.\n   */\n  function chargeBuyer(DataOrder order, address seller) private whenNotPaused {\n    address buyer = order.buyer();\n    address notary = order.getNotaryForSeller(seller);\n    uint256 remainingBudget = buyerRemainingBudgetForAudits[buyer][order];\n\n    uint256 orderPrice = order.price();\n    (,, uint256 notarizationFee,,) = order.getNotaryInfo(notary);\n    uint256 totalCharges = orderPrice.add(notarizationFee);\n\n    uint256 prePaid = Math.min256(notarizationFee, remainingBudget);\n    uint256 finalCharges = totalCharges.sub(prePaid);\n\n    buyerRemainingBudgetForAudits[buyer][order] = remainingBudget.sub(prePaid);\n    require(token.allowance(buyer, this) >= finalCharges);\n    require(token.transferFrom(buyer, this, finalCharges));\n\n    // Bookkeeping of the available tokens paid by the Buyer and now in control\n    // of the DataExchange takes into account the total charges (final + pre-paid)\n    buyerBalance[buyer][order][seller] = buyerBalance[buyer][order][seller].add(totalCharges);\n  }\n\n  /**\n   * @dev Pays the seller, notary and/or buyer according to the notary's veredict.\n   * @param order DataOrder to which the payments apply.\n   * @param buyer Address of the Buyer.\n   * @param seller Address of the Seller.\n   * @param notary Address of the Notary.\n   * @param wasAudited Indicates whether the data was audited or not.\n   * @param isDataValid Indicates the result of the audit, if happened.\n   */\n  function payPlayers(\n    DataOrder order,\n    address buyer,\n    address seller,\n    address notary,\n    bool wasAudited,\n    bool isDataValid\n  ) private whenNotPaused {\n    uint256 orderPrice = order.price();\n    (,, uint256 notarizationFee,,) = order.getNotaryInfo(notary);\n    uint256 totalCharges = orderPrice.add(notarizationFee);\n\n    require(buyerBalance[buyer][order][seller] >= totalCharges);\n    buyerBalance[buyer][order][seller] = buyerBalance[buyer][order][seller].sub(totalCharges);\n\n    // if no notarization was done, notarization fee tokens go back to buyer.\n    address notarizationFeeReceiver = wasAudited ? notary : buyer;\n\n    // if no notarization was done or data is invalid, order price tokens go back to buyer.\n    address orderPriceReceiver = !wasAudited || isDataValid ? seller : buyer;\n\n    require(token.transfer(notarizationFeeReceiver, notarizationFee));\n    require(token.transfer(orderPriceReceiver, orderPrice));\n  }\n\n}\n",
  "sourcePath": "/Users/danifernandez/workspace/wibson-core/contracts/DataExchange.sol",
  "compiler": {
    "name": "solc",
    "version": "0.4.24+commit.e67f0147.Emscripten.clang"
  },
  "schemaVersion": "2.0.0",
  "updatedAt": "2018-07-07T00:12:12.358Z"
}