{
  "contractName": "DataOrder",
  "abi": [
    {
      "constant": true,
      "inputs": [],
      "name": "orderStatus",
      "outputs": [
        {
          "name": "",
          "type": "uint8"
        }
      ],
      "payable": false,
      "stateMutability": "view",
      "type": "function"
    },
    {
      "constant": true,
      "inputs": [],
      "name": "transactionCompletedAt",
      "outputs": [
        {
          "name": "",
          "type": "uint32"
        }
      ],
      "payable": false,
      "stateMutability": "view",
      "type": "function"
    },
    {
      "constant": true,
      "inputs": [],
      "name": "publicKey",
      "outputs": [
        {
          "name": "",
          "type": "string"
        }
      ],
      "payable": false,
      "stateMutability": "view",
      "type": "function"
    },
    {
      "constant": true,
      "inputs": [
        {
          "name": "",
          "type": "uint256"
        }
      ],
      "name": "notaries",
      "outputs": [
        {
          "name": "",
          "type": "address"
        }
      ],
      "payable": false,
      "stateMutability": "view",
      "type": "function"
    },
    {
      "constant": false,
      "inputs": [],
      "name": "renounceOwnership",
      "outputs": [],
      "payable": false,
      "stateMutability": "nonpayable",
      "type": "function"
    },
    {
      "constant": true,
      "inputs": [],
      "name": "buyer",
      "outputs": [
        {
          "name": "",
          "type": "address"
        }
      ],
      "payable": false,
      "stateMutability": "view",
      "type": "function"
    },
    {
      "constant": true,
      "inputs": [],
      "name": "owner",
      "outputs": [
        {
          "name": "",
          "type": "address"
        }
      ],
      "payable": false,
      "stateMutability": "view",
      "type": "function"
    },
    {
      "constant": true,
      "inputs": [
        {
          "name": "",
          "type": "address"
        }
      ],
      "name": "sellerInfo",
      "outputs": [
        {
          "name": "notary",
          "type": "address"
        },
        {
          "name": "dataHash",
          "type": "string"
        },
        {
          "name": "createdAt",
          "type": "uint32"
        },
        {
          "name": "closedAt",
          "type": "uint32"
        },
        {
          "name": "status",
          "type": "uint8"
        }
      ],
      "payable": false,
      "stateMutability": "view",
      "type": "function"
    },
    {
      "constant": true,
      "inputs": [],
      "name": "price",
      "outputs": [
        {
          "name": "",
          "type": "uint256"
        }
      ],
      "payable": false,
      "stateMutability": "view",
      "type": "function"
    },
    {
      "constant": true,
      "inputs": [],
      "name": "filters",
      "outputs": [
        {
          "name": "",
          "type": "string"
        }
      ],
      "payable": false,
      "stateMutability": "view",
      "type": "function"
    },
    {
      "constant": true,
      "inputs": [],
      "name": "initialBudgetForAudits",
      "outputs": [
        {
          "name": "",
          "type": "uint256"
        }
      ],
      "payable": false,
      "stateMutability": "view",
      "type": "function"
    },
    {
      "constant": true,
      "inputs": [
        {
          "name": "",
          "type": "uint256"
        }
      ],
      "name": "sellers",
      "outputs": [
        {
          "name": "",
          "type": "address"
        }
      ],
      "payable": false,
      "stateMutability": "view",
      "type": "function"
    },
    {
      "constant": true,
      "inputs": [],
      "name": "createdAt",
      "outputs": [
        {
          "name": "",
          "type": "uint32"
        }
      ],
      "payable": false,
      "stateMutability": "view",
      "type": "function"
    },
    {
      "constant": true,
      "inputs": [],
      "name": "buyerURL",
      "outputs": [
        {
          "name": "",
          "type": "string"
        }
      ],
      "payable": false,
      "stateMutability": "view",
      "type": "function"
    },
    {
      "constant": true,
      "inputs": [],
      "name": "dataRequest",
      "outputs": [
        {
          "name": "",
          "type": "string"
        }
      ],
      "payable": false,
      "stateMutability": "view",
      "type": "function"
    },
    {
      "constant": false,
      "inputs": [
        {
          "name": "_newOwner",
          "type": "address"
        }
      ],
      "name": "transferOwnership",
      "outputs": [],
      "payable": false,
      "stateMutability": "nonpayable",
      "type": "function"
    },
    {
      "constant": true,
      "inputs": [],
      "name": "termsAndConditions",
      "outputs": [
        {
          "name": "",
          "type": "string"
        }
      ],
      "payable": false,
      "stateMutability": "view",
      "type": "function"
    },
    {
      "inputs": [
        {
          "name": "_buyer",
          "type": "address"
        },
        {
          "name": "_filters",
          "type": "string"
        },
        {
          "name": "_dataRequest",
          "type": "string"
        },
        {
          "name": "_price",
          "type": "uint256"
        },
        {
          "name": "_initialBudgetForAudits",
          "type": "uint256"
        },
        {
          "name": "_termsAndConditions",
          "type": "string"
        },
        {
          "name": "_buyerURL",
          "type": "string"
        },
        {
          "name": "_publicKey",
          "type": "string"
        }
      ],
      "payable": false,
      "stateMutability": "nonpayable",
      "type": "constructor"
    },
    {
      "anonymous": false,
      "inputs": [
        {
          "indexed": true,
          "name": "previousOwner",
          "type": "address"
        }
      ],
      "name": "OwnershipRenounced",
      "type": "event"
    },
    {
      "anonymous": false,
      "inputs": [
        {
          "indexed": true,
          "name": "previousOwner",
          "type": "address"
        },
        {
          "indexed": true,
          "name": "newOwner",
          "type": "address"
        }
      ],
      "name": "OwnershipTransferred",
      "type": "event"
    },
    {
      "constant": false,
      "inputs": [
        {
          "name": "notary",
          "type": "address"
        },
        {
          "name": "responsesPercentage",
          "type": "uint256"
        },
        {
          "name": "notarizationFee",
          "type": "uint256"
        },
        {
          "name": "notarizationTermsOfService",
          "type": "string"
        }
      ],
      "name": "addNotary",
      "outputs": [
        {
          "name": "",
          "type": "bool"
        }
      ],
      "payable": false,
      "stateMutability": "nonpayable",
      "type": "function"
    },
    {
      "constant": false,
      "inputs": [
        {
          "name": "seller",
          "type": "address"
        },
        {
          "name": "notary",
          "type": "address"
        },
        {
          "name": "dataHash",
          "type": "string"
        }
      ],
      "name": "addDataResponse",
      "outputs": [
        {
          "name": "",
          "type": "bool"
        }
      ],
      "payable": false,
      "stateMutability": "nonpayable",
      "type": "function"
    },
    {
      "constant": false,
      "inputs": [
        {
          "name": "seller",
          "type": "address"
        },
        {
          "name": "transactionCompleted",
          "type": "bool"
        }
      ],
      "name": "closeDataResponse",
      "outputs": [
        {
          "name": "",
          "type": "bool"
        }
      ],
      "payable": false,
      "stateMutability": "nonpayable",
      "type": "function"
    },
    {
      "constant": false,
      "inputs": [],
      "name": "close",
      "outputs": [
        {
          "name": "",
          "type": "bool"
        }
      ],
      "payable": false,
      "stateMutability": "nonpayable",
      "type": "function"
    },
    {
      "constant": true,
      "inputs": [
        {
          "name": "seller",
          "type": "address"
        }
      ],
      "name": "hasSellerBeenAccepted",
      "outputs": [
        {
          "name": "",
          "type": "bool"
        }
      ],
      "payable": false,
      "stateMutability": "view",
      "type": "function"
    },
    {
      "constant": true,
      "inputs": [
        {
          "name": "notary",
          "type": "address"
        }
      ],
      "name": "hasNotaryBeenAdded",
      "outputs": [
        {
          "name": "",
          "type": "bool"
        }
      ],
      "payable": false,
      "stateMutability": "view",
      "type": "function"
    },
    {
      "constant": true,
      "inputs": [
        {
          "name": "notary",
          "type": "address"
        }
      ],
      "name": "getNotaryInfo",
      "outputs": [
        {
          "name": "",
          "type": "address"
        },
        {
          "name": "",
          "type": "uint256"
        },
        {
          "name": "",
          "type": "uint256"
        },
        {
          "name": "",
          "type": "string"
        },
        {
          "name": "",
          "type": "uint32"
        }
      ],
      "payable": false,
      "stateMutability": "view",
      "type": "function"
    },
    {
      "constant": true,
      "inputs": [
        {
          "name": "seller",
          "type": "address"
        }
      ],
      "name": "getSellerInfo",
      "outputs": [
        {
          "name": "",
          "type": "address"
        },
        {
          "name": "",
          "type": "address"
        },
        {
          "name": "",
          "type": "string"
        },
        {
          "name": "",
          "type": "uint32"
        },
        {
          "name": "",
          "type": "uint32"
        },
        {
          "name": "",
          "type": "bytes32"
        }
      ],
      "payable": false,
      "stateMutability": "view",
      "type": "function"
    },
    {
      "constant": true,
      "inputs": [
        {
          "name": "seller",
          "type": "address"
        }
      ],
      "name": "getNotaryForSeller",
      "outputs": [
        {
          "name": "",
          "type": "address"
        }
      ],
      "payable": false,
      "stateMutability": "view",
      "type": "function"
    }
  ],
  "bytecode": "0x60806040523480156200001157600080fd5b5060405162001b0d38038062001b0d83398101604090815281516020830151918301516060840151608085015160a086015160c087015160e088015160008054600160a060020a03191633179055959796870196948501959394929391830192908101910187600160a060020a03811615156200008d57600080fd5b600160a060020a038116301415620000a457600080fd5b8251600010620000b357600080fd5b8151600010620000c257600080fd5b60018054600160a060020a031916600160a060020a038b161790558751620000f29060029060208b01906200018a565b508651620001089060039060208a01906200018a565b50600486905560058590558351620001289060069060208701906200018a565b5082516200013e9060079060208601906200018a565b508151620001549060089060208501906200018a565b50506009805468ff00000000ffffffff19164263ffffffff161767ffffffff0000000019169055506200022f9650505050505050565b828054600181600116156101000203166002900490600052602060002090601f016020900481019282601f10620001cd57805160ff1916838001178555620001fd565b82800160010185558215620001fd579182015b82811115620001fd578251825591602001919060010190620001e0565b506200020b9291506200020f565b5090565b6200022c91905b808211156200020b576000815560010162000216565b90565b6118ce806200023f6000396000f3006080604052600436106101535763ffffffff7c01000000000000000000000000000000000000000000000000000000006000350416632728e28b81146101585780634372df991461019157806343ca78a2146101ce57806343d726d6146102a157806343dcbc86146102ca57806350234173146102eb578063600f1f2b1461035757806363ffab31146103855780636d4b76d51461040f578063715018a6146104275780637150d8ae1461043e5780638da5cb5b1461045357806396661b041461046857806396e8150a1461048e578063a035b1fe14610526578063b1f4ff901461054d578063c081efc114610562578063c883e32014610583578063cee26ed514610598578063cf09e0d0146105b0578063cf317b7e146105c5578063d778ce3c14610699578063ec935940146106ae578063f2fde38b146106c3578063f678462f146106e4578063ffaef25e146106f9575b600080fd5b34801561016457600080fd5b5061016d610768565b6040518082600281111561017d57fe5b60ff16815260200191505060405180910390f35b34801561019d57600080fd5b506101b2600160a060020a036004351661077d565b60408051600160a060020a039092168252519081900360200190f35b3480156101da57600080fd5b506101ef600160a060020a03600435166108e4565b6040518086600160a060020a0316600160a060020a03168152602001858152602001848152602001806020018363ffffffff1663ffffffff168152602001828103825284818151815260200191508051906020019080838360005b8381101561026257818101518382015260200161024a565b50505050905090810190601f16801561028f5780820380516001836020036101000a031916815260200191505b50965050505050505060405180910390f35b3480156102ad57600080fd5b506102b6610a30565b604080519115158252519081900360200190f35b3480156102d657600080fd5b506102b6600160a060020a0360043516610acb565b3480156102f757600080fd5b50604080516020601f6064356004818101359283018490048402850184019095528184526102b694600160a060020a038135169460248035956044359536956084949301918190840183828082843750949750610b219650505050505050565b34801561036357600080fd5b5061036c610cd4565b6040805163ffffffff9092168252519081900360200190f35b34801561039157600080fd5b5061039a610ce8565b6040805160208082528351818301528351919283929083019185019080838360005b838110156103d45781810151838201526020016103bc565b50505050905090810190601f1680156104015780820380516001836020036101000a031916815260200191505b509250505060405180910390f35b34801561041b57600080fd5b506101b2600435610d76565b34801561043357600080fd5b5061043c610d9e565b005b34801561044a57600080fd5b506101b2610e0a565b34801561045f57600080fd5b506101b2610e19565b34801561047457600080fd5b506102b6600160a060020a03600435166024351515610e28565b34801561049a57600080fd5b506104af600160a060020a0360043516610fa2565b60408051600160a060020a038716815263ffffffff80861692820192909252908316606082015260208101608082018360028111156104ea57fe5b60ff168152602001828103825286818151815260200191508051906020019080838360008381101561026257818101518382015260200161024a565b34801561053257600080fd5b5061053b611081565b60408051918252519081900360200190f35b34801561055957600080fd5b5061039a611087565b34801561056e57600080fd5b506102b6600160a060020a03600435166110df565b34801561058f57600080fd5b5061053b611135565b3480156105a457600080fd5b506101b260043561113b565b3480156105bc57600080fd5b5061036c611149565b3480156105d157600080fd5b506105e6600160a060020a0360043516611155565b60408051600160a060020a038089168252871660208083019190915263ffffffff80871660608401528516608083015260a0820184905260c0928201838152875193830193909352865191929160e084019188019080838360005b83811015610659578181015183820152602001610641565b50505050905090810190601f1680156106865780820380516001836020036101000a031916815260200191505b5097505050505050505060405180910390f35b3480156106a557600080fd5b5061039a6112f4565b3480156106ba57600080fd5b5061039a61134f565b3480156106cf57600080fd5b5061043c600160a060020a03600435166113aa565b3480156106f057600080fd5b5061039a6113cd565b34801561070557600080fd5b50604080516020600460443581810135601f81018490048402850184019095528484526102b6948235600160a060020a03908116956024803590921695369594606494929301919081908401838280828437509497506114289650505050505050565b60095468010000000000000000900460ff1681565b60006107876117ae565b82600160a060020a038116151561079d57600080fd5b600160a060020a0381163014156107b357600080fd5b600160a060020a038481166000908152600a6020908152604091829020825160a08101845281549094168452600180820180548551600261010094831615949094026000190190911692909204601f810185900485028301850190955284825291938584019391929183018282801561086d5780601f106108425761010080835404028352916020019161086d565b820191906000526020600020905b81548152906001019060200180831161085057829003601f168201915b505050918352505060028281015463ffffffff8082166020850152640100000000820416604084015260609092019168010000000000000000900460ff16908111156108b557fe5b60028111156108c057fe5b905250604081015190925063ffffffff1615156108dc57600080fd5b505192915050565b6000806000606060006108f56117db565b86600160a060020a038116151561090b57600080fd5b600160a060020a03811630141561092157600080fd5b61092a88610acb565b151561093557600080fd5b600160a060020a0388166000908152600b6020908152604091829020825160808101845281548152600180830154828501526002808401805487519381161561010002600019011691909104601f810186900486028301860187528083529295939493860193919290918301828280156109f05780601f106109c5576101008083540402835291602001916109f0565b820191906000526020600020905b8154815290600101906020018083116109d357829003601f168201915b50505091835250506003919091015463ffffffff1660209182015281519082015160408301516060909301519a9b919a9099509197509095509350505050565b60008054600160a060020a03163314610a4857600080fd5b600260095468010000000000000000900460ff166002811115610a6757fe5b1415610a7257600080fd5b600954640100000000900463ffffffff1615610a8d57600080fd5b506009805468ff00000000000000001916680200000000000000001767ffffffff0000000019166401000000004263ffffffff160217905560015b90565b600081600160a060020a0381161515610ae357600080fd5b600160a060020a038116301415610af957600080fd5b5050600160a060020a03166000908152600b602052604090206003015463ffffffff16151590565b60008054600160a060020a03163314610b3957600080fd5b84600160a060020a0381161515610b4f57600080fd5b600160a060020a038116301415610b6557600080fd5b600260095468010000000000000000900460ff166002811115610b8457fe5b1415610b8f57600080fd5b600954640100000000900463ffffffff1615610baa57600080fd5b6064851115610bb857600080fd5b610bc186610acb565b15610bcb57600080fd5b60408051608081018252868152602080820187815282840187815263ffffffff42166060850152600160a060020a038b166000908152600b845294909420835181559051600182015592518051929392610c2b926002850192019061180a565b50606091909101516003909101805463ffffffff191663ffffffff909216919091179055600d8054600181810183556000929092527fd7b6990105719101dabeb77144f2a3385c8033acd3af97e9423a695e81ad1eb501805473ffffffffffffffffffffffffffffffffffffffff1916600160a060020a0389161790556009805468ff000000000000000019166801000000000000000083021790555060019695505050505050565b600954640100000000900463ffffffff1681565b6008805460408051602060026001851615610100026000190190941693909304601f81018490048402820184019092528181529291830182828015610d6e5780601f10610d4357610100808354040283529160200191610d6e565b820191906000526020600020905b815481529060010190602001808311610d5157829003601f168201915b505050505081565b600d805482908110610d8457fe5b600091825260209091200154600160a060020a0316905081565b600054600160a060020a03163314610db557600080fd5b60008054604051600160a060020a03909116917ff8df31144d9c2f0f6b59d69b8b98abd5459d07f2742c4df920b25aae33c6482091a26000805473ffffffffffffffffffffffffffffffffffffffff19169055565b600154600160a060020a031681565b600054600160a060020a031681565b60008054600160a060020a03163314610e4057600080fd5b82600160a060020a0381161515610e5657600080fd5b600160a060020a038116301415610e6c57600080fd5b600260095468010000000000000000900460ff166002811115610e8b57fe5b1415610e9657600080fd5b600954640100000000900463ffffffff1615610eb157600080fd5b610eba846110df565b1515610ec557600080fd5b6000600160a060020a0385166000908152600a6020526040902060029081015468010000000000000000900460ff1690811115610efe57fe5b14610f0857600080fd5b82610f14576001610f17565b60025b600160a060020a0385166000908152600a6020526040902060029081018054909168ff0000000000000000199091169068010000000000000000908490811115610f5d57fe5b0217905550505050600160a060020a03166000908152600a60205260409020600201805467ffffffff0000000019166401000000004263ffffffff1602179055600190565b600a602090815260009182526040918290208054600180830180548651600261010094831615949094026000190190911692909204601f8101869004860283018601909652858252600160a060020a0390921694929390929083018282801561104c5780601f106110215761010080835404028352916020019161104c565b820191906000526020600020905b81548152906001019060200180831161102f57829003601f168201915b5050506002909301549192505063ffffffff8082169164010000000081049091169060ff680100000000000000009091041685565b60045481565b6002805460408051602060018416156101000260001901909316849004601f81018490048402820184019092528181529291830182828015610d6e5780601f10610d4357610100808354040283529160200191610d6e565b600081600160a060020a03811615156110f757600080fd5b600160a060020a03811630141561110d57600080fd5b5050600160a060020a03166000908152600a602052604090206002015463ffffffff16151590565b60055481565b600c805482908110610d8457fe5b60095463ffffffff1681565b600080606060008060006111676117ae565b87600160a060020a038116151561117d57600080fd5b600160a060020a03811630141561119357600080fd5b600160a060020a038981166000908152600a6020908152604091829020825160a08101845281549094168452600180820180548551600261010094831615949094026000190190911692909204601f810185900485028301850190955284825291938584019391929183018282801561124d5780601f106112225761010080835404028352916020019161124d565b820191906000526020600020905b81548152906001019060200180831161123057829003601f168201915b505050918352505060028281015463ffffffff8082166020850152640100000000820416604084015260609092019168010000000000000000900460ff169081111561129557fe5b60028111156112a057fe5b905250604081015190925063ffffffff1615156112bc57600080fd5b8882600001518360200151846040015185606001516112de876080015161167e565b949e939d50919b50995097509095509350505050565b6007805460408051602060026001851615610100026000190190941693909304601f81018490048402820184019092528181529291830182828015610d6e5780601f10610d4357610100808354040283529160200191610d6e565b6003805460408051602060026001851615610100026000190190941693909304601f81018490048402820184019092528181529291830182828015610d6e5780601f10610d4357610100808354040283529160200191610d6e565b600054600160a060020a031633146113c157600080fd5b6113ca81611731565b50565b6006805460408051602060026001851615610100026000190190941693909304601f81018490048402820184019092528181529291830182828015610d6e5780601f10610d4357610100808354040283529160200191610d6e565b60008054600160a060020a0316331461144057600080fd5b83600160a060020a038116151561145657600080fd5b600160a060020a03811630141561146c57600080fd5b83600160a060020a038116151561148257600080fd5b600160a060020a03811630141561149857600080fd5b600160095468010000000000000000900460ff1660028111156114b757fe5b146114c157600080fd5b600954640100000000900463ffffffff16156114dc57600080fd5b6114e5866110df565b156114ef57600080fd5b6114f885610acb565b151561150357600080fd5b60a06040519081016040528086600160a060020a031681526020018581526020014263ffffffff168152602001600063ffffffff1681526020016000600281111561154a57fe5b9052600160a060020a038781166000908152600a602090815260409091208351815473ffffffffffffffffffffffffffffffffffffffff191693169290921782558281015180516115a1926001850192019061180a565b50604082015160028083018054606086015163ffffffff9081166401000000000267ffffffff00000000199190951663ffffffff199092169190911716929092178083556080850151929168ff000000000000000019909116906801000000000000000090849081111561161157fe5b021790555050600c8054600181810183556000929092527fdf6966c971051c3d54ec59162606531493a51404a002842f56009d7e5cf4a8c7018054600160a060020a038a1673ffffffffffffffffffffffffffffffffffffffff1990911617905593505050509392505050565b60008082600281111561168d57fe5b14156116ba57507f44617461526573706f6e7365416464656400000000000000000000000000000061172c565b60018260028111156116c857fe5b14156116f557507f526566756e646564546f4275796572000000000000000000000000000000000061172c565b600282600281111561170357fe5b141561015357507f5472616e73616374696f6e436f6d706c657465640000000000000000000000005b919050565b600160a060020a038116151561174657600080fd5b60008054604051600160a060020a03808516939216917f8be0079c531659141344cd1fd0a4f28419497f9722a3daafe3b4186f6b6457e091a36000805473ffffffffffffffffffffffffffffffffffffffff1916600160a060020a0392909216919091179055565b6040805160a081018252600080825260606020830181905292820181905291810182905290608082015290565b608060405190810160405280600081526020016000815260200160608152602001600063ffffffff1681525090565b828054600181600116156101000203166002900490600052602060002090601f016020900481019282601f1061184b57805160ff1916838001178555611878565b82800160010185558215611878579182015b8281111561187857825182559160200191906001019061185d565b50611884929150611888565b5090565b610ac891905b80821115611884576000815560010161188e5600a165627a7a72305820fa7a1947c26318780b22134a524bd4d2dfb54459d23805a1f5e547bf63cf49340029",
  "source": "pragma solidity ^0.4.24;\n\nimport \"zeppelin-solidity/contracts/ownership/Ownable.sol\";\n\n\n/**\n * @title DataOrder\n * @author Wibson Development Team <developers@wibson.org>\n * @dev `DataOrder` is the contract between a given buyer and a set of sellers.\n *      This holds the information about the \"deal\" between them and how the\n *      transaction has evolved.\n */\ncontract DataOrder is Ownable {\n  modifier validAddress(address addr) {\n    require(addr != address(0));\n    require(addr != address(this));\n    _;\n  }\n\n  enum OrderStatus {\n    OrderCreated,\n    NotaryAdded,\n    TransactionCompleted\n  }\n\n  enum DataResponseStatus {\n    DataResponseAdded,\n    RefundedToBuyer,\n    TransactionCompleted\n  }\n\n  // --- Notary Information ---\n  struct NotaryInfo {\n    uint256 responsesPercentage;\n    uint256 notarizationFee;\n    string notarizationTermsOfService;\n    uint32 addedAt;\n  }\n\n  // --- Seller Information ---\n  struct SellerInfo {\n    address notary;\n    string dataHash;\n    uint32 createdAt;\n    uint32 closedAt;\n    DataResponseStatus status;\n  }\n\n  address public buyer;\n  string public filters;\n  string public dataRequest;\n  uint256 public price;\n  uint256 public initialBudgetForAudits;\n  string public termsAndConditions;\n  string public buyerURL;\n  string public publicKey;\n  uint32 public createdAt;\n  uint32 public transactionCompletedAt;\n  OrderStatus public orderStatus;\n\n  mapping(address => SellerInfo) public sellerInfo;\n  mapping(address => NotaryInfo) internal notaryInfo;\n\n  address[] public sellers;\n  address[] public notaries;\n\n  /**\n   * @dev Contract's constructor.\n   * @param _buyer Buyer address\n   * @param _filters Target audience of the order.\n   * @param _dataRequest Requested data type (Geolocation, Facebook, etc).\n   * @param _price Price per added Data Response.\n   * @param _initialBudgetForAudits The initial budget set for future audits.\n   * @param _termsAndConditions Copy of the terms and conditions for the order.\n   * @param _buyerURL Public URL of the buyer where the data must be sent.\n   * @param _publicKey Public Key of the buyer, which will be used to encrypt the\n   *        data to be sent.\n   * @return The address of the newly created order.\n   */\n  constructor(\n    address _buyer,\n    string _filters,\n    string _dataRequest,\n    uint256 _price,\n    uint256 _initialBudgetForAudits,\n    string _termsAndConditions,\n    string _buyerURL,\n    string _publicKey\n  ) public validAddress(_buyer) {\n    require(bytes(_buyerURL).length > 0);\n    require(bytes(_publicKey).length > 0);\n\n    buyer = _buyer;\n    filters = _filters;\n    dataRequest = _dataRequest;\n    price = _price;\n    initialBudgetForAudits = _initialBudgetForAudits;\n    termsAndConditions = _termsAndConditions;\n    buyerURL = _buyerURL;\n    publicKey = _publicKey;\n    orderStatus = OrderStatus.OrderCreated;\n    createdAt = uint32(block.timestamp);\n    transactionCompletedAt = 0;\n  }\n\n  /**\n   * @dev The buyer adds a notary to the Data Order with the percentage of\n   * responses to audit and the notarization fee.\n   * @param notary Notary's address.\n   * @param responsesPercentage Percentage of `DataResponses` to audit per\n   * `DataOrder`. Value must be between 0 and 100.\n   * @param notarizationFee Fee to be charged per validation done.\n   * @param notarizationTermsOfService Notary's terms and conditions for the order.\n   * @return Whether the Notary was added successfully or not.\n   */\n  function addNotary(\n    address notary,\n    uint256 responsesPercentage,\n    uint256 notarizationFee,\n    string notarizationTermsOfService\n  ) public onlyOwner validAddress(notary) returns (bool) {\n    require(orderStatus != OrderStatus.TransactionCompleted);\n    require(transactionCompletedAt == 0);\n    require(responsesPercentage <= 100);\n    require(!hasNotaryBeenAdded(notary));\n\n    notaryInfo[notary] = NotaryInfo(\n      responsesPercentage,\n      notarizationFee,\n      notarizationTermsOfService,\n      uint32(block.timestamp)\n    );\n    notaries.push(notary);\n    orderStatus = OrderStatus.NotaryAdded;\n    return true;\n  }\n\n   /**\n    * @dev Adds a new DataResponse.\n    * @param seller Address of the Seller.\n    * @param notary Notary address that the Seller chooses to use as notary,\n    *        this must be one within the allowed notaries and within the\n    *        `DataOrder`'s notaries.\n    * @param dataHash Hash of the data that must be sent, this is a SHA256.\n    * @return Whether the DataResponse was set successfully or not.\n    */\n  function addDataResponse(\n    address seller,\n    address notary,\n    string dataHash\n  ) public onlyOwner validAddress(seller) validAddress(notary) returns (bool) {\n    require(orderStatus == OrderStatus.NotaryAdded);\n    require(transactionCompletedAt == 0);\n    require(!hasSellerBeenAccepted(seller));\n    require(hasNotaryBeenAdded(notary));\n\n    sellerInfo[seller] = SellerInfo(\n      notary,\n      dataHash,\n      uint32(block.timestamp),\n      0,\n      DataResponseStatus.DataResponseAdded\n    );\n\n    sellers.push(seller);\n\n    return true;\n  }\n\n  /**\n   * @dev Closes a DataResponse (aka close transaction). Once the buyer receives\n   *      the seller's data and checks that it is valid or not, he must signal\n   *      DataResponse as completed.\n   * @param seller Seller address.\n   * @param transactionCompleted True, if the seller got paid for his/her data.\n   * @return Whether the DataResponse was successfully closed or not.\n   */\n  function closeDataResponse(\n    address seller,\n    bool transactionCompleted\n  ) public onlyOwner validAddress(seller) returns (bool) {\n    require(orderStatus != OrderStatus.TransactionCompleted);\n    require(transactionCompletedAt == 0);\n    require(hasSellerBeenAccepted(seller));\n    require(sellerInfo[seller].status == DataResponseStatus.DataResponseAdded);\n\n    sellerInfo[seller].status = transactionCompleted\n      ? DataResponseStatus.TransactionCompleted\n      : DataResponseStatus.RefundedToBuyer;\n    sellerInfo[seller].closedAt = uint32(block.timestamp);\n    return true;\n  }\n\n  /**\n   * @dev Closes the Data order.\n   * @notice Once the `DataOrder` is closed it will no longer accepts new\n   *         `DataResponses` anymore.\n   * @return Whether the DataOrder was successfully closed or not.\n   */\n  function close() public onlyOwner returns (bool) {\n    require(orderStatus != OrderStatus.TransactionCompleted);\n    require(transactionCompletedAt == 0);\n    orderStatus = OrderStatus.TransactionCompleted;\n    transactionCompletedAt = uint32(block.timestamp);\n    return true;\n  }\n\n  /**\n   * @dev Gets wheater a `DataResponse` for a given the seller has been accepted\n   *      or not.\n   * @param seller Seller address.\n   * @return Whether the `DataResponse` was accepted or not.\n   */\n  function hasSellerBeenAccepted(\n    address seller\n  ) public view validAddress(seller) returns (bool) {\n    return sellerInfo[seller].createdAt != 0;\n  }\n\n  /**\n   * @dev Checks if the given notary was added to notarize this `DataOrder`.\n   * @param notary Notary address to check.\n   * @return Whether the notary was added or not.\n   */\n  function hasNotaryBeenAdded(\n    address notary\n  ) public view validAddress(notary) returns (bool) {\n    return notaryInfo[notary].addedAt != 0;\n  }\n\n  /**\n   * @dev Gets the notary information.\n   * @param notary Notary address to get info for.\n   * @return Notary Information.\n   */\n  function getNotaryInfo(\n    address notary\n  ) public view validAddress(notary) returns (\n    address,\n    uint256,\n    uint256,\n    string,\n    uint32\n  ) {\n    require(hasNotaryBeenAdded(notary));\n    NotaryInfo memory info = notaryInfo[notary];\n    return (\n      notary,\n      info.responsesPercentage,\n      info.notarizationFee,\n      info.notarizationTermsOfService,\n      uint32(info.addedAt)\n    );\n  }\n\n  /**\n   * @dev Gets the seller information.\n   * @param seller Seller address to get info for.\n   * @return Seller Information.\n   */\n  function getSellerInfo(\n    address seller\n  ) public view validAddress(seller) returns (\n    address,\n    address,\n    string,\n    uint32,\n    uint32,\n    bytes32\n  ) {\n    SellerInfo memory info = sellerInfo[seller];\n    require(info.createdAt != 0);\n    return (\n      seller,\n      info.notary,\n      info.dataHash,\n      uint32(info.createdAt),\n      uint32(info.closedAt),\n      getDataResponseStatusAsString(info.status)\n    );\n  }\n\n  /**\n   * @dev Gets the selected notary for the given seller.\n   * @param seller Seller address.\n   * @return Address of the notary assigned to the given seller.\n   */\n  function getNotaryForSeller(\n    address seller\n  ) public view validAddress(seller) returns (address) {\n    SellerInfo memory info = sellerInfo[seller];\n    require(info.createdAt != 0);\n    return info.notary;\n  }\n\n  function getDataResponseStatusAsString(\n    DataResponseStatus drs\n  ) internal pure returns (bytes32) {\n    if (drs == DataResponseStatus.DataResponseAdded) {\n      return bytes32(\"DataResponseAdded\");\n    }\n\n    if (drs == DataResponseStatus.RefundedToBuyer) {\n      return bytes32(\"RefundedToBuyer\");\n    }\n\n    if (drs == DataResponseStatus.TransactionCompleted) {\n      return bytes32(\"TransactionCompleted\");\n    }\n\n    revert();\n  }\n\n}\n",
  "sourcePath": "/Users/danifernandez/workspace/wibson-core/contracts/DataOrder.sol",
  "compiler": {
    "name": "solc",
    "version": "0.4.24+commit.e67f0147.Emscripten.clang"
  },
  "schemaVersion": "2.0.0",
  "updatedAt": "2018-07-07T00:12:12.362Z"
}